{
	".debug/1/0xE73d53e3a982ab2750A0b76F9012e18B256Cc243/N.sol": {
		"N": {
			"abi": [
				{
					"inputs": [],
					"stateMutability": "nonpayable",
					"type": "constructor"
				},
				{
					"anonymous": false,
					"inputs": [
						{
							"indexed": true,
							"internalType": "address",
							"name": "owner",
							"type": "address"
						},
						{
							"indexed": true,
							"internalType": "address",
							"name": "spender",
							"type": "address"
						},
						{
							"indexed": false,
							"internalType": "uint256",
							"name": "value",
							"type": "uint256"
						}
					],
					"name": "Approval",
					"type": "event"
				},
				{
					"anonymous": false,
					"inputs": [
						{
							"indexed": true,
							"internalType": "address",
							"name": "from",
							"type": "address"
						},
						{
							"indexed": true,
							"internalType": "address",
							"name": "to",
							"type": "address"
						},
						{
							"indexed": false,
							"internalType": "uint256",
							"name": "value",
							"type": "uint256"
						}
					],
					"name": "Transfer",
					"type": "event"
				},
				{
					"inputs": [
						{
							"internalType": "address",
							"name": "",
							"type": "address"
						},
						{
							"internalType": "address",
							"name": "",
							"type": "address"
						}
					],
					"name": "allowance",
					"outputs": [
						{
							"internalType": "uint256",
							"name": "",
							"type": "uint256"
						}
					],
					"stateMutability": "view",
					"type": "function"
				},
				{
					"inputs": [
						{
							"internalType": "address",
							"name": "_spender",
							"type": "address"
						},
						{
							"internalType": "uint256",
							"name": "_value",
							"type": "uint256"
						}
					],
					"name": "approve",
					"outputs": [
						{
							"internalType": "bool",
							"name": "success",
							"type": "bool"
						}
					],
					"stateMutability": "nonpayable",
					"type": "function"
				},
				{
					"inputs": [
						{
							"internalType": "address",
							"name": "",
							"type": "address"
						}
					],
					"name": "balanceOf",
					"outputs": [
						{
							"internalType": "uint256",
							"name": "",
							"type": "uint256"
						}
					],
					"stateMutability": "view",
					"type": "function"
				},
				{
					"inputs": [],
					"name": "decimals",
					"outputs": [
						{
							"internalType": "uint8",
							"name": "",
							"type": "uint8"
						}
					],
					"stateMutability": "view",
					"type": "function"
				},
				{
					"inputs": [],
					"name": "epoch",
					"outputs": [
						{
							"internalType": "uint8",
							"name": "",
							"type": "uint8"
						}
					],
					"stateMutability": "view",
					"type": "function"
				},
				{
					"inputs": [],
					"name": "lastDoublingBlock",
					"outputs": [
						{
							"internalType": "uint256",
							"name": "",
							"type": "uint256"
						}
					],
					"stateMutability": "view",
					"type": "function"
				},
				{
					"inputs": [],
					"name": "lastMintingBlock",
					"outputs": [
						{
							"internalType": "uint256",
							"name": "",
							"type": "uint256"
						}
					],
					"stateMutability": "view",
					"type": "function"
				},
				{
					"inputs": [],
					"name": "mint",
					"outputs": [],
					"stateMutability": "nonpayable",
					"type": "function"
				},
				{
					"inputs": [],
					"name": "name",
					"outputs": [
						{
							"internalType": "string",
							"name": "",
							"type": "string"
						}
					],
					"stateMutability": "view",
					"type": "function"
				},
				{
					"inputs": [],
					"name": "nextDoublingBlock",
					"outputs": [
						{
							"internalType": "uint256",
							"name": "",
							"type": "uint256"
						}
					],
					"stateMutability": "view",
					"type": "function"
				},
				{
					"inputs": [],
					"name": "symbol",
					"outputs": [
						{
							"internalType": "string",
							"name": "",
							"type": "string"
						}
					],
					"stateMutability": "view",
					"type": "function"
				},
				{
					"inputs": [],
					"name": "totalSupply",
					"outputs": [
						{
							"internalType": "uint256",
							"name": "",
							"type": "uint256"
						}
					],
					"stateMutability": "view",
					"type": "function"
				},
				{
					"inputs": [
						{
							"internalType": "address",
							"name": "_to",
							"type": "address"
						},
						{
							"internalType": "uint256",
							"name": "_value",
							"type": "uint256"
						}
					],
					"name": "transfer",
					"outputs": [
						{
							"internalType": "bool",
							"name": "success",
							"type": "bool"
						}
					],
					"stateMutability": "nonpayable",
					"type": "function"
				},
				{
					"inputs": [
						{
							"internalType": "address",
							"name": "_from",
							"type": "address"
						},
						{
							"internalType": "address",
							"name": "_to",
							"type": "address"
						},
						{
							"internalType": "uint256",
							"name": "_value",
							"type": "uint256"
						}
					],
					"name": "transferFrom",
					"outputs": [
						{
							"internalType": "bool",
							"name": "success",
							"type": "bool"
						}
					],
					"stateMutability": "nonpayable",
					"type": "function"
				}
			],
			"devdoc": {
				"kind": "dev",
				"methods": {},
				"version": 1
			},
			"evm": {
				"assembly": "    /* \".debug/1/0xE73d53e3a982ab2750A0b76F9012e18B256Cc243/N.sol\":860:3617  contract N {... */\n  mstore(0x40, 0x80)\n    /* \".debug/1/0xE73d53e3a982ab2750A0b76F9012e18B256Cc243/N.sol\":878:902  string public name = \"N\" */\n  mload(0x40)\n  dup1\n  0x40\n  add\n  0x40\n  mstore\n  dup1\n  0x01\n  dup2\n  mstore\n  0x20\n  add\n  0x4e00000000000000000000000000000000000000000000000000000000000000\n  dup2\n  mstore\n  pop\n  0x00\n  swap1\n  dup2\n  tag_1\n  swap2\n  swap1\n  tag_2\n  jump\t// in\ntag_1:\n  pop\n    /* \".debug/1/0xE73d53e3a982ab2750A0b76F9012e18B256Cc243/N.sol\":909:935  string public symbol = \"N\" */\n  mload(0x40)\n  dup1\n  0x40\n  add\n  0x40\n  mstore\n  dup1\n  0x01\n  dup2\n  mstore\n  0x20\n  add\n  0x4e00000000000000000000000000000000000000000000000000000000000000\n  dup2\n  mstore\n  pop\n  0x01\n  swap1\n  dup2\n  tag_3\n  swap2\n  swap1\n  tag_2\n  jump\t// in\ntag_3:\n  pop\n    /* \".debug/1/0xE73d53e3a982ab2750A0b76F9012e18B256Cc243/N.sol\":966:968  18 */\n  0x12\n    /* \".debug/1/0xE73d53e3a982ab2750A0b76F9012e18B256Cc243/N.sol\":942:968  uint8 public decimals = 18 */\n  0x02\n  exp(0x0100, 0x00)\n  dup2\n  sload\n  dup2\n  0xff\n  mul\n  not\n  and\n  swap1\n  dup4\n  0xff\n  and\n  mul\n  or\n  swap1\n  sstore\n  pop\n    /* \".debug/1/0xE73d53e3a982ab2750A0b76F9012e18B256Cc243/N.sol\":1029:1030  0 */\n  0x00\n    /* \".debug/1/0xE73d53e3a982ab2750A0b76F9012e18B256Cc243/N.sol\":1008:1030  uint8 public epoch = 0 */\n  0x04\n  exp(0x0100, 0x00)\n  dup2\n  sload\n  dup2\n  0xff\n  mul\n  not\n  and\n  swap1\n  dup4\n  0xff\n  and\n  mul\n  or\n  swap1\n  sstore\n  pop\n    /* \".debug/1/0xE73d53e3a982ab2750A0b76F9012e18B256Cc243/N.sol\":1449:1820  constructor() {... */\n  callvalue\n  dup1\n  iszero\n  tag_4\n  jumpi\n  revert(0x00, 0x00)\ntag_4:\n  pop\n    /* \".debug/1/0xE73d53e3a982ab2750A0b76F9012e18B256Cc243/N.sol\":1488:1492  1e18 */\n  0x0de0b6b3a7640000\n    /* \".debug/1/0xE73d53e3a982ab2750A0b76F9012e18B256Cc243/N.sol\":1474:1485  totalSupply */\n  0x03\n    /* \".debug/1/0xE73d53e3a982ab2750A0b76F9012e18B256Cc243/N.sol\":1474:1492  totalSupply = 1e18 */\n  dup2\n  swap1\n  sstore\n  pop\n    /* \".debug/1/0xE73d53e3a982ab2750A0b76F9012e18B256Cc243/N.sol\":1527:1538  totalSupply */\n  sload(0x03)\n    /* \".debug/1/0xE73d53e3a982ab2750A0b76F9012e18B256Cc243/N.sol\":1503:1512  balanceOf */\n  0x08\n    /* \".debug/1/0xE73d53e3a982ab2750A0b76F9012e18B256Cc243/N.sol\":1503:1524  balanceOf[msg.sender] */\n  0x00\n    /* \".debug/1/0xE73d53e3a982ab2750A0b76F9012e18B256Cc243/N.sol\":1513:1523  msg.sender */\n  caller\n    /* \".debug/1/0xE73d53e3a982ab2750A0b76F9012e18B256Cc243/N.sol\":1503:1524  balanceOf[msg.sender] */\n  0xffffffffffffffffffffffffffffffffffffffff\n  and\n  0xffffffffffffffffffffffffffffffffffffffff\n  and\n  dup2\n  mstore\n  0x20\n  add\n  swap1\n  dup2\n  mstore\n  0x20\n  add\n  0x00\n  keccak256\n    /* \".debug/1/0xE73d53e3a982ab2750A0b76F9012e18B256Cc243/N.sol\":1503:1538  balanceOf[msg.sender] = totalSupply */\n  dup2\n  swap1\n  sstore\n  pop\n    /* \".debug/1/0xE73d53e3a982ab2750A0b76F9012e18B256Cc243/N.sol\":1575:1585  msg.sender */\n  caller\n    /* \".debug/1/0xE73d53e3a982ab2750A0b76F9012e18B256Cc243/N.sol\":1554:1599  Transfer(address(0), msg.sender, totalSupply) */\n  0xffffffffffffffffffffffffffffffffffffffff\n  and\n    /* \".debug/1/0xE73d53e3a982ab2750A0b76F9012e18B256Cc243/N.sol\":1571:1572  0 */\n  0x00\n    /* \".debug/1/0xE73d53e3a982ab2750A0b76F9012e18B256Cc243/N.sol\":1554:1599  Transfer(address(0), msg.sender, totalSupply) */\n  0xffffffffffffffffffffffffffffffffffffffff\n  and\n  0xddf252ad1be2c89b69c2b068fc378daa952ba7f163c4a11628f55a4df523b3ef\n    /* \".debug/1/0xE73d53e3a982ab2750A0b76F9012e18B256Cc243/N.sol\":1587:1598  totalSupply */\n  sload(0x03)\n    /* \".debug/1/0xE73d53e3a982ab2750A0b76F9012e18B256Cc243/N.sol\":1554:1599  Transfer(address(0), msg.sender, totalSupply) */\n  mload(0x40)\n  tag_7\n  swap2\n  swap1\n  tag_8\n  jump\t// in\ntag_7:\n  mload(0x40)\n  dup1\n  swap2\n  sub\n  swap1\n  log3\n    /* \".debug/1/0xE73d53e3a982ab2750A0b76F9012e18B256Cc243/N.sol\":1630:1642  block.number */\n  number\n    /* \".debug/1/0xE73d53e3a982ab2750A0b76F9012e18B256Cc243/N.sol\":1610:1627  lastDoublingBlock */\n  0x05\n    /* \".debug/1/0xE73d53e3a982ab2750A0b76F9012e18B256Cc243/N.sol\":1610:1642  lastDoublingBlock = block.number */\n  dup2\n  swap1\n  sstore\n  pop\n    /* \".debug/1/0xE73d53e3a982ab2750A0b76F9012e18B256Cc243/N.sol\":1688:1696  10519200 */\n  0xa082a0\n    /* \".debug/1/0xE73d53e3a982ab2750A0b76F9012e18B256Cc243/N.sol\":1673:1685  block.number */\n  number\n    /* \".debug/1/0xE73d53e3a982ab2750A0b76F9012e18B256Cc243/N.sol\":1673:1696  block.number + 10519200 */\n  tag_9\n  swap2\n  swap1\n  tag_10\n  jump\t// in\ntag_9:\n    /* \".debug/1/0xE73d53e3a982ab2750A0b76F9012e18B256Cc243/N.sol\":1653:1670  nextDoublingBlock */\n  0x06\n    /* \".debug/1/0xE73d53e3a982ab2750A0b76F9012e18B256Cc243/N.sol\":1653:1696  nextDoublingBlock = block.number + 10519200 */\n  dup2\n  swap1\n  sstore\n  pop\n    /* \".debug/1/0xE73d53e3a982ab2750A0b76F9012e18B256Cc243/N.sol\":1800:1812  block.number */\n  number\n    /* \".debug/1/0xE73d53e3a982ab2750A0b76F9012e18B256Cc243/N.sol\":1781:1797  lastMintingBlock */\n  0x07\n    /* \".debug/1/0xE73d53e3a982ab2750A0b76F9012e18B256Cc243/N.sol\":1781:1812  lastMintingBlock = block.number */\n  dup2\n  swap1\n  sstore\n  pop\n    /* \".debug/1/0xE73d53e3a982ab2750A0b76F9012e18B256Cc243/N.sol\":860:3617  contract N {... */\n  jump(tag_11)\n    /* \"#utility.yul\":7:106   */\ntag_12:\n    /* \"#utility.yul\":59:65   */\n  0x00\n    /* \"#utility.yul\":93:98   */\n  dup2\n    /* \"#utility.yul\":87:99   */\n  mload\n    /* \"#utility.yul\":77:99   */\n  swap1\n  pop\n    /* \"#utility.yul\":7:106   */\n  swap2\n  swap1\n  pop\n  jump\t// out\n    /* \"#utility.yul\":112:292   */\ntag_13:\n    /* \"#utility.yul\":160:237   */\n  0x4e487b7100000000000000000000000000000000000000000000000000000000\n    /* \"#utility.yul\":157:158   */\n  0x00\n    /* \"#utility.yul\":150:238   */\n  mstore\n    /* \"#utility.yul\":257:261   */\n  0x41\n    /* \"#utility.yul\":254:255   */\n  0x04\n    /* \"#utility.yul\":247:262   */\n  mstore\n    /* \"#utility.yul\":281:285   */\n  0x24\n    /* \"#utility.yul\":278:279   */\n  0x00\n    /* \"#utility.yul\":271:286   */\n  revert\n    /* \"#utility.yul\":298:478   */\ntag_14:\n    /* \"#utility.yul\":346:423   */\n  0x4e487b7100000000000000000000000000000000000000000000000000000000\n    /* \"#utility.yul\":343:344   */\n  0x00\n    /* \"#utility.yul\":336:424   */\n  mstore\n    /* \"#utility.yul\":443:447   */\n  0x22\n    /* \"#utility.yul\":440:441   */\n  0x04\n    /* \"#utility.yul\":433:448   */\n  mstore\n    /* \"#utility.yul\":467:471   */\n  0x24\n    /* \"#utility.yul\":464:465   */\n  0x00\n    /* \"#utility.yul\":457:472   */\n  revert\n    /* \"#utility.yul\":484:804   */\ntag_15:\n    /* \"#utility.yul\":528:534   */\n  0x00\n    /* \"#utility.yul\":565:566   */\n  0x02\n    /* \"#utility.yul\":559:563   */\n  dup3\n    /* \"#utility.yul\":555:567   */\n  div\n    /* \"#utility.yul\":545:567   */\n  swap1\n  pop\n    /* \"#utility.yul\":612:613   */\n  0x01\n    /* \"#utility.yul\":606:610   */\n  dup3\n    /* \"#utility.yul\":602:614   */\n  and\n    /* \"#utility.yul\":633:651   */\n  dup1\n    /* \"#utility.yul\":623:704   */\n  tag_39\n  jumpi\n    /* \"#utility.yul\":689:693   */\n  0x7f\n    /* \"#utility.yul\":681:687   */\n  dup3\n    /* \"#utility.yul\":677:694   */\n  and\n    /* \"#utility.yul\":667:694   */\n  swap2\n  pop\n    /* \"#utility.yul\":623:704   */\ntag_39:\n    /* \"#utility.yul\":751:753   */\n  0x20\n    /* \"#utility.yul\":743:749   */\n  dup3\n    /* \"#utility.yul\":740:754   */\n  lt\n    /* \"#utility.yul\":720:738   */\n  dup2\n    /* \"#utility.yul\":717:755   */\n  sub\n    /* \"#utility.yul\":714:798   */\n  tag_40\n  jumpi\n    /* \"#utility.yul\":770:788   */\n  tag_41\n  tag_14\n  jump\t// in\ntag_41:\n    /* \"#utility.yul\":714:798   */\ntag_40:\n    /* \"#utility.yul\":535:804   */\n  pop\n    /* \"#utility.yul\":484:804   */\n  swap2\n  swap1\n  pop\n  jump\t// out\n    /* \"#utility.yul\":810:951   */\ntag_16:\n    /* \"#utility.yul\":859:863   */\n  0x00\n    /* \"#utility.yul\":882:885   */\n  dup2\n    /* \"#utility.yul\":874:885   */\n  swap1\n  pop\n    /* \"#utility.yul\":905:908   */\n  dup2\n    /* \"#utility.yul\":902:903   */\n  0x00\n    /* \"#utility.yul\":895:909   */\n  mstore\n    /* \"#utility.yul\":939:943   */\n  0x20\n    /* \"#utility.yul\":936:937   */\n  0x00\n    /* \"#utility.yul\":926:944   */\n  keccak256\n    /* \"#utility.yul\":918:944   */\n  swap1\n  pop\n    /* \"#utility.yul\":810:951   */\n  swap2\n  swap1\n  pop\n  jump\t// out\n    /* \"#utility.yul\":957:1050   */\ntag_17:\n    /* \"#utility.yul\":994:1000   */\n  0x00\n    /* \"#utility.yul\":1041:1043   */\n  0x20\n    /* \"#utility.yul\":1036:1038   */\n  0x1f\n    /* \"#utility.yul\":1029:1034   */\n  dup4\n    /* \"#utility.yul\":1025:1039   */\n  add\n    /* \"#utility.yul\":1021:1044   */\n  div\n    /* \"#utility.yul\":1011:1044   */\n  swap1\n  pop\n    /* \"#utility.yul\":957:1050   */\n  swap2\n  swap1\n  pop\n  jump\t// out\n    /* \"#utility.yul\":1056:1163   */\ntag_18:\n    /* \"#utility.yul\":1100:1108   */\n  0x00\n    /* \"#utility.yul\":1150:1155   */\n  dup3\n    /* \"#utility.yul\":1144:1148   */\n  dup3\n    /* \"#utility.yul\":1140:1156   */\n  shl\n    /* \"#utility.yul\":1119:1156   */\n  swap1\n  pop\n    /* \"#utility.yul\":1056:1163   */\n  swap3\n  swap2\n  pop\n  pop\n  jump\t// out\n    /* \"#utility.yul\":1169:1562   */\ntag_19:\n    /* \"#utility.yul\":1238:1244   */\n  0x00\n    /* \"#utility.yul\":1288:1289   */\n  0x08\n    /* \"#utility.yul\":1276:1286   */\n  dup4\n    /* \"#utility.yul\":1272:1290   */\n  mul\n    /* \"#utility.yul\":1311:1408   */\n  tag_46\n    /* \"#utility.yul\":1341:1407   */\n  0xffffffffffffffffffffffffffffffffffffffffffffffffffffffffffffffff\n    /* \"#utility.yul\":1330:1339   */\n  dup3\n    /* \"#utility.yul\":1311:1408   */\n  tag_18\n  jump\t// in\ntag_46:\n    /* \"#utility.yul\":1429:1468   */\n  tag_47\n    /* \"#utility.yul\":1459:1467   */\n  dup7\n    /* \"#utility.yul\":1448:1457   */\n  dup4\n    /* \"#utility.yul\":1429:1468   */\n  tag_18\n  jump\t// in\ntag_47:\n    /* \"#utility.yul\":1417:1468   */\n  swap6\n  pop\n    /* \"#utility.yul\":1501:1505   */\n  dup1\n    /* \"#utility.yul\":1497:1506   */\n  not\n    /* \"#utility.yul\":1490:1495   */\n  dup5\n    /* \"#utility.yul\":1486:1507   */\n  and\n    /* \"#utility.yul\":1477:1507   */\n  swap4\n  pop\n    /* \"#utility.yul\":1550:1554   */\n  dup1\n    /* \"#utility.yul\":1540:1548   */\n  dup7\n    /* \"#utility.yul\":1536:1555   */\n  and\n    /* \"#utility.yul\":1529:1534   */\n  dup5\n    /* \"#utility.yul\":1526:1556   */\n  or\n    /* \"#utility.yul\":1516:1556   */\n  swap3\n  pop\n    /* \"#utility.yul\":1245:1562   */\n  pop\n  pop\n    /* \"#utility.yul\":1169:1562   */\n  swap4\n  swap3\n  pop\n  pop\n  pop\n  jump\t// out\n    /* \"#utility.yul\":1568:1645   */\ntag_20:\n    /* \"#utility.yul\":1605:1612   */\n  0x00\n    /* \"#utility.yul\":1634:1639   */\n  dup2\n    /* \"#utility.yul\":1623:1639   */\n  swap1\n  pop\n    /* \"#utility.yul\":1568:1645   */\n  swap2\n  swap1\n  pop\n  jump\t// out\n    /* \"#utility.yul\":1651:1711   */\ntag_21:\n    /* \"#utility.yul\":1679:1682   */\n  0x00\n    /* \"#utility.yul\":1700:1705   */\n  dup2\n    /* \"#utility.yul\":1693:1705   */\n  swap1\n  pop\n    /* \"#utility.yul\":1651:1711   */\n  swap2\n  swap1\n  pop\n  jump\t// out\n    /* \"#utility.yul\":1717:1859   */\ntag_22:\n    /* \"#utility.yul\":1767:1776   */\n  0x00\n    /* \"#utility.yul\":1800:1853   */\n  tag_51\n    /* \"#utility.yul\":1818:1852   */\n  tag_52\n    /* \"#utility.yul\":1827:1851   */\n  tag_53\n    /* \"#utility.yul\":1845:1850   */\n  dup5\n    /* \"#utility.yul\":1827:1851   */\n  tag_20\n  jump\t// in\ntag_53:\n    /* \"#utility.yul\":1818:1852   */\n  tag_21\n  jump\t// in\ntag_52:\n    /* \"#utility.yul\":1800:1853   */\n  tag_20\n  jump\t// in\ntag_51:\n    /* \"#utility.yul\":1787:1853   */\n  swap1\n  pop\n    /* \"#utility.yul\":1717:1859   */\n  swap2\n  swap1\n  pop\n  jump\t// out\n    /* \"#utility.yul\":1865:1940   */\ntag_23:\n    /* \"#utility.yul\":1908:1911   */\n  0x00\n    /* \"#utility.yul\":1929:1934   */\n  dup2\n    /* \"#utility.yul\":1922:1934   */\n  swap1\n  pop\n    /* \"#utility.yul\":1865:1940   */\n  swap2\n  swap1\n  pop\n  jump\t// out\n    /* \"#utility.yul\":1946:2215   */\ntag_24:\n    /* \"#utility.yul\":2056:2095   */\n  tag_56\n    /* \"#utility.yul\":2087:2094   */\n  dup4\n    /* \"#utility.yul\":2056:2095   */\n  tag_22\n  jump\t// in\ntag_56:\n    /* \"#utility.yul\":2117:2208   */\n  tag_57\n    /* \"#utility.yul\":2166:2207   */\n  tag_58\n    /* \"#utility.yul\":2190:2206   */\n  dup3\n    /* \"#utility.yul\":2166:2207   */\n  tag_23\n  jump\t// in\ntag_58:\n    /* \"#utility.yul\":2158:2164   */\n  dup5\n    /* \"#utility.yul\":2151:2155   */\n  dup5\n    /* \"#utility.yul\":2145:2156   */\n  sload\n    /* \"#utility.yul\":2117:2208   */\n  tag_19\n  jump\t// in\ntag_57:\n    /* \"#utility.yul\":2111:2115   */\n  dup3\n    /* \"#utility.yul\":2104:2209   */\n  sstore\n    /* \"#utility.yul\":2022:2215   */\n  pop\n    /* \"#utility.yul\":1946:2215   */\n  pop\n  pop\n  pop\n  jump\t// out\n    /* \"#utility.yul\":2221:2294   */\ntag_25:\n    /* \"#utility.yul\":2266:2269   */\n  0x00\n    /* \"#utility.yul\":2287:2288   */\n  0x00\n    /* \"#utility.yul\":2280:2288   */\n  swap1\n  pop\n    /* \"#utility.yul\":2221:2294   */\n  swap1\n  jump\t// out\n    /* \"#utility.yul\":2300:2489   */\ntag_26:\n    /* \"#utility.yul\":2377:2409   */\n  tag_61\n  tag_25\n  jump\t// in\ntag_61:\n    /* \"#utility.yul\":2418:2483   */\n  tag_62\n    /* \"#utility.yul\":2476:2482   */\n  dup2\n    /* \"#utility.yul\":2468:2474   */\n  dup5\n    /* \"#utility.yul\":2462:2466   */\n  dup5\n    /* \"#utility.yul\":2418:2483   */\n  tag_24\n  jump\t// in\ntag_62:\n    /* \"#utility.yul\":2353:2489   */\n  pop\n    /* \"#utility.yul\":2300:2489   */\n  pop\n  pop\n  jump\t// out\n    /* \"#utility.yul\":2495:2709   */\ntag_27:\n    /* \"#utility.yul\":2580:2581   */\n  0x00\n    /* \"#utility.yul\":2565:2703   */\ntag_64:\n    /* \"#utility.yul\":2590:2599   */\n  dup3\n    /* \"#utility.yul\":2587:2588   */\n  dup2\n    /* \"#utility.yul\":2584:2600   */\n  lt\n    /* \"#utility.yul\":2565:2703   */\n  iszero\n  tag_66\n  jumpi\n    /* \"#utility.yul\":2642:2693   */\n  tag_67\n    /* \"#utility.yul\":2691:2692   */\n  0x00\n    /* \"#utility.yul\":2687:2688   */\n  dup3\n    /* \"#utility.yul\":2676:2685   */\n  dup5\n    /* \"#utility.yul\":2672:2689   */\n  add\n    /* \"#utility.yul\":2642:2693   */\n  tag_26\n  jump\t// in\ntag_67:\n    /* \"#utility.yul\":2615:2616   */\n  0x01\n    /* \"#utility.yul\":2612:2613   */\n  dup2\n    /* \"#utility.yul\":2608:2617   */\n  add\n    /* \"#utility.yul\":2603:2617   */\n  swap1\n  pop\n    /* \"#utility.yul\":2565:2703   */\n  jump(tag_64)\ntag_66:\n    /* \"#utility.yul\":2569:2583   */\n  pop\n    /* \"#utility.yul\":2495:2709   */\n  pop\n  pop\n  jump\t// out\n    /* \"#utility.yul\":2715:3461   */\ntag_28:\n    /* \"#utility.yul\":2816:2818   */\n  0x1f\n    /* \"#utility.yul\":2811:2814   */\n  dup3\n    /* \"#utility.yul\":2808:2819   */\n  gt\n    /* \"#utility.yul\":2805:3454   */\n  iszero\n  tag_69\n  jumpi\n    /* \"#utility.yul\":2845:2855   */\n  dup3\n    /* \"#utility.yul\":2840:2843   */\n  dup3\n    /* \"#utility.yul\":2837:2856   */\n  gt\n    /* \"#utility.yul\":2834:3444   */\n  iszero\n  tag_70\n  jumpi\n    /* \"#utility.yul\":2891:2929   */\n  tag_71\n    /* \"#utility.yul\":2923:2928   */\n  dup2\n    /* \"#utility.yul\":2891:2929   */\n  tag_16\n  jump\t// in\ntag_71:\n    /* \"#utility.yul\":2966:2988   */\n  tag_72\n    /* \"#utility.yul\":2984:2987   */\n  dup4\n    /* \"#utility.yul\":2966:2988   */\n  tag_17\n  jump\t// in\ntag_72:\n    /* \"#utility.yul\":3025:3054   */\n  tag_73\n    /* \"#utility.yul\":3043:3053   */\n  dup6\n    /* \"#utility.yul\":3025:3054   */\n  tag_17\n  jump\t// in\ntag_73:\n    /* \"#utility.yul\":3215:3217   */\n  0x20\n    /* \"#utility.yul\":3203:3213   */\n  dup7\n    /* \"#utility.yul\":3200:3218   */\n  lt\n    /* \"#utility.yul\":3197:3276   */\n  iszero\n  tag_74\n  jumpi\n    /* \"#utility.yul\":3257:3258   */\n  0x00\n    /* \"#utility.yul\":3241:3258   */\n  swap1\n  pop\n    /* \"#utility.yul\":3197:3276   */\ntag_74:\n    /* \"#utility.yul\":3326:3338   */\n  dup1\n    /* \"#utility.yul\":3316:3324   */\n  dup4\n    /* \"#utility.yul\":3312:3339   */\n  add\n    /* \"#utility.yul\":3356:3430   */\n  tag_75\n    /* \"#utility.yul\":3416:3428   */\n  dup3\n    /* \"#utility.yul\":3402:3414   */\n  dup5\n    /* \"#utility.yul\":3398:3429   */\n  sub\n    /* \"#utility.yul\":3385:3396   */\n  dup3\n    /* \"#utility.yul\":3356:3430   */\n  tag_27\n  jump\t// in\ntag_75:\n    /* \"#utility.yul\":2857:3444   */\n  pop\n  pop\n  pop\n  pop\n    /* \"#utility.yul\":2834:3444   */\ntag_70:\n    /* \"#utility.yul\":2805:3454   */\ntag_69:\n    /* \"#utility.yul\":2715:3461   */\n  pop\n  pop\n  pop\n  jump\t// out\n    /* \"#utility.yul\":3467:3584   */\ntag_29:\n    /* \"#utility.yul\":3521:3529   */\n  0x00\n    /* \"#utility.yul\":3571:3576   */\n  dup3\n    /* \"#utility.yul\":3565:3569   */\n  dup3\n    /* \"#utility.yul\":3561:3577   */\n  shr\n    /* \"#utility.yul\":3540:3577   */\n  swap1\n  pop\n    /* \"#utility.yul\":3467:3584   */\n  swap3\n  swap2\n  pop\n  pop\n  jump\t// out\n    /* \"#utility.yul\":3590:3759   */\ntag_30:\n    /* \"#utility.yul\":3634:3640   */\n  0x00\n    /* \"#utility.yul\":3667:3718   */\n  tag_78\n    /* \"#utility.yul\":3715:3716   */\n  0x00\n    /* \"#utility.yul\":3711:3717   */\n  not\n    /* \"#utility.yul\":3703:3708   */\n  dup5\n    /* \"#utility.yul\":3700:3701   */\n  0x08\n    /* \"#utility.yul\":3696:3709   */\n  mul\n    /* \"#utility.yul\":3667:3718   */\n  tag_29\n  jump\t// in\ntag_78:\n    /* \"#utility.yul\":3663:3719   */\n  not\n    /* \"#utility.yul\":3748:3752   */\n  dup1\n    /* \"#utility.yul\":3742:3746   */\n  dup4\n    /* \"#utility.yul\":3738:3753   */\n  and\n    /* \"#utility.yul\":3728:3753   */\n  swap2\n  pop\n    /* \"#utility.yul\":3641:3759   */\n  pop\n    /* \"#utility.yul\":3590:3759   */\n  swap3\n  swap2\n  pop\n  pop\n  jump\t// out\n    /* \"#utility.yul\":3764:4059   */\ntag_31:\n    /* \"#utility.yul\":3840:3844   */\n  0x00\n    /* \"#utility.yul\":3986:4015   */\n  tag_80\n    /* \"#utility.yul\":4011:4014   */\n  dup4\n    /* \"#utility.yul\":4005:4009   */\n  dup4\n    /* \"#utility.yul\":3986:4015   */\n  tag_30\n  jump\t// in\ntag_80:\n    /* \"#utility.yul\":3978:4015   */\n  swap2\n  pop\n    /* \"#utility.yul\":4048:4051   */\n  dup3\n    /* \"#utility.yul\":4045:4046   */\n  0x02\n    /* \"#utility.yul\":4041:4052   */\n  mul\n    /* \"#utility.yul\":4035:4039   */\n  dup3\n    /* \"#utility.yul\":4032:4053   */\n  or\n    /* \"#utility.yul\":4024:4053   */\n  swap1\n  pop\n    /* \"#utility.yul\":3764:4059   */\n  swap3\n  swap2\n  pop\n  pop\n  jump\t// out\n    /* \"#utility.yul\":4064:5459   */\ntag_2:\n    /* \"#utility.yul\":4181:4218   */\n  tag_82\n    /* \"#utility.yul\":4214:4217   */\n  dup3\n    /* \"#utility.yul\":4181:4218   */\n  tag_12\n  jump\t// in\ntag_82:\n    /* \"#utility.yul\":4283:4301   */\n  0xffffffffffffffff\n    /* \"#utility.yul\":4275:4281   */\n  dup2\n    /* \"#utility.yul\":4272:4302   */\n  gt\n    /* \"#utility.yul\":4269:4325   */\n  iszero\n  tag_83\n  jumpi\n    /* \"#utility.yul\":4305:4323   */\n  tag_84\n  tag_13\n  jump\t// in\ntag_84:\n    /* \"#utility.yul\":4269:4325   */\ntag_83:\n    /* \"#utility.yul\":4349:4387   */\n  tag_85\n    /* \"#utility.yul\":4381:4385   */\n  dup3\n    /* \"#utility.yul\":4375:4386   */\n  sload\n    /* \"#utility.yul\":4349:4387   */\n  tag_15\n  jump\t// in\ntag_85:\n    /* \"#utility.yul\":4434:4501   */\n  tag_86\n    /* \"#utility.yul\":4494:4500   */\n  dup3\n    /* \"#utility.yul\":4486:4492   */\n  dup3\n    /* \"#utility.yul\":4480:4484   */\n  dup6\n    /* \"#utility.yul\":4434:4501   */\n  tag_28\n  jump\t// in\ntag_86:\n    /* \"#utility.yul\":4528:4529   */\n  0x00\n    /* \"#utility.yul\":4552:4556   */\n  0x20\n    /* \"#utility.yul\":4539:4556   */\n  swap1\n  pop\n    /* \"#utility.yul\":4584:4586   */\n  0x1f\n    /* \"#utility.yul\":4576:4582   */\n  dup4\n    /* \"#utility.yul\":4573:4587   */\n  gt\n    /* \"#utility.yul\":4601:4602   */\n  0x01\n    /* \"#utility.yul\":4596:5214   */\n  dup2\n  eq\n  tag_88\n  jumpi\n    /* \"#utility.yul\":5258:5259   */\n  0x00\n    /* \"#utility.yul\":5275:5281   */\n  dup5\n    /* \"#utility.yul\":5272:5349   */\n  iszero\n  tag_89\n  jumpi\n    /* \"#utility.yul\":5324:5333   */\n  dup3\n    /* \"#utility.yul\":5319:5322   */\n  dup8\n    /* \"#utility.yul\":5315:5334   */\n  add\n    /* \"#utility.yul\":5309:5335   */\n  mload\n    /* \"#utility.yul\":5300:5335   */\n  swap1\n  pop\n    /* \"#utility.yul\":5272:5349   */\ntag_89:\n    /* \"#utility.yul\":5375:5442   */\n  tag_90\n    /* \"#utility.yul\":5435:5441   */\n  dup6\n    /* \"#utility.yul\":5428:5433   */\n  dup3\n    /* \"#utility.yul\":5375:5442   */\n  tag_31\n  jump\t// in\ntag_90:\n    /* \"#utility.yul\":5369:5373   */\n  dup7\n    /* \"#utility.yul\":5362:5443   */\n  sstore\n    /* \"#utility.yul\":5231:5453   */\n  pop\n    /* \"#utility.yul\":4566:5453   */\n  jump(tag_87)\n    /* \"#utility.yul\":4596:5214   */\ntag_88:\n    /* \"#utility.yul\":4648:4652   */\n  0x1f\n    /* \"#utility.yul\":4644:4653   */\n  not\n    /* \"#utility.yul\":4636:4642   */\n  dup5\n    /* \"#utility.yul\":4632:4654   */\n  and\n    /* \"#utility.yul\":4682:4719   */\n  tag_91\n    /* \"#utility.yul\":4714:4718   */\n  dup7\n    /* \"#utility.yul\":4682:4719   */\n  tag_16\n  jump\t// in\ntag_91:\n    /* \"#utility.yul\":4741:4742   */\n  0x00\n    /* \"#utility.yul\":4755:4963   */\ntag_92:\n    /* \"#utility.yul\":4769:4776   */\n  dup3\n    /* \"#utility.yul\":4766:4767   */\n  dup2\n    /* \"#utility.yul\":4763:4777   */\n  lt\n    /* \"#utility.yul\":4755:4963   */\n  iszero\n  tag_94\n  jumpi\n    /* \"#utility.yul\":4848:4857   */\n  dup5\n    /* \"#utility.yul\":4843:4846   */\n  dup10\n    /* \"#utility.yul\":4839:4858   */\n  add\n    /* \"#utility.yul\":4833:4859   */\n  mload\n    /* \"#utility.yul\":4825:4831   */\n  dup3\n    /* \"#utility.yul\":4818:4860   */\n  sstore\n    /* \"#utility.yul\":4899:4900   */\n  0x01\n    /* \"#utility.yul\":4891:4897   */\n  dup3\n    /* \"#utility.yul\":4887:4901   */\n  add\n    /* \"#utility.yul\":4877:4901   */\n  swap2\n  pop\n    /* \"#utility.yul\":4946:4948   */\n  0x20\n    /* \"#utility.yul\":4935:4944   */\n  dup6\n    /* \"#utility.yul\":4931:4949   */\n  add\n    /* \"#utility.yul\":4918:4949   */\n  swap5\n  pop\n    /* \"#utility.yul\":4792:4796   */\n  0x20\n    /* \"#utility.yul\":4789:4790   */\n  dup2\n    /* \"#utility.yul\":4785:4797   */\n  add\n    /* \"#utility.yul\":4780:4797   */\n  swap1\n  pop\n    /* \"#utility.yul\":4755:4963   */\n  jump(tag_92)\ntag_94:\n    /* \"#utility.yul\":4991:4997   */\n  dup7\n    /* \"#utility.yul\":4982:4989   */\n  dup4\n    /* \"#utility.yul\":4979:4998   */\n  lt\n    /* \"#utility.yul\":4976:5155   */\n  iszero\n  tag_95\n  jumpi\n    /* \"#utility.yul\":5049:5058   */\n  dup5\n    /* \"#utility.yul\":5044:5047   */\n  dup10\n    /* \"#utility.yul\":5040:5059   */\n  add\n    /* \"#utility.yul\":5034:5060   */\n  mload\n    /* \"#utility.yul\":5092:5140   */\n  tag_96\n    /* \"#utility.yul\":5134:5138   */\n  0x1f\n    /* \"#utility.yul\":5126:5132   */\n  dup10\n    /* \"#utility.yul\":5122:5139   */\n  and\n    /* \"#utility.yul\":5111:5120   */\n  dup3\n    /* \"#utility.yul\":5092:5140   */\n  tag_30\n  jump\t// in\ntag_96:\n    /* \"#utility.yul\":5084:5090   */\n  dup4\n    /* \"#utility.yul\":5077:5141   */\n  sstore\n    /* \"#utility.yul\":4999:5155   */\n  pop\n    /* \"#utility.yul\":4976:5155   */\ntag_95:\n    /* \"#utility.yul\":5201:5202   */\n  0x01\n    /* \"#utility.yul\":5197:5198   */\n  0x02\n    /* \"#utility.yul\":5189:5195   */\n  dup9\n    /* \"#utility.yul\":5185:5199   */\n  mul\n    /* \"#utility.yul\":5181:5203   */\n  add\n    /* \"#utility.yul\":5175:5179   */\n  dup9\n    /* \"#utility.yul\":5168:5204   */\n  sstore\n    /* \"#utility.yul\":4603:5214   */\n  pop\n  pop\n  pop\n    /* \"#utility.yul\":4566:5453   */\ntag_87:\n  pop\n    /* \"#utility.yul\":4156:5459   */\n  pop\n  pop\n  pop\n    /* \"#utility.yul\":4064:5459   */\n  pop\n  pop\n  jump\t// out\n    /* \"#utility.yul\":5465:5583   */\ntag_32:\n    /* \"#utility.yul\":5552:5576   */\n  tag_98\n    /* \"#utility.yul\":5570:5575   */\n  dup2\n    /* \"#utility.yul\":5552:5576   */\n  tag_20\n  jump\t// in\ntag_98:\n    /* \"#utility.yul\":5547:5550   */\n  dup3\n    /* \"#utility.yul\":5540:5577   */\n  mstore\n    /* \"#utility.yul\":5465:5583   */\n  pop\n  pop\n  jump\t// out\n    /* \"#utility.yul\":5589:5811   */\ntag_8:\n    /* \"#utility.yul\":5682:5686   */\n  0x00\n    /* \"#utility.yul\":5720:5722   */\n  0x20\n    /* \"#utility.yul\":5709:5718   */\n  dup3\n    /* \"#utility.yul\":5705:5723   */\n  add\n    /* \"#utility.yul\":5697:5723   */\n  swap1\n  pop\n    /* \"#utility.yul\":5733:5804   */\n  tag_100\n    /* \"#utility.yul\":5801:5802   */\n  0x00\n    /* \"#utility.yul\":5790:5799   */\n  dup4\n    /* \"#utility.yul\":5786:5803   */\n  add\n    /* \"#utility.yul\":5777:5783   */\n  dup5\n    /* \"#utility.yul\":5733:5804   */\n  tag_32\n  jump\t// in\ntag_100:\n    /* \"#utility.yul\":5589:5811   */\n  swap3\n  swap2\n  pop\n  pop\n  jump\t// out\n    /* \"#utility.yul\":5817:5997   */\ntag_33:\n    /* \"#utility.yul\":5865:5942   */\n  0x4e487b7100000000000000000000000000000000000000000000000000000000\n    /* \"#utility.yul\":5862:5863   */\n  0x00\n    /* \"#utility.yul\":5855:5943   */\n  mstore\n    /* \"#utility.yul\":5962:5966   */\n  0x11\n    /* \"#utility.yul\":5959:5960   */\n  0x04\n    /* \"#utility.yul\":5952:5967   */\n  mstore\n    /* \"#utility.yul\":5986:5990   */\n  0x24\n    /* \"#utility.yul\":5983:5984   */\n  0x00\n    /* \"#utility.yul\":5976:5991   */\n  revert\n    /* \"#utility.yul\":6003:6194   */\ntag_10:\n    /* \"#utility.yul\":6043:6046   */\n  0x00\n    /* \"#utility.yul\":6062:6082   */\n  tag_103\n    /* \"#utility.yul\":6080:6081   */\n  dup3\n    /* \"#utility.yul\":6062:6082   */\n  tag_20\n  jump\t// in\ntag_103:\n    /* \"#utility.yul\":6057:6082   */\n  swap2\n  pop\n    /* \"#utility.yul\":6096:6116   */\n  tag_104\n    /* \"#utility.yul\":6114:6115   */\n  dup4\n    /* \"#utility.yul\":6096:6116   */\n  tag_20\n  jump\t// in\ntag_104:\n    /* \"#utility.yul\":6091:6116   */\n  swap3\n  pop\n    /* \"#utility.yul\":6139:6140   */\n  dup3\n    /* \"#utility.yul\":6136:6137   */\n  dup3\n    /* \"#utility.yul\":6132:6141   */\n  add\n    /* \"#utility.yul\":6125:6141   */\n  swap1\n  pop\n    /* \"#utility.yul\":6160:6163   */\n  dup1\n    /* \"#utility.yul\":6157:6158   */\n  dup3\n    /* \"#utility.yul\":6154:6164   */\n  gt\n    /* \"#utility.yul\":6151:6187   */\n  iszero\n  tag_105\n  jumpi\n    /* \"#utility.yul\":6167:6185   */\n  tag_106\n  tag_33\n  jump\t// in\ntag_106:\n    /* \"#utility.yul\":6151:6187   */\ntag_105:\n    /* \"#utility.yul\":6003:6194   */\n  swap3\n  swap2\n  pop\n  pop\n  jump\t// out\n    /* \".debug/1/0xE73d53e3a982ab2750A0b76F9012e18B256Cc243/N.sol\":860:3617  contract N {... */\ntag_11:\n  dataSize(sub_0)\n  dup1\n  dataOffset(sub_0)\n  0x00\n  codecopy\n  0x00\n  return\nstop\n\nsub_0: assembly {\n        /* \".debug/1/0xE73d53e3a982ab2750A0b76F9012e18B256Cc243/N.sol\":860:3617  contract N {... */\n      mstore(0x40, 0x80)\n      callvalue\n      dup1\n      iszero\n      tag_1\n      jumpi\n      revert(0x00, 0x00)\n    tag_1:\n      pop\n      jumpi(tag_2, lt(calldatasize, 0x04))\n      shr(0xe0, calldataload(0x00))\n      dup1\n      0x653cab4f\n      gt\n      tag_17\n      jumpi\n      dup1\n      0x95d89b41\n      gt\n      tag_18\n      jumpi\n      dup1\n      0x95d89b41\n      eq\n      tag_13\n      jumpi\n      dup1\n      0xa9059cbb\n      eq\n      tag_14\n      jumpi\n      dup1\n      0xcb6b8f0e\n      eq\n      tag_15\n      jumpi\n      dup1\n      0xdd62ed3e\n      eq\n      tag_16\n      jumpi\n      jump(tag_2)\n    tag_18:\n      dup1\n      0x653cab4f\n      eq\n      tag_10\n      jumpi\n      dup1\n      0x70a08231\n      eq\n      tag_11\n      jumpi\n      dup1\n      0x900cf0cf\n      eq\n      tag_12\n      jumpi\n      jump(tag_2)\n    tag_17:\n      dup1\n      0x18160ddd\n      gt\n      tag_19\n      jumpi\n      dup1\n      0x18160ddd\n      eq\n      tag_6\n      jumpi\n      dup1\n      0x23b872dd\n      eq\n      tag_7\n      jumpi\n      dup1\n      0x313ce567\n      eq\n      tag_8\n      jumpi\n      dup1\n      0x4f719b69\n      eq\n      tag_9\n      jumpi\n      jump(tag_2)\n    tag_19:\n      dup1\n      0x06fdde03\n      eq\n      tag_3\n      jumpi\n      dup1\n      0x095ea7b3\n      eq\n      tag_4\n      jumpi\n      dup1\n      0x1249c58b\n      eq\n      tag_5\n      jumpi\n    tag_2:\n      revert(0x00, 0x00)\n        /* \".debug/1/0xE73d53e3a982ab2750A0b76F9012e18B256Cc243/N.sol\":878:902  string public name = \"N\" */\n    tag_3:\n      tag_20\n      tag_21\n      jump\t// in\n    tag_20:\n      mload(0x40)\n      tag_22\n      swap2\n      swap1\n      tag_23\n      jump\t// in\n    tag_22:\n      mload(0x40)\n      dup1\n      swap2\n      sub\n      swap1\n      return\n        /* \".debug/1/0xE73d53e3a982ab2750A0b76F9012e18B256Cc243/N.sol\":2144:2360  function approve(address _spender, uint256 _value) public returns (bool success) {... */\n    tag_4:\n      tag_24\n      0x04\n      dup1\n      calldatasize\n      sub\n      dup2\n      add\n      swap1\n      tag_25\n      swap2\n      swap1\n      tag_26\n      jump\t// in\n    tag_25:\n      tag_27\n      jump\t// in\n    tag_24:\n      mload(0x40)\n      tag_28\n      swap2\n      swap1\n      tag_29\n      jump\t// in\n    tag_28:\n      mload(0x40)\n      dup1\n      swap2\n      sub\n      swap1\n      return\n        /* \".debug/1/0xE73d53e3a982ab2750A0b76F9012e18B256Cc243/N.sol\":2821:3213  function mint() public {... */\n    tag_5:\n      tag_30\n      tag_31\n      jump\t// in\n    tag_30:\n      stop\n        /* \".debug/1/0xE73d53e3a982ab2750A0b76F9012e18B256Cc243/N.sol\":975:1001  uint256 public totalSupply */\n    tag_6:\n      tag_32\n      tag_33\n      jump\t// in\n    tag_32:\n      mload(0x40)\n      tag_34\n      swap2\n      swap1\n      tag_35\n      jump\t// in\n    tag_34:\n      mload(0x40)\n      dup1\n      swap2\n      sub\n      swap1\n      return\n        /* \".debug/1/0xE73d53e3a982ab2750A0b76F9012e18B256Cc243/N.sol\":2368:2813  function transferFrom(address _from, address _to, uint256 _value) public returns (bool success) {... */\n    tag_7:\n      tag_36\n      0x04\n      dup1\n      calldatasize\n      sub\n      dup2\n      add\n      swap1\n      tag_37\n      swap2\n      swap1\n      tag_38\n      jump\t// in\n    tag_37:\n      tag_39\n      jump\t// in\n    tag_36:\n      mload(0x40)\n      tag_40\n      swap2\n      swap1\n      tag_29\n      jump\t// in\n    tag_40:\n      mload(0x40)\n      dup1\n      swap2\n      sub\n      swap1\n      return\n        /* \".debug/1/0xE73d53e3a982ab2750A0b76F9012e18B256Cc243/N.sol\":942:968  uint8 public decimals = 18 */\n    tag_8:\n      tag_41\n      tag_42\n      jump\t// in\n    tag_41:\n      mload(0x40)\n      tag_43\n      swap2\n      swap1\n      tag_44\n      jump\t// in\n    tag_43:\n      mload(0x40)\n      dup1\n      swap2\n      sub\n      swap1\n      return\n        /* \".debug/1/0xE73d53e3a982ab2750A0b76F9012e18B256Cc243/N.sol\":1037:1069  uint256 public lastDoublingBlock */\n    tag_9:\n      tag_45\n      tag_46\n      jump\t// in\n    tag_45:\n      mload(0x40)\n      tag_47\n      swap2\n      swap1\n      tag_35\n      jump\t// in\n    tag_47:\n      mload(0x40)\n      dup1\n      swap2\n      sub\n      swap1\n      return\n        /* \".debug/1/0xE73d53e3a982ab2750A0b76F9012e18B256Cc243/N.sol\":1076:1108  uint256 public nextDoublingBlock */\n    tag_10:\n      tag_48\n      tag_49\n      jump\t// in\n    tag_48:\n      mload(0x40)\n      tag_50\n      swap2\n      swap1\n      tag_35\n      jump\t// in\n    tag_50:\n      mload(0x40)\n      dup1\n      swap2\n      sub\n      swap1\n      return\n        /* \".debug/1/0xE73d53e3a982ab2750A0b76F9012e18B256Cc243/N.sol\":1161:1205  mapping(address => uint256) public balanceOf */\n    tag_11:\n      tag_51\n      0x04\n      dup1\n      calldatasize\n      sub\n      dup2\n      add\n      swap1\n      tag_52\n      swap2\n      swap1\n      tag_53\n      jump\t// in\n    tag_52:\n      tag_54\n      jump\t// in\n    tag_51:\n      mload(0x40)\n      tag_55\n      swap2\n      swap1\n      tag_35\n      jump\t// in\n    tag_55:\n      mload(0x40)\n      dup1\n      swap2\n      sub\n      swap1\n      return\n        /* \".debug/1/0xE73d53e3a982ab2750A0b76F9012e18B256Cc243/N.sol\":1008:1030  uint8 public epoch = 0 */\n    tag_12:\n      tag_56\n      tag_57\n      jump\t// in\n    tag_56:\n      mload(0x40)\n      tag_58\n      swap2\n      swap1\n      tag_44\n      jump\t// in\n    tag_58:\n      mload(0x40)\n      dup1\n      swap2\n      sub\n      swap1\n      return\n        /* \".debug/1/0xE73d53e3a982ab2750A0b76F9012e18B256Cc243/N.sol\":909:935  string public symbol = \"N\" */\n    tag_13:\n      tag_59\n      tag_60\n      jump\t// in\n    tag_59:\n      mload(0x40)\n      tag_61\n      swap2\n      swap1\n      tag_23\n      jump\t// in\n    tag_61:\n      mload(0x40)\n      dup1\n      swap2\n      sub\n      swap1\n      return\n        /* \".debug/1/0xE73d53e3a982ab2750A0b76F9012e18B256Cc243/N.sol\":1828:2136  function transfer(address _to, uint256 _value) public returns (bool success) {... */\n    tag_14:\n      tag_62\n      0x04\n      dup1\n      calldatasize\n      sub\n      dup2\n      add\n      swap1\n      tag_63\n      swap2\n      swap1\n      tag_26\n      jump\t// in\n    tag_63:\n      tag_64\n      jump\t// in\n    tag_62:\n      mload(0x40)\n      tag_65\n      swap2\n      swap1\n      tag_29\n      jump\t// in\n    tag_65:\n      mload(0x40)\n      dup1\n      swap2\n      sub\n      swap1\n      return\n        /* \".debug/1/0xE73d53e3a982ab2750A0b76F9012e18B256Cc243/N.sol\":1115:1146  uint256 public lastMintingBlock */\n    tag_15:\n      tag_66\n      tag_67\n      jump\t// in\n    tag_66:\n      mload(0x40)\n      tag_68\n      swap2\n      swap1\n      tag_35\n      jump\t// in\n    tag_68:\n      mload(0x40)\n      dup1\n      swap2\n      sub\n      swap1\n      return\n        /* \".debug/1/0xE73d53e3a982ab2750A0b76F9012e18B256Cc243/N.sol\":1212:1276  mapping(address => mapping(address => uint256)) public allowance */\n    tag_16:\n      tag_69\n      0x04\n      dup1\n      calldatasize\n      sub\n      dup2\n      add\n      swap1\n      tag_70\n      swap2\n      swap1\n      tag_71\n      jump\t// in\n    tag_70:\n      tag_72\n      jump\t// in\n    tag_69:\n      mload(0x40)\n      tag_73\n      swap2\n      swap1\n      tag_35\n      jump\t// in\n    tag_73:\n      mload(0x40)\n      dup1\n      swap2\n      sub\n      swap1\n      return\n        /* \".debug/1/0xE73d53e3a982ab2750A0b76F9012e18B256Cc243/N.sol\":878:902  string public name = \"N\" */\n    tag_21:\n      0x00\n      dup1\n      sload\n      tag_74\n      swap1\n      tag_75\n      jump\t// in\n    tag_74:\n      dup1\n      0x1f\n      add\n      0x20\n      dup1\n      swap2\n      div\n      mul\n      0x20\n      add\n      mload(0x40)\n      swap1\n      dup2\n      add\n      0x40\n      mstore\n      dup1\n      swap3\n      swap2\n      swap1\n      dup2\n      dup2\n      mstore\n      0x20\n      add\n      dup3\n      dup1\n      sload\n      tag_76\n      swap1\n      tag_75\n      jump\t// in\n    tag_76:\n      dup1\n      iszero\n      tag_77\n      jumpi\n      dup1\n      0x1f\n      lt\n      tag_78\n      jumpi\n      0x0100\n      dup1\n      dup4\n      sload\n      div\n      mul\n      dup4\n      mstore\n      swap2\n      0x20\n      add\n      swap2\n      jump(tag_77)\n    tag_78:\n      dup3\n      add\n      swap2\n      swap1\n      0x00\n      mstore\n      keccak256(0x00, 0x20)\n      swap1\n    tag_79:\n      dup2\n      sload\n      dup2\n      mstore\n      swap1\n      0x01\n      add\n      swap1\n      0x20\n      add\n      dup1\n      dup4\n      gt\n      tag_79\n      jumpi\n      dup3\n      swap1\n      sub\n      0x1f\n      and\n      dup3\n      add\n      swap2\n    tag_77:\n      pop\n      pop\n      pop\n      pop\n      pop\n      dup2\n      jump\t// out\n        /* \".debug/1/0xE73d53e3a982ab2750A0b76F9012e18B256Cc243/N.sol\":2144:2360  function approve(address _spender, uint256 _value) public returns (bool success) {... */\n    tag_27:\n        /* \".debug/1/0xE73d53e3a982ab2750A0b76F9012e18B256Cc243/N.sol\":2211:2223  bool success */\n      0x00\n        /* \".debug/1/0xE73d53e3a982ab2750A0b76F9012e18B256Cc243/N.sol\":2270:2276  _value */\n      dup2\n        /* \".debug/1/0xE73d53e3a982ab2750A0b76F9012e18B256Cc243/N.sol\":2236:2245  allowance */\n      0x09\n        /* \".debug/1/0xE73d53e3a982ab2750A0b76F9012e18B256Cc243/N.sol\":2236:2257  allowance[msg.sender] */\n      0x00\n        /* \".debug/1/0xE73d53e3a982ab2750A0b76F9012e18B256Cc243/N.sol\":2246:2256  msg.sender */\n      caller\n        /* \".debug/1/0xE73d53e3a982ab2750A0b76F9012e18B256Cc243/N.sol\":2236:2257  allowance[msg.sender] */\n      0xffffffffffffffffffffffffffffffffffffffff\n      and\n      0xffffffffffffffffffffffffffffffffffffffff\n      and\n      dup2\n      mstore\n      0x20\n      add\n      swap1\n      dup2\n      mstore\n      0x20\n      add\n      0x00\n      keccak256\n        /* \".debug/1/0xE73d53e3a982ab2750A0b76F9012e18B256Cc243/N.sol\":2236:2267  allowance[msg.sender][_spender] */\n      0x00\n        /* \".debug/1/0xE73d53e3a982ab2750A0b76F9012e18B256Cc243/N.sol\":2258:2266  _spender */\n      dup6\n        /* \".debug/1/0xE73d53e3a982ab2750A0b76F9012e18B256Cc243/N.sol\":2236:2267  allowance[msg.sender][_spender] */\n      0xffffffffffffffffffffffffffffffffffffffff\n      and\n      0xffffffffffffffffffffffffffffffffffffffff\n      and\n      dup2\n      mstore\n      0x20\n      add\n      swap1\n      dup2\n      mstore\n      0x20\n      add\n      0x00\n      keccak256\n        /* \".debug/1/0xE73d53e3a982ab2750A0b76F9012e18B256Cc243/N.sol\":2236:2276  allowance[msg.sender][_spender] = _value */\n      dup2\n      swap1\n      sstore\n      pop\n        /* \".debug/1/0xE73d53e3a982ab2750A0b76F9012e18B256Cc243/N.sol\":2313:2321  _spender */\n      dup3\n        /* \".debug/1/0xE73d53e3a982ab2750A0b76F9012e18B256Cc243/N.sol\":2292:2330  Approval(msg.sender, _spender, _value) */\n      0xffffffffffffffffffffffffffffffffffffffff\n      and\n        /* \".debug/1/0xE73d53e3a982ab2750A0b76F9012e18B256Cc243/N.sol\":2301:2311  msg.sender */\n      caller\n        /* \".debug/1/0xE73d53e3a982ab2750A0b76F9012e18B256Cc243/N.sol\":2292:2330  Approval(msg.sender, _spender, _value) */\n      0xffffffffffffffffffffffffffffffffffffffff\n      and\n      0x8c5be1e5ebec7d5bd14f71427d1e84f3dd0314c0f7b2291e5b200ac8c7c3b925\n        /* \".debug/1/0xE73d53e3a982ab2750A0b76F9012e18B256Cc243/N.sol\":2323:2329  _value */\n      dup5\n        /* \".debug/1/0xE73d53e3a982ab2750A0b76F9012e18B256Cc243/N.sol\":2292:2330  Approval(msg.sender, _spender, _value) */\n      mload(0x40)\n      tag_81\n      swap2\n      swap1\n      tag_35\n      jump\t// in\n    tag_81:\n      mload(0x40)\n      dup1\n      swap2\n      sub\n      swap1\n      log3\n        /* \".debug/1/0xE73d53e3a982ab2750A0b76F9012e18B256Cc243/N.sol\":2348:2352  true */\n      0x01\n        /* \".debug/1/0xE73d53e3a982ab2750A0b76F9012e18B256Cc243/N.sol\":2341:2352  return true */\n      swap1\n      pop\n        /* \".debug/1/0xE73d53e3a982ab2750A0b76F9012e18B256Cc243/N.sol\":2144:2360  function approve(address _spender, uint256 _value) public returns (bool success) {... */\n      swap3\n      swap2\n      pop\n      pop\n      jump\t// out\n        /* \".debug/1/0xE73d53e3a982ab2750A0b76F9012e18B256Cc243/N.sol\":2821:3213  function mint() public {... */\n    tag_31:\n        /* \".debug/1/0xE73d53e3a982ab2750A0b76F9012e18B256Cc243/N.sol\":2855:2875  uint256 numberToMint */\n      0x00\n        /* \".debug/1/0xE73d53e3a982ab2750A0b76F9012e18B256Cc243/N.sol\":2878:2888  mintable() */\n      tag_83\n        /* \".debug/1/0xE73d53e3a982ab2750A0b76F9012e18B256Cc243/N.sol\":2878:2886  mintable */\n      tag_84\n        /* \".debug/1/0xE73d53e3a982ab2750A0b76F9012e18B256Cc243/N.sol\":2878:2888  mintable() */\n      jump\t// in\n    tag_83:\n        /* \".debug/1/0xE73d53e3a982ab2750A0b76F9012e18B256Cc243/N.sol\":2855:2888  uint256 numberToMint = mintable() */\n      swap1\n      pop\n        /* \".debug/1/0xE73d53e3a982ab2750A0b76F9012e18B256Cc243/N.sol\":2913:2925  numberToMint */\n      dup1\n        /* \".debug/1/0xE73d53e3a982ab2750A0b76F9012e18B256Cc243/N.sol\":2899:2910  totalSupply */\n      0x03\n      0x00\n        /* \".debug/1/0xE73d53e3a982ab2750A0b76F9012e18B256Cc243/N.sol\":2899:2925  totalSupply+= numberToMint */\n      dup3\n      dup3\n      sload\n      tag_85\n      swap2\n      swap1\n      tag_86\n      jump\t// in\n    tag_85:\n      swap3\n      pop\n      pop\n      dup2\n      swap1\n      sstore\n      pop\n        /* \".debug/1/0xE73d53e3a982ab2750A0b76F9012e18B256Cc243/N.sol\":2960:2972  numberToMint */\n      dup1\n        /* \".debug/1/0xE73d53e3a982ab2750A0b76F9012e18B256Cc243/N.sol\":2936:2945  balanceOf */\n      0x08\n        /* \".debug/1/0xE73d53e3a982ab2750A0b76F9012e18B256Cc243/N.sol\":2936:2957  balanceOf[msg.sender] */\n      0x00\n        /* \".debug/1/0xE73d53e3a982ab2750A0b76F9012e18B256Cc243/N.sol\":2946:2956  msg.sender */\n      caller\n        /* \".debug/1/0xE73d53e3a982ab2750A0b76F9012e18B256Cc243/N.sol\":2936:2957  balanceOf[msg.sender] */\n      0xffffffffffffffffffffffffffffffffffffffff\n      and\n      0xffffffffffffffffffffffffffffffffffffffff\n      and\n      dup2\n      mstore\n      0x20\n      add\n      swap1\n      dup2\n      mstore\n      0x20\n      add\n      0x00\n      keccak256\n      0x00\n        /* \".debug/1/0xE73d53e3a982ab2750A0b76F9012e18B256Cc243/N.sol\":2936:2972  balanceOf[msg.sender]+= numberToMint */\n      dup3\n      dup3\n      sload\n      tag_87\n      swap2\n      swap1\n      tag_86\n      jump\t// in\n    tag_87:\n      swap3\n      pop\n      pop\n      dup2\n      swap1\n      sstore\n      pop\n        /* \".debug/1/0xE73d53e3a982ab2750A0b76F9012e18B256Cc243/N.sol\":3002:3019  nextDoublingBlock */\n      sload(0x06)\n        /* \".debug/1/0xE73d53e3a982ab2750A0b76F9012e18B256Cc243/N.sol\":2986:2998  block.number */\n      number\n        /* \".debug/1/0xE73d53e3a982ab2750A0b76F9012e18B256Cc243/N.sol\":2986:3019  block.number >= nextDoublingBlock */\n      lt\n        /* \".debug/1/0xE73d53e3a982ab2750A0b76F9012e18B256Cc243/N.sol\":2983:3206  if(block.number >= nextDoublingBlock) {... */\n      tag_88\n      jumpi\n        /* \".debug/1/0xE73d53e3a982ab2750A0b76F9012e18B256Cc243/N.sol\":3056:3068  block.number */\n      number\n        /* \".debug/1/0xE73d53e3a982ab2750A0b76F9012e18B256Cc243/N.sol\":3036:3053  lastDoublingBlock */\n      0x05\n        /* \".debug/1/0xE73d53e3a982ab2750A0b76F9012e18B256Cc243/N.sol\":3036:3068  lastDoublingBlock = block.number */\n      dup2\n      swap1\n      sstore\n      pop\n        /* \".debug/1/0xE73d53e3a982ab2750A0b76F9012e18B256Cc243/N.sol\":3102:3114  block.number */\n      number\n        /* \".debug/1/0xE73d53e3a982ab2750A0b76F9012e18B256Cc243/N.sol\":3083:3099  lastMintingBlock */\n      0x07\n        /* \".debug/1/0xE73d53e3a982ab2750A0b76F9012e18B256Cc243/N.sol\":3083:3114  lastMintingBlock = block.number */\n      dup2\n      swap1\n      sstore\n      pop\n        /* \".debug/1/0xE73d53e3a982ab2750A0b76F9012e18B256Cc243/N.sol\":3164:3172  10519200 */\n      0xa082a0\n        /* \".debug/1/0xE73d53e3a982ab2750A0b76F9012e18B256Cc243/N.sol\":3149:3161  block.number */\n      number\n        /* \".debug/1/0xE73d53e3a982ab2750A0b76F9012e18B256Cc243/N.sol\":3149:3172  block.number + 10519200 */\n      tag_89\n      swap2\n      swap1\n      tag_86\n      jump\t// in\n    tag_89:\n        /* \".debug/1/0xE73d53e3a982ab2750A0b76F9012e18B256Cc243/N.sol\":3129:3146  nextDoublingBlock */\n      0x06\n        /* \".debug/1/0xE73d53e3a982ab2750A0b76F9012e18B256Cc243/N.sol\":3129:3172  nextDoublingBlock = block.number + 10519200 */\n      dup2\n      swap1\n      sstore\n      pop\n        /* \".debug/1/0xE73d53e3a982ab2750A0b76F9012e18B256Cc243/N.sol\":3187:3192  epoch */\n      0x04\n      0x00\n        /* \".debug/1/0xE73d53e3a982ab2750A0b76F9012e18B256Cc243/N.sol\":3187:3194  epoch++ */\n      dup2\n      dup2\n      swap1\n      sload\n      swap1\n      0x0100\n      exp\n      swap1\n      div\n      0xff\n      and\n      dup1\n      swap3\n      swap2\n      swap1\n      tag_90\n      swap1\n      tag_91\n      jump\t// in\n    tag_90:\n      swap2\n      swap1\n      0x0100\n      exp\n      dup2\n      sload\n      dup2\n      0xff\n      mul\n      not\n      and\n      swap1\n      dup4\n      0xff\n      and\n      mul\n      or\n      swap1\n      sstore\n      pop\n      pop\n        /* \".debug/1/0xE73d53e3a982ab2750A0b76F9012e18B256Cc243/N.sol\":2983:3206  if(block.number >= nextDoublingBlock) {... */\n    tag_88:\n        /* \".debug/1/0xE73d53e3a982ab2750A0b76F9012e18B256Cc243/N.sol\":2844:3213  {... */\n      pop\n        /* \".debug/1/0xE73d53e3a982ab2750A0b76F9012e18B256Cc243/N.sol\":2821:3213  function mint() public {... */\n      jump\t// out\n        /* \".debug/1/0xE73d53e3a982ab2750A0b76F9012e18B256Cc243/N.sol\":975:1001  uint256 public totalSupply */\n    tag_33:\n      sload(0x03)\n      dup2\n      jump\t// out\n        /* \".debug/1/0xE73d53e3a982ab2750A0b76F9012e18B256Cc243/N.sol\":2368:2813  function transferFrom(address _from, address _to, uint256 _value) public returns (bool success) {... */\n    tag_39:\n        /* \".debug/1/0xE73d53e3a982ab2750A0b76F9012e18B256Cc243/N.sol\":2450:2462  bool success */\n      0x00\n        /* \".debug/1/0xE73d53e3a982ab2750A0b76F9012e18B256Cc243/N.sol\":2493:2502  balanceOf */\n      0x08\n        /* \".debug/1/0xE73d53e3a982ab2750A0b76F9012e18B256Cc243/N.sol\":2493:2509  balanceOf[_from] */\n      0x00\n        /* \".debug/1/0xE73d53e3a982ab2750A0b76F9012e18B256Cc243/N.sol\":2503:2508  _from */\n      dup6\n        /* \".debug/1/0xE73d53e3a982ab2750A0b76F9012e18B256Cc243/N.sol\":2493:2509  balanceOf[_from] */\n      0xffffffffffffffffffffffffffffffffffffffff\n      and\n      0xffffffffffffffffffffffffffffffffffffffff\n      and\n      dup2\n      mstore\n      0x20\n      add\n      swap1\n      dup2\n      mstore\n      0x20\n      add\n      0x00\n      keccak256\n      sload\n        /* \".debug/1/0xE73d53e3a982ab2750A0b76F9012e18B256Cc243/N.sol\":2483:2489  _value */\n      dup3\n        /* \".debug/1/0xE73d53e3a982ab2750A0b76F9012e18B256Cc243/N.sol\":2483:2509  _value <= balanceOf[_from] */\n      gt\n      iszero\n        /* \".debug/1/0xE73d53e3a982ab2750A0b76F9012e18B256Cc243/N.sol\":2475:2534  require(_value <= balanceOf[_from], \"Insufficient balance\") */\n      tag_93\n      jumpi\n      mload(0x40)\n      0x08c379a000000000000000000000000000000000000000000000000000000000\n      dup2\n      mstore\n      0x04\n      add\n      tag_94\n      swap1\n      tag_95\n      jump\t// in\n    tag_94:\n      mload(0x40)\n      dup1\n      swap2\n      sub\n      swap1\n      revert\n    tag_93:\n        /* \".debug/1/0xE73d53e3a982ab2750A0b76F9012e18B256Cc243/N.sol\":2563:2572  allowance */\n      0x09\n        /* \".debug/1/0xE73d53e3a982ab2750A0b76F9012e18B256Cc243/N.sol\":2563:2579  allowance[_from] */\n      0x00\n        /* \".debug/1/0xE73d53e3a982ab2750A0b76F9012e18B256Cc243/N.sol\":2573:2578  _from */\n      dup6\n        /* \".debug/1/0xE73d53e3a982ab2750A0b76F9012e18B256Cc243/N.sol\":2563:2579  allowance[_from] */\n      0xffffffffffffffffffffffffffffffffffffffff\n      and\n      0xffffffffffffffffffffffffffffffffffffffff\n      and\n      dup2\n      mstore\n      0x20\n      add\n      swap1\n      dup2\n      mstore\n      0x20\n      add\n      0x00\n      keccak256\n        /* \".debug/1/0xE73d53e3a982ab2750A0b76F9012e18B256Cc243/N.sol\":2563:2591  allowance[_from][msg.sender] */\n      0x00\n        /* \".debug/1/0xE73d53e3a982ab2750A0b76F9012e18B256Cc243/N.sol\":2580:2590  msg.sender */\n      caller\n        /* \".debug/1/0xE73d53e3a982ab2750A0b76F9012e18B256Cc243/N.sol\":2563:2591  allowance[_from][msg.sender] */\n      0xffffffffffffffffffffffffffffffffffffffff\n      and\n      0xffffffffffffffffffffffffffffffffffffffff\n      and\n      dup2\n      mstore\n      0x20\n      add\n      swap1\n      dup2\n      mstore\n      0x20\n      add\n      0x00\n      keccak256\n      sload\n        /* \".debug/1/0xE73d53e3a982ab2750A0b76F9012e18B256Cc243/N.sol\":2553:2559  _value */\n      dup3\n        /* \".debug/1/0xE73d53e3a982ab2750A0b76F9012e18B256Cc243/N.sol\":2553:2591  _value <= allowance[_from][msg.sender] */\n      gt\n      iszero\n        /* \".debug/1/0xE73d53e3a982ab2750A0b76F9012e18B256Cc243/N.sol\":2545:2618  require(_value <= allowance[_from][msg.sender], \"Insufficient allowance\") */\n      tag_96\n      jumpi\n      mload(0x40)\n      0x08c379a000000000000000000000000000000000000000000000000000000000\n      dup2\n      mstore\n      0x04\n      add\n      tag_97\n      swap1\n      tag_98\n      jump\t// in\n    tag_97:\n      mload(0x40)\n      dup1\n      swap2\n      sub\n      swap1\n      revert\n    tag_96:\n        /* \".debug/1/0xE73d53e3a982ab2750A0b76F9012e18B256Cc243/N.sol\":2649:2655  _value */\n      dup2\n        /* \".debug/1/0xE73d53e3a982ab2750A0b76F9012e18B256Cc243/N.sol\":2629:2638  balanceOf */\n      0x08\n        /* \".debug/1/0xE73d53e3a982ab2750A0b76F9012e18B256Cc243/N.sol\":2629:2645  balanceOf[_from] */\n      0x00\n        /* \".debug/1/0xE73d53e3a982ab2750A0b76F9012e18B256Cc243/N.sol\":2639:2644  _from */\n      dup7\n        /* \".debug/1/0xE73d53e3a982ab2750A0b76F9012e18B256Cc243/N.sol\":2629:2645  balanceOf[_from] */\n      0xffffffffffffffffffffffffffffffffffffffff\n      and\n      0xffffffffffffffffffffffffffffffffffffffff\n      and\n      dup2\n      mstore\n      0x20\n      add\n      swap1\n      dup2\n      mstore\n      0x20\n      add\n      0x00\n      keccak256\n      0x00\n        /* \".debug/1/0xE73d53e3a982ab2750A0b76F9012e18B256Cc243/N.sol\":2629:2655  balanceOf[_from] -= _value */\n      dup3\n      dup3\n      sload\n      tag_99\n      swap2\n      swap1\n      tag_100\n      jump\t// in\n    tag_99:\n      swap3\n      pop\n      pop\n      dup2\n      swap1\n      sstore\n      pop\n        /* \".debug/1/0xE73d53e3a982ab2750A0b76F9012e18B256Cc243/N.sol\":2684:2690  _value */\n      dup2\n        /* \".debug/1/0xE73d53e3a982ab2750A0b76F9012e18B256Cc243/N.sol\":2666:2675  balanceOf */\n      0x08\n        /* \".debug/1/0xE73d53e3a982ab2750A0b76F9012e18B256Cc243/N.sol\":2666:2680  balanceOf[_to] */\n      0x00\n        /* \".debug/1/0xE73d53e3a982ab2750A0b76F9012e18B256Cc243/N.sol\":2676:2679  _to */\n      dup6\n        /* \".debug/1/0xE73d53e3a982ab2750A0b76F9012e18B256Cc243/N.sol\":2666:2680  balanceOf[_to] */\n      0xffffffffffffffffffffffffffffffffffffffff\n      and\n      0xffffffffffffffffffffffffffffffffffffffff\n      and\n      dup2\n      mstore\n      0x20\n      add\n      swap1\n      dup2\n      mstore\n      0x20\n      add\n      0x00\n      keccak256\n      0x00\n        /* \".debug/1/0xE73d53e3a982ab2750A0b76F9012e18B256Cc243/N.sol\":2666:2690  balanceOf[_to] += _value */\n      dup3\n      dup3\n      sload\n      tag_101\n      swap2\n      swap1\n      tag_86\n      jump\t// in\n    tag_101:\n      swap3\n      pop\n      pop\n      dup2\n      swap1\n      sstore\n      pop\n        /* \".debug/1/0xE73d53e3a982ab2750A0b76F9012e18B256Cc243/N.sol\":2733:2739  _value */\n      dup2\n        /* \".debug/1/0xE73d53e3a982ab2750A0b76F9012e18B256Cc243/N.sol\":2701:2710  allowance */\n      0x09\n        /* \".debug/1/0xE73d53e3a982ab2750A0b76F9012e18B256Cc243/N.sol\":2701:2717  allowance[_from] */\n      0x00\n        /* \".debug/1/0xE73d53e3a982ab2750A0b76F9012e18B256Cc243/N.sol\":2711:2716  _from */\n      dup7\n        /* \".debug/1/0xE73d53e3a982ab2750A0b76F9012e18B256Cc243/N.sol\":2701:2717  allowance[_from] */\n      0xffffffffffffffffffffffffffffffffffffffff\n      and\n      0xffffffffffffffffffffffffffffffffffffffff\n      and\n      dup2\n      mstore\n      0x20\n      add\n      swap1\n      dup2\n      mstore\n      0x20\n      add\n      0x00\n      keccak256\n        /* \".debug/1/0xE73d53e3a982ab2750A0b76F9012e18B256Cc243/N.sol\":2701:2729  allowance[_from][msg.sender] */\n      0x00\n        /* \".debug/1/0xE73d53e3a982ab2750A0b76F9012e18B256Cc243/N.sol\":2718:2728  msg.sender */\n      caller\n        /* \".debug/1/0xE73d53e3a982ab2750A0b76F9012e18B256Cc243/N.sol\":2701:2729  allowance[_from][msg.sender] */\n      0xffffffffffffffffffffffffffffffffffffffff\n      and\n      0xffffffffffffffffffffffffffffffffffffffff\n      and\n      dup2\n      mstore\n      0x20\n      add\n      swap1\n      dup2\n      mstore\n      0x20\n      add\n      0x00\n      keccak256\n      0x00\n        /* \".debug/1/0xE73d53e3a982ab2750A0b76F9012e18B256Cc243/N.sol\":2701:2739  allowance[_from][msg.sender] -= _value */\n      dup3\n      dup3\n      sload\n      tag_102\n      swap2\n      swap1\n      tag_100\n      jump\t// in\n    tag_102:\n      swap3\n      pop\n      pop\n      dup2\n      swap1\n      sstore\n      pop\n        /* \".debug/1/0xE73d53e3a982ab2750A0b76F9012e18B256Cc243/N.sol\":2771:2774  _to */\n      dup3\n        /* \".debug/1/0xE73d53e3a982ab2750A0b76F9012e18B256Cc243/N.sol\":2755:2783  Transfer(_from, _to, _value) */\n      0xffffffffffffffffffffffffffffffffffffffff\n      and\n        /* \".debug/1/0xE73d53e3a982ab2750A0b76F9012e18B256Cc243/N.sol\":2764:2769  _from */\n      dup5\n        /* \".debug/1/0xE73d53e3a982ab2750A0b76F9012e18B256Cc243/N.sol\":2755:2783  Transfer(_from, _to, _value) */\n      0xffffffffffffffffffffffffffffffffffffffff\n      and\n      0xddf252ad1be2c89b69c2b068fc378daa952ba7f163c4a11628f55a4df523b3ef\n        /* \".debug/1/0xE73d53e3a982ab2750A0b76F9012e18B256Cc243/N.sol\":2776:2782  _value */\n      dup5\n        /* \".debug/1/0xE73d53e3a982ab2750A0b76F9012e18B256Cc243/N.sol\":2755:2783  Transfer(_from, _to, _value) */\n      mload(0x40)\n      tag_103\n      swap2\n      swap1\n      tag_35\n      jump\t// in\n    tag_103:\n      mload(0x40)\n      dup1\n      swap2\n      sub\n      swap1\n      log3\n        /* \".debug/1/0xE73d53e3a982ab2750A0b76F9012e18B256Cc243/N.sol\":2801:2805  true */\n      0x01\n        /* \".debug/1/0xE73d53e3a982ab2750A0b76F9012e18B256Cc243/N.sol\":2794:2805  return true */\n      swap1\n      pop\n        /* \".debug/1/0xE73d53e3a982ab2750A0b76F9012e18B256Cc243/N.sol\":2368:2813  function transferFrom(address _from, address _to, uint256 _value) public returns (bool success) {... */\n      swap4\n      swap3\n      pop\n      pop\n      pop\n      jump\t// out\n        /* \".debug/1/0xE73d53e3a982ab2750A0b76F9012e18B256Cc243/N.sol\":942:968  uint8 public decimals = 18 */\n    tag_42:\n      0x02\n      0x00\n      swap1\n      sload\n      swap1\n      0x0100\n      exp\n      swap1\n      div\n      0xff\n      and\n      dup2\n      jump\t// out\n        /* \".debug/1/0xE73d53e3a982ab2750A0b76F9012e18B256Cc243/N.sol\":1037:1069  uint256 public lastDoublingBlock */\n    tag_46:\n      sload(0x05)\n      dup2\n      jump\t// out\n        /* \".debug/1/0xE73d53e3a982ab2750A0b76F9012e18B256Cc243/N.sol\":1076:1108  uint256 public nextDoublingBlock */\n    tag_49:\n      sload(0x06)\n      dup2\n      jump\t// out\n        /* \".debug/1/0xE73d53e3a982ab2750A0b76F9012e18B256Cc243/N.sol\":1161:1205  mapping(address => uint256) public balanceOf */\n    tag_54:\n      mstore(0x20, 0x08)\n      dup1\n      0x00\n      mstore\n      keccak256(0x00, 0x40)\n      0x00\n      swap2\n      pop\n      swap1\n      pop\n      sload\n      dup2\n      jump\t// out\n        /* \".debug/1/0xE73d53e3a982ab2750A0b76F9012e18B256Cc243/N.sol\":1008:1030  uint8 public epoch = 0 */\n    tag_57:\n      0x04\n      0x00\n      swap1\n      sload\n      swap1\n      0x0100\n      exp\n      swap1\n      div\n      0xff\n      and\n      dup2\n      jump\t// out\n        /* \".debug/1/0xE73d53e3a982ab2750A0b76F9012e18B256Cc243/N.sol\":909:935  string public symbol = \"N\" */\n    tag_60:\n      0x01\n      dup1\n      sload\n      tag_104\n      swap1\n      tag_75\n      jump\t// in\n    tag_104:\n      dup1\n      0x1f\n      add\n      0x20\n      dup1\n      swap2\n      div\n      mul\n      0x20\n      add\n      mload(0x40)\n      swap1\n      dup2\n      add\n      0x40\n      mstore\n      dup1\n      swap3\n      swap2\n      swap1\n      dup2\n      dup2\n      mstore\n      0x20\n      add\n      dup3\n      dup1\n      sload\n      tag_105\n      swap1\n      tag_75\n      jump\t// in\n    tag_105:\n      dup1\n      iszero\n      tag_106\n      jumpi\n      dup1\n      0x1f\n      lt\n      tag_107\n      jumpi\n      0x0100\n      dup1\n      dup4\n      sload\n      div\n      mul\n      dup4\n      mstore\n      swap2\n      0x20\n      add\n      swap2\n      jump(tag_106)\n    tag_107:\n      dup3\n      add\n      swap2\n      swap1\n      0x00\n      mstore\n      keccak256(0x00, 0x20)\n      swap1\n    tag_108:\n      dup2\n      sload\n      dup2\n      mstore\n      swap1\n      0x01\n      add\n      swap1\n      0x20\n      add\n      dup1\n      dup4\n      gt\n      tag_108\n      jumpi\n      dup3\n      swap1\n      sub\n      0x1f\n      and\n      dup3\n      add\n      swap2\n    tag_106:\n      pop\n      pop\n      pop\n      pop\n      pop\n      dup2\n      jump\t// out\n        /* \".debug/1/0xE73d53e3a982ab2750A0b76F9012e18B256Cc243/N.sol\":1828:2136  function transfer(address _to, uint256 _value) public returns (bool success) {... */\n    tag_64:\n        /* \".debug/1/0xE73d53e3a982ab2750A0b76F9012e18B256Cc243/N.sol\":1891:1903  bool success */\n      0x00\n        /* \".debug/1/0xE73d53e3a982ab2750A0b76F9012e18B256Cc243/N.sol\":1949:1955  _value */\n      dup2\n        /* \".debug/1/0xE73d53e3a982ab2750A0b76F9012e18B256Cc243/N.sol\":1924:1933  balanceOf */\n      0x08\n        /* \".debug/1/0xE73d53e3a982ab2750A0b76F9012e18B256Cc243/N.sol\":1924:1945  balanceOf[msg.sender] */\n      0x00\n        /* \".debug/1/0xE73d53e3a982ab2750A0b76F9012e18B256Cc243/N.sol\":1934:1944  msg.sender */\n      caller\n        /* \".debug/1/0xE73d53e3a982ab2750A0b76F9012e18B256Cc243/N.sol\":1924:1945  balanceOf[msg.sender] */\n      0xffffffffffffffffffffffffffffffffffffffff\n      and\n      0xffffffffffffffffffffffffffffffffffffffff\n      and\n      dup2\n      mstore\n      0x20\n      add\n      swap1\n      dup2\n      mstore\n      0x20\n      add\n      0x00\n      keccak256\n      sload\n        /* \".debug/1/0xE73d53e3a982ab2750A0b76F9012e18B256Cc243/N.sol\":1924:1955  balanceOf[msg.sender] >= _value */\n      lt\n      iszero\n        /* \".debug/1/0xE73d53e3a982ab2750A0b76F9012e18B256Cc243/N.sol\":1916:1980  require(balanceOf[msg.sender] >= _value, \"Insufficient balance\") */\n      tag_110\n      jumpi\n      mload(0x40)\n      0x08c379a000000000000000000000000000000000000000000000000000000000\n      dup2\n      mstore\n      0x04\n      add\n      tag_111\n      swap1\n      tag_95\n      jump\t// in\n    tag_111:\n      mload(0x40)\n      dup1\n      swap2\n      sub\n      swap1\n      revert\n    tag_110:\n        /* \".debug/1/0xE73d53e3a982ab2750A0b76F9012e18B256Cc243/N.sol\":2016:2022  _value */\n      dup2\n        /* \".debug/1/0xE73d53e3a982ab2750A0b76F9012e18B256Cc243/N.sol\":1991:2000  balanceOf */\n      0x08\n        /* \".debug/1/0xE73d53e3a982ab2750A0b76F9012e18B256Cc243/N.sol\":1991:2012  balanceOf[msg.sender] */\n      0x00\n        /* \".debug/1/0xE73d53e3a982ab2750A0b76F9012e18B256Cc243/N.sol\":2001:2011  msg.sender */\n      caller\n        /* \".debug/1/0xE73d53e3a982ab2750A0b76F9012e18B256Cc243/N.sol\":1991:2012  balanceOf[msg.sender] */\n      0xffffffffffffffffffffffffffffffffffffffff\n      and\n      0xffffffffffffffffffffffffffffffffffffffff\n      and\n      dup2\n      mstore\n      0x20\n      add\n      swap1\n      dup2\n      mstore\n      0x20\n      add\n      0x00\n      keccak256\n      0x00\n        /* \".debug/1/0xE73d53e3a982ab2750A0b76F9012e18B256Cc243/N.sol\":1991:2022  balanceOf[msg.sender] -= _value */\n      dup3\n      dup3\n      sload\n      tag_112\n      swap2\n      swap1\n      tag_100\n      jump\t// in\n    tag_112:\n      swap3\n      pop\n      pop\n      dup2\n      swap1\n      sstore\n      pop\n        /* \".debug/1/0xE73d53e3a982ab2750A0b76F9012e18B256Cc243/N.sol\":2051:2057  _value */\n      dup2\n        /* \".debug/1/0xE73d53e3a982ab2750A0b76F9012e18B256Cc243/N.sol\":2033:2042  balanceOf */\n      0x08\n        /* \".debug/1/0xE73d53e3a982ab2750A0b76F9012e18B256Cc243/N.sol\":2033:2047  balanceOf[_to] */\n      0x00\n        /* \".debug/1/0xE73d53e3a982ab2750A0b76F9012e18B256Cc243/N.sol\":2043:2046  _to */\n      dup6\n        /* \".debug/1/0xE73d53e3a982ab2750A0b76F9012e18B256Cc243/N.sol\":2033:2047  balanceOf[_to] */\n      0xffffffffffffffffffffffffffffffffffffffff\n      and\n      0xffffffffffffffffffffffffffffffffffffffff\n      and\n      dup2\n      mstore\n      0x20\n      add\n      swap1\n      dup2\n      mstore\n      0x20\n      add\n      0x00\n      keccak256\n      0x00\n        /* \".debug/1/0xE73d53e3a982ab2750A0b76F9012e18B256Cc243/N.sol\":2033:2057  balanceOf[_to] += _value */\n      dup3\n      dup3\n      sload\n      tag_113\n      swap2\n      swap1\n      tag_86\n      jump\t// in\n    tag_113:\n      swap3\n      pop\n      pop\n      dup2\n      swap1\n      sstore\n      pop\n        /* \".debug/1/0xE73d53e3a982ab2750A0b76F9012e18B256Cc243/N.sol\":2094:2097  _to */\n      dup3\n        /* \".debug/1/0xE73d53e3a982ab2750A0b76F9012e18B256Cc243/N.sol\":2073:2106  Transfer(msg.sender, _to, _value) */\n      0xffffffffffffffffffffffffffffffffffffffff\n      and\n        /* \".debug/1/0xE73d53e3a982ab2750A0b76F9012e18B256Cc243/N.sol\":2082:2092  msg.sender */\n      caller\n        /* \".debug/1/0xE73d53e3a982ab2750A0b76F9012e18B256Cc243/N.sol\":2073:2106  Transfer(msg.sender, _to, _value) */\n      0xffffffffffffffffffffffffffffffffffffffff\n      and\n      0xddf252ad1be2c89b69c2b068fc378daa952ba7f163c4a11628f55a4df523b3ef\n        /* \".debug/1/0xE73d53e3a982ab2750A0b76F9012e18B256Cc243/N.sol\":2099:2105  _value */\n      dup5\n        /* \".debug/1/0xE73d53e3a982ab2750A0b76F9012e18B256Cc243/N.sol\":2073:2106  Transfer(msg.sender, _to, _value) */\n      mload(0x40)\n      tag_114\n      swap2\n      swap1\n      tag_35\n      jump\t// in\n    tag_114:\n      mload(0x40)\n      dup1\n      swap2\n      sub\n      swap1\n      log3\n        /* \".debug/1/0xE73d53e3a982ab2750A0b76F9012e18B256Cc243/N.sol\":2124:2128  true */\n      0x01\n        /* \".debug/1/0xE73d53e3a982ab2750A0b76F9012e18B256Cc243/N.sol\":2117:2128  return true */\n      swap1\n      pop\n        /* \".debug/1/0xE73d53e3a982ab2750A0b76F9012e18B256Cc243/N.sol\":1828:2136  function transfer(address _to, uint256 _value) public returns (bool success) {... */\n      swap3\n      swap2\n      pop\n      pop\n      jump\t// out\n        /* \".debug/1/0xE73d53e3a982ab2750A0b76F9012e18B256Cc243/N.sol\":1115:1146  uint256 public lastMintingBlock */\n    tag_67:\n      sload(0x07)\n      dup2\n      jump\t// out\n        /* \".debug/1/0xE73d53e3a982ab2750A0b76F9012e18B256Cc243/N.sol\":1212:1276  mapping(address => mapping(address => uint256)) public allowance */\n    tag_72:\n      mstore(0x20, 0x09)\n      dup2\n      0x00\n      mstore\n      mstore(0x20, keccak256(0x00, 0x40))\n      dup1\n      0x00\n      mstore\n      keccak256(0x00, 0x40)\n      0x00\n      swap2\n      pop\n      swap2\n      pop\n      pop\n      sload\n      dup2\n      jump\t// out\n        /* \".debug/1/0xE73d53e3a982ab2750A0b76F9012e18B256Cc243/N.sol\":3221:3614  function mintable() internal returns (uint256 numberToMint) {... */\n    tag_84:\n        /* \".debug/1/0xE73d53e3a982ab2750A0b76F9012e18B256Cc243/N.sol\":3259:3279  uint256 numberToMint */\n      0x00\n        /* \".debug/1/0xE73d53e3a982ab2750A0b76F9012e18B256Cc243/N.sol\":3292:3318  uint256 blocksBetweenMints */\n      0x00\n        /* \".debug/1/0xE73d53e3a982ab2750A0b76F9012e18B256Cc243/N.sol\":3334:3350  lastMintingBlock */\n      sload(0x07)\n        /* \".debug/1/0xE73d53e3a982ab2750A0b76F9012e18B256Cc243/N.sol\":3321:3333  block.number */\n      number\n        /* \".debug/1/0xE73d53e3a982ab2750A0b76F9012e18B256Cc243/N.sol\":3321:3350  block.number-lastMintingBlock */\n      tag_116\n      swap2\n      swap1\n      tag_100\n      jump\t// in\n    tag_116:\n        /* \".debug/1/0xE73d53e3a982ab2750A0b76F9012e18B256Cc243/N.sol\":3292:3350  uint256 blocksBetweenMints = block.number-lastMintingBlock */\n      swap1\n      pop\n        /* \".debug/1/0xE73d53e3a982ab2750A0b76F9012e18B256Cc243/N.sol\":3389:3394  epoch */\n      0x04\n      0x00\n      swap1\n      sload\n      swap1\n      0x0100\n      exp\n      swap1\n      div\n      0xff\n      and\n        /* \".debug/1/0xE73d53e3a982ab2750A0b76F9012e18B256Cc243/N.sol\":3386:3387  2 */\n      0x02\n        /* \".debug/1/0xE73d53e3a982ab2750A0b76F9012e18B256Cc243/N.sol\":3386:3394  2**epoch */\n      tag_117\n      swap2\n      swap1\n      tag_118\n      jump\t// in\n    tag_117:\n        /* \".debug/1/0xE73d53e3a982ab2750A0b76F9012e18B256Cc243/N.sol\":3364:3382  blocksBetweenMints */\n      dup2\n        /* \".debug/1/0xE73d53e3a982ab2750A0b76F9012e18B256Cc243/N.sol\":3364:3394  blocksBetweenMints >= 2**epoch */\n      lt\n        /* \".debug/1/0xE73d53e3a982ab2750A0b76F9012e18B256Cc243/N.sol\":3361:3606  if(blocksBetweenMints >= 2**epoch) {... */\n      tag_119\n      jumpi\n        /* \".debug/1/0xE73d53e3a982ab2750A0b76F9012e18B256Cc243/N.sol\":3458:3462  1e18 */\n      0x0de0b6b3a7640000\n        /* \".debug/1/0xE73d53e3a982ab2750A0b76F9012e18B256Cc243/N.sol\":3450:3455  epoch */\n      0x04\n      0x00\n      swap1\n      sload\n      swap1\n      0x0100\n      exp\n      swap1\n      div\n      0xff\n      and\n        /* \".debug/1/0xE73d53e3a982ab2750A0b76F9012e18B256Cc243/N.sol\":3447:3448  2 */\n      0x02\n        /* \".debug/1/0xE73d53e3a982ab2750A0b76F9012e18B256Cc243/N.sol\":3447:3455  2**epoch */\n      tag_120\n      swap2\n      swap1\n      tag_118\n      jump\t// in\n    tag_120:\n        /* \".debug/1/0xE73d53e3a982ab2750A0b76F9012e18B256Cc243/N.sol\":3427:3445  blocksBetweenMints */\n      dup3\n        /* \".debug/1/0xE73d53e3a982ab2750A0b76F9012e18B256Cc243/N.sol\":3427:3456  blocksBetweenMints/(2**epoch) */\n      tag_121\n      swap2\n      swap1\n      tag_122\n      jump\t// in\n    tag_121:\n        /* \".debug/1/0xE73d53e3a982ab2750A0b76F9012e18B256Cc243/N.sol\":3426:3462  (blocksBetweenMints/(2**epoch))*1e18 */\n      tag_123\n      swap2\n      swap1\n      tag_124\n      jump\t// in\n    tag_123:\n        /* \".debug/1/0xE73d53e3a982ab2750A0b76F9012e18B256Cc243/N.sol\":3411:3462  numberToMint = (blocksBetweenMints/(2**epoch))*1e18 */\n      swap2\n      pop\n        /* \".debug/1/0xE73d53e3a982ab2750A0b76F9012e18B256Cc243/N.sol\":3537:3542  epoch */\n      0x04\n      0x00\n      swap1\n      sload\n      swap1\n      0x0100\n      exp\n      swap1\n      div\n      0xff\n      and\n        /* \".debug/1/0xE73d53e3a982ab2750A0b76F9012e18B256Cc243/N.sol\":3534:3535  2 */\n      0x02\n        /* \".debug/1/0xE73d53e3a982ab2750A0b76F9012e18B256Cc243/N.sol\":3534:3542  2**epoch */\n      tag_125\n      swap2\n      swap1\n      tag_118\n      jump\t// in\n    tag_125:\n        /* \".debug/1/0xE73d53e3a982ab2750A0b76F9012e18B256Cc243/N.sol\":3512:3530  blocksBetweenMints */\n      dup2\n        /* \".debug/1/0xE73d53e3a982ab2750A0b76F9012e18B256Cc243/N.sol\":3512:3543  blocksBetweenMints % (2**epoch) */\n      tag_126\n      swap2\n      swap1\n      tag_127\n      jump\t// in\n    tag_126:\n        /* \".debug/1/0xE73d53e3a982ab2750A0b76F9012e18B256Cc243/N.sol\":3496:3508  block.number */\n      number\n        /* \".debug/1/0xE73d53e3a982ab2750A0b76F9012e18B256Cc243/N.sol\":3496:3544  block.number - (blocksBetweenMints % (2**epoch)) */\n      tag_128\n      swap2\n      swap1\n      tag_100\n      jump\t// in\n    tag_128:\n        /* \".debug/1/0xE73d53e3a982ab2750A0b76F9012e18B256Cc243/N.sol\":3477:3493  lastMintingBlock */\n      0x07\n        /* \".debug/1/0xE73d53e3a982ab2750A0b76F9012e18B256Cc243/N.sol\":3477:3544  lastMintingBlock = block.number - (blocksBetweenMints % (2**epoch)) */\n      dup2\n      swap1\n      sstore\n      pop\n        /* \".debug/1/0xE73d53e3a982ab2750A0b76F9012e18B256Cc243/N.sol\":3559:3580  return (numberToMint) */\n      pop\n      jump(tag_115)\n        /* \".debug/1/0xE73d53e3a982ab2750A0b76F9012e18B256Cc243/N.sol\":3361:3606  if(blocksBetweenMints >= 2**epoch) {... */\n    tag_119:\n        /* \".debug/1/0xE73d53e3a982ab2750A0b76F9012e18B256Cc243/N.sol\":3598:3606  revert() */\n      revert(0x00, 0x00)\n        /* \".debug/1/0xE73d53e3a982ab2750A0b76F9012e18B256Cc243/N.sol\":3221:3614  function mintable() internal returns (uint256 numberToMint) {... */\n    tag_115:\n      swap1\n      jump\t// out\n        /* \"#utility.yul\":7:106   */\n    tag_130:\n        /* \"#utility.yul\":59:65   */\n      0x00\n        /* \"#utility.yul\":93:98   */\n      dup2\n        /* \"#utility.yul\":87:99   */\n      mload\n        /* \"#utility.yul\":77:99   */\n      swap1\n      pop\n        /* \"#utility.yul\":7:106   */\n      swap2\n      swap1\n      pop\n      jump\t// out\n        /* \"#utility.yul\":112:281   */\n    tag_131:\n        /* \"#utility.yul\":196:207   */\n      0x00\n        /* \"#utility.yul\":230:236   */\n      dup3\n        /* \"#utility.yul\":225:228   */\n      dup3\n        /* \"#utility.yul\":218:237   */\n      mstore\n        /* \"#utility.yul\":270:274   */\n      0x20\n        /* \"#utility.yul\":265:268   */\n      dup3\n        /* \"#utility.yul\":261:275   */\n      add\n        /* \"#utility.yul\":246:275   */\n      swap1\n      pop\n        /* \"#utility.yul\":112:281   */\n      swap3\n      swap2\n      pop\n      pop\n      jump\t// out\n        /* \"#utility.yul\":287:426   */\n    tag_132:\n        /* \"#utility.yul\":376:382   */\n      dup3\n        /* \"#utility.yul\":371:374   */\n      dup2\n        /* \"#utility.yul\":366:369   */\n      dup4\n        /* \"#utility.yul\":360:383   */\n      mcopy\n        /* \"#utility.yul\":417:418   */\n      0x00\n        /* \"#utility.yul\":408:414   */\n      dup4\n        /* \"#utility.yul\":403:406   */\n      dup4\n        /* \"#utility.yul\":399:415   */\n      add\n        /* \"#utility.yul\":392:419   */\n      mstore\n        /* \"#utility.yul\":287:426   */\n      pop\n      pop\n      pop\n      jump\t// out\n        /* \"#utility.yul\":432:534   */\n    tag_133:\n        /* \"#utility.yul\":473:479   */\n      0x00\n        /* \"#utility.yul\":524:526   */\n      0x1f\n        /* \"#utility.yul\":520:527   */\n      not\n        /* \"#utility.yul\":515:517   */\n      0x1f\n        /* \"#utility.yul\":508:513   */\n      dup4\n        /* \"#utility.yul\":504:518   */\n      add\n        /* \"#utility.yul\":500:528   */\n      and\n        /* \"#utility.yul\":490:528   */\n      swap1\n      pop\n        /* \"#utility.yul\":432:534   */\n      swap2\n      swap1\n      pop\n      jump\t// out\n        /* \"#utility.yul\":540:917   */\n    tag_134:\n        /* \"#utility.yul\":628:631   */\n      0x00\n        /* \"#utility.yul\":656:695   */\n      tag_166\n        /* \"#utility.yul\":689:694   */\n      dup3\n        /* \"#utility.yul\":656:695   */\n      tag_130\n      jump\t// in\n    tag_166:\n        /* \"#utility.yul\":711:782   */\n      tag_167\n        /* \"#utility.yul\":775:781   */\n      dup2\n        /* \"#utility.yul\":770:773   */\n      dup6\n        /* \"#utility.yul\":711:782   */\n      tag_131\n      jump\t// in\n    tag_167:\n        /* \"#utility.yul\":704:782   */\n      swap4\n      pop\n        /* \"#utility.yul\":791:856   */\n      tag_168\n        /* \"#utility.yul\":849:855   */\n      dup2\n        /* \"#utility.yul\":844:847   */\n      dup6\n        /* \"#utility.yul\":837:841   */\n      0x20\n        /* \"#utility.yul\":830:835   */\n      dup7\n        /* \"#utility.yul\":826:842   */\n      add\n        /* \"#utility.yul\":791:856   */\n      tag_132\n      jump\t// in\n    tag_168:\n        /* \"#utility.yul\":881:910   */\n      tag_169\n        /* \"#utility.yul\":903:909   */\n      dup2\n        /* \"#utility.yul\":881:910   */\n      tag_133\n      jump\t// in\n    tag_169:\n        /* \"#utility.yul\":876:879   */\n      dup5\n        /* \"#utility.yul\":872:911   */\n      add\n        /* \"#utility.yul\":865:911   */\n      swap2\n      pop\n        /* \"#utility.yul\":632:917   */\n      pop\n        /* \"#utility.yul\":540:917   */\n      swap3\n      swap2\n      pop\n      pop\n      jump\t// out\n        /* \"#utility.yul\":923:1236   */\n    tag_23:\n        /* \"#utility.yul\":1036:1040   */\n      0x00\n        /* \"#utility.yul\":1074:1076   */\n      0x20\n        /* \"#utility.yul\":1063:1072   */\n      dup3\n        /* \"#utility.yul\":1059:1077   */\n      add\n        /* \"#utility.yul\":1051:1077   */\n      swap1\n      pop\n        /* \"#utility.yul\":1123:1132   */\n      dup2\n        /* \"#utility.yul\":1117:1121   */\n      dup2\n        /* \"#utility.yul\":1113:1133   */\n      sub\n        /* \"#utility.yul\":1109:1110   */\n      0x00\n        /* \"#utility.yul\":1098:1107   */\n      dup4\n        /* \"#utility.yul\":1094:1111   */\n      add\n        /* \"#utility.yul\":1087:1134   */\n      mstore\n        /* \"#utility.yul\":1151:1229   */\n      tag_171\n        /* \"#utility.yul\":1224:1228   */\n      dup2\n        /* \"#utility.yul\":1215:1221   */\n      dup5\n        /* \"#utility.yul\":1151:1229   */\n      tag_134\n      jump\t// in\n    tag_171:\n        /* \"#utility.yul\":1143:1229   */\n      swap1\n      pop\n        /* \"#utility.yul\":923:1236   */\n      swap3\n      swap2\n      pop\n      pop\n      jump\t// out\n        /* \"#utility.yul\":1323:1440   */\n    tag_136:\n        /* \"#utility.yul\":1432:1433   */\n      0x00\n        /* \"#utility.yul\":1429:1430   */\n      0x00\n        /* \"#utility.yul\":1422:1434   */\n      revert\n        /* \"#utility.yul\":1569:1695   */\n    tag_138:\n        /* \"#utility.yul\":1606:1613   */\n      0x00\n        /* \"#utility.yul\":1646:1688   */\n      0xffffffffffffffffffffffffffffffffffffffff\n        /* \"#utility.yul\":1639:1644   */\n      dup3\n        /* \"#utility.yul\":1635:1689   */\n      and\n        /* \"#utility.yul\":1624:1689   */\n      swap1\n      pop\n        /* \"#utility.yul\":1569:1695   */\n      swap2\n      swap1\n      pop\n      jump\t// out\n        /* \"#utility.yul\":1701:1797   */\n    tag_139:\n        /* \"#utility.yul\":1738:1745   */\n      0x00\n        /* \"#utility.yul\":1767:1791   */\n      tag_177\n        /* \"#utility.yul\":1785:1790   */\n      dup3\n        /* \"#utility.yul\":1767:1791   */\n      tag_138\n      jump\t// in\n    tag_177:\n        /* \"#utility.yul\":1756:1791   */\n      swap1\n      pop\n        /* \"#utility.yul\":1701:1797   */\n      swap2\n      swap1\n      pop\n      jump\t// out\n        /* \"#utility.yul\":1803:1925   */\n    tag_140:\n        /* \"#utility.yul\":1876:1900   */\n      tag_179\n        /* \"#utility.yul\":1894:1899   */\n      dup2\n        /* \"#utility.yul\":1876:1900   */\n      tag_139\n      jump\t// in\n    tag_179:\n        /* \"#utility.yul\":1869:1874   */\n      dup2\n        /* \"#utility.yul\":1866:1901   */\n      eq\n        /* \"#utility.yul\":1856:1919   */\n      tag_180\n      jumpi\n        /* \"#utility.yul\":1915:1916   */\n      0x00\n        /* \"#utility.yul\":1912:1913   */\n      0x00\n        /* \"#utility.yul\":1905:1917   */\n      revert\n        /* \"#utility.yul\":1856:1919   */\n    tag_180:\n        /* \"#utility.yul\":1803:1925   */\n      pop\n      jump\t// out\n        /* \"#utility.yul\":1931:2070   */\n    tag_141:\n        /* \"#utility.yul\":1977:1982   */\n      0x00\n        /* \"#utility.yul\":2015:2021   */\n      dup2\n        /* \"#utility.yul\":2002:2022   */\n      calldataload\n        /* \"#utility.yul\":1993:2022   */\n      swap1\n      pop\n        /* \"#utility.yul\":2031:2064   */\n      tag_182\n        /* \"#utility.yul\":2058:2063   */\n      dup2\n        /* \"#utility.yul\":2031:2064   */\n      tag_140\n      jump\t// in\n    tag_182:\n        /* \"#utility.yul\":1931:2070   */\n      swap3\n      swap2\n      pop\n      pop\n      jump\t// out\n        /* \"#utility.yul\":2076:2153   */\n    tag_142:\n        /* \"#utility.yul\":2113:2120   */\n      0x00\n        /* \"#utility.yul\":2142:2147   */\n      dup2\n        /* \"#utility.yul\":2131:2147   */\n      swap1\n      pop\n        /* \"#utility.yul\":2076:2153   */\n      swap2\n      swap1\n      pop\n      jump\t// out\n        /* \"#utility.yul\":2159:2281   */\n    tag_143:\n        /* \"#utility.yul\":2232:2256   */\n      tag_185\n        /* \"#utility.yul\":2250:2255   */\n      dup2\n        /* \"#utility.yul\":2232:2256   */\n      tag_142\n      jump\t// in\n    tag_185:\n        /* \"#utility.yul\":2225:2230   */\n      dup2\n        /* \"#utility.yul\":2222:2257   */\n      eq\n        /* \"#utility.yul\":2212:2275   */\n      tag_186\n      jumpi\n        /* \"#utility.yul\":2271:2272   */\n      0x00\n        /* \"#utility.yul\":2268:2269   */\n      0x00\n        /* \"#utility.yul\":2261:2273   */\n      revert\n        /* \"#utility.yul\":2212:2275   */\n    tag_186:\n        /* \"#utility.yul\":2159:2281   */\n      pop\n      jump\t// out\n        /* \"#utility.yul\":2287:2426   */\n    tag_144:\n        /* \"#utility.yul\":2333:2338   */\n      0x00\n        /* \"#utility.yul\":2371:2377   */\n      dup2\n        /* \"#utility.yul\":2358:2378   */\n      calldataload\n        /* \"#utility.yul\":2349:2378   */\n      swap1\n      pop\n        /* \"#utility.yul\":2387:2420   */\n      tag_188\n        /* \"#utility.yul\":2414:2419   */\n      dup2\n        /* \"#utility.yul\":2387:2420   */\n      tag_143\n      jump\t// in\n    tag_188:\n        /* \"#utility.yul\":2287:2426   */\n      swap3\n      swap2\n      pop\n      pop\n      jump\t// out\n        /* \"#utility.yul\":2432:2906   */\n    tag_26:\n        /* \"#utility.yul\":2500:2506   */\n      0x00\n        /* \"#utility.yul\":2508:2514   */\n      0x00\n        /* \"#utility.yul\":2557:2559   */\n      0x40\n        /* \"#utility.yul\":2545:2554   */\n      dup4\n        /* \"#utility.yul\":2536:2543   */\n      dup6\n        /* \"#utility.yul\":2532:2555   */\n      sub\n        /* \"#utility.yul\":2528:2560   */\n      slt\n        /* \"#utility.yul\":2525:2644   */\n      iszero\n      tag_190\n      jumpi\n        /* \"#utility.yul\":2563:2642   */\n      tag_191\n      tag_136\n      jump\t// in\n    tag_191:\n        /* \"#utility.yul\":2525:2644   */\n    tag_190:\n        /* \"#utility.yul\":2683:2684   */\n      0x00\n        /* \"#utility.yul\":2708:2761   */\n      tag_192\n        /* \"#utility.yul\":2753:2760   */\n      dup6\n        /* \"#utility.yul\":2744:2750   */\n      dup3\n        /* \"#utility.yul\":2733:2742   */\n      dup7\n        /* \"#utility.yul\":2729:2751   */\n      add\n        /* \"#utility.yul\":2708:2761   */\n      tag_141\n      jump\t// in\n    tag_192:\n        /* \"#utility.yul\":2698:2761   */\n      swap3\n      pop\n        /* \"#utility.yul\":2654:2771   */\n      pop\n        /* \"#utility.yul\":2810:2812   */\n      0x20\n        /* \"#utility.yul\":2836:2889   */\n      tag_193\n        /* \"#utility.yul\":2881:2888   */\n      dup6\n        /* \"#utility.yul\":2872:2878   */\n      dup3\n        /* \"#utility.yul\":2861:2870   */\n      dup7\n        /* \"#utility.yul\":2857:2879   */\n      add\n        /* \"#utility.yul\":2836:2889   */\n      tag_144\n      jump\t// in\n    tag_193:\n        /* \"#utility.yul\":2826:2889   */\n      swap2\n      pop\n        /* \"#utility.yul\":2781:2899   */\n      pop\n        /* \"#utility.yul\":2432:2906   */\n      swap3\n      pop\n      swap3\n      swap1\n      pop\n      jump\t// out\n        /* \"#utility.yul\":2912:3002   */\n    tag_145:\n        /* \"#utility.yul\":2946:2953   */\n      0x00\n        /* \"#utility.yul\":2989:2994   */\n      dup2\n        /* \"#utility.yul\":2982:2995   */\n      iszero\n        /* \"#utility.yul\":2975:2996   */\n      iszero\n        /* \"#utility.yul\":2964:2996   */\n      swap1\n      pop\n        /* \"#utility.yul\":2912:3002   */\n      swap2\n      swap1\n      pop\n      jump\t// out\n        /* \"#utility.yul\":3008:3117   */\n    tag_146:\n        /* \"#utility.yul\":3089:3110   */\n      tag_196\n        /* \"#utility.yul\":3104:3109   */\n      dup2\n        /* \"#utility.yul\":3089:3110   */\n      tag_145\n      jump\t// in\n    tag_196:\n        /* \"#utility.yul\":3084:3087   */\n      dup3\n        /* \"#utility.yul\":3077:3111   */\n      mstore\n        /* \"#utility.yul\":3008:3117   */\n      pop\n      pop\n      jump\t// out\n        /* \"#utility.yul\":3123:3333   */\n    tag_29:\n        /* \"#utility.yul\":3210:3214   */\n      0x00\n        /* \"#utility.yul\":3248:3250   */\n      0x20\n        /* \"#utility.yul\":3237:3246   */\n      dup3\n        /* \"#utility.yul\":3233:3251   */\n      add\n        /* \"#utility.yul\":3225:3251   */\n      swap1\n      pop\n        /* \"#utility.yul\":3261:3326   */\n      tag_198\n        /* \"#utility.yul\":3323:3324   */\n      0x00\n        /* \"#utility.yul\":3312:3321   */\n      dup4\n        /* \"#utility.yul\":3308:3325   */\n      add\n        /* \"#utility.yul\":3299:3305   */\n      dup5\n        /* \"#utility.yul\":3261:3326   */\n      tag_146\n      jump\t// in\n    tag_198:\n        /* \"#utility.yul\":3123:3333   */\n      swap3\n      swap2\n      pop\n      pop\n      jump\t// out\n        /* \"#utility.yul\":3339:3457   */\n    tag_147:\n        /* \"#utility.yul\":3426:3450   */\n      tag_200\n        /* \"#utility.yul\":3444:3449   */\n      dup2\n        /* \"#utility.yul\":3426:3450   */\n      tag_142\n      jump\t// in\n    tag_200:\n        /* \"#utility.yul\":3421:3424   */\n      dup3\n        /* \"#utility.yul\":3414:3451   */\n      mstore\n        /* \"#utility.yul\":3339:3457   */\n      pop\n      pop\n      jump\t// out\n        /* \"#utility.yul\":3463:3685   */\n    tag_35:\n        /* \"#utility.yul\":3556:3560   */\n      0x00\n        /* \"#utility.yul\":3594:3596   */\n      0x20\n        /* \"#utility.yul\":3583:3592   */\n      dup3\n        /* \"#utility.yul\":3579:3597   */\n      add\n        /* \"#utility.yul\":3571:3597   */\n      swap1\n      pop\n        /* \"#utility.yul\":3607:3678   */\n      tag_202\n        /* \"#utility.yul\":3675:3676   */\n      0x00\n        /* \"#utility.yul\":3664:3673   */\n      dup4\n        /* \"#utility.yul\":3660:3677   */\n      add\n        /* \"#utility.yul\":3651:3657   */\n      dup5\n        /* \"#utility.yul\":3607:3678   */\n      tag_147\n      jump\t// in\n    tag_202:\n        /* \"#utility.yul\":3463:3685   */\n      swap3\n      swap2\n      pop\n      pop\n      jump\t// out\n        /* \"#utility.yul\":3691:4310   */\n    tag_38:\n        /* \"#utility.yul\":3768:3774   */\n      0x00\n        /* \"#utility.yul\":3776:3782   */\n      0x00\n        /* \"#utility.yul\":3784:3790   */\n      0x00\n        /* \"#utility.yul\":3833:3835   */\n      0x60\n        /* \"#utility.yul\":3821:3830   */\n      dup5\n        /* \"#utility.yul\":3812:3819   */\n      dup7\n        /* \"#utility.yul\":3808:3831   */\n      sub\n        /* \"#utility.yul\":3804:3836   */\n      slt\n        /* \"#utility.yul\":3801:3920   */\n      iszero\n      tag_204\n      jumpi\n        /* \"#utility.yul\":3839:3918   */\n      tag_205\n      tag_136\n      jump\t// in\n    tag_205:\n        /* \"#utility.yul\":3801:3920   */\n    tag_204:\n        /* \"#utility.yul\":3959:3960   */\n      0x00\n        /* \"#utility.yul\":3984:4037   */\n      tag_206\n        /* \"#utility.yul\":4029:4036   */\n      dup7\n        /* \"#utility.yul\":4020:4026   */\n      dup3\n        /* \"#utility.yul\":4009:4018   */\n      dup8\n        /* \"#utility.yul\":4005:4027   */\n      add\n        /* \"#utility.yul\":3984:4037   */\n      tag_141\n      jump\t// in\n    tag_206:\n        /* \"#utility.yul\":3974:4037   */\n      swap4\n      pop\n        /* \"#utility.yul\":3930:4047   */\n      pop\n        /* \"#utility.yul\":4086:4088   */\n      0x20\n        /* \"#utility.yul\":4112:4165   */\n      tag_207\n        /* \"#utility.yul\":4157:4164   */\n      dup7\n        /* \"#utility.yul\":4148:4154   */\n      dup3\n        /* \"#utility.yul\":4137:4146   */\n      dup8\n        /* \"#utility.yul\":4133:4155   */\n      add\n        /* \"#utility.yul\":4112:4165   */\n      tag_141\n      jump\t// in\n    tag_207:\n        /* \"#utility.yul\":4102:4165   */\n      swap3\n      pop\n        /* \"#utility.yul\":4057:4175   */\n      pop\n        /* \"#utility.yul\":4214:4216   */\n      0x40\n        /* \"#utility.yul\":4240:4293   */\n      tag_208\n        /* \"#utility.yul\":4285:4292   */\n      dup7\n        /* \"#utility.yul\":4276:4282   */\n      dup3\n        /* \"#utility.yul\":4265:4274   */\n      dup8\n        /* \"#utility.yul\":4261:4283   */\n      add\n        /* \"#utility.yul\":4240:4293   */\n      tag_144\n      jump\t// in\n    tag_208:\n        /* \"#utility.yul\":4230:4293   */\n      swap2\n      pop\n        /* \"#utility.yul\":4185:4303   */\n      pop\n        /* \"#utility.yul\":3691:4310   */\n      swap3\n      pop\n      swap3\n      pop\n      swap3\n      jump\t// out\n        /* \"#utility.yul\":4316:4402   */\n    tag_148:\n        /* \"#utility.yul\":4351:4358   */\n      0x00\n        /* \"#utility.yul\":4391:4395   */\n      0xff\n        /* \"#utility.yul\":4384:4389   */\n      dup3\n        /* \"#utility.yul\":4380:4396   */\n      and\n        /* \"#utility.yul\":4369:4396   */\n      swap1\n      pop\n        /* \"#utility.yul\":4316:4402   */\n      swap2\n      swap1\n      pop\n      jump\t// out\n        /* \"#utility.yul\":4408:4520   */\n    tag_149:\n        /* \"#utility.yul\":4491:4513   */\n      tag_211\n        /* \"#utility.yul\":4507:4512   */\n      dup2\n        /* \"#utility.yul\":4491:4513   */\n      tag_148\n      jump\t// in\n    tag_211:\n        /* \"#utility.yul\":4486:4489   */\n      dup3\n        /* \"#utility.yul\":4479:4514   */\n      mstore\n        /* \"#utility.yul\":4408:4520   */\n      pop\n      pop\n      jump\t// out\n        /* \"#utility.yul\":4526:4740   */\n    tag_44:\n        /* \"#utility.yul\":4615:4619   */\n      0x00\n        /* \"#utility.yul\":4653:4655   */\n      0x20\n        /* \"#utility.yul\":4642:4651   */\n      dup3\n        /* \"#utility.yul\":4638:4656   */\n      add\n        /* \"#utility.yul\":4630:4656   */\n      swap1\n      pop\n        /* \"#utility.yul\":4666:4733   */\n      tag_213\n        /* \"#utility.yul\":4730:4731   */\n      0x00\n        /* \"#utility.yul\":4719:4728   */\n      dup4\n        /* \"#utility.yul\":4715:4732   */\n      add\n        /* \"#utility.yul\":4706:4712   */\n      dup5\n        /* \"#utility.yul\":4666:4733   */\n      tag_149\n      jump\t// in\n    tag_213:\n        /* \"#utility.yul\":4526:4740   */\n      swap3\n      swap2\n      pop\n      pop\n      jump\t// out\n        /* \"#utility.yul\":4746:5075   */\n    tag_53:\n        /* \"#utility.yul\":4805:4811   */\n      0x00\n        /* \"#utility.yul\":4854:4856   */\n      0x20\n        /* \"#utility.yul\":4842:4851   */\n      dup3\n        /* \"#utility.yul\":4833:4840   */\n      dup5\n        /* \"#utility.yul\":4829:4852   */\n      sub\n        /* \"#utility.yul\":4825:4857   */\n      slt\n        /* \"#utility.yul\":4822:4941   */\n      iszero\n      tag_215\n      jumpi\n        /* \"#utility.yul\":4860:4939   */\n      tag_216\n      tag_136\n      jump\t// in\n    tag_216:\n        /* \"#utility.yul\":4822:4941   */\n    tag_215:\n        /* \"#utility.yul\":4980:4981   */\n      0x00\n        /* \"#utility.yul\":5005:5058   */\n      tag_217\n        /* \"#utility.yul\":5050:5057   */\n      dup5\n        /* \"#utility.yul\":5041:5047   */\n      dup3\n        /* \"#utility.yul\":5030:5039   */\n      dup6\n        /* \"#utility.yul\":5026:5048   */\n      add\n        /* \"#utility.yul\":5005:5058   */\n      tag_141\n      jump\t// in\n    tag_217:\n        /* \"#utility.yul\":4995:5058   */\n      swap2\n      pop\n        /* \"#utility.yul\":4951:5068   */\n      pop\n        /* \"#utility.yul\":4746:5075   */\n      swap3\n      swap2\n      pop\n      pop\n      jump\t// out\n        /* \"#utility.yul\":5081:5555   */\n    tag_71:\n        /* \"#utility.yul\":5149:5155   */\n      0x00\n        /* \"#utility.yul\":5157:5163   */\n      0x00\n        /* \"#utility.yul\":5206:5208   */\n      0x40\n        /* \"#utility.yul\":5194:5203   */\n      dup4\n        /* \"#utility.yul\":5185:5192   */\n      dup6\n        /* \"#utility.yul\":5181:5204   */\n      sub\n        /* \"#utility.yul\":5177:5209   */\n      slt\n        /* \"#utility.yul\":5174:5293   */\n      iszero\n      tag_219\n      jumpi\n        /* \"#utility.yul\":5212:5291   */\n      tag_220\n      tag_136\n      jump\t// in\n    tag_220:\n        /* \"#utility.yul\":5174:5293   */\n    tag_219:\n        /* \"#utility.yul\":5332:5333   */\n      0x00\n        /* \"#utility.yul\":5357:5410   */\n      tag_221\n        /* \"#utility.yul\":5402:5409   */\n      dup6\n        /* \"#utility.yul\":5393:5399   */\n      dup3\n        /* \"#utility.yul\":5382:5391   */\n      dup7\n        /* \"#utility.yul\":5378:5400   */\n      add\n        /* \"#utility.yul\":5357:5410   */\n      tag_141\n      jump\t// in\n    tag_221:\n        /* \"#utility.yul\":5347:5410   */\n      swap3\n      pop\n        /* \"#utility.yul\":5303:5420   */\n      pop\n        /* \"#utility.yul\":5459:5461   */\n      0x20\n        /* \"#utility.yul\":5485:5538   */\n      tag_222\n        /* \"#utility.yul\":5530:5537   */\n      dup6\n        /* \"#utility.yul\":5521:5527   */\n      dup3\n        /* \"#utility.yul\":5510:5519   */\n      dup7\n        /* \"#utility.yul\":5506:5528   */\n      add\n        /* \"#utility.yul\":5485:5538   */\n      tag_141\n      jump\t// in\n    tag_222:\n        /* \"#utility.yul\":5475:5538   */\n      swap2\n      pop\n        /* \"#utility.yul\":5430:5548   */\n      pop\n        /* \"#utility.yul\":5081:5555   */\n      swap3\n      pop\n      swap3\n      swap1\n      pop\n      jump\t// out\n        /* \"#utility.yul\":5561:5741   */\n    tag_150:\n        /* \"#utility.yul\":5609:5686   */\n      0x4e487b7100000000000000000000000000000000000000000000000000000000\n        /* \"#utility.yul\":5606:5607   */\n      0x00\n        /* \"#utility.yul\":5599:5687   */\n      mstore\n        /* \"#utility.yul\":5706:5710   */\n      0x22\n        /* \"#utility.yul\":5703:5704   */\n      0x04\n        /* \"#utility.yul\":5696:5711   */\n      mstore\n        /* \"#utility.yul\":5730:5734   */\n      0x24\n        /* \"#utility.yul\":5727:5728   */\n      0x00\n        /* \"#utility.yul\":5720:5735   */\n      revert\n        /* \"#utility.yul\":5747:6067   */\n    tag_75:\n        /* \"#utility.yul\":5791:5797   */\n      0x00\n        /* \"#utility.yul\":5828:5829   */\n      0x02\n        /* \"#utility.yul\":5822:5826   */\n      dup3\n        /* \"#utility.yul\":5818:5830   */\n      div\n        /* \"#utility.yul\":5808:5830   */\n      swap1\n      pop\n        /* \"#utility.yul\":5875:5876   */\n      0x01\n        /* \"#utility.yul\":5869:5873   */\n      dup3\n        /* \"#utility.yul\":5865:5877   */\n      and\n        /* \"#utility.yul\":5896:5914   */\n      dup1\n        /* \"#utility.yul\":5886:5967   */\n      tag_225\n      jumpi\n        /* \"#utility.yul\":5952:5956   */\n      0x7f\n        /* \"#utility.yul\":5944:5950   */\n      dup3\n        /* \"#utility.yul\":5940:5957   */\n      and\n        /* \"#utility.yul\":5930:5957   */\n      swap2\n      pop\n        /* \"#utility.yul\":5886:5967   */\n    tag_225:\n        /* \"#utility.yul\":6014:6016   */\n      0x20\n        /* \"#utility.yul\":6006:6012   */\n      dup3\n        /* \"#utility.yul\":6003:6017   */\n      lt\n        /* \"#utility.yul\":5983:6001   */\n      dup2\n        /* \"#utility.yul\":5980:6018   */\n      sub\n        /* \"#utility.yul\":5977:6061   */\n      tag_226\n      jumpi\n        /* \"#utility.yul\":6033:6051   */\n      tag_227\n      tag_150\n      jump\t// in\n    tag_227:\n        /* \"#utility.yul\":5977:6061   */\n    tag_226:\n        /* \"#utility.yul\":5798:6067   */\n      pop\n        /* \"#utility.yul\":5747:6067   */\n      swap2\n      swap1\n      pop\n      jump\t// out\n        /* \"#utility.yul\":6073:6253   */\n    tag_151:\n        /* \"#utility.yul\":6121:6198   */\n      0x4e487b7100000000000000000000000000000000000000000000000000000000\n        /* \"#utility.yul\":6118:6119   */\n      0x00\n        /* \"#utility.yul\":6111:6199   */\n      mstore\n        /* \"#utility.yul\":6218:6222   */\n      0x11\n        /* \"#utility.yul\":6215:6216   */\n      0x04\n        /* \"#utility.yul\":6208:6223   */\n      mstore\n        /* \"#utility.yul\":6242:6246   */\n      0x24\n        /* \"#utility.yul\":6239:6240   */\n      0x00\n        /* \"#utility.yul\":6232:6247   */\n      revert\n        /* \"#utility.yul\":6259:6450   */\n    tag_86:\n        /* \"#utility.yul\":6299:6302   */\n      0x00\n        /* \"#utility.yul\":6318:6338   */\n      tag_230\n        /* \"#utility.yul\":6336:6337   */\n      dup3\n        /* \"#utility.yul\":6318:6338   */\n      tag_142\n      jump\t// in\n    tag_230:\n        /* \"#utility.yul\":6313:6338   */\n      swap2\n      pop\n        /* \"#utility.yul\":6352:6372   */\n      tag_231\n        /* \"#utility.yul\":6370:6371   */\n      dup4\n        /* \"#utility.yul\":6352:6372   */\n      tag_142\n      jump\t// in\n    tag_231:\n        /* \"#utility.yul\":6347:6372   */\n      swap3\n      pop\n        /* \"#utility.yul\":6395:6396   */\n      dup3\n        /* \"#utility.yul\":6392:6393   */\n      dup3\n        /* \"#utility.yul\":6388:6397   */\n      add\n        /* \"#utility.yul\":6381:6397   */\n      swap1\n      pop\n        /* \"#utility.yul\":6416:6419   */\n      dup1\n        /* \"#utility.yul\":6413:6414   */\n      dup3\n        /* \"#utility.yul\":6410:6420   */\n      gt\n        /* \"#utility.yul\":6407:6443   */\n      iszero\n      tag_232\n      jumpi\n        /* \"#utility.yul\":6423:6441   */\n      tag_233\n      tag_151\n      jump\t// in\n    tag_233:\n        /* \"#utility.yul\":6407:6443   */\n    tag_232:\n        /* \"#utility.yul\":6259:6450   */\n      swap3\n      swap2\n      pop\n      pop\n      jump\t// out\n        /* \"#utility.yul\":6456:6623   */\n    tag_91:\n        /* \"#utility.yul\":6493:6496   */\n      0x00\n        /* \"#utility.yul\":6516:6538   */\n      tag_235\n        /* \"#utility.yul\":6532:6537   */\n      dup3\n        /* \"#utility.yul\":6516:6538   */\n      tag_148\n      jump\t// in\n    tag_235:\n        /* \"#utility.yul\":6507:6538   */\n      swap2\n      pop\n        /* \"#utility.yul\":6560:6564   */\n      0xff\n        /* \"#utility.yul\":6553:6558   */\n      dup3\n        /* \"#utility.yul\":6550:6565   */\n      sub\n        /* \"#utility.yul\":6547:6588   */\n      tag_236\n      jumpi\n        /* \"#utility.yul\":6568:6586   */\n      tag_237\n      tag_151\n      jump\t// in\n    tag_237:\n        /* \"#utility.yul\":6547:6588   */\n    tag_236:\n        /* \"#utility.yul\":6615:6616   */\n      0x01\n        /* \"#utility.yul\":6608:6613   */\n      dup3\n        /* \"#utility.yul\":6604:6617   */\n      add\n        /* \"#utility.yul\":6597:6617   */\n      swap1\n      pop\n        /* \"#utility.yul\":6456:6623   */\n      swap2\n      swap1\n      pop\n      jump\t// out\n        /* \"#utility.yul\":6629:6799   */\n    tag_152:\n        /* \"#utility.yul\":6769:6791   */\n      0x496e73756666696369656e742062616c616e6365000000000000000000000000\n        /* \"#utility.yul\":6765:6766   */\n      0x00\n        /* \"#utility.yul\":6757:6763   */\n      dup3\n        /* \"#utility.yul\":6753:6767   */\n      add\n        /* \"#utility.yul\":6746:6792   */\n      mstore\n        /* \"#utility.yul\":6629:6799   */\n      pop\n      jump\t// out\n        /* \"#utility.yul\":6805:7171   */\n    tag_153:\n        /* \"#utility.yul\":6947:6950   */\n      0x00\n        /* \"#utility.yul\":6968:7035   */\n      tag_240\n        /* \"#utility.yul\":7032:7034   */\n      0x14\n        /* \"#utility.yul\":7027:7030   */\n      dup4\n        /* \"#utility.yul\":6968:7035   */\n      tag_131\n      jump\t// in\n    tag_240:\n        /* \"#utility.yul\":6961:7035   */\n      swap2\n      pop\n        /* \"#utility.yul\":7044:7137   */\n      tag_241\n        /* \"#utility.yul\":7133:7136   */\n      dup3\n        /* \"#utility.yul\":7044:7137   */\n      tag_152\n      jump\t// in\n    tag_241:\n        /* \"#utility.yul\":7162:7164   */\n      0x20\n        /* \"#utility.yul\":7157:7160   */\n      dup3\n        /* \"#utility.yul\":7153:7165   */\n      add\n        /* \"#utility.yul\":7146:7165   */\n      swap1\n      pop\n        /* \"#utility.yul\":6805:7171   */\n      swap2\n      swap1\n      pop\n      jump\t// out\n        /* \"#utility.yul\":7177:7596   */\n    tag_95:\n        /* \"#utility.yul\":7343:7347   */\n      0x00\n        /* \"#utility.yul\":7381:7383   */\n      0x20\n        /* \"#utility.yul\":7370:7379   */\n      dup3\n        /* \"#utility.yul\":7366:7384   */\n      add\n        /* \"#utility.yul\":7358:7384   */\n      swap1\n      pop\n        /* \"#utility.yul\":7430:7439   */\n      dup2\n        /* \"#utility.yul\":7424:7428   */\n      dup2\n        /* \"#utility.yul\":7420:7440   */\n      sub\n        /* \"#utility.yul\":7416:7417   */\n      0x00\n        /* \"#utility.yul\":7405:7414   */\n      dup4\n        /* \"#utility.yul\":7401:7418   */\n      add\n        /* \"#utility.yul\":7394:7441   */\n      mstore\n        /* \"#utility.yul\":7458:7589   */\n      tag_243\n        /* \"#utility.yul\":7584:7588   */\n      dup2\n        /* \"#utility.yul\":7458:7589   */\n      tag_153\n      jump\t// in\n    tag_243:\n        /* \"#utility.yul\":7450:7589   */\n      swap1\n      pop\n        /* \"#utility.yul\":7177:7596   */\n      swap2\n      swap1\n      pop\n      jump\t// out\n        /* \"#utility.yul\":7602:7774   */\n    tag_154:\n        /* \"#utility.yul\":7742:7766   */\n      0x496e73756666696369656e7420616c6c6f77616e636500000000000000000000\n        /* \"#utility.yul\":7738:7739   */\n      0x00\n        /* \"#utility.yul\":7730:7736   */\n      dup3\n        /* \"#utility.yul\":7726:7740   */\n      add\n        /* \"#utility.yul\":7719:7767   */\n      mstore\n        /* \"#utility.yul\":7602:7774   */\n      pop\n      jump\t// out\n        /* \"#utility.yul\":7780:8146   */\n    tag_155:\n        /* \"#utility.yul\":7922:7925   */\n      0x00\n        /* \"#utility.yul\":7943:8010   */\n      tag_246\n        /* \"#utility.yul\":8007:8009   */\n      0x16\n        /* \"#utility.yul\":8002:8005   */\n      dup4\n        /* \"#utility.yul\":7943:8010   */\n      tag_131\n      jump\t// in\n    tag_246:\n        /* \"#utility.yul\":7936:8010   */\n      swap2\n      pop\n        /* \"#utility.yul\":8019:8112   */\n      tag_247\n        /* \"#utility.yul\":8108:8111   */\n      dup3\n        /* \"#utility.yul\":8019:8112   */\n      tag_154\n      jump\t// in\n    tag_247:\n        /* \"#utility.yul\":8137:8139   */\n      0x20\n        /* \"#utility.yul\":8132:8135   */\n      dup3\n        /* \"#utility.yul\":8128:8140   */\n      add\n        /* \"#utility.yul\":8121:8140   */\n      swap1\n      pop\n        /* \"#utility.yul\":7780:8146   */\n      swap2\n      swap1\n      pop\n      jump\t// out\n        /* \"#utility.yul\":8152:8571   */\n    tag_98:\n        /* \"#utility.yul\":8318:8322   */\n      0x00\n        /* \"#utility.yul\":8356:8358   */\n      0x20\n        /* \"#utility.yul\":8345:8354   */\n      dup3\n        /* \"#utility.yul\":8341:8359   */\n      add\n        /* \"#utility.yul\":8333:8359   */\n      swap1\n      pop\n        /* \"#utility.yul\":8405:8414   */\n      dup2\n        /* \"#utility.yul\":8399:8403   */\n      dup2\n        /* \"#utility.yul\":8395:8415   */\n      sub\n        /* \"#utility.yul\":8391:8392   */\n      0x00\n        /* \"#utility.yul\":8380:8389   */\n      dup4\n        /* \"#utility.yul\":8376:8393   */\n      add\n        /* \"#utility.yul\":8369:8416   */\n      mstore\n        /* \"#utility.yul\":8433:8564   */\n      tag_249\n        /* \"#utility.yul\":8559:8563   */\n      dup2\n        /* \"#utility.yul\":8433:8564   */\n      tag_155\n      jump\t// in\n    tag_249:\n        /* \"#utility.yul\":8425:8564   */\n      swap1\n      pop\n        /* \"#utility.yul\":8152:8571   */\n      swap2\n      swap1\n      pop\n      jump\t// out\n        /* \"#utility.yul\":8577:8771   */\n    tag_100:\n        /* \"#utility.yul\":8617:8621   */\n      0x00\n        /* \"#utility.yul\":8637:8657   */\n      tag_251\n        /* \"#utility.yul\":8655:8656   */\n      dup3\n        /* \"#utility.yul\":8637:8657   */\n      tag_142\n      jump\t// in\n    tag_251:\n        /* \"#utility.yul\":8632:8657   */\n      swap2\n      pop\n        /* \"#utility.yul\":8671:8691   */\n      tag_252\n        /* \"#utility.yul\":8689:8690   */\n      dup4\n        /* \"#utility.yul\":8671:8691   */\n      tag_142\n      jump\t// in\n    tag_252:\n        /* \"#utility.yul\":8666:8691   */\n      swap3\n      pop\n        /* \"#utility.yul\":8715:8716   */\n      dup3\n        /* \"#utility.yul\":8712:8713   */\n      dup3\n        /* \"#utility.yul\":8708:8717   */\n      sub\n        /* \"#utility.yul\":8700:8717   */\n      swap1\n      pop\n        /* \"#utility.yul\":8739:8740   */\n      dup2\n        /* \"#utility.yul\":8733:8737   */\n      dup2\n        /* \"#utility.yul\":8730:8741   */\n      gt\n        /* \"#utility.yul\":8727:8764   */\n      iszero\n      tag_253\n      jumpi\n        /* \"#utility.yul\":8744:8762   */\n      tag_254\n      tag_151\n      jump\t// in\n    tag_254:\n        /* \"#utility.yul\":8727:8764   */\n    tag_253:\n        /* \"#utility.yul\":8577:8771   */\n      swap3\n      swap2\n      pop\n      pop\n      jump\t// out\n        /* \"#utility.yul\":8777:8879   */\n    tag_156:\n        /* \"#utility.yul\":8819:8827   */\n      0x00\n        /* \"#utility.yul\":8866:8871   */\n      dup2\n        /* \"#utility.yul\":8863:8864   */\n      0x01\n        /* \"#utility.yul\":8859:8872   */\n      shr\n        /* \"#utility.yul\":8838:8872   */\n      swap1\n      pop\n        /* \"#utility.yul\":8777:8879   */\n      swap2\n      swap1\n      pop\n      jump\t// out\n        /* \"#utility.yul\":8885:9733   */\n    tag_157:\n        /* \"#utility.yul\":8946:8951   */\n      0x00\n        /* \"#utility.yul\":8953:8957   */\n      0x00\n        /* \"#utility.yul\":8977:8983   */\n      dup3\n        /* \"#utility.yul\":8968:8983   */\n      swap2\n      pop\n        /* \"#utility.yul\":9001:9006   */\n      dup4\n        /* \"#utility.yul\":8992:9006   */\n      swap1\n      pop\n        /* \"#utility.yul\":9015:9727   */\n    tag_257:\n        /* \"#utility.yul\":9036:9037   */\n      0x01\n        /* \"#utility.yul\":9026:9034   */\n      dup6\n        /* \"#utility.yul\":9023:9038   */\n      gt\n        /* \"#utility.yul\":9015:9727   */\n      iszero\n      tag_259\n      jumpi\n        /* \"#utility.yul\":9131:9135   */\n      dup1\n        /* \"#utility.yul\":9126:9129   */\n      dup7\n        /* \"#utility.yul\":9122:9136   */\n      div\n        /* \"#utility.yul\":9116:9120   */\n      dup2\n        /* \"#utility.yul\":9113:9137   */\n      gt\n        /* \"#utility.yul\":9110:9160   */\n      iszero\n      tag_260\n      jumpi\n        /* \"#utility.yul\":9140:9158   */\n      tag_261\n      tag_151\n      jump\t// in\n    tag_261:\n        /* \"#utility.yul\":9110:9160   */\n    tag_260:\n        /* \"#utility.yul\":9190:9191   */\n      0x01\n        /* \"#utility.yul\":9180:9188   */\n      dup6\n        /* \"#utility.yul\":9176:9192   */\n      and\n        /* \"#utility.yul\":9173:9624   */\n      iszero\n      tag_262\n      jumpi\n        /* \"#utility.yul\":9605:9609   */\n      dup1\n        /* \"#utility.yul\":9598:9603   */\n      dup3\n        /* \"#utility.yul\":9594:9610   */\n      mul\n        /* \"#utility.yul\":9585:9610   */\n      swap2\n      pop\n        /* \"#utility.yul\":9173:9624   */\n    tag_262:\n        /* \"#utility.yul\":9655:9659   */\n      dup1\n        /* \"#utility.yul\":9649:9653   */\n      dup2\n        /* \"#utility.yul\":9645:9660   */\n      mul\n        /* \"#utility.yul\":9637:9660   */\n      swap1\n      pop\n        /* \"#utility.yul\":9685:9717   */\n      tag_263\n        /* \"#utility.yul\":9708:9716   */\n      dup6\n        /* \"#utility.yul\":9685:9717   */\n      tag_156\n      jump\t// in\n    tag_263:\n        /* \"#utility.yul\":9673:9717   */\n      swap5\n      pop\n        /* \"#utility.yul\":9015:9727   */\n      jump(tag_257)\n    tag_259:\n        /* \"#utility.yul\":8885:9733   */\n      swap5\n      pop\n      swap5\n      swap3\n      pop\n      pop\n      pop\n      jump\t// out\n        /* \"#utility.yul\":9739:10812   */\n    tag_158:\n        /* \"#utility.yul\":9793:9798   */\n      0x00\n        /* \"#utility.yul\":9984:9992   */\n      dup3\n        /* \"#utility.yul\":9974:10014   */\n      tag_265\n      jumpi\n        /* \"#utility.yul\":10005:10006   */\n      0x01\n        /* \"#utility.yul\":9996:10006   */\n      swap1\n      pop\n        /* \"#utility.yul\":10007:10012   */\n      jump(tag_264)\n        /* \"#utility.yul\":9974:10014   */\n    tag_265:\n        /* \"#utility.yul\":10033:10037   */\n      dup2\n        /* \"#utility.yul\":10023:10059   */\n      tag_266\n      jumpi\n        /* \"#utility.yul\":10050:10051   */\n      0x00\n        /* \"#utility.yul\":10041:10051   */\n      swap1\n      pop\n        /* \"#utility.yul\":10052:10057   */\n      jump(tag_264)\n        /* \"#utility.yul\":10023:10059   */\n    tag_266:\n        /* \"#utility.yul\":10119:10123   */\n      dup2\n        /* \"#utility.yul\":10167:10168   */\n      0x01\n        /* \"#utility.yul\":10162:10189   */\n      dup2\n      eq\n      tag_268\n      jumpi\n        /* \"#utility.yul\":10203:10204   */\n      0x02\n        /* \"#utility.yul\":10198:10389   */\n      dup2\n      eq\n      tag_269\n      jumpi\n        /* \"#utility.yul\":10112:10389   */\n      jump(tag_267)\n        /* \"#utility.yul\":10162:10189   */\n    tag_268:\n        /* \"#utility.yul\":10180:10181   */\n      0x01\n        /* \"#utility.yul\":10171:10181   */\n      swap2\n      pop\n        /* \"#utility.yul\":10182:10187   */\n      pop\n      jump(tag_264)\n        /* \"#utility.yul\":10198:10389   */\n    tag_269:\n        /* \"#utility.yul\":10243:10246   */\n      0xff\n        /* \"#utility.yul\":10233:10241   */\n      dup5\n        /* \"#utility.yul\":10230:10247   */\n      gt\n        /* \"#utility.yul\":10227:10270   */\n      iszero\n      tag_270\n      jumpi\n        /* \"#utility.yul\":10250:10268   */\n      tag_271\n      tag_151\n      jump\t// in\n    tag_271:\n        /* \"#utility.yul\":10227:10270   */\n    tag_270:\n        /* \"#utility.yul\":10299:10307   */\n      dup4\n        /* \"#utility.yul\":10296:10297   */\n      0x02\n        /* \"#utility.yul\":10292:10308   */\n      exp\n        /* \"#utility.yul\":10283:10308   */\n      swap2\n      pop\n        /* \"#utility.yul\":10334:10337   */\n      dup5\n        /* \"#utility.yul\":10327:10332   */\n      dup3\n        /* \"#utility.yul\":10324:10338   */\n      gt\n        /* \"#utility.yul\":10321:10361   */\n      iszero\n      tag_272\n      jumpi\n        /* \"#utility.yul\":10341:10359   */\n      tag_273\n      tag_151\n      jump\t// in\n    tag_273:\n        /* \"#utility.yul\":10321:10361   */\n    tag_272:\n        /* \"#utility.yul\":10374:10379   */\n      pop\n      jump(tag_264)\n        /* \"#utility.yul\":10112:10389   */\n    tag_267:\n      pop\n        /* \"#utility.yul\":10498:10500   */\n      0x20\n        /* \"#utility.yul\":10488:10496   */\n      dup4\n        /* \"#utility.yul\":10485:10501   */\n      lt\n        /* \"#utility.yul\":10479:10482   */\n      0x0133\n        /* \"#utility.yul\":10473:10477   */\n      dup4\n        /* \"#utility.yul\":10470:10483   */\n      lt\n        /* \"#utility.yul\":10466:10502   */\n      and\n        /* \"#utility.yul\":10448:10450   */\n      0x4e\n        /* \"#utility.yul\":10438:10446   */\n      dup5\n        /* \"#utility.yul\":10435:10451   */\n      lt\n        /* \"#utility.yul\":10430:10432   */\n      0x0b\n        /* \"#utility.yul\":10424:10428   */\n      dup5\n        /* \"#utility.yul\":10421:10433   */\n      lt\n        /* \"#utility.yul\":10417:10452   */\n      and\n        /* \"#utility.yul\":10401:10512   */\n      or\n        /* \"#utility.yul\":10398:10644   */\n      iszero\n      tag_274\n      jumpi\n        /* \"#utility.yul\":10554:10562   */\n      dup3\n        /* \"#utility.yul\":10548:10552   */\n      dup3\n        /* \"#utility.yul\":10544:10563   */\n      exp\n        /* \"#utility.yul\":10535:10563   */\n      swap1\n      pop\n        /* \"#utility.yul\":10589:10592   */\n      dup4\n        /* \"#utility.yul\":10582:10587   */\n      dup2\n        /* \"#utility.yul\":10579:10593   */\n      gt\n        /* \"#utility.yul\":10576:10616   */\n      iszero\n      tag_275\n      jumpi\n        /* \"#utility.yul\":10596:10614   */\n      tag_276\n      tag_151\n      jump\t// in\n    tag_276:\n        /* \"#utility.yul\":10576:10616   */\n    tag_275:\n        /* \"#utility.yul\":10629:10634   */\n      jump(tag_264)\n        /* \"#utility.yul\":10398:10644   */\n    tag_274:\n        /* \"#utility.yul\":10669:10711   */\n      tag_277\n        /* \"#utility.yul\":10707:10710   */\n      dup5\n        /* \"#utility.yul\":10697:10705   */\n      dup5\n        /* \"#utility.yul\":10691:10695   */\n      dup5\n        /* \"#utility.yul\":10688:10689   */\n      0x01\n        /* \"#utility.yul\":10669:10711   */\n      tag_157\n      jump\t// in\n    tag_277:\n        /* \"#utility.yul\":10654:10711   */\n      swap3\n      pop\n      swap1\n      pop\n        /* \"#utility.yul\":10743:10747   */\n      dup2\n        /* \"#utility.yul\":10738:10741   */\n      dup5\n        /* \"#utility.yul\":10734:10748   */\n      div\n        /* \"#utility.yul\":10727:10732   */\n      dup2\n        /* \"#utility.yul\":10724:10749   */\n      gt\n        /* \"#utility.yul\":10721:10772   */\n      iszero\n      tag_278\n      jumpi\n        /* \"#utility.yul\":10752:10770   */\n      tag_279\n      tag_151\n      jump\t// in\n    tag_279:\n        /* \"#utility.yul\":10721:10772   */\n    tag_278:\n        /* \"#utility.yul\":10801:10805   */\n      dup2\n        /* \"#utility.yul\":10794:10799   */\n      dup2\n        /* \"#utility.yul\":10790:10806   */\n      mul\n        /* \"#utility.yul\":10781:10806   */\n      swap1\n      pop\n        /* \"#utility.yul\":9739:10812   */\n    tag_264:\n      swap4\n      swap3\n      pop\n      pop\n      pop\n      jump\t// out\n        /* \"#utility.yul\":10818:11099   */\n    tag_118:\n        /* \"#utility.yul\":10876:10881   */\n      0x00\n        /* \"#utility.yul\":10900:10923   */\n      tag_281\n        /* \"#utility.yul\":10918:10922   */\n      dup3\n        /* \"#utility.yul\":10900:10923   */\n      tag_142\n      jump\t// in\n    tag_281:\n        /* \"#utility.yul\":10892:10923   */\n      swap2\n      pop\n        /* \"#utility.yul\":10944:10969   */\n      tag_282\n        /* \"#utility.yul\":10960:10968   */\n      dup4\n        /* \"#utility.yul\":10944:10969   */\n      tag_148\n      jump\t// in\n    tag_282:\n        /* \"#utility.yul\":10932:10969   */\n      swap3\n      pop\n        /* \"#utility.yul\":10988:11092   */\n      tag_283\n        /* \"#utility.yul\":11025:11091   */\n      0xffffffffffffffffffffffffffffffffffffffffffffffffffffffffffffffff\n        /* \"#utility.yul\":11015:11023   */\n      dup5\n        /* \"#utility.yul\":11009:11013   */\n      dup5\n        /* \"#utility.yul\":10988:11092   */\n      tag_158\n      jump\t// in\n    tag_283:\n        /* \"#utility.yul\":10979:11092   */\n      swap1\n      pop\n        /* \"#utility.yul\":10818:11099   */\n      swap3\n      swap2\n      pop\n      pop\n      jump\t// out\n        /* \"#utility.yul\":11105:11285   */\n    tag_159:\n        /* \"#utility.yul\":11153:11230   */\n      0x4e487b7100000000000000000000000000000000000000000000000000000000\n        /* \"#utility.yul\":11150:11151   */\n      0x00\n        /* \"#utility.yul\":11143:11231   */\n      mstore\n        /* \"#utility.yul\":11250:11254   */\n      0x12\n        /* \"#utility.yul\":11247:11248   */\n      0x04\n        /* \"#utility.yul\":11240:11255   */\n      mstore\n        /* \"#utility.yul\":11274:11278   */\n      0x24\n        /* \"#utility.yul\":11271:11272   */\n      0x00\n        /* \"#utility.yul\":11264:11279   */\n      revert\n        /* \"#utility.yul\":11291:11476   */\n    tag_122:\n        /* \"#utility.yul\":11331:11332   */\n      0x00\n        /* \"#utility.yul\":11348:11368   */\n      tag_286\n        /* \"#utility.yul\":11366:11367   */\n      dup3\n        /* \"#utility.yul\":11348:11368   */\n      tag_142\n      jump\t// in\n    tag_286:\n        /* \"#utility.yul\":11343:11368   */\n      swap2\n      pop\n        /* \"#utility.yul\":11382:11402   */\n      tag_287\n        /* \"#utility.yul\":11400:11401   */\n      dup4\n        /* \"#utility.yul\":11382:11402   */\n      tag_142\n      jump\t// in\n    tag_287:\n        /* \"#utility.yul\":11377:11402   */\n      swap3\n      pop\n        /* \"#utility.yul\":11421:11422   */\n      dup3\n        /* \"#utility.yul\":11411:11446   */\n      tag_288\n      jumpi\n        /* \"#utility.yul\":11426:11444   */\n      tag_289\n      tag_159\n      jump\t// in\n    tag_289:\n        /* \"#utility.yul\":11411:11446   */\n    tag_288:\n        /* \"#utility.yul\":11468:11469   */\n      dup3\n        /* \"#utility.yul\":11465:11466   */\n      dup3\n        /* \"#utility.yul\":11461:11470   */\n      div\n        /* \"#utility.yul\":11456:11470   */\n      swap1\n      pop\n        /* \"#utility.yul\":11291:11476   */\n      swap3\n      swap2\n      pop\n      pop\n      jump\t// out\n        /* \"#utility.yul\":11482:11892   */\n    tag_124:\n        /* \"#utility.yul\":11522:11529   */\n      0x00\n        /* \"#utility.yul\":11545:11565   */\n      tag_291\n        /* \"#utility.yul\":11563:11564   */\n      dup3\n        /* \"#utility.yul\":11545:11565   */\n      tag_142\n      jump\t// in\n    tag_291:\n        /* \"#utility.yul\":11540:11565   */\n      swap2\n      pop\n        /* \"#utility.yul\":11579:11599   */\n      tag_292\n        /* \"#utility.yul\":11597:11598   */\n      dup4\n        /* \"#utility.yul\":11579:11599   */\n      tag_142\n      jump\t// in\n    tag_292:\n        /* \"#utility.yul\":11574:11599   */\n      swap3\n      pop\n        /* \"#utility.yul\":11634:11635   */\n      dup3\n        /* \"#utility.yul\":11631:11632   */\n      dup3\n        /* \"#utility.yul\":11627:11636   */\n      mul\n        /* \"#utility.yul\":11656:11686   */\n      tag_293\n        /* \"#utility.yul\":11674:11685   */\n      dup2\n        /* \"#utility.yul\":11656:11686   */\n      tag_142\n      jump\t// in\n    tag_293:\n        /* \"#utility.yul\":11645:11686   */\n      swap2\n      pop\n        /* \"#utility.yul\":11835:11836   */\n      dup3\n        /* \"#utility.yul\":11826:11833   */\n      dup3\n        /* \"#utility.yul\":11822:11837   */\n      div\n        /* \"#utility.yul\":11819:11820   */\n      dup5\n        /* \"#utility.yul\":11816:11838   */\n      eq\n        /* \"#utility.yul\":11796:11797   */\n      dup4\n        /* \"#utility.yul\":11789:11798   */\n      iszero\n        /* \"#utility.yul\":11769:11852   */\n      or\n        /* \"#utility.yul\":11746:11885   */\n      tag_294\n      jumpi\n        /* \"#utility.yul\":11865:11883   */\n      tag_295\n      tag_151\n      jump\t// in\n    tag_295:\n        /* \"#utility.yul\":11746:11885   */\n    tag_294:\n        /* \"#utility.yul\":11530:11892   */\n      pop\n        /* \"#utility.yul\":11482:11892   */\n      swap3\n      swap2\n      pop\n      pop\n      jump\t// out\n        /* \"#utility.yul\":11898:12074   */\n    tag_127:\n        /* \"#utility.yul\":11930:11931   */\n      0x00\n        /* \"#utility.yul\":11947:11967   */\n      tag_297\n        /* \"#utility.yul\":11965:11966   */\n      dup3\n        /* \"#utility.yul\":11947:11967   */\n      tag_142\n      jump\t// in\n    tag_297:\n        /* \"#utility.yul\":11942:11967   */\n      swap2\n      pop\n        /* \"#utility.yul\":11981:12001   */\n      tag_298\n        /* \"#utility.yul\":11999:12000   */\n      dup4\n        /* \"#utility.yul\":11981:12001   */\n      tag_142\n      jump\t// in\n    tag_298:\n        /* \"#utility.yul\":11976:12001   */\n      swap3\n      pop\n        /* \"#utility.yul\":12020:12021   */\n      dup3\n        /* \"#utility.yul\":12010:12045   */\n      tag_299\n      jumpi\n        /* \"#utility.yul\":12025:12043   */\n      tag_300\n      tag_159\n      jump\t// in\n    tag_300:\n        /* \"#utility.yul\":12010:12045   */\n    tag_299:\n        /* \"#utility.yul\":12066:12067   */\n      dup3\n        /* \"#utility.yul\":12063:12064   */\n      dup3\n        /* \"#utility.yul\":12059:12068   */\n      mod\n        /* \"#utility.yul\":12054:12068   */\n      swap1\n      pop\n        /* \"#utility.yul\":11898:12074   */\n      swap3\n      swap2\n      pop\n      pop\n      jump\t// out\n\n    auxdata: 0xa26469706673582212208c050613fcf7b1a6334ead4b21acd1775c681a9bc70281b117d92215045c820664736f6c63430008210033\n}\n",
				"bytecode": {
					"linkReferences": {},
					"object": "60806040526040518060400160405280600181526020017f4e000000000000000000000000000000000000000000000000000000000000008152505f908161004791906103fe565b506040518060400160405280600181526020017f4e000000000000000000000000000000000000000000000000000000000000008152506001908161008c91906103fe565b50601260025f6101000a81548160ff021916908360ff1602179055505f60045f6101000a81548160ff021916908360ff1602179055503480156100cd575f5ffd5b50670de0b6b3a764000060038190555060035460085f3373ffffffffffffffffffffffffffffffffffffffff1673ffffffffffffffffffffffffffffffffffffffff1681526020019081526020015f20819055503373ffffffffffffffffffffffffffffffffffffffff165f73ffffffffffffffffffffffffffffffffffffffff167fddf252ad1be2c89b69c2b068fc378daa952ba7f163c4a11628f55a4df523b3ef60035460405161018091906104dc565b60405180910390a34360058190555062a082a04361019e9190610522565b60068190555043600781905550610555565b5f81519050919050565b7f4e487b71000000000000000000000000000000000000000000000000000000005f52604160045260245ffd5b7f4e487b71000000000000000000000000000000000000000000000000000000005f52602260045260245ffd5b5f600282049050600182168061022b57607f821691505b60208210810361023e5761023d6101e7565b5b50919050565b5f819050815f5260205f209050919050565b5f6020601f8301049050919050565b5f82821b905092915050565b5f600883026102a07fffffffffffffffffffffffffffffffffffffffffffffffffffffffffffffffff82610265565b6102aa8683610265565b95508019841693508086168417925050509392505050565b5f819050919050565b5f819050919050565b5f6102ee6102e96102e4846102c2565b6102cb565b6102c2565b9050919050565b5f819050919050565b610307836102d4565b61031b610313826102f5565b848454610271565b825550505050565b5f5f905090565b610332610323565b61033d8184846102fe565b505050565b5f5b82811015610363576103585f82840161032a565b600181019050610344565b505050565b601f8211156103b657828211156103b55761038281610244565b61038b83610256565b61039485610256565b60208610156103a1575f90505b8083016103b082840382610342565b505050505b5b505050565b5f82821c905092915050565b5f6103d65f19846008026103bb565b1980831691505092915050565b5f6103ee83836103c7565b9150826002028217905092915050565b610407826101b0565b67ffffffffffffffff8111156104205761041f6101ba565b5b61042a8254610214565b610435828285610368565b5f60209050601f831160018114610466575f8415610454578287015190505b61045e85826103e3565b8655506104c5565b601f19841661047486610244565b5f5b8281101561049b57848901518255600182019150602085019450602081019050610476565b868310156104b857848901516104b4601f8916826103c7565b8355505b6001600288020188555050505b505050505050565b6104d6816102c2565b82525050565b5f6020820190506104ef5f8301846104cd565b92915050565b7f4e487b71000000000000000000000000000000000000000000000000000000005f52601160045260245ffd5b5f61052c826102c2565b9150610537836102c2565b925082820190508082111561054f5761054e6104f5565b5b92915050565b61125c806105625f395ff3fe608060405234801561000f575f5ffd5b50600436106100e8575f3560e01c8063653cab4f1161008a57806395d89b411161006457806395d89b411461023a578063a9059cbb14610258578063cb6b8f0e14610288578063dd62ed3e146102a6576100e8565b8063653cab4f146101ce57806370a08231146101ec578063900cf0cf1461021c576100e8565b806318160ddd116100c657806318160ddd1461014457806323b872dd14610162578063313ce567146101925780634f719b69146101b0576100e8565b806306fdde03146100ec578063095ea7b31461010a5780631249c58b1461013a575b5f5ffd5b6100f46102d6565b6040516101019190610bc0565b60405180910390f35b610124600480360381019061011f9190610c71565b610361565b6040516101319190610cc9565b60405180910390f35b61014261044e565b005b61014c61052b565b6040516101599190610cf1565b60405180910390f35b61017c60048036038101906101779190610d0a565b610531565b6040516101899190610cc9565b60405180910390f35b61019a610811565b6040516101a79190610d75565b60405180910390f35b6101b8610823565b6040516101c59190610cf1565b60405180910390f35b6101d6610829565b6040516101e39190610cf1565b60405180910390f35b61020660048036038101906102019190610d8e565b61082f565b6040516102139190610cf1565b60405180910390f35b610224610844565b6040516102319190610d75565b60405180910390f35b610242610856565b60405161024f9190610bc0565b60405180910390f35b610272600480360381019061026d9190610c71565b6108e2565b60405161027f9190610cc9565b60405180910390f35b610290610a78565b60405161029d9190610cf1565b60405180910390f35b6102c060048036038101906102bb9190610db9565b610a7e565b6040516102cd9190610cf1565b60405180910390f35b5f80546102e290610e24565b80601f016020809104026020016040519081016040528092919081815260200182805461030e90610e24565b80156103595780601f1061033057610100808354040283529160200191610359565b820191905f5260205f20905b81548152906001019060200180831161033c57829003601f168201915b505050505081565b5f8160095f3373ffffffffffffffffffffffffffffffffffffffff1673ffffffffffffffffffffffffffffffffffffffff1681526020019081526020015f205f8573ffffffffffffffffffffffffffffffffffffffff1673ffffffffffffffffffffffffffffffffffffffff1681526020019081526020015f20819055508273ffffffffffffffffffffffffffffffffffffffff163373ffffffffffffffffffffffffffffffffffffffff167f8c5be1e5ebec7d5bd14f71427d1e84f3dd0314c0f7b2291e5b200ac8c7c3b9258460405161043c9190610cf1565b60405180910390a36001905092915050565b5f610457610a9e565b90508060035f82825461046a9190610e81565b925050819055508060085f3373ffffffffffffffffffffffffffffffffffffffff1673ffffffffffffffffffffffffffffffffffffffff1681526020019081526020015f205f8282546104bd9190610e81565b92505081905550600654431061052857436005819055504360078190555062a082a0436104ea9190610e81565b60068190555060045f81819054906101000a900460ff168092919061050e90610eb4565b91906101000a81548160ff021916908360ff160217905550505b50565b60035481565b5f60085f8573ffffffffffffffffffffffffffffffffffffffff1673ffffffffffffffffffffffffffffffffffffffff1681526020019081526020015f20548211156105b2576040517f08c379a00000000000000000000000000000000000000000000000000000000081526004016105a990610f26565b60405180910390fd5b60095f8573ffffffffffffffffffffffffffffffffffffffff1673ffffffffffffffffffffffffffffffffffffffff1681526020019081526020015f205f3373ffffffffffffffffffffffffffffffffffffffff1673ffffffffffffffffffffffffffffffffffffffff1681526020019081526020015f205482111561066d576040517f08c379a000000000000000000000000000000000000000000000000000000000815260040161066490610f8e565b60405180910390fd5b8160085f8673ffffffffffffffffffffffffffffffffffffffff1673ffffffffffffffffffffffffffffffffffffffff1681526020019081526020015f205f8282546106b99190610fac565b925050819055508160085f8573ffffffffffffffffffffffffffffffffffffffff1673ffffffffffffffffffffffffffffffffffffffff1681526020019081526020015f205f82825461070c9190610e81565b925050819055508160095f8673ffffffffffffffffffffffffffffffffffffffff1673ffffffffffffffffffffffffffffffffffffffff1681526020019081526020015f205f3373ffffffffffffffffffffffffffffffffffffffff1673ffffffffffffffffffffffffffffffffffffffff1681526020019081526020015f205f82825461079a9190610fac565b925050819055508273ffffffffffffffffffffffffffffffffffffffff168473ffffffffffffffffffffffffffffffffffffffff167fddf252ad1be2c89b69c2b068fc378daa952ba7f163c4a11628f55a4df523b3ef846040516107fe9190610cf1565b60405180910390a3600190509392505050565b60025f9054906101000a900460ff1681565b60055481565b60065481565b6008602052805f5260405f205f915090505481565b60045f9054906101000a900460ff1681565b6001805461086390610e24565b80601f016020809104026020016040519081016040528092919081815260200182805461088f90610e24565b80156108da5780601f106108b1576101008083540402835291602001916108da565b820191905f5260205f20905b8154815290600101906020018083116108bd57829003601f168201915b505050505081565b5f8160085f3373ffffffffffffffffffffffffffffffffffffffff1673ffffffffffffffffffffffffffffffffffffffff1681526020019081526020015f20541015610963576040517f08c379a000000000000000000000000000000000000000000000000000000000815260040161095a90610f26565b60405180910390fd5b8160085f3373ffffffffffffffffffffffffffffffffffffffff1673ffffffffffffffffffffffffffffffffffffffff1681526020019081526020015f205f8282546109af9190610fac565b925050819055508160085f8573ffffffffffffffffffffffffffffffffffffffff1673ffffffffffffffffffffffffffffffffffffffff1681526020019081526020015f205f828254610a029190610e81565b925050819055508273ffffffffffffffffffffffffffffffffffffffff163373ffffffffffffffffffffffffffffffffffffffff167fddf252ad1be2c89b69c2b068fc378daa952ba7f163c4a11628f55a4df523b3ef84604051610a669190610cf1565b60405180910390a36001905092915050565b60075481565b6009602052815f5260405f20602052805f5260405f205f91509150505481565b5f5f60075443610aae9190610fac565b905060045f9054906101000a900460ff166002610acb919061110e565b8110610b4957670de0b6b3a764000060045f9054906101000a900460ff166002610af5919061110e565b82610b009190611185565b610b0a91906111b5565b915060045f9054906101000a900460ff166002610b27919061110e565b81610b3291906111f6565b43610b3d9190610fac565b60078190555050610b4d565b5f5ffd5b90565b5f81519050919050565b5f82825260208201905092915050565b8281835e5f83830152505050565b5f601f19601f8301169050919050565b5f610b9282610b50565b610b9c8185610b5a565b9350610bac818560208601610b6a565b610bb581610b78565b840191505092915050565b5f6020820190508181035f830152610bd88184610b88565b905092915050565b5f5ffd5b5f73ffffffffffffffffffffffffffffffffffffffff82169050919050565b5f610c0d82610be4565b9050919050565b610c1d81610c03565b8114610c27575f5ffd5b50565b5f81359050610c3881610c14565b92915050565b5f819050919050565b610c5081610c3e565b8114610c5a575f5ffd5b50565b5f81359050610c6b81610c47565b92915050565b5f5f60408385031215610c8757610c86610be0565b5b5f610c9485828601610c2a565b9250506020610ca585828601610c5d565b9150509250929050565b5f8115159050919050565b610cc381610caf565b82525050565b5f602082019050610cdc5f830184610cba565b92915050565b610ceb81610c3e565b82525050565b5f602082019050610d045f830184610ce2565b92915050565b5f5f5f60608486031215610d2157610d20610be0565b5b5f610d2e86828701610c2a565b9350506020610d3f86828701610c2a565b9250506040610d5086828701610c5d565b9150509250925092565b5f60ff82169050919050565b610d6f81610d5a565b82525050565b5f602082019050610d885f830184610d66565b92915050565b5f60208284031215610da357610da2610be0565b5b5f610db084828501610c2a565b91505092915050565b5f5f60408385031215610dcf57610dce610be0565b5b5f610ddc85828601610c2a565b9250506020610ded85828601610c2a565b9150509250929050565b7f4e487b71000000000000000000000000000000000000000000000000000000005f52602260045260245ffd5b5f6002820490506001821680610e3b57607f821691505b602082108103610e4e57610e4d610df7565b5b50919050565b7f4e487b71000000000000000000000000000000000000000000000000000000005f52601160045260245ffd5b5f610e8b82610c3e565b9150610e9683610c3e565b9250828201905080821115610eae57610ead610e54565b5b92915050565b5f610ebe82610d5a565b915060ff8203610ed157610ed0610e54565b5b600182019050919050565b7f496e73756666696369656e742062616c616e63650000000000000000000000005f82015250565b5f610f10601483610b5a565b9150610f1b82610edc565b602082019050919050565b5f6020820190508181035f830152610f3d81610f04565b9050919050565b7f496e73756666696369656e7420616c6c6f77616e6365000000000000000000005f82015250565b5f610f78601683610b5a565b9150610f8382610f44565b602082019050919050565b5f6020820190508181035f830152610fa581610f6c565b9050919050565b5f610fb682610c3e565b9150610fc183610c3e565b9250828203905081811115610fd957610fd8610e54565b5b92915050565b5f8160011c9050919050565b5f5f8291508390505b6001851115611034578086048111156110105761100f610e54565b5b600185161561101f5780820291505b808102905061102d85610fdf565b9450610ff4565b94509492505050565b5f8261104c5760019050611107565b81611059575f9050611107565b816001811461106f5760028114611079576110a8565b6001915050611107565b60ff84111561108b5761108a610e54565b5b8360020a9150848211156110a2576110a1610e54565b5b50611107565b5060208310610133831016604e8410600b84101617156110dd5782820a9050838111156110d8576110d7610e54565b5b611107565b6110ea8484846001610feb565b9250905081840481111561110157611100610e54565b5b81810290505b9392505050565b5f61111882610c3e565b915061112383610d5a565b92506111507fffffffffffffffffffffffffffffffffffffffffffffffffffffffffffffffff848461103d565b905092915050565b7f4e487b71000000000000000000000000000000000000000000000000000000005f52601260045260245ffd5b5f61118f82610c3e565b915061119a83610c3e565b9250826111aa576111a9611158565b5b828204905092915050565b5f6111bf82610c3e565b91506111ca83610c3e565b92508282026111d881610c3e565b915082820484148315176111ef576111ee610e54565b5b5092915050565b5f61120082610c3e565b915061120b83610c3e565b92508261121b5761121a611158565b5b82820690509291505056fea26469706673582212208c050613fcf7b1a6334ead4b21acd1775c681a9bc70281b117d92215045c820664736f6c63430008210033",
					"opcodes": "PUSH1 0x80 PUSH1 0x40 MSTORE PUSH1 0x40 MLOAD DUP1 PUSH1 0x40 ADD PUSH1 0x40 MSTORE DUP1 PUSH1 0x1 DUP2 MSTORE PUSH1 0x20 ADD PUSH32 0x4E00000000000000000000000000000000000000000000000000000000000000 DUP2 MSTORE POP PUSH0 SWAP1 DUP2 PUSH2 0x47 SWAP2 SWAP1 PUSH2 0x3FE JUMP JUMPDEST POP PUSH1 0x40 MLOAD DUP1 PUSH1 0x40 ADD PUSH1 0x40 MSTORE DUP1 PUSH1 0x1 DUP2 MSTORE PUSH1 0x20 ADD PUSH32 0x4E00000000000000000000000000000000000000000000000000000000000000 DUP2 MSTORE POP PUSH1 0x1 SWAP1 DUP2 PUSH2 0x8C SWAP2 SWAP1 PUSH2 0x3FE JUMP JUMPDEST POP PUSH1 0x12 PUSH1 0x2 PUSH0 PUSH2 0x100 EXP DUP2 SLOAD DUP2 PUSH1 0xFF MUL NOT AND SWAP1 DUP4 PUSH1 0xFF AND MUL OR SWAP1 SSTORE POP PUSH0 PUSH1 0x4 PUSH0 PUSH2 0x100 EXP DUP2 SLOAD DUP2 PUSH1 0xFF MUL NOT AND SWAP1 DUP4 PUSH1 0xFF AND MUL OR SWAP1 SSTORE POP CALLVALUE DUP1 ISZERO PUSH2 0xCD JUMPI PUSH0 PUSH0 REVERT JUMPDEST POP PUSH8 0xDE0B6B3A7640000 PUSH1 0x3 DUP2 SWAP1 SSTORE POP PUSH1 0x3 SLOAD PUSH1 0x8 PUSH0 CALLER PUSH20 0xFFFFFFFFFFFFFFFFFFFFFFFFFFFFFFFFFFFFFFFF AND PUSH20 0xFFFFFFFFFFFFFFFFFFFFFFFFFFFFFFFFFFFFFFFF AND DUP2 MSTORE PUSH1 0x20 ADD SWAP1 DUP2 MSTORE PUSH1 0x20 ADD PUSH0 KECCAK256 DUP2 SWAP1 SSTORE POP CALLER PUSH20 0xFFFFFFFFFFFFFFFFFFFFFFFFFFFFFFFFFFFFFFFF AND PUSH0 PUSH20 0xFFFFFFFFFFFFFFFFFFFFFFFFFFFFFFFFFFFFFFFF AND PUSH32 0xDDF252AD1BE2C89B69C2B068FC378DAA952BA7F163C4A11628F55A4DF523B3EF PUSH1 0x3 SLOAD PUSH1 0x40 MLOAD PUSH2 0x180 SWAP2 SWAP1 PUSH2 0x4DC JUMP JUMPDEST PUSH1 0x40 MLOAD DUP1 SWAP2 SUB SWAP1 LOG3 NUMBER PUSH1 0x5 DUP2 SWAP1 SSTORE POP PUSH3 0xA082A0 NUMBER PUSH2 0x19E SWAP2 SWAP1 PUSH2 0x522 JUMP JUMPDEST PUSH1 0x6 DUP2 SWAP1 SSTORE POP NUMBER PUSH1 0x7 DUP2 SWAP1 SSTORE POP PUSH2 0x555 JUMP JUMPDEST PUSH0 DUP2 MLOAD SWAP1 POP SWAP2 SWAP1 POP JUMP JUMPDEST PUSH32 0x4E487B7100000000000000000000000000000000000000000000000000000000 PUSH0 MSTORE PUSH1 0x41 PUSH1 0x4 MSTORE PUSH1 0x24 PUSH0 REVERT JUMPDEST PUSH32 0x4E487B7100000000000000000000000000000000000000000000000000000000 PUSH0 MSTORE PUSH1 0x22 PUSH1 0x4 MSTORE PUSH1 0x24 PUSH0 REVERT JUMPDEST PUSH0 PUSH1 0x2 DUP3 DIV SWAP1 POP PUSH1 0x1 DUP3 AND DUP1 PUSH2 0x22B JUMPI PUSH1 0x7F DUP3 AND SWAP2 POP JUMPDEST PUSH1 0x20 DUP3 LT DUP2 SUB PUSH2 0x23E JUMPI PUSH2 0x23D PUSH2 0x1E7 JUMP JUMPDEST JUMPDEST POP SWAP2 SWAP1 POP JUMP JUMPDEST PUSH0 DUP2 SWAP1 POP DUP2 PUSH0 MSTORE PUSH1 0x20 PUSH0 KECCAK256 SWAP1 POP SWAP2 SWAP1 POP JUMP JUMPDEST PUSH0 PUSH1 0x20 PUSH1 0x1F DUP4 ADD DIV SWAP1 POP SWAP2 SWAP1 POP JUMP JUMPDEST PUSH0 DUP3 DUP3 SHL SWAP1 POP SWAP3 SWAP2 POP POP JUMP JUMPDEST PUSH0 PUSH1 0x8 DUP4 MUL PUSH2 0x2A0 PUSH32 0xFFFFFFFFFFFFFFFFFFFFFFFFFFFFFFFFFFFFFFFFFFFFFFFFFFFFFFFFFFFFFFFF DUP3 PUSH2 0x265 JUMP JUMPDEST PUSH2 0x2AA DUP7 DUP4 PUSH2 0x265 JUMP JUMPDEST SWAP6 POP DUP1 NOT DUP5 AND SWAP4 POP DUP1 DUP7 AND DUP5 OR SWAP3 POP POP POP SWAP4 SWAP3 POP POP POP JUMP JUMPDEST PUSH0 DUP2 SWAP1 POP SWAP2 SWAP1 POP JUMP JUMPDEST PUSH0 DUP2 SWAP1 POP SWAP2 SWAP1 POP JUMP JUMPDEST PUSH0 PUSH2 0x2EE PUSH2 0x2E9 PUSH2 0x2E4 DUP5 PUSH2 0x2C2 JUMP JUMPDEST PUSH2 0x2CB JUMP JUMPDEST PUSH2 0x2C2 JUMP JUMPDEST SWAP1 POP SWAP2 SWAP1 POP JUMP JUMPDEST PUSH0 DUP2 SWAP1 POP SWAP2 SWAP1 POP JUMP JUMPDEST PUSH2 0x307 DUP4 PUSH2 0x2D4 JUMP JUMPDEST PUSH2 0x31B PUSH2 0x313 DUP3 PUSH2 0x2F5 JUMP JUMPDEST DUP5 DUP5 SLOAD PUSH2 0x271 JUMP JUMPDEST DUP3 SSTORE POP POP POP POP JUMP JUMPDEST PUSH0 PUSH0 SWAP1 POP SWAP1 JUMP JUMPDEST PUSH2 0x332 PUSH2 0x323 JUMP JUMPDEST PUSH2 0x33D DUP2 DUP5 DUP5 PUSH2 0x2FE JUMP JUMPDEST POP POP POP JUMP JUMPDEST PUSH0 JUMPDEST DUP3 DUP2 LT ISZERO PUSH2 0x363 JUMPI PUSH2 0x358 PUSH0 DUP3 DUP5 ADD PUSH2 0x32A JUMP JUMPDEST PUSH1 0x1 DUP2 ADD SWAP1 POP PUSH2 0x344 JUMP JUMPDEST POP POP POP JUMP JUMPDEST PUSH1 0x1F DUP3 GT ISZERO PUSH2 0x3B6 JUMPI DUP3 DUP3 GT ISZERO PUSH2 0x3B5 JUMPI PUSH2 0x382 DUP2 PUSH2 0x244 JUMP JUMPDEST PUSH2 0x38B DUP4 PUSH2 0x256 JUMP JUMPDEST PUSH2 0x394 DUP6 PUSH2 0x256 JUMP JUMPDEST PUSH1 0x20 DUP7 LT ISZERO PUSH2 0x3A1 JUMPI PUSH0 SWAP1 POP JUMPDEST DUP1 DUP4 ADD PUSH2 0x3B0 DUP3 DUP5 SUB DUP3 PUSH2 0x342 JUMP JUMPDEST POP POP POP POP JUMPDEST JUMPDEST POP POP POP JUMP JUMPDEST PUSH0 DUP3 DUP3 SHR SWAP1 POP SWAP3 SWAP2 POP POP JUMP JUMPDEST PUSH0 PUSH2 0x3D6 PUSH0 NOT DUP5 PUSH1 0x8 MUL PUSH2 0x3BB JUMP JUMPDEST NOT DUP1 DUP4 AND SWAP2 POP POP SWAP3 SWAP2 POP POP JUMP JUMPDEST PUSH0 PUSH2 0x3EE DUP4 DUP4 PUSH2 0x3C7 JUMP JUMPDEST SWAP2 POP DUP3 PUSH1 0x2 MUL DUP3 OR SWAP1 POP SWAP3 SWAP2 POP POP JUMP JUMPDEST PUSH2 0x407 DUP3 PUSH2 0x1B0 JUMP JUMPDEST PUSH8 0xFFFFFFFFFFFFFFFF DUP2 GT ISZERO PUSH2 0x420 JUMPI PUSH2 0x41F PUSH2 0x1BA JUMP JUMPDEST JUMPDEST PUSH2 0x42A DUP3 SLOAD PUSH2 0x214 JUMP JUMPDEST PUSH2 0x435 DUP3 DUP3 DUP6 PUSH2 0x368 JUMP JUMPDEST PUSH0 PUSH1 0x20 SWAP1 POP PUSH1 0x1F DUP4 GT PUSH1 0x1 DUP2 EQ PUSH2 0x466 JUMPI PUSH0 DUP5 ISZERO PUSH2 0x454 JUMPI DUP3 DUP8 ADD MLOAD SWAP1 POP JUMPDEST PUSH2 0x45E DUP6 DUP3 PUSH2 0x3E3 JUMP JUMPDEST DUP7 SSTORE POP PUSH2 0x4C5 JUMP JUMPDEST PUSH1 0x1F NOT DUP5 AND PUSH2 0x474 DUP7 PUSH2 0x244 JUMP JUMPDEST PUSH0 JUMPDEST DUP3 DUP2 LT ISZERO PUSH2 0x49B JUMPI DUP5 DUP10 ADD MLOAD DUP3 SSTORE PUSH1 0x1 DUP3 ADD SWAP2 POP PUSH1 0x20 DUP6 ADD SWAP5 POP PUSH1 0x20 DUP2 ADD SWAP1 POP PUSH2 0x476 JUMP JUMPDEST DUP7 DUP4 LT ISZERO PUSH2 0x4B8 JUMPI DUP5 DUP10 ADD MLOAD PUSH2 0x4B4 PUSH1 0x1F DUP10 AND DUP3 PUSH2 0x3C7 JUMP JUMPDEST DUP4 SSTORE POP JUMPDEST PUSH1 0x1 PUSH1 0x2 DUP9 MUL ADD DUP9 SSTORE POP POP POP JUMPDEST POP POP POP POP POP POP JUMP JUMPDEST PUSH2 0x4D6 DUP2 PUSH2 0x2C2 JUMP JUMPDEST DUP3 MSTORE POP POP JUMP JUMPDEST PUSH0 PUSH1 0x20 DUP3 ADD SWAP1 POP PUSH2 0x4EF PUSH0 DUP4 ADD DUP5 PUSH2 0x4CD JUMP JUMPDEST SWAP3 SWAP2 POP POP JUMP JUMPDEST PUSH32 0x4E487B7100000000000000000000000000000000000000000000000000000000 PUSH0 MSTORE PUSH1 0x11 PUSH1 0x4 MSTORE PUSH1 0x24 PUSH0 REVERT JUMPDEST PUSH0 PUSH2 0x52C DUP3 PUSH2 0x2C2 JUMP JUMPDEST SWAP2 POP PUSH2 0x537 DUP4 PUSH2 0x2C2 JUMP JUMPDEST SWAP3 POP DUP3 DUP3 ADD SWAP1 POP DUP1 DUP3 GT ISZERO PUSH2 0x54F JUMPI PUSH2 0x54E PUSH2 0x4F5 JUMP JUMPDEST JUMPDEST SWAP3 SWAP2 POP POP JUMP JUMPDEST PUSH2 0x125C DUP1 PUSH2 0x562 PUSH0 CODECOPY PUSH0 RETURN INVALID PUSH1 0x80 PUSH1 0x40 MSTORE CALLVALUE DUP1 ISZERO PUSH2 0xF JUMPI PUSH0 PUSH0 REVERT JUMPDEST POP PUSH1 0x4 CALLDATASIZE LT PUSH2 0xE8 JUMPI PUSH0 CALLDATALOAD PUSH1 0xE0 SHR DUP1 PUSH4 0x653CAB4F GT PUSH2 0x8A JUMPI DUP1 PUSH4 0x95D89B41 GT PUSH2 0x64 JUMPI DUP1 PUSH4 0x95D89B41 EQ PUSH2 0x23A JUMPI DUP1 PUSH4 0xA9059CBB EQ PUSH2 0x258 JUMPI DUP1 PUSH4 0xCB6B8F0E EQ PUSH2 0x288 JUMPI DUP1 PUSH4 0xDD62ED3E EQ PUSH2 0x2A6 JUMPI PUSH2 0xE8 JUMP JUMPDEST DUP1 PUSH4 0x653CAB4F EQ PUSH2 0x1CE JUMPI DUP1 PUSH4 0x70A08231 EQ PUSH2 0x1EC JUMPI DUP1 PUSH4 0x900CF0CF EQ PUSH2 0x21C JUMPI PUSH2 0xE8 JUMP JUMPDEST DUP1 PUSH4 0x18160DDD GT PUSH2 0xC6 JUMPI DUP1 PUSH4 0x18160DDD EQ PUSH2 0x144 JUMPI DUP1 PUSH4 0x23B872DD EQ PUSH2 0x162 JUMPI DUP1 PUSH4 0x313CE567 EQ PUSH2 0x192 JUMPI DUP1 PUSH4 0x4F719B69 EQ PUSH2 0x1B0 JUMPI PUSH2 0xE8 JUMP JUMPDEST DUP1 PUSH4 0x6FDDE03 EQ PUSH2 0xEC JUMPI DUP1 PUSH4 0x95EA7B3 EQ PUSH2 0x10A JUMPI DUP1 PUSH4 0x1249C58B EQ PUSH2 0x13A JUMPI JUMPDEST PUSH0 PUSH0 REVERT JUMPDEST PUSH2 0xF4 PUSH2 0x2D6 JUMP JUMPDEST PUSH1 0x40 MLOAD PUSH2 0x101 SWAP2 SWAP1 PUSH2 0xBC0 JUMP JUMPDEST PUSH1 0x40 MLOAD DUP1 SWAP2 SUB SWAP1 RETURN JUMPDEST PUSH2 0x124 PUSH1 0x4 DUP1 CALLDATASIZE SUB DUP2 ADD SWAP1 PUSH2 0x11F SWAP2 SWAP1 PUSH2 0xC71 JUMP JUMPDEST PUSH2 0x361 JUMP JUMPDEST PUSH1 0x40 MLOAD PUSH2 0x131 SWAP2 SWAP1 PUSH2 0xCC9 JUMP JUMPDEST PUSH1 0x40 MLOAD DUP1 SWAP2 SUB SWAP1 RETURN JUMPDEST PUSH2 0x142 PUSH2 0x44E JUMP JUMPDEST STOP JUMPDEST PUSH2 0x14C PUSH2 0x52B JUMP JUMPDEST PUSH1 0x40 MLOAD PUSH2 0x159 SWAP2 SWAP1 PUSH2 0xCF1 JUMP JUMPDEST PUSH1 0x40 MLOAD DUP1 SWAP2 SUB SWAP1 RETURN JUMPDEST PUSH2 0x17C PUSH1 0x4 DUP1 CALLDATASIZE SUB DUP2 ADD SWAP1 PUSH2 0x177 SWAP2 SWAP1 PUSH2 0xD0A JUMP JUMPDEST PUSH2 0x531 JUMP JUMPDEST PUSH1 0x40 MLOAD PUSH2 0x189 SWAP2 SWAP1 PUSH2 0xCC9 JUMP JUMPDEST PUSH1 0x40 MLOAD DUP1 SWAP2 SUB SWAP1 RETURN JUMPDEST PUSH2 0x19A PUSH2 0x811 JUMP JUMPDEST PUSH1 0x40 MLOAD PUSH2 0x1A7 SWAP2 SWAP1 PUSH2 0xD75 JUMP JUMPDEST PUSH1 0x40 MLOAD DUP1 SWAP2 SUB SWAP1 RETURN JUMPDEST PUSH2 0x1B8 PUSH2 0x823 JUMP JUMPDEST PUSH1 0x40 MLOAD PUSH2 0x1C5 SWAP2 SWAP1 PUSH2 0xCF1 JUMP JUMPDEST PUSH1 0x40 MLOAD DUP1 SWAP2 SUB SWAP1 RETURN JUMPDEST PUSH2 0x1D6 PUSH2 0x829 JUMP JUMPDEST PUSH1 0x40 MLOAD PUSH2 0x1E3 SWAP2 SWAP1 PUSH2 0xCF1 JUMP JUMPDEST PUSH1 0x40 MLOAD DUP1 SWAP2 SUB SWAP1 RETURN JUMPDEST PUSH2 0x206 PUSH1 0x4 DUP1 CALLDATASIZE SUB DUP2 ADD SWAP1 PUSH2 0x201 SWAP2 SWAP1 PUSH2 0xD8E JUMP JUMPDEST PUSH2 0x82F JUMP JUMPDEST PUSH1 0x40 MLOAD PUSH2 0x213 SWAP2 SWAP1 PUSH2 0xCF1 JUMP JUMPDEST PUSH1 0x40 MLOAD DUP1 SWAP2 SUB SWAP1 RETURN JUMPDEST PUSH2 0x224 PUSH2 0x844 JUMP JUMPDEST PUSH1 0x40 MLOAD PUSH2 0x231 SWAP2 SWAP1 PUSH2 0xD75 JUMP JUMPDEST PUSH1 0x40 MLOAD DUP1 SWAP2 SUB SWAP1 RETURN JUMPDEST PUSH2 0x242 PUSH2 0x856 JUMP JUMPDEST PUSH1 0x40 MLOAD PUSH2 0x24F SWAP2 SWAP1 PUSH2 0xBC0 JUMP JUMPDEST PUSH1 0x40 MLOAD DUP1 SWAP2 SUB SWAP1 RETURN JUMPDEST PUSH2 0x272 PUSH1 0x4 DUP1 CALLDATASIZE SUB DUP2 ADD SWAP1 PUSH2 0x26D SWAP2 SWAP1 PUSH2 0xC71 JUMP JUMPDEST PUSH2 0x8E2 JUMP JUMPDEST PUSH1 0x40 MLOAD PUSH2 0x27F SWAP2 SWAP1 PUSH2 0xCC9 JUMP JUMPDEST PUSH1 0x40 MLOAD DUP1 SWAP2 SUB SWAP1 RETURN JUMPDEST PUSH2 0x290 PUSH2 0xA78 JUMP JUMPDEST PUSH1 0x40 MLOAD PUSH2 0x29D SWAP2 SWAP1 PUSH2 0xCF1 JUMP JUMPDEST PUSH1 0x40 MLOAD DUP1 SWAP2 SUB SWAP1 RETURN JUMPDEST PUSH2 0x2C0 PUSH1 0x4 DUP1 CALLDATASIZE SUB DUP2 ADD SWAP1 PUSH2 0x2BB SWAP2 SWAP1 PUSH2 0xDB9 JUMP JUMPDEST PUSH2 0xA7E JUMP JUMPDEST PUSH1 0x40 MLOAD PUSH2 0x2CD SWAP2 SWAP1 PUSH2 0xCF1 JUMP JUMPDEST PUSH1 0x40 MLOAD DUP1 SWAP2 SUB SWAP1 RETURN JUMPDEST PUSH0 DUP1 SLOAD PUSH2 0x2E2 SWAP1 PUSH2 0xE24 JUMP JUMPDEST DUP1 PUSH1 0x1F ADD PUSH1 0x20 DUP1 SWAP2 DIV MUL PUSH1 0x20 ADD PUSH1 0x40 MLOAD SWAP1 DUP2 ADD PUSH1 0x40 MSTORE DUP1 SWAP3 SWAP2 SWAP1 DUP2 DUP2 MSTORE PUSH1 0x20 ADD DUP3 DUP1 SLOAD PUSH2 0x30E SWAP1 PUSH2 0xE24 JUMP JUMPDEST DUP1 ISZERO PUSH2 0x359 JUMPI DUP1 PUSH1 0x1F LT PUSH2 0x330 JUMPI PUSH2 0x100 DUP1 DUP4 SLOAD DIV MUL DUP4 MSTORE SWAP2 PUSH1 0x20 ADD SWAP2 PUSH2 0x359 JUMP JUMPDEST DUP3 ADD SWAP2 SWAP1 PUSH0 MSTORE PUSH1 0x20 PUSH0 KECCAK256 SWAP1 JUMPDEST DUP2 SLOAD DUP2 MSTORE SWAP1 PUSH1 0x1 ADD SWAP1 PUSH1 0x20 ADD DUP1 DUP4 GT PUSH2 0x33C JUMPI DUP3 SWAP1 SUB PUSH1 0x1F AND DUP3 ADD SWAP2 JUMPDEST POP POP POP POP POP DUP2 JUMP JUMPDEST PUSH0 DUP2 PUSH1 0x9 PUSH0 CALLER PUSH20 0xFFFFFFFFFFFFFFFFFFFFFFFFFFFFFFFFFFFFFFFF AND PUSH20 0xFFFFFFFFFFFFFFFFFFFFFFFFFFFFFFFFFFFFFFFF AND DUP2 MSTORE PUSH1 0x20 ADD SWAP1 DUP2 MSTORE PUSH1 0x20 ADD PUSH0 KECCAK256 PUSH0 DUP6 PUSH20 0xFFFFFFFFFFFFFFFFFFFFFFFFFFFFFFFFFFFFFFFF AND PUSH20 0xFFFFFFFFFFFFFFFFFFFFFFFFFFFFFFFFFFFFFFFF AND DUP2 MSTORE PUSH1 0x20 ADD SWAP1 DUP2 MSTORE PUSH1 0x20 ADD PUSH0 KECCAK256 DUP2 SWAP1 SSTORE POP DUP3 PUSH20 0xFFFFFFFFFFFFFFFFFFFFFFFFFFFFFFFFFFFFFFFF AND CALLER PUSH20 0xFFFFFFFFFFFFFFFFFFFFFFFFFFFFFFFFFFFFFFFF AND PUSH32 0x8C5BE1E5EBEC7D5BD14F71427D1E84F3DD0314C0F7B2291E5B200AC8C7C3B925 DUP5 PUSH1 0x40 MLOAD PUSH2 0x43C SWAP2 SWAP1 PUSH2 0xCF1 JUMP JUMPDEST PUSH1 0x40 MLOAD DUP1 SWAP2 SUB SWAP1 LOG3 PUSH1 0x1 SWAP1 POP SWAP3 SWAP2 POP POP JUMP JUMPDEST PUSH0 PUSH2 0x457 PUSH2 0xA9E JUMP JUMPDEST SWAP1 POP DUP1 PUSH1 0x3 PUSH0 DUP3 DUP3 SLOAD PUSH2 0x46A SWAP2 SWAP1 PUSH2 0xE81 JUMP JUMPDEST SWAP3 POP POP DUP2 SWAP1 SSTORE POP DUP1 PUSH1 0x8 PUSH0 CALLER PUSH20 0xFFFFFFFFFFFFFFFFFFFFFFFFFFFFFFFFFFFFFFFF AND PUSH20 0xFFFFFFFFFFFFFFFFFFFFFFFFFFFFFFFFFFFFFFFF AND DUP2 MSTORE PUSH1 0x20 ADD SWAP1 DUP2 MSTORE PUSH1 0x20 ADD PUSH0 KECCAK256 PUSH0 DUP3 DUP3 SLOAD PUSH2 0x4BD SWAP2 SWAP1 PUSH2 0xE81 JUMP JUMPDEST SWAP3 POP POP DUP2 SWAP1 SSTORE POP PUSH1 0x6 SLOAD NUMBER LT PUSH2 0x528 JUMPI NUMBER PUSH1 0x5 DUP2 SWAP1 SSTORE POP NUMBER PUSH1 0x7 DUP2 SWAP1 SSTORE POP PUSH3 0xA082A0 NUMBER PUSH2 0x4EA SWAP2 SWAP1 PUSH2 0xE81 JUMP JUMPDEST PUSH1 0x6 DUP2 SWAP1 SSTORE POP PUSH1 0x4 PUSH0 DUP2 DUP2 SWAP1 SLOAD SWAP1 PUSH2 0x100 EXP SWAP1 DIV PUSH1 0xFF AND DUP1 SWAP3 SWAP2 SWAP1 PUSH2 0x50E SWAP1 PUSH2 0xEB4 JUMP JUMPDEST SWAP2 SWAP1 PUSH2 0x100 EXP DUP2 SLOAD DUP2 PUSH1 0xFF MUL NOT AND SWAP1 DUP4 PUSH1 0xFF AND MUL OR SWAP1 SSTORE POP POP JUMPDEST POP JUMP JUMPDEST PUSH1 0x3 SLOAD DUP2 JUMP JUMPDEST PUSH0 PUSH1 0x8 PUSH0 DUP6 PUSH20 0xFFFFFFFFFFFFFFFFFFFFFFFFFFFFFFFFFFFFFFFF AND PUSH20 0xFFFFFFFFFFFFFFFFFFFFFFFFFFFFFFFFFFFFFFFF AND DUP2 MSTORE PUSH1 0x20 ADD SWAP1 DUP2 MSTORE PUSH1 0x20 ADD PUSH0 KECCAK256 SLOAD DUP3 GT ISZERO PUSH2 0x5B2 JUMPI PUSH1 0x40 MLOAD PUSH32 0x8C379A000000000000000000000000000000000000000000000000000000000 DUP2 MSTORE PUSH1 0x4 ADD PUSH2 0x5A9 SWAP1 PUSH2 0xF26 JUMP JUMPDEST PUSH1 0x40 MLOAD DUP1 SWAP2 SUB SWAP1 REVERT JUMPDEST PUSH1 0x9 PUSH0 DUP6 PUSH20 0xFFFFFFFFFFFFFFFFFFFFFFFFFFFFFFFFFFFFFFFF AND PUSH20 0xFFFFFFFFFFFFFFFFFFFFFFFFFFFFFFFFFFFFFFFF AND DUP2 MSTORE PUSH1 0x20 ADD SWAP1 DUP2 MSTORE PUSH1 0x20 ADD PUSH0 KECCAK256 PUSH0 CALLER PUSH20 0xFFFFFFFFFFFFFFFFFFFFFFFFFFFFFFFFFFFFFFFF AND PUSH20 0xFFFFFFFFFFFFFFFFFFFFFFFFFFFFFFFFFFFFFFFF AND DUP2 MSTORE PUSH1 0x20 ADD SWAP1 DUP2 MSTORE PUSH1 0x20 ADD PUSH0 KECCAK256 SLOAD DUP3 GT ISZERO PUSH2 0x66D JUMPI PUSH1 0x40 MLOAD PUSH32 0x8C379A000000000000000000000000000000000000000000000000000000000 DUP2 MSTORE PUSH1 0x4 ADD PUSH2 0x664 SWAP1 PUSH2 0xF8E JUMP JUMPDEST PUSH1 0x40 MLOAD DUP1 SWAP2 SUB SWAP1 REVERT JUMPDEST DUP2 PUSH1 0x8 PUSH0 DUP7 PUSH20 0xFFFFFFFFFFFFFFFFFFFFFFFFFFFFFFFFFFFFFFFF AND PUSH20 0xFFFFFFFFFFFFFFFFFFFFFFFFFFFFFFFFFFFFFFFF AND DUP2 MSTORE PUSH1 0x20 ADD SWAP1 DUP2 MSTORE PUSH1 0x20 ADD PUSH0 KECCAK256 PUSH0 DUP3 DUP3 SLOAD PUSH2 0x6B9 SWAP2 SWAP1 PUSH2 0xFAC JUMP JUMPDEST SWAP3 POP POP DUP2 SWAP1 SSTORE POP DUP2 PUSH1 0x8 PUSH0 DUP6 PUSH20 0xFFFFFFFFFFFFFFFFFFFFFFFFFFFFFFFFFFFFFFFF AND PUSH20 0xFFFFFFFFFFFFFFFFFFFFFFFFFFFFFFFFFFFFFFFF AND DUP2 MSTORE PUSH1 0x20 ADD SWAP1 DUP2 MSTORE PUSH1 0x20 ADD PUSH0 KECCAK256 PUSH0 DUP3 DUP3 SLOAD PUSH2 0x70C SWAP2 SWAP1 PUSH2 0xE81 JUMP JUMPDEST SWAP3 POP POP DUP2 SWAP1 SSTORE POP DUP2 PUSH1 0x9 PUSH0 DUP7 PUSH20 0xFFFFFFFFFFFFFFFFFFFFFFFFFFFFFFFFFFFFFFFF AND PUSH20 0xFFFFFFFFFFFFFFFFFFFFFFFFFFFFFFFFFFFFFFFF AND DUP2 MSTORE PUSH1 0x20 ADD SWAP1 DUP2 MSTORE PUSH1 0x20 ADD PUSH0 KECCAK256 PUSH0 CALLER PUSH20 0xFFFFFFFFFFFFFFFFFFFFFFFFFFFFFFFFFFFFFFFF AND PUSH20 0xFFFFFFFFFFFFFFFFFFFFFFFFFFFFFFFFFFFFFFFF AND DUP2 MSTORE PUSH1 0x20 ADD SWAP1 DUP2 MSTORE PUSH1 0x20 ADD PUSH0 KECCAK256 PUSH0 DUP3 DUP3 SLOAD PUSH2 0x79A SWAP2 SWAP1 PUSH2 0xFAC JUMP JUMPDEST SWAP3 POP POP DUP2 SWAP1 SSTORE POP DUP3 PUSH20 0xFFFFFFFFFFFFFFFFFFFFFFFFFFFFFFFFFFFFFFFF AND DUP5 PUSH20 0xFFFFFFFFFFFFFFFFFFFFFFFFFFFFFFFFFFFFFFFF AND PUSH32 0xDDF252AD1BE2C89B69C2B068FC378DAA952BA7F163C4A11628F55A4DF523B3EF DUP5 PUSH1 0x40 MLOAD PUSH2 0x7FE SWAP2 SWAP1 PUSH2 0xCF1 JUMP JUMPDEST PUSH1 0x40 MLOAD DUP1 SWAP2 SUB SWAP1 LOG3 PUSH1 0x1 SWAP1 POP SWAP4 SWAP3 POP POP POP JUMP JUMPDEST PUSH1 0x2 PUSH0 SWAP1 SLOAD SWAP1 PUSH2 0x100 EXP SWAP1 DIV PUSH1 0xFF AND DUP2 JUMP JUMPDEST PUSH1 0x5 SLOAD DUP2 JUMP JUMPDEST PUSH1 0x6 SLOAD DUP2 JUMP JUMPDEST PUSH1 0x8 PUSH1 0x20 MSTORE DUP1 PUSH0 MSTORE PUSH1 0x40 PUSH0 KECCAK256 PUSH0 SWAP2 POP SWAP1 POP SLOAD DUP2 JUMP JUMPDEST PUSH1 0x4 PUSH0 SWAP1 SLOAD SWAP1 PUSH2 0x100 EXP SWAP1 DIV PUSH1 0xFF AND DUP2 JUMP JUMPDEST PUSH1 0x1 DUP1 SLOAD PUSH2 0x863 SWAP1 PUSH2 0xE24 JUMP JUMPDEST DUP1 PUSH1 0x1F ADD PUSH1 0x20 DUP1 SWAP2 DIV MUL PUSH1 0x20 ADD PUSH1 0x40 MLOAD SWAP1 DUP2 ADD PUSH1 0x40 MSTORE DUP1 SWAP3 SWAP2 SWAP1 DUP2 DUP2 MSTORE PUSH1 0x20 ADD DUP3 DUP1 SLOAD PUSH2 0x88F SWAP1 PUSH2 0xE24 JUMP JUMPDEST DUP1 ISZERO PUSH2 0x8DA JUMPI DUP1 PUSH1 0x1F LT PUSH2 0x8B1 JUMPI PUSH2 0x100 DUP1 DUP4 SLOAD DIV MUL DUP4 MSTORE SWAP2 PUSH1 0x20 ADD SWAP2 PUSH2 0x8DA JUMP JUMPDEST DUP3 ADD SWAP2 SWAP1 PUSH0 MSTORE PUSH1 0x20 PUSH0 KECCAK256 SWAP1 JUMPDEST DUP2 SLOAD DUP2 MSTORE SWAP1 PUSH1 0x1 ADD SWAP1 PUSH1 0x20 ADD DUP1 DUP4 GT PUSH2 0x8BD JUMPI DUP3 SWAP1 SUB PUSH1 0x1F AND DUP3 ADD SWAP2 JUMPDEST POP POP POP POP POP DUP2 JUMP JUMPDEST PUSH0 DUP2 PUSH1 0x8 PUSH0 CALLER PUSH20 0xFFFFFFFFFFFFFFFFFFFFFFFFFFFFFFFFFFFFFFFF AND PUSH20 0xFFFFFFFFFFFFFFFFFFFFFFFFFFFFFFFFFFFFFFFF AND DUP2 MSTORE PUSH1 0x20 ADD SWAP1 DUP2 MSTORE PUSH1 0x20 ADD PUSH0 KECCAK256 SLOAD LT ISZERO PUSH2 0x963 JUMPI PUSH1 0x40 MLOAD PUSH32 0x8C379A000000000000000000000000000000000000000000000000000000000 DUP2 MSTORE PUSH1 0x4 ADD PUSH2 0x95A SWAP1 PUSH2 0xF26 JUMP JUMPDEST PUSH1 0x40 MLOAD DUP1 SWAP2 SUB SWAP1 REVERT JUMPDEST DUP2 PUSH1 0x8 PUSH0 CALLER PUSH20 0xFFFFFFFFFFFFFFFFFFFFFFFFFFFFFFFFFFFFFFFF AND PUSH20 0xFFFFFFFFFFFFFFFFFFFFFFFFFFFFFFFFFFFFFFFF AND DUP2 MSTORE PUSH1 0x20 ADD SWAP1 DUP2 MSTORE PUSH1 0x20 ADD PUSH0 KECCAK256 PUSH0 DUP3 DUP3 SLOAD PUSH2 0x9AF SWAP2 SWAP1 PUSH2 0xFAC JUMP JUMPDEST SWAP3 POP POP DUP2 SWAP1 SSTORE POP DUP2 PUSH1 0x8 PUSH0 DUP6 PUSH20 0xFFFFFFFFFFFFFFFFFFFFFFFFFFFFFFFFFFFFFFFF AND PUSH20 0xFFFFFFFFFFFFFFFFFFFFFFFFFFFFFFFFFFFFFFFF AND DUP2 MSTORE PUSH1 0x20 ADD SWAP1 DUP2 MSTORE PUSH1 0x20 ADD PUSH0 KECCAK256 PUSH0 DUP3 DUP3 SLOAD PUSH2 0xA02 SWAP2 SWAP1 PUSH2 0xE81 JUMP JUMPDEST SWAP3 POP POP DUP2 SWAP1 SSTORE POP DUP3 PUSH20 0xFFFFFFFFFFFFFFFFFFFFFFFFFFFFFFFFFFFFFFFF AND CALLER PUSH20 0xFFFFFFFFFFFFFFFFFFFFFFFFFFFFFFFFFFFFFFFF AND PUSH32 0xDDF252AD1BE2C89B69C2B068FC378DAA952BA7F163C4A11628F55A4DF523B3EF DUP5 PUSH1 0x40 MLOAD PUSH2 0xA66 SWAP2 SWAP1 PUSH2 0xCF1 JUMP JUMPDEST PUSH1 0x40 MLOAD DUP1 SWAP2 SUB SWAP1 LOG3 PUSH1 0x1 SWAP1 POP SWAP3 SWAP2 POP POP JUMP JUMPDEST PUSH1 0x7 SLOAD DUP2 JUMP JUMPDEST PUSH1 0x9 PUSH1 0x20 MSTORE DUP2 PUSH0 MSTORE PUSH1 0x40 PUSH0 KECCAK256 PUSH1 0x20 MSTORE DUP1 PUSH0 MSTORE PUSH1 0x40 PUSH0 KECCAK256 PUSH0 SWAP2 POP SWAP2 POP POP SLOAD DUP2 JUMP JUMPDEST PUSH0 PUSH0 PUSH1 0x7 SLOAD NUMBER PUSH2 0xAAE SWAP2 SWAP1 PUSH2 0xFAC JUMP JUMPDEST SWAP1 POP PUSH1 0x4 PUSH0 SWAP1 SLOAD SWAP1 PUSH2 0x100 EXP SWAP1 DIV PUSH1 0xFF AND PUSH1 0x2 PUSH2 0xACB SWAP2 SWAP1 PUSH2 0x110E JUMP JUMPDEST DUP2 LT PUSH2 0xB49 JUMPI PUSH8 0xDE0B6B3A7640000 PUSH1 0x4 PUSH0 SWAP1 SLOAD SWAP1 PUSH2 0x100 EXP SWAP1 DIV PUSH1 0xFF AND PUSH1 0x2 PUSH2 0xAF5 SWAP2 SWAP1 PUSH2 0x110E JUMP JUMPDEST DUP3 PUSH2 0xB00 SWAP2 SWAP1 PUSH2 0x1185 JUMP JUMPDEST PUSH2 0xB0A SWAP2 SWAP1 PUSH2 0x11B5 JUMP JUMPDEST SWAP2 POP PUSH1 0x4 PUSH0 SWAP1 SLOAD SWAP1 PUSH2 0x100 EXP SWAP1 DIV PUSH1 0xFF AND PUSH1 0x2 PUSH2 0xB27 SWAP2 SWAP1 PUSH2 0x110E JUMP JUMPDEST DUP2 PUSH2 0xB32 SWAP2 SWAP1 PUSH2 0x11F6 JUMP JUMPDEST NUMBER PUSH2 0xB3D SWAP2 SWAP1 PUSH2 0xFAC JUMP JUMPDEST PUSH1 0x7 DUP2 SWAP1 SSTORE POP POP PUSH2 0xB4D JUMP JUMPDEST PUSH0 PUSH0 REVERT JUMPDEST SWAP1 JUMP JUMPDEST PUSH0 DUP2 MLOAD SWAP1 POP SWAP2 SWAP1 POP JUMP JUMPDEST PUSH0 DUP3 DUP3 MSTORE PUSH1 0x20 DUP3 ADD SWAP1 POP SWAP3 SWAP2 POP POP JUMP JUMPDEST DUP3 DUP2 DUP4 MCOPY PUSH0 DUP4 DUP4 ADD MSTORE POP POP POP JUMP JUMPDEST PUSH0 PUSH1 0x1F NOT PUSH1 0x1F DUP4 ADD AND SWAP1 POP SWAP2 SWAP1 POP JUMP JUMPDEST PUSH0 PUSH2 0xB92 DUP3 PUSH2 0xB50 JUMP JUMPDEST PUSH2 0xB9C DUP2 DUP6 PUSH2 0xB5A JUMP JUMPDEST SWAP4 POP PUSH2 0xBAC DUP2 DUP6 PUSH1 0x20 DUP7 ADD PUSH2 0xB6A JUMP JUMPDEST PUSH2 0xBB5 DUP2 PUSH2 0xB78 JUMP JUMPDEST DUP5 ADD SWAP2 POP POP SWAP3 SWAP2 POP POP JUMP JUMPDEST PUSH0 PUSH1 0x20 DUP3 ADD SWAP1 POP DUP2 DUP2 SUB PUSH0 DUP4 ADD MSTORE PUSH2 0xBD8 DUP2 DUP5 PUSH2 0xB88 JUMP JUMPDEST SWAP1 POP SWAP3 SWAP2 POP POP JUMP JUMPDEST PUSH0 PUSH0 REVERT JUMPDEST PUSH0 PUSH20 0xFFFFFFFFFFFFFFFFFFFFFFFFFFFFFFFFFFFFFFFF DUP3 AND SWAP1 POP SWAP2 SWAP1 POP JUMP JUMPDEST PUSH0 PUSH2 0xC0D DUP3 PUSH2 0xBE4 JUMP JUMPDEST SWAP1 POP SWAP2 SWAP1 POP JUMP JUMPDEST PUSH2 0xC1D DUP2 PUSH2 0xC03 JUMP JUMPDEST DUP2 EQ PUSH2 0xC27 JUMPI PUSH0 PUSH0 REVERT JUMPDEST POP JUMP JUMPDEST PUSH0 DUP2 CALLDATALOAD SWAP1 POP PUSH2 0xC38 DUP2 PUSH2 0xC14 JUMP JUMPDEST SWAP3 SWAP2 POP POP JUMP JUMPDEST PUSH0 DUP2 SWAP1 POP SWAP2 SWAP1 POP JUMP JUMPDEST PUSH2 0xC50 DUP2 PUSH2 0xC3E JUMP JUMPDEST DUP2 EQ PUSH2 0xC5A JUMPI PUSH0 PUSH0 REVERT JUMPDEST POP JUMP JUMPDEST PUSH0 DUP2 CALLDATALOAD SWAP1 POP PUSH2 0xC6B DUP2 PUSH2 0xC47 JUMP JUMPDEST SWAP3 SWAP2 POP POP JUMP JUMPDEST PUSH0 PUSH0 PUSH1 0x40 DUP4 DUP6 SUB SLT ISZERO PUSH2 0xC87 JUMPI PUSH2 0xC86 PUSH2 0xBE0 JUMP JUMPDEST JUMPDEST PUSH0 PUSH2 0xC94 DUP6 DUP3 DUP7 ADD PUSH2 0xC2A JUMP JUMPDEST SWAP3 POP POP PUSH1 0x20 PUSH2 0xCA5 DUP6 DUP3 DUP7 ADD PUSH2 0xC5D JUMP JUMPDEST SWAP2 POP POP SWAP3 POP SWAP3 SWAP1 POP JUMP JUMPDEST PUSH0 DUP2 ISZERO ISZERO SWAP1 POP SWAP2 SWAP1 POP JUMP JUMPDEST PUSH2 0xCC3 DUP2 PUSH2 0xCAF JUMP JUMPDEST DUP3 MSTORE POP POP JUMP JUMPDEST PUSH0 PUSH1 0x20 DUP3 ADD SWAP1 POP PUSH2 0xCDC PUSH0 DUP4 ADD DUP5 PUSH2 0xCBA JUMP JUMPDEST SWAP3 SWAP2 POP POP JUMP JUMPDEST PUSH2 0xCEB DUP2 PUSH2 0xC3E JUMP JUMPDEST DUP3 MSTORE POP POP JUMP JUMPDEST PUSH0 PUSH1 0x20 DUP3 ADD SWAP1 POP PUSH2 0xD04 PUSH0 DUP4 ADD DUP5 PUSH2 0xCE2 JUMP JUMPDEST SWAP3 SWAP2 POP POP JUMP JUMPDEST PUSH0 PUSH0 PUSH0 PUSH1 0x60 DUP5 DUP7 SUB SLT ISZERO PUSH2 0xD21 JUMPI PUSH2 0xD20 PUSH2 0xBE0 JUMP JUMPDEST JUMPDEST PUSH0 PUSH2 0xD2E DUP7 DUP3 DUP8 ADD PUSH2 0xC2A JUMP JUMPDEST SWAP4 POP POP PUSH1 0x20 PUSH2 0xD3F DUP7 DUP3 DUP8 ADD PUSH2 0xC2A JUMP JUMPDEST SWAP3 POP POP PUSH1 0x40 PUSH2 0xD50 DUP7 DUP3 DUP8 ADD PUSH2 0xC5D JUMP JUMPDEST SWAP2 POP POP SWAP3 POP SWAP3 POP SWAP3 JUMP JUMPDEST PUSH0 PUSH1 0xFF DUP3 AND SWAP1 POP SWAP2 SWAP1 POP JUMP JUMPDEST PUSH2 0xD6F DUP2 PUSH2 0xD5A JUMP JUMPDEST DUP3 MSTORE POP POP JUMP JUMPDEST PUSH0 PUSH1 0x20 DUP3 ADD SWAP1 POP PUSH2 0xD88 PUSH0 DUP4 ADD DUP5 PUSH2 0xD66 JUMP JUMPDEST SWAP3 SWAP2 POP POP JUMP JUMPDEST PUSH0 PUSH1 0x20 DUP3 DUP5 SUB SLT ISZERO PUSH2 0xDA3 JUMPI PUSH2 0xDA2 PUSH2 0xBE0 JUMP JUMPDEST JUMPDEST PUSH0 PUSH2 0xDB0 DUP5 DUP3 DUP6 ADD PUSH2 0xC2A JUMP JUMPDEST SWAP2 POP POP SWAP3 SWAP2 POP POP JUMP JUMPDEST PUSH0 PUSH0 PUSH1 0x40 DUP4 DUP6 SUB SLT ISZERO PUSH2 0xDCF JUMPI PUSH2 0xDCE PUSH2 0xBE0 JUMP JUMPDEST JUMPDEST PUSH0 PUSH2 0xDDC DUP6 DUP3 DUP7 ADD PUSH2 0xC2A JUMP JUMPDEST SWAP3 POP POP PUSH1 0x20 PUSH2 0xDED DUP6 DUP3 DUP7 ADD PUSH2 0xC2A JUMP JUMPDEST SWAP2 POP POP SWAP3 POP SWAP3 SWAP1 POP JUMP JUMPDEST PUSH32 0x4E487B7100000000000000000000000000000000000000000000000000000000 PUSH0 MSTORE PUSH1 0x22 PUSH1 0x4 MSTORE PUSH1 0x24 PUSH0 REVERT JUMPDEST PUSH0 PUSH1 0x2 DUP3 DIV SWAP1 POP PUSH1 0x1 DUP3 AND DUP1 PUSH2 0xE3B JUMPI PUSH1 0x7F DUP3 AND SWAP2 POP JUMPDEST PUSH1 0x20 DUP3 LT DUP2 SUB PUSH2 0xE4E JUMPI PUSH2 0xE4D PUSH2 0xDF7 JUMP JUMPDEST JUMPDEST POP SWAP2 SWAP1 POP JUMP JUMPDEST PUSH32 0x4E487B7100000000000000000000000000000000000000000000000000000000 PUSH0 MSTORE PUSH1 0x11 PUSH1 0x4 MSTORE PUSH1 0x24 PUSH0 REVERT JUMPDEST PUSH0 PUSH2 0xE8B DUP3 PUSH2 0xC3E JUMP JUMPDEST SWAP2 POP PUSH2 0xE96 DUP4 PUSH2 0xC3E JUMP JUMPDEST SWAP3 POP DUP3 DUP3 ADD SWAP1 POP DUP1 DUP3 GT ISZERO PUSH2 0xEAE JUMPI PUSH2 0xEAD PUSH2 0xE54 JUMP JUMPDEST JUMPDEST SWAP3 SWAP2 POP POP JUMP JUMPDEST PUSH0 PUSH2 0xEBE DUP3 PUSH2 0xD5A JUMP JUMPDEST SWAP2 POP PUSH1 0xFF DUP3 SUB PUSH2 0xED1 JUMPI PUSH2 0xED0 PUSH2 0xE54 JUMP JUMPDEST JUMPDEST PUSH1 0x1 DUP3 ADD SWAP1 POP SWAP2 SWAP1 POP JUMP JUMPDEST PUSH32 0x496E73756666696369656E742062616C616E6365000000000000000000000000 PUSH0 DUP3 ADD MSTORE POP JUMP JUMPDEST PUSH0 PUSH2 0xF10 PUSH1 0x14 DUP4 PUSH2 0xB5A JUMP JUMPDEST SWAP2 POP PUSH2 0xF1B DUP3 PUSH2 0xEDC JUMP JUMPDEST PUSH1 0x20 DUP3 ADD SWAP1 POP SWAP2 SWAP1 POP JUMP JUMPDEST PUSH0 PUSH1 0x20 DUP3 ADD SWAP1 POP DUP2 DUP2 SUB PUSH0 DUP4 ADD MSTORE PUSH2 0xF3D DUP2 PUSH2 0xF04 JUMP JUMPDEST SWAP1 POP SWAP2 SWAP1 POP JUMP JUMPDEST PUSH32 0x496E73756666696369656E7420616C6C6F77616E636500000000000000000000 PUSH0 DUP3 ADD MSTORE POP JUMP JUMPDEST PUSH0 PUSH2 0xF78 PUSH1 0x16 DUP4 PUSH2 0xB5A JUMP JUMPDEST SWAP2 POP PUSH2 0xF83 DUP3 PUSH2 0xF44 JUMP JUMPDEST PUSH1 0x20 DUP3 ADD SWAP1 POP SWAP2 SWAP1 POP JUMP JUMPDEST PUSH0 PUSH1 0x20 DUP3 ADD SWAP1 POP DUP2 DUP2 SUB PUSH0 DUP4 ADD MSTORE PUSH2 0xFA5 DUP2 PUSH2 0xF6C JUMP JUMPDEST SWAP1 POP SWAP2 SWAP1 POP JUMP JUMPDEST PUSH0 PUSH2 0xFB6 DUP3 PUSH2 0xC3E JUMP JUMPDEST SWAP2 POP PUSH2 0xFC1 DUP4 PUSH2 0xC3E JUMP JUMPDEST SWAP3 POP DUP3 DUP3 SUB SWAP1 POP DUP2 DUP2 GT ISZERO PUSH2 0xFD9 JUMPI PUSH2 0xFD8 PUSH2 0xE54 JUMP JUMPDEST JUMPDEST SWAP3 SWAP2 POP POP JUMP JUMPDEST PUSH0 DUP2 PUSH1 0x1 SHR SWAP1 POP SWAP2 SWAP1 POP JUMP JUMPDEST PUSH0 PUSH0 DUP3 SWAP2 POP DUP4 SWAP1 POP JUMPDEST PUSH1 0x1 DUP6 GT ISZERO PUSH2 0x1034 JUMPI DUP1 DUP7 DIV DUP2 GT ISZERO PUSH2 0x1010 JUMPI PUSH2 0x100F PUSH2 0xE54 JUMP JUMPDEST JUMPDEST PUSH1 0x1 DUP6 AND ISZERO PUSH2 0x101F JUMPI DUP1 DUP3 MUL SWAP2 POP JUMPDEST DUP1 DUP2 MUL SWAP1 POP PUSH2 0x102D DUP6 PUSH2 0xFDF JUMP JUMPDEST SWAP5 POP PUSH2 0xFF4 JUMP JUMPDEST SWAP5 POP SWAP5 SWAP3 POP POP POP JUMP JUMPDEST PUSH0 DUP3 PUSH2 0x104C JUMPI PUSH1 0x1 SWAP1 POP PUSH2 0x1107 JUMP JUMPDEST DUP2 PUSH2 0x1059 JUMPI PUSH0 SWAP1 POP PUSH2 0x1107 JUMP JUMPDEST DUP2 PUSH1 0x1 DUP2 EQ PUSH2 0x106F JUMPI PUSH1 0x2 DUP2 EQ PUSH2 0x1079 JUMPI PUSH2 0x10A8 JUMP JUMPDEST PUSH1 0x1 SWAP2 POP POP PUSH2 0x1107 JUMP JUMPDEST PUSH1 0xFF DUP5 GT ISZERO PUSH2 0x108B JUMPI PUSH2 0x108A PUSH2 0xE54 JUMP JUMPDEST JUMPDEST DUP4 PUSH1 0x2 EXP SWAP2 POP DUP5 DUP3 GT ISZERO PUSH2 0x10A2 JUMPI PUSH2 0x10A1 PUSH2 0xE54 JUMP JUMPDEST JUMPDEST POP PUSH2 0x1107 JUMP JUMPDEST POP PUSH1 0x20 DUP4 LT PUSH2 0x133 DUP4 LT AND PUSH1 0x4E DUP5 LT PUSH1 0xB DUP5 LT AND OR ISZERO PUSH2 0x10DD JUMPI DUP3 DUP3 EXP SWAP1 POP DUP4 DUP2 GT ISZERO PUSH2 0x10D8 JUMPI PUSH2 0x10D7 PUSH2 0xE54 JUMP JUMPDEST JUMPDEST PUSH2 0x1107 JUMP JUMPDEST PUSH2 0x10EA DUP5 DUP5 DUP5 PUSH1 0x1 PUSH2 0xFEB JUMP JUMPDEST SWAP3 POP SWAP1 POP DUP2 DUP5 DIV DUP2 GT ISZERO PUSH2 0x1101 JUMPI PUSH2 0x1100 PUSH2 0xE54 JUMP JUMPDEST JUMPDEST DUP2 DUP2 MUL SWAP1 POP JUMPDEST SWAP4 SWAP3 POP POP POP JUMP JUMPDEST PUSH0 PUSH2 0x1118 DUP3 PUSH2 0xC3E JUMP JUMPDEST SWAP2 POP PUSH2 0x1123 DUP4 PUSH2 0xD5A JUMP JUMPDEST SWAP3 POP PUSH2 0x1150 PUSH32 0xFFFFFFFFFFFFFFFFFFFFFFFFFFFFFFFFFFFFFFFFFFFFFFFFFFFFFFFFFFFFFFFF DUP5 DUP5 PUSH2 0x103D JUMP JUMPDEST SWAP1 POP SWAP3 SWAP2 POP POP JUMP JUMPDEST PUSH32 0x4E487B7100000000000000000000000000000000000000000000000000000000 PUSH0 MSTORE PUSH1 0x12 PUSH1 0x4 MSTORE PUSH1 0x24 PUSH0 REVERT JUMPDEST PUSH0 PUSH2 0x118F DUP3 PUSH2 0xC3E JUMP JUMPDEST SWAP2 POP PUSH2 0x119A DUP4 PUSH2 0xC3E JUMP JUMPDEST SWAP3 POP DUP3 PUSH2 0x11AA JUMPI PUSH2 0x11A9 PUSH2 0x1158 JUMP JUMPDEST JUMPDEST DUP3 DUP3 DIV SWAP1 POP SWAP3 SWAP2 POP POP JUMP JUMPDEST PUSH0 PUSH2 0x11BF DUP3 PUSH2 0xC3E JUMP JUMPDEST SWAP2 POP PUSH2 0x11CA DUP4 PUSH2 0xC3E JUMP JUMPDEST SWAP3 POP DUP3 DUP3 MUL PUSH2 0x11D8 DUP2 PUSH2 0xC3E JUMP JUMPDEST SWAP2 POP DUP3 DUP3 DIV DUP5 EQ DUP4 ISZERO OR PUSH2 0x11EF JUMPI PUSH2 0x11EE PUSH2 0xE54 JUMP JUMPDEST JUMPDEST POP SWAP3 SWAP2 POP POP JUMP JUMPDEST PUSH0 PUSH2 0x1200 DUP3 PUSH2 0xC3E JUMP JUMPDEST SWAP2 POP PUSH2 0x120B DUP4 PUSH2 0xC3E JUMP JUMPDEST SWAP3 POP DUP3 PUSH2 0x121B JUMPI PUSH2 0x121A PUSH2 0x1158 JUMP JUMPDEST JUMPDEST DUP3 DUP3 MOD SWAP1 POP SWAP3 SWAP2 POP POP JUMP INVALID LOG2 PUSH5 0x6970667358 0x22 SLT KECCAK256 DUP13 SDIV MOD SGT 0xFC 0xF7 0xB1 0xA6 CALLER 0x4E 0xAD 0x4B 0x21 0xAC DATALOADN 0x775C PUSH9 0x1A9BC70281B117D922 ISZERO DIV TLOAD DUP3 MOD PUSH5 0x736F6C6343 STOP ADDMOD 0x21 STOP CALLER "
				},
				"gasEstimates": {
					"creation": {
						"codeDepositCost": "940000",
						"executionCost": "infinite",
						"totalCost": "infinite"
					},
					"external": {
						"allowance(address,address)": "infinite",
						"approve(address,uint256)": "infinite",
						"balanceOf(address)": "2847",
						"decimals()": "2533",
						"epoch()": "2533",
						"lastDoublingBlock()": "2514",
						"lastMintingBlock()": "2491",
						"mint()": "infinite",
						"name()": "infinite",
						"nextDoublingBlock()": "2448",
						"symbol()": "infinite",
						"totalSupply()": "2448",
						"transfer(address,uint256)": "infinite",
						"transferFrom(address,address,uint256)": "infinite"
					},
					"internal": {
						"mintable()": "infinite"
					}
				},
				"methodIdentifiers": {
					"allowance(address,address)": "dd62ed3e",
					"approve(address,uint256)": "095ea7b3",
					"balanceOf(address)": "70a08231",
					"decimals()": "313ce567",
					"epoch()": "900cf0cf",
					"lastDoublingBlock()": "4f719b69",
					"lastMintingBlock()": "cb6b8f0e",
					"mint()": "1249c58b",
					"name()": "06fdde03",
					"nextDoublingBlock()": "653cab4f",
					"symbol()": "95d89b41",
					"totalSupply()": "18160ddd",
					"transfer(address,uint256)": "a9059cbb",
					"transferFrom(address,address,uint256)": "23b872dd"
				}
			},
			"storageLayout": {
				"storage": [
					{
						"astId": 4,
						"contract": ".debug/1/0xE73d53e3a982ab2750A0b76F9012e18B256Cc243/N.sol:N",
						"label": "name",
						"offset": 0,
						"slot": "0",
						"type": "t_string_storage"
					},
					{
						"astId": 7,
						"contract": ".debug/1/0xE73d53e3a982ab2750A0b76F9012e18B256Cc243/N.sol:N",
						"label": "symbol",
						"offset": 0,
						"slot": "1",
						"type": "t_string_storage"
					},
					{
						"astId": 10,
						"contract": ".debug/1/0xE73d53e3a982ab2750A0b76F9012e18B256Cc243/N.sol:N",
						"label": "decimals",
						"offset": 0,
						"slot": "2",
						"type": "t_uint8"
					},
					{
						"astId": 12,
						"contract": ".debug/1/0xE73d53e3a982ab2750A0b76F9012e18B256Cc243/N.sol:N",
						"label": "totalSupply",
						"offset": 0,
						"slot": "3",
						"type": "t_uint256"
					},
					{
						"astId": 15,
						"contract": ".debug/1/0xE73d53e3a982ab2750A0b76F9012e18B256Cc243/N.sol:N",
						"label": "epoch",
						"offset": 0,
						"slot": "4",
						"type": "t_uint8"
					},
					{
						"astId": 17,
						"contract": ".debug/1/0xE73d53e3a982ab2750A0b76F9012e18B256Cc243/N.sol:N",
						"label": "lastDoublingBlock",
						"offset": 0,
						"slot": "5",
						"type": "t_uint256"
					},
					{
						"astId": 19,
						"contract": ".debug/1/0xE73d53e3a982ab2750A0b76F9012e18B256Cc243/N.sol:N",
						"label": "nextDoublingBlock",
						"offset": 0,
						"slot": "6",
						"type": "t_uint256"
					},
					{
						"astId": 21,
						"contract": ".debug/1/0xE73d53e3a982ab2750A0b76F9012e18B256Cc243/N.sol:N",
						"label": "lastMintingBlock",
						"offset": 0,
						"slot": "7",
						"type": "t_uint256"
					},
					{
						"astId": 25,
						"contract": ".debug/1/0xE73d53e3a982ab2750A0b76F9012e18B256Cc243/N.sol:N",
						"label": "balanceOf",
						"offset": 0,
						"slot": "8",
						"type": "t_mapping(t_address,t_uint256)"
					},
					{
						"astId": 31,
						"contract": ".debug/1/0xE73d53e3a982ab2750A0b76F9012e18B256Cc243/N.sol:N",
						"label": "allowance",
						"offset": 0,
						"slot": "9",
						"type": "t_mapping(t_address,t_mapping(t_address,t_uint256))"
					}
				],
				"types": {
					"t_address": {
						"encoding": "inplace",
						"label": "address",
						"numberOfBytes": "20"
					},
					"t_mapping(t_address,t_mapping(t_address,t_uint256))": {
						"encoding": "mapping",
						"key": "t_address",
						"label": "mapping(address => mapping(address => uint256))",
						"numberOfBytes": "32",
						"value": "t_mapping(t_address,t_uint256)"
					},
					"t_mapping(t_address,t_uint256)": {
						"encoding": "mapping",
						"key": "t_address",
						"label": "mapping(address => uint256)",
						"numberOfBytes": "32",
						"value": "t_uint256"
					},
					"t_string_storage": {
						"encoding": "bytes",
						"label": "string",
						"numberOfBytes": "32"
					},
					"t_uint256": {
						"encoding": "inplace",
						"label": "uint256",
						"numberOfBytes": "32"
					},
					"t_uint8": {
						"encoding": "inplace",
						"label": "uint8",
						"numberOfBytes": "1"
					}
				}
			},
			"userdoc": {
				"kind": "user",
				"methods": {},
				"version": 1
			}
		}
	}
}