{
	"contracts/TetherToken_remix_fixed.sol": {
		"TetherToken": {
			"abi": [
				{
					"constant": true,
					"inputs": [],
					"name": "name",
					"outputs": [
						{
							"name": "",
							"type": "string"
						}
					],
					"payable": false,
					"stateMutability": "view",
					"type": "function"
				},
				{
					"constant": false,
					"inputs": [
						{
							"name": "_upgradedAddress",
							"type": "address"
						}
					],
					"name": "deprecate",
					"outputs": [],
					"payable": false,
					"stateMutability": "nonpayable",
					"type": "function"
				},
				{
					"constant": false,
					"inputs": [
						{
							"name": "_spender",
							"type": "address"
						},
						{
							"name": "_value",
							"type": "uint256"
						}
					],
					"name": "approve",
					"outputs": [
						{
							"name": "",
							"type": "bool"
						}
					],
					"payable": false,
					"stateMutability": "nonpayable",
					"type": "function"
				},
				{
					"constant": true,
					"inputs": [],
					"name": "deprecated",
					"outputs": [
						{
							"name": "",
							"type": "bool"
						}
					],
					"payable": false,
					"stateMutability": "view",
					"type": "function"
				},
				{
					"constant": false,
					"inputs": [
						{
							"name": "_evilUser",
							"type": "address"
						}
					],
					"name": "addBlackList",
					"outputs": [],
					"payable": false,
					"stateMutability": "nonpayable",
					"type": "function"
				},
				{
					"constant": true,
					"inputs": [],
					"name": "totalSupply",
					"outputs": [
						{
							"name": "",
							"type": "uint256"
						}
					],
					"payable": false,
					"stateMutability": "view",
					"type": "function"
				},
				{
					"constant": false,
					"inputs": [
						{
							"name": "_from",
							"type": "address"
						},
						{
							"name": "_to",
							"type": "address"
						},
						{
							"name": "_value",
							"type": "uint256"
						}
					],
					"name": "transferFrom",
					"outputs": [
						{
							"name": "",
							"type": "bool"
						}
					],
					"payable": false,
					"stateMutability": "nonpayable",
					"type": "function"
				},
				{
					"constant": true,
					"inputs": [],
					"name": "upgradedAddress",
					"outputs": [
						{
							"name": "",
							"type": "address"
						}
					],
					"payable": false,
					"stateMutability": "view",
					"type": "function"
				},
				{
					"constant": true,
					"inputs": [],
					"name": "decimals",
					"outputs": [
						{
							"name": "",
							"type": "uint8"
						}
					],
					"payable": false,
					"stateMutability": "view",
					"type": "function"
				},
				{
					"constant": true,
					"inputs": [],
					"name": "maximumFee",
					"outputs": [
						{
							"name": "",
							"type": "uint256"
						}
					],
					"payable": false,
					"stateMutability": "view",
					"type": "function"
				},
				{
					"constant": true,
					"inputs": [],
					"name": "_totalSupply",
					"outputs": [
						{
							"name": "",
							"type": "uint256"
						}
					],
					"payable": false,
					"stateMutability": "view",
					"type": "function"
				},
				{
					"constant": false,
					"inputs": [],
					"name": "unpause",
					"outputs": [],
					"payable": false,
					"stateMutability": "nonpayable",
					"type": "function"
				},
				{
					"constant": true,
					"inputs": [
						{
							"name": "_maker",
							"type": "address"
						}
					],
					"name": "getBlackListStatus",
					"outputs": [
						{
							"name": "",
							"type": "bool"
						}
					],
					"payable": false,
					"stateMutability": "view",
					"type": "function"
				},
				{
					"constant": true,
					"inputs": [],
					"name": "paused",
					"outputs": [
						{
							"name": "",
							"type": "bool"
						}
					],
					"payable": false,
					"stateMutability": "view",
					"type": "function"
				},
				{
					"constant": false,
					"inputs": [
						{
							"name": "_spender",
							"type": "address"
						},
						{
							"name": "_subtractedValue",
							"type": "uint256"
						}
					],
					"name": "decreaseApproval",
					"outputs": [
						{
							"name": "",
							"type": "bool"
						}
					],
					"payable": false,
					"stateMutability": "nonpayable",
					"type": "function"
				},
				{
					"constant": true,
					"inputs": [
						{
							"name": "who",
							"type": "address"
						}
					],
					"name": "balanceOf",
					"outputs": [
						{
							"name": "",
							"type": "uint256"
						}
					],
					"payable": false,
					"stateMutability": "view",
					"type": "function"
				},
				{
					"constant": true,
					"inputs": [
						{
							"name": "_value",
							"type": "uint256"
						}
					],
					"name": "calcFee",
					"outputs": [
						{
							"name": "",
							"type": "uint256"
						}
					],
					"payable": false,
					"stateMutability": "view",
					"type": "function"
				},
				{
					"constant": false,
					"inputs": [],
					"name": "pause",
					"outputs": [],
					"payable": false,
					"stateMutability": "nonpayable",
					"type": "function"
				},
				{
					"constant": true,
					"inputs": [],
					"name": "owner",
					"outputs": [
						{
							"name": "",
							"type": "address"
						}
					],
					"payable": false,
					"stateMutability": "view",
					"type": "function"
				},
				{
					"constant": true,
					"inputs": [],
					"name": "symbol",
					"outputs": [
						{
							"name": "",
							"type": "string"
						}
					],
					"payable": false,
					"stateMutability": "view",
					"type": "function"
				},
				{
					"constant": false,
					"inputs": [
						{
							"name": "_to",
							"type": "address"
						},
						{
							"name": "_value",
							"type": "uint256"
						}
					],
					"name": "transfer",
					"outputs": [
						{
							"name": "",
							"type": "bool"
						}
					],
					"payable": false,
					"stateMutability": "nonpayable",
					"type": "function"
				},
				{
					"constant": true,
					"inputs": [
						{
							"name": "who",
							"type": "address"
						}
					],
					"name": "oldBalanceOf",
					"outputs": [
						{
							"name": "",
							"type": "uint256"
						}
					],
					"payable": false,
					"stateMutability": "view",
					"type": "function"
				},
				{
					"constant": false,
					"inputs": [
						{
							"name": "newBasisPoints",
							"type": "uint256"
						},
						{
							"name": "newMaxFee",
							"type": "uint256"
						}
					],
					"name": "setParams",
					"outputs": [],
					"payable": false,
					"stateMutability": "nonpayable",
					"type": "function"
				},
				{
					"constant": false,
					"inputs": [
						{
							"name": "amount",
							"type": "uint256"
						}
					],
					"name": "issue",
					"outputs": [],
					"payable": false,
					"stateMutability": "nonpayable",
					"type": "function"
				},
				{
					"constant": false,
					"inputs": [
						{
							"name": "_spender",
							"type": "address"
						},
						{
							"name": "_addedValue",
							"type": "uint256"
						}
					],
					"name": "increaseApproval",
					"outputs": [
						{
							"name": "",
							"type": "bool"
						}
					],
					"payable": false,
					"stateMutability": "nonpayable",
					"type": "function"
				},
				{
					"constant": false,
					"inputs": [
						{
							"name": "amount",
							"type": "uint256"
						}
					],
					"name": "redeem",
					"outputs": [],
					"payable": false,
					"stateMutability": "nonpayable",
					"type": "function"
				},
				{
					"constant": true,
					"inputs": [
						{
							"name": "_owner",
							"type": "address"
						},
						{
							"name": "_spender",
							"type": "address"
						}
					],
					"name": "allowance",
					"outputs": [
						{
							"name": "remaining",
							"type": "uint256"
						}
					],
					"payable": false,
					"stateMutability": "view",
					"type": "function"
				},
				{
					"constant": true,
					"inputs": [],
					"name": "basisPointsRate",
					"outputs": [
						{
							"name": "",
							"type": "uint256"
						}
					],
					"payable": false,
					"stateMutability": "view",
					"type": "function"
				},
				{
					"constant": true,
					"inputs": [
						{
							"name": "",
							"type": "address"
						}
					],
					"name": "isBlackListed",
					"outputs": [
						{
							"name": "",
							"type": "bool"
						}
					],
					"payable": false,
					"stateMutability": "view",
					"type": "function"
				},
				{
					"constant": false,
					"inputs": [
						{
							"name": "_clearedUser",
							"type": "address"
						}
					],
					"name": "removeBlackList",
					"outputs": [],
					"payable": false,
					"stateMutability": "nonpayable",
					"type": "function"
				},
				{
					"constant": true,
					"inputs": [],
					"name": "MAX_UINT",
					"outputs": [
						{
							"name": "",
							"type": "uint256"
						}
					],
					"payable": false,
					"stateMutability": "view",
					"type": "function"
				},
				{
					"constant": false,
					"inputs": [
						{
							"name": "newOwner",
							"type": "address"
						}
					],
					"name": "transferOwnership",
					"outputs": [],
					"payable": false,
					"stateMutability": "nonpayable",
					"type": "function"
				},
				{
					"constant": false,
					"inputs": [
						{
							"name": "_blackListedUser",
							"type": "address"
						}
					],
					"name": "destroyBlackFunds",
					"outputs": [],
					"payable": false,
					"stateMutability": "nonpayable",
					"type": "function"
				},
				{
					"inputs": [
						{
							"name": "_initialSupply",
							"type": "uint256"
						},
						{
							"name": "_name",
							"type": "string"
						},
						{
							"name": "_symbol",
							"type": "string"
						},
						{
							"name": "_decimals",
							"type": "uint8"
						}
					],
					"payable": false,
					"stateMutability": "nonpayable",
					"type": "constructor"
				},
				{
					"anonymous": false,
					"inputs": [
						{
							"indexed": true,
							"name": "_blackListedUser",
							"type": "address"
						},
						{
							"indexed": false,
							"name": "_balance",
							"type": "uint256"
						}
					],
					"name": "DestroyedBlackFunds",
					"type": "event"
				},
				{
					"anonymous": false,
					"inputs": [
						{
							"indexed": false,
							"name": "amount",
							"type": "uint256"
						}
					],
					"name": "Issue",
					"type": "event"
				},
				{
					"anonymous": false,
					"inputs": [
						{
							"indexed": false,
							"name": "amount",
							"type": "uint256"
						}
					],
					"name": "Redeem",
					"type": "event"
				},
				{
					"anonymous": false,
					"inputs": [
						{
							"indexed": false,
							"name": "newAddress",
							"type": "address"
						}
					],
					"name": "Deprecate",
					"type": "event"
				},
				{
					"anonymous": false,
					"inputs": [
						{
							"indexed": true,
							"name": "_user",
							"type": "address"
						}
					],
					"name": "AddedBlackList",
					"type": "event"
				},
				{
					"anonymous": false,
					"inputs": [
						{
							"indexed": true,
							"name": "_user",
							"type": "address"
						}
					],
					"name": "RemovedBlackList",
					"type": "event"
				},
				{
					"anonymous": false,
					"inputs": [
						{
							"indexed": false,
							"name": "feeBasisPoints",
							"type": "uint256"
						},
						{
							"indexed": false,
							"name": "maxFee",
							"type": "uint256"
						}
					],
					"name": "Params",
					"type": "event"
				},
				{
					"anonymous": false,
					"inputs": [],
					"name": "Pause",
					"type": "event"
				},
				{
					"anonymous": false,
					"inputs": [],
					"name": "Unpause",
					"type": "event"
				},
				{
					"anonymous": false,
					"inputs": [
						{
							"indexed": true,
							"name": "previousOwner",
							"type": "address"
						},
						{
							"indexed": true,
							"name": "newOwner",
							"type": "address"
						}
					],
					"name": "OwnershipTransferred",
					"type": "event"
				},
				{
					"anonymous": false,
					"inputs": [
						{
							"indexed": true,
							"name": "owner",
							"type": "address"
						},
						{
							"indexed": true,
							"name": "spender",
							"type": "address"
						},
						{
							"indexed": false,
							"name": "value",
							"type": "uint256"
						}
					],
					"name": "Approval",
					"type": "event"
				},
				{
					"anonymous": false,
					"inputs": [
						{
							"indexed": true,
							"name": "from",
							"type": "address"
						},
						{
							"indexed": true,
							"name": "to",
							"type": "address"
						},
						{
							"indexed": false,
							"name": "value",
							"type": "uint256"
						}
					],
					"name": "Transfer",
					"type": "event"
				}
			],
			"devdoc": {
				"methods": {
					"deprecate(address)": {
						"details": "Deprecate current contract in favour of a new one\r",
						"params": {
							"_upgradedAddress": "Address of new token contract\r"
						}
					},
					"destroyBlackFunds(address)": {
						"details": "Destroy blacklisted funds (irreversible)\r",
						"params": {
							"_blackListedUser": "Address of blacklisted user\r"
						}
					},
					"issue(uint256)": {
						"details": "Issue new tokens (increases total supply)\r",
						"params": {
							"amount": "Amount of tokens to issue\r"
						}
					},
					"pause()": {
						"details": "called by the owner to pause, triggers stopped state\r"
					},
					"redeem(uint256)": {
						"details": "Redeem tokens (decreases total supply)\r",
						"params": {
							"amount": "Amount of tokens to redeem\r"
						}
					},
					"transferOwnership(address)": {
						"details": "Allows the current owner to transfer control of the contract to a newOwner.\r",
						"params": {
							"newOwner": "The address to transfer ownership to.\r"
						}
					},
					"unpause()": {
						"details": "called by the owner to unpause, returns to normal state\r"
					}
				},
				"title": "Tether USD Token (USDT)\r"
			},
			"evm": {
				"assembly": "    /* \"contracts/TetherToken_remix_fixed.sol\":12996:18348  contract TetherToken is Pausable, StandardTokenWithFees, BlackList {\r... */\n  mstore(0x40, 0x60)\n    /* \"contracts/TetherToken_remix_fixed.sol\":8305:8310  false */\n  0x0\n    /* \"contracts/TetherToken_remix_fixed.sol\":8284:8310  bool public paused = false */\n  0x2\n  exp(0x100, 0x14)\n  dup2\n  sload\n  dup2\n  0xff\n  mul\n  not\n  and\n  swap1\n  dup4\n  iszero\n  iszero\n  mul\n  or\n  swap1\n  sstore\n  pop\n    /* \"contracts/TetherToken_remix_fixed.sol\":10075:10076  0 */\n  0x0\n    /* \"contracts/TetherToken_remix_fixed.sol\":10042:10076  uint256 public basisPointsRate = 0 */\n  0x3\n  sstore\n    /* \"contracts/TetherToken_remix_fixed.sol\":10109:10110  0 */\n  0x0\n    /* \"contracts/TetherToken_remix_fixed.sol\":10081:10110  uint256 public maximumFee = 0 */\n  0x4\n  sstore\n    /* \"contracts/TetherToken_remix_fixed.sol\":13376:13673  function TetherToken(uint _initialSupply, string _name, string _symbol, uint8 _decimals) public {\r... */\n  jumpi(tag_1, iszero(callvalue))\n  0x0\n  dup1\n  revert\ntag_1:\n  mload(0x40)\n  sub(codesize, bytecodeSize)\n  dup1\n  bytecodeSize\n  dup4\n  codecopy\n  dup2\n  add\n  0x40\n  mstore\n  dup1\n  dup1\n  mload\n  swap1\n  0x20\n  add\n  swap1\n  swap2\n  swap1\n  dup1\n  mload\n  dup3\n  add\n  swap2\n  swap1\n  0x20\n  add\n  dup1\n  mload\n  dup3\n  add\n  swap2\n  swap1\n  0x20\n  add\n  dup1\n  mload\n  swap1\n  0x20\n  add\n  swap1\n  swap2\n  swap1\n  pop\n  pop\n    /* \"contracts/TetherToken_remix_fixed.sol\":7451:7461  msg.sender */\n  caller\n    /* \"contracts/TetherToken_remix_fixed.sol\":7443:7448  owner */\n  0x2\n  0x0\n    /* \"contracts/TetherToken_remix_fixed.sol\":7443:7461  owner = msg.sender */\n  0x100\n  exp\n  dup2\n  sload\n  dup2\n  0xffffffffffffffffffffffffffffffffffffffff\n  mul\n  not\n  and\n  swap1\n  dup4\n  0xffffffffffffffffffffffffffffffffffffffff\n  and\n  mul\n  or\n  swap1\n  sstore\n  pop\n    /* \"contracts/TetherToken_remix_fixed.sol\":13498:13512  _initialSupply */\n  dup4\n    /* \"contracts/TetherToken_remix_fixed.sol\":13483:13495  _totalSupply */\n  0x8\n    /* \"contracts/TetherToken_remix_fixed.sol\":13483:13512  _totalSupply = _initialSupply */\n  dup2\n  swap1\n  sstore\n  pop\n    /* \"contracts/TetherToken_remix_fixed.sol\":13530:13535  _name */\n  dup3\n    /* \"contracts/TetherToken_remix_fixed.sol\":13523:13527  name */\n  0x5\n    /* \"contracts/TetherToken_remix_fixed.sol\":13523:13535  name = _name */\n  swap1\n  dup1\n  mload\n  swap1\n  0x20\n  add\n  swap1\n  tag_6\n  swap3\n  swap2\n  swap1\n  jump\t// in(tag_7)\ntag_6:\n  pop\n    /* \"contracts/TetherToken_remix_fixed.sol\":13555:13562  _symbol */\n  dup2\n    /* \"contracts/TetherToken_remix_fixed.sol\":13546:13552  symbol */\n  0x6\n    /* \"contracts/TetherToken_remix_fixed.sol\":13546:13562  symbol = _symbol */\n  swap1\n  dup1\n  mload\n  swap1\n  0x20\n  add\n  swap1\n  tag_8\n  swap3\n  swap2\n  swap1\n  jump\t// in(tag_7)\ntag_8:\n  pop\n    /* \"contracts/TetherToken_remix_fixed.sol\":13584:13593  _decimals */\n  dup1\n    /* \"contracts/TetherToken_remix_fixed.sol\":13573:13581  decimals */\n  0x7\n  0x0\n    /* \"contracts/TetherToken_remix_fixed.sol\":13573:13593  decimals = _decimals */\n  0x100\n  exp\n  dup2\n  sload\n  dup2\n  0xff\n  mul\n  not\n  and\n  swap1\n  dup4\n  0xff\n  and\n  mul\n  or\n  swap1\n  sstore\n  pop\n    /* \"contracts/TetherToken_remix_fixed.sol\":13622:13636  _initialSupply */\n  dup4\n    /* \"contracts/TetherToken_remix_fixed.sol\":13604:13612  balances */\n  0x0\n    /* \"contracts/TetherToken_remix_fixed.sol\":13604:13619  balances[owner] */\n  dup1\n    /* \"contracts/TetherToken_remix_fixed.sol\":13613:13618  owner */\n  0x2\n  0x0\n  swap1\n  sload\n  swap1\n  0x100\n  exp\n  swap1\n  div\n  0xffffffffffffffffffffffffffffffffffffffff\n  and\n    /* \"contracts/TetherToken_remix_fixed.sol\":13604:13619  balances[owner] */\n  0xffffffffffffffffffffffffffffffffffffffff\n  and\n  0xffffffffffffffffffffffffffffffffffffffff\n  and\n  dup2\n  mstore\n  0x20\n  add\n  swap1\n  dup2\n  mstore\n  0x20\n  add\n  0x0\n  keccak256\n    /* \"contracts/TetherToken_remix_fixed.sol\":13604:13636  balances[owner] = _initialSupply */\n  dup2\n  swap1\n  sstore\n  pop\n    /* \"contracts/TetherToken_remix_fixed.sol\":13660:13665  false */\n  0x0\n    /* \"contracts/TetherToken_remix_fixed.sol\":13647:13657  deprecated */\n  0xa\n  0x14\n    /* \"contracts/TetherToken_remix_fixed.sol\":13647:13665  deprecated = false */\n  0x100\n  exp\n  dup2\n  sload\n  dup2\n  0xff\n  mul\n  not\n  and\n  swap1\n  dup4\n  iszero\n  iszero\n  mul\n  or\n  swap1\n  sstore\n  pop\n    /* \"contracts/TetherToken_remix_fixed.sol\":13376:13673  function TetherToken(uint _initialSupply, string _name, string _symbol, uint8 _decimals) public {\r... */\n  pop\n  pop\n  pop\n  pop\n    /* \"contracts/TetherToken_remix_fixed.sol\":12996:18348  contract TetherToken is Pausable, StandardTokenWithFees, BlackList {\r... */\n  jump(tag_9)\ntag_7:\n  dup3\n  dup1\n  sload\n  0x1\n  dup2\n  0x1\n  and\n  iszero\n  0x100\n  mul\n  sub\n  and\n  0x2\n  swap1\n  div\n  swap1\n  0x0\n  mstore\n  keccak256(0x0, 0x20)\n  swap1\n  0x1f\n  add\n  0x20\n  swap1\n  div\n  dup2\n  add\n  swap3\n  dup3\n  0x1f\n  lt\n  tag_11\n  jumpi\n  dup1\n  mload\n  not(0xff)\n  and\n  dup4\n  dup1\n  add\n  or\n  dup6\n  sstore\n  jump(tag_10)\ntag_11:\n  dup3\n  dup1\n  add\n  0x1\n  add\n  dup6\n  sstore\n  dup3\n  iszero\n  tag_10\n  jumpi\n  swap2\n  dup3\n  add\ntag_12:\n  dup3\n  dup2\n  gt\n  iszero\n  tag_13\n  jumpi\n  dup3\n  mload\n  dup3\n  sstore\n  swap2\n  0x20\n  add\n  swap2\n  swap1\n  0x1\n  add\n  swap1\n  jump(tag_12)\ntag_13:\ntag_10:\n  pop\n  swap1\n  pop\n  tag_14\n  swap2\n  swap1\n  jump\t// in(tag_15)\ntag_14:\n  pop\n  swap1\n  jump\t// out\ntag_15:\n  tag_16\n  swap2\n  swap1\ntag_17:\n  dup1\n  dup3\n  gt\n  iszero\n  tag_18\n  jumpi\n  0x0\n  dup2\n  0x0\n  swap1\n  sstore\n  pop\n  0x1\n  add\n  jump(tag_17)\ntag_18:\n  pop\n  swap1\n  jump\ntag_16:\n  swap1\n  jump\t// out\ntag_9:\n  dataSize(sub_0)\n  dup1\n  dataOffset(sub_0)\n  0x0\n  codecopy\n  0x0\n  return\nstop\n\nsub_0: assembly {\n        /* \"contracts/TetherToken_remix_fixed.sol\":12996:18348  contract TetherToken is Pausable, StandardTokenWithFees, BlackList {\r... */\n      mstore(0x40, 0x60)\n      jumpi(tag_1, lt(calldatasize, 0x4))\n      calldataload(0x0)\n      0x100000000000000000000000000000000000000000000000000000000\n      swap1\n      div\n      0xffffffff\n      and\n      dup1\n      0x6fdde03\n      eq\n      tag_2\n      jumpi\n      dup1\n      0x753c30c\n      eq\n      tag_3\n      jumpi\n      dup1\n      0x95ea7b3\n      eq\n      tag_4\n      jumpi\n      dup1\n      0xe136b19\n      eq\n      tag_5\n      jumpi\n      dup1\n      0xecb93c0\n      eq\n      tag_6\n      jumpi\n      dup1\n      0x18160ddd\n      eq\n      tag_7\n      jumpi\n      dup1\n      0x23b872dd\n      eq\n      tag_8\n      jumpi\n      dup1\n      0x26976e3f\n      eq\n      tag_9\n      jumpi\n      dup1\n      0x313ce567\n      eq\n      tag_10\n      jumpi\n      dup1\n      0x35390714\n      eq\n      tag_11\n      jumpi\n      dup1\n      0x3eaaf86b\n      eq\n      tag_12\n      jumpi\n      dup1\n      0x3f4ba83a\n      eq\n      tag_13\n      jumpi\n      dup1\n      0x59bf1abe\n      eq\n      tag_14\n      jumpi\n      dup1\n      0x5c975abb\n      eq\n      tag_15\n      jumpi\n      dup1\n      0x66188463\n      eq\n      tag_16\n      jumpi\n      dup1\n      0x70a08231\n      eq\n      tag_17\n      jumpi\n      dup1\n      0x75dc7d8c\n      eq\n      tag_18\n      jumpi\n      dup1\n      0x8456cb59\n      eq\n      tag_19\n      jumpi\n      dup1\n      0x8da5cb5b\n      eq\n      tag_20\n      jumpi\n      dup1\n      0x95d89b41\n      eq\n      tag_21\n      jumpi\n      dup1\n      0xa9059cbb\n      eq\n      tag_22\n      jumpi\n      dup1\n      0xb7a3446c\n      eq\n      tag_23\n      jumpi\n      dup1\n      0xc0324c77\n      eq\n      tag_24\n      jumpi\n      dup1\n      0xcc872b66\n      eq\n      tag_25\n      jumpi\n      dup1\n      0xd73dd623\n      eq\n      tag_26\n      jumpi\n      dup1\n      0xdb006a75\n      eq\n      tag_27\n      jumpi\n      dup1\n      0xdd62ed3e\n      eq\n      tag_28\n      jumpi\n      dup1\n      0xdd644f72\n      eq\n      tag_29\n      jumpi\n      dup1\n      0xe47d6060\n      eq\n      tag_30\n      jumpi\n      dup1\n      0xe4997dc5\n      eq\n      tag_31\n      jumpi\n      dup1\n      0xe5b5019a\n      eq\n      tag_32\n      jumpi\n      dup1\n      0xf2fde38b\n      eq\n      tag_33\n      jumpi\n      dup1\n      0xf3bdc228\n      eq\n      tag_34\n      jumpi\n    tag_1:\n      0x0\n      dup1\n      revert\n        /* \"contracts/TetherToken_remix_fixed.sol\":10212:10230  string public name */\n    tag_2:\n      jumpi(tag_35, iszero(callvalue))\n      0x0\n      dup1\n      revert\n    tag_35:\n      tag_36\n      jump(tag_37)\n    tag_36:\n      mload(0x40)\n      dup1\n      dup1\n      0x20\n      add\n      dup3\n      dup2\n      sub\n      dup3\n      mstore\n      dup4\n      dup2\n      dup2\n      mload\n      dup2\n      mstore\n      0x20\n      add\n      swap2\n      pop\n      dup1\n      mload\n      swap1\n      0x20\n      add\n      swap1\n      dup1\n      dup4\n      dup4\n        /* \"--CODEGEN--\":23:24   */\n      0x0\n        /* \"--CODEGEN--\":8:108   */\n    tag_38:\n        /* \"--CODEGEN--\":33:36   */\n      dup4\n        /* \"--CODEGEN--\":30:31   */\n      dup2\n        /* \"--CODEGEN--\":27:29   */\n      lt\n        /* \"--CODEGEN--\":8:108   */\n      iszero\n      tag_39\n      jumpi\n        /* \"--CODEGEN--\":99:100   */\n      dup1\n        /* \"--CODEGEN--\":94:97   */\n      dup3\n        /* \"--CODEGEN--\":90:93   */\n      add\n        /* \"--CODEGEN--\":84:89   */\n      mload\n        /* \"--CODEGEN--\":80:81   */\n      dup2\n        /* \"--CODEGEN--\":75:78   */\n      dup5\n        /* \"--CODEGEN--\":71:74   */\n      add\n        /* \"--CODEGEN--\":64:70   */\n      mstore\n        /* \"--CODEGEN--\":52:54   */\n      0x20\n        /* \"--CODEGEN--\":49:50   */\n      dup2\n        /* \"--CODEGEN--\":45:48   */\n      add\n        /* \"--CODEGEN--\":40:55   */\n      swap1\n      pop\n        /* \"--CODEGEN--\":8:108   */\n      jump(tag_38)\n    tag_39:\n        /* \"--CODEGEN--\":12:26   */\n      pop\n        /* \"--CODEGEN--\":3:112   */\n      pop\n      pop\n      pop\n      swap1\n      pop\n      swap1\n      dup2\n      add\n      swap1\n      0x1f\n      and\n      dup1\n      iszero\n      tag_41\n      jumpi\n      dup1\n      dup3\n      sub\n      dup1\n      mload\n      0x1\n      dup4\n      0x20\n      sub\n      0x100\n      exp\n      sub\n      not\n      and\n      dup2\n      mstore\n      0x20\n      add\n      swap2\n      pop\n    tag_41:\n      pop\n      swap3\n      pop\n      pop\n      pop\n      mload(0x40)\n      dup1\n      swap2\n      sub\n      swap1\n      return\n        /* \"contracts/TetherToken_remix_fixed.sol\":16689:16920  function deprecate(address _upgradedAddress) public onlyOwner {\r... */\n    tag_3:\n      jumpi(tag_42, iszero(callvalue))\n      0x0\n      dup1\n      revert\n    tag_42:\n      tag_43\n      0x4\n      dup1\n      dup1\n      calldataload\n      0xffffffffffffffffffffffffffffffffffffffff\n      and\n      swap1\n      0x20\n      add\n      swap1\n      swap2\n      swap1\n      pop\n      pop\n      jump(tag_44)\n    tag_43:\n      stop\n        /* \"contracts/TetherToken_remix_fixed.sol\":14918:15225  function approve(address _spender, uint _value) public whenNotPaused returns (bool) {\r... */\n    tag_4:\n      jumpi(tag_45, iszero(callvalue))\n      0x0\n      dup1\n      revert\n    tag_45:\n      tag_46\n      0x4\n      dup1\n      dup1\n      calldataload\n      0xffffffffffffffffffffffffffffffffffffffff\n      and\n      swap1\n      0x20\n      add\n      swap1\n      swap2\n      swap1\n      dup1\n      calldataload\n      swap1\n      0x20\n      add\n      swap1\n      swap2\n      swap1\n      pop\n      pop\n      jump(tag_47)\n    tag_46:\n      mload(0x40)\n      dup1\n      dup3\n      iszero\n      iszero\n      iszero\n      iszero\n      dup2\n      mstore\n      0x20\n      add\n      swap2\n      pop\n      pop\n      mload(0x40)\n      dup1\n      swap2\n      sub\n      swap1\n      return\n        /* \"contracts/TetherToken_remix_fixed.sol\":13109:13131  bool public deprecated */\n    tag_5:\n      jumpi(tag_48, iszero(callvalue))\n      0x0\n      dup1\n      revert\n    tag_48:\n      tag_49\n      jump(tag_50)\n    tag_49:\n      mload(0x40)\n      dup1\n      dup3\n      iszero\n      iszero\n      iszero\n      iszero\n      dup2\n      mstore\n      0x20\n      add\n      swap2\n      pop\n      pop\n      mload(0x40)\n      dup1\n      swap2\n      sub\n      swap1\n      return\n        /* \"contracts/TetherToken_remix_fixed.sol\":9344:9489  function addBlackList (address _evilUser) public onlyOwner {\r... */\n    tag_6:\n      jumpi(tag_51, iszero(callvalue))\n      0x0\n      dup1\n      revert\n    tag_51:\n      tag_52\n      0x4\n      dup1\n      dup1\n      calldataload\n      0xffffffffffffffffffffffffffffffffffffffff\n      and\n      swap1\n      0x20\n      add\n      swap1\n      swap2\n      swap1\n      pop\n      pop\n      jump(tag_53)\n    tag_52:\n      stop\n        /* \"contracts/TetherToken_remix_fixed.sol\":16263:16481  function totalSupply() public constant returns (uint) {\r... */\n    tag_7:\n      jumpi(tag_54, iszero(callvalue))\n      0x0\n      dup1\n      revert\n    tag_54:\n      tag_55\n      jump(tag_56)\n    tag_55:\n      mload(0x40)\n      dup1\n      dup3\n      dup2\n      mstore\n      0x20\n      add\n      swap2\n      pop\n      pop\n      mload(0x40)\n      dup1\n      swap2\n      sub\n      swap1\n      return\n        /* \"contracts/TetherToken_remix_fixed.sol\":14119:14496  function transferFrom(address _from, address _to, uint _value) public whenNotPaused returns (bool) {\r... */\n    tag_8:\n      jumpi(tag_57, iszero(callvalue))\n      0x0\n      dup1\n      revert\n    tag_57:\n      tag_58\n      0x4\n      dup1\n      dup1\n      calldataload\n      0xffffffffffffffffffffffffffffffffffffffff\n      and\n      swap1\n      0x20\n      add\n      swap1\n      swap2\n      swap1\n      dup1\n      calldataload\n      0xffffffffffffffffffffffffffffffffffffffff\n      and\n      swap1\n      0x20\n      add\n      swap1\n      swap2\n      swap1\n      dup1\n      calldataload\n      swap1\n      0x20\n      add\n      swap1\n      swap2\n      swap1\n      pop\n      pop\n      jump(tag_59)\n    tag_58:\n      mload(0x40)\n      dup1\n      dup3\n      iszero\n      iszero\n      iszero\n      iszero\n      dup2\n      mstore\n      0x20\n      add\n      swap2\n      pop\n      pop\n      mload(0x40)\n      dup1\n      swap2\n      sub\n      swap1\n      return\n        /* \"contracts/TetherToken_remix_fixed.sol\":13072:13102  address public upgradedAddress */\n    tag_9:\n      jumpi(tag_60, iszero(callvalue))\n      0x0\n      dup1\n      revert\n    tag_60:\n      tag_61\n      jump(tag_62)\n    tag_61:\n      mload(0x40)\n      dup1\n      dup3\n      0xffffffffffffffffffffffffffffffffffffffff\n      and\n      0xffffffffffffffffffffffffffffffffffffffff\n      and\n      dup2\n      mstore\n      0x20\n      add\n      swap2\n      pop\n      pop\n      mload(0x40)\n      dup1\n      swap2\n      sub\n      swap1\n      return\n        /* \"contracts/TetherToken_remix_fixed.sol\":10260:10281  uint8 public decimals */\n    tag_10:\n      jumpi(tag_63, iszero(callvalue))\n      0x0\n      dup1\n      revert\n    tag_63:\n      tag_64\n      jump(tag_65)\n    tag_64:\n      mload(0x40)\n      dup1\n      dup3\n      0xff\n      and\n      0xff\n      and\n      dup2\n      mstore\n      0x20\n      add\n      swap2\n      pop\n      pop\n      mload(0x40)\n      dup1\n      swap2\n      sub\n      swap1\n      return\n        /* \"contracts/TetherToken_remix_fixed.sol\":10081:10110  uint256 public maximumFee = 0 */\n    tag_11:\n      jumpi(tag_66, iszero(callvalue))\n      0x0\n      dup1\n      revert\n    tag_66:\n      tag_67\n      jump(tag_68)\n    tag_67:\n      mload(0x40)\n      dup1\n      dup3\n      dup2\n      mstore\n      0x20\n      add\n      swap2\n      pop\n      pop\n      mload(0x40)\n      dup1\n      swap2\n      sub\n      swap1\n      return\n        /* \"contracts/TetherToken_remix_fixed.sol\":10286:10310  uint public _totalSupply */\n    tag_12:\n      jumpi(tag_69, iszero(callvalue))\n      0x0\n      dup1\n      revert\n    tag_69:\n      tag_70\n      jump(tag_71)\n    tag_70:\n      mload(0x40)\n      dup1\n      dup3\n      dup2\n      mstore\n      0x20\n      add\n      swap2\n      pop\n      pop\n      mload(0x40)\n      dup1\n      swap2\n      sub\n      swap1\n      return\n        /* \"contracts/TetherToken_remix_fixed.sol\":8898:8988  function unpause() onlyOwner whenPaused public {\r... */\n    tag_13:\n      jumpi(tag_72, iszero(callvalue))\n      0x0\n      dup1\n      revert\n    tag_72:\n      tag_73\n      jump(tag_74)\n    tag_73:\n      stop\n        /* \"contracts/TetherToken_remix_fixed.sol\":9157:9281  function getBlackListStatus(address _maker) external constant returns (bool) {\r... */\n    tag_14:\n      jumpi(tag_75, iszero(callvalue))\n      0x0\n      dup1\n      revert\n    tag_75:\n      tag_76\n      0x4\n      dup1\n      dup1\n      calldataload\n      0xffffffffffffffffffffffffffffffffffffffff\n      and\n      swap1\n      0x20\n      add\n      swap1\n      swap2\n      swap1\n      pop\n      pop\n      jump(tag_77)\n    tag_76:\n      mload(0x40)\n      dup1\n      dup3\n      iszero\n      iszero\n      iszero\n      iszero\n      dup2\n      mstore\n      0x20\n      add\n      swap2\n      pop\n      pop\n      mload(0x40)\n      dup1\n      swap2\n      sub\n      swap1\n      return\n        /* \"contracts/TetherToken_remix_fixed.sol\":8284:8310  bool public paused = false */\n    tag_15:\n      jumpi(tag_78, iszero(callvalue))\n      0x0\n      dup1\n      revert\n    tag_78:\n      tag_79\n      jump(tag_80)\n    tag_79:\n      mload(0x40)\n      dup1\n      dup3\n      iszero\n      iszero\n      iszero\n      iszero\n      dup2\n      mstore\n      0x20\n      add\n      swap2\n      pop\n      pop\n      mload(0x40)\n      dup1\n      swap2\n      sub\n      swap1\n      return\n        /* \"contracts/TetherToken_remix_fixed.sol\":15590:15954  function decreaseApproval(address _spender, uint _subtractedValue) public whenNotPaused returns (bool) {\r... */\n    tag_16:\n      jumpi(tag_81, iszero(callvalue))\n      0x0\n      dup1\n      revert\n    tag_81:\n      tag_82\n      0x4\n      dup1\n      dup1\n      calldataload\n      0xffffffffffffffffffffffffffffffffffffffff\n      and\n      swap1\n      0x20\n      add\n      swap1\n      swap2\n      swap1\n      dup1\n      calldataload\n      swap1\n      0x20\n      add\n      swap1\n      swap2\n      swap1\n      pop\n      pop\n      jump(tag_83)\n    tag_82:\n      mload(0x40)\n      dup1\n      dup3\n      iszero\n      iszero\n      iszero\n      iszero\n      dup2\n      mstore\n      0x20\n      add\n      swap2\n      pop\n      pop\n      mload(0x40)\n      dup1\n      swap2\n      sub\n      swap1\n      return\n        /* \"contracts/TetherToken_remix_fixed.sol\":14504:14748  function balanceOf(address who) public constant returns (uint) {\r... */\n    tag_17:\n      jumpi(tag_84, iszero(callvalue))\n      0x0\n      dup1\n      revert\n    tag_84:\n      tag_85\n      0x4\n      dup1\n      dup1\n      calldataload\n      0xffffffffffffffffffffffffffffffffffffffff\n      and\n      swap1\n      0x20\n      add\n      swap1\n      swap2\n      swap1\n      pop\n      pop\n      jump(tag_86)\n    tag_85:\n      mload(0x40)\n      dup1\n      dup3\n      dup2\n      mstore\n      0x20\n      add\n      swap2\n      pop\n      pop\n      mload(0x40)\n      dup1\n      swap2\n      sub\n      swap1\n      return\n        /* \"contracts/TetherToken_remix_fixed.sol\":10366:10571  function calcFee(uint _value) public constant returns (uint) {\r... */\n    tag_18:\n      jumpi(tag_87, iszero(callvalue))\n      0x0\n      dup1\n      revert\n    tag_87:\n      tag_88\n      0x4\n      dup1\n      dup1\n      calldataload\n      swap1\n      0x20\n      add\n      swap1\n      swap2\n      swap1\n      pop\n      pop\n      jump(tag_89)\n    tag_88:\n      mload(0x40)\n      dup1\n      dup3\n      dup2\n      mstore\n      0x20\n      add\n      swap2\n      pop\n      pop\n      mload(0x40)\n      dup1\n      swap2\n      sub\n      swap1\n      return\n        /* \"contracts/TetherToken_remix_fixed.sol\":8723:8811  function pause() onlyOwner whenNotPaused public {\r... */\n    tag_19:\n      jumpi(tag_90, iszero(callvalue))\n      0x0\n      dup1\n      revert\n    tag_90:\n      tag_91\n      jump(tag_92)\n    tag_91:\n      stop\n        /* \"contracts/TetherToken_remix_fixed.sol\":7179:7199  address public owner */\n    tag_20:\n      jumpi(tag_93, iszero(callvalue))\n      0x0\n      dup1\n      revert\n    tag_93:\n      tag_94\n      jump(tag_95)\n    tag_94:\n      mload(0x40)\n      dup1\n      dup3\n      0xffffffffffffffffffffffffffffffffffffffff\n      and\n      0xffffffffffffffffffffffffffffffffffffffff\n      and\n      dup2\n      mstore\n      0x20\n      add\n      swap2\n      pop\n      pop\n      mload(0x40)\n      dup1\n      swap2\n      sub\n      swap1\n      return\n        /* \"contracts/TetherToken_remix_fixed.sol\":10235:10255  string public symbol */\n    tag_21:\n      jumpi(tag_96, iszero(callvalue))\n      0x0\n      dup1\n      revert\n    tag_96:\n      tag_97\n      jump(tag_98)\n    tag_97:\n      mload(0x40)\n      dup1\n      dup1\n      0x20\n      add\n      dup3\n      dup2\n      sub\n      dup3\n      mstore\n      dup4\n      dup2\n      dup2\n      mload\n      dup2\n      mstore\n      0x20\n      add\n      swap2\n      pop\n      dup1\n      mload\n      swap1\n      0x20\n      add\n      swap1\n      dup1\n      dup4\n      dup4\n        /* \"--CODEGEN--\":23:24   */\n      0x0\n        /* \"--CODEGEN--\":8:108   */\n    tag_99:\n        /* \"--CODEGEN--\":33:36   */\n      dup4\n        /* \"--CODEGEN--\":30:31   */\n      dup2\n        /* \"--CODEGEN--\":27:29   */\n      lt\n        /* \"--CODEGEN--\":8:108   */\n      iszero\n      tag_100\n      jumpi\n        /* \"--CODEGEN--\":99:100   */\n      dup1\n        /* \"--CODEGEN--\":94:97   */\n      dup3\n        /* \"--CODEGEN--\":90:93   */\n      add\n        /* \"--CODEGEN--\":84:89   */\n      mload\n        /* \"--CODEGEN--\":80:81   */\n      dup2\n        /* \"--CODEGEN--\":75:78   */\n      dup5\n        /* \"--CODEGEN--\":71:74   */\n      add\n        /* \"--CODEGEN--\":64:70   */\n      mstore\n        /* \"--CODEGEN--\":52:54   */\n      0x20\n        /* \"--CODEGEN--\":49:50   */\n      dup2\n        /* \"--CODEGEN--\":45:48   */\n      add\n        /* \"--CODEGEN--\":40:55   */\n      swap1\n      pop\n        /* \"--CODEGEN--\":8:108   */\n      jump(tag_99)\n    tag_100:\n        /* \"--CODEGEN--\":12:26   */\n      pop\n        /* \"--CODEGEN--\":3:112   */\n      pop\n      pop\n      pop\n      swap1\n      pop\n      swap1\n      dup2\n      add\n      swap1\n      0x1f\n      and\n      dup1\n      iszero\n      tag_102\n      jumpi\n      dup1\n      dup3\n      sub\n      dup1\n      mload\n      0x1\n      dup4\n      0x20\n      sub\n      0x100\n      exp\n      sub\n      not\n      and\n      dup2\n      mstore\n      0x20\n      add\n      swap2\n      pop\n    tag_102:\n      pop\n      swap3\n      pop\n      pop\n      pop\n      mload(0x40)\n      dup1\n      swap2\n      sub\n      swap1\n      return\n        /* \"contracts/TetherToken_remix_fixed.sol\":13770:14111  function transfer(address _to, uint _value) public whenNotPaused returns (bool) {\r... */\n    tag_22:\n      jumpi(tag_103, iszero(callvalue))\n      0x0\n      dup1\n      revert\n    tag_103:\n      tag_104\n      0x4\n      dup1\n      dup1\n      calldataload\n      0xffffffffffffffffffffffffffffffffffffffff\n      and\n      swap1\n      0x20\n      add\n      swap1\n      swap2\n      swap1\n      dup1\n      calldataload\n      swap1\n      0x20\n      add\n      swap1\n      swap2\n      swap1\n      pop\n      pop\n      jump(tag_105)\n    tag_104:\n      mload(0x40)\n      dup1\n      dup3\n      iszero\n      iszero\n      iszero\n      iszero\n      dup2\n      mstore\n      0x20\n      add\n      swap2\n      pop\n      pop\n      mload(0x40)\n      dup1\n      swap2\n      sub\n      swap1\n      return\n        /* \"contracts/TetherToken_remix_fixed.sol\":14756:14910  function oldBalanceOf(address who) public constant returns (uint) {\r... */\n    tag_23:\n      jumpi(tag_106, iszero(callvalue))\n      0x0\n      dup1\n      revert\n    tag_106:\n      tag_107\n      0x4\n      dup1\n      dup1\n      calldataload\n      0xffffffffffffffffffffffffffffffffffffffff\n      and\n      swap1\n      0x20\n      add\n      swap1\n      swap2\n      swap1\n      pop\n      pop\n      jump(tag_108)\n    tag_107:\n      mload(0x40)\n      dup1\n      dup3\n      dup2\n      mstore\n      0x20\n      add\n      swap2\n      pop\n      pop\n      mload(0x40)\n      dup1\n      swap2\n      sub\n      swap1\n      return\n        /* \"contracts/TetherToken_remix_fixed.sol\":11587:11916  function setParams(uint newBasisPoints, uint newMaxFee) public onlyOwner {\r... */\n    tag_24:\n      jumpi(tag_109, iszero(callvalue))\n      0x0\n      dup1\n      revert\n    tag_109:\n      tag_110\n      0x4\n      dup1\n      dup1\n      calldataload\n      swap1\n      0x20\n      add\n      swap1\n      swap2\n      swap1\n      dup1\n      calldataload\n      swap1\n      0x20\n      add\n      swap1\n      swap2\n      swap1\n      pop\n      pop\n      jump(tag_111)\n    tag_110:\n      stop\n        /* \"contracts/TetherToken_remix_fixed.sol\":17049:17278  function issue(uint amount) public onlyOwner {\r... */\n    tag_25:\n      jumpi(tag_112, iszero(callvalue))\n      0x0\n      dup1\n      revert\n    tag_112:\n      tag_113\n      0x4\n      dup1\n      dup1\n      calldataload\n      swap1\n      0x20\n      add\n      swap1\n      swap2\n      swap1\n      pop\n      pop\n      jump(tag_114)\n    tag_113:\n      stop\n        /* \"contracts/TetherToken_remix_fixed.sol\":15233:15582  function increaseApproval(address _spender, uint _addedValue) public whenNotPaused returns (bool) {\r... */\n    tag_26:\n      jumpi(tag_115, iszero(callvalue))\n      0x0\n      dup1\n      revert\n    tag_115:\n      tag_116\n      0x4\n      dup1\n      dup1\n      calldataload\n      0xffffffffffffffffffffffffffffffffffffffff\n      and\n      swap1\n      0x20\n      add\n      swap1\n      swap2\n      swap1\n      dup1\n      calldataload\n      swap1\n      0x20\n      add\n      swap1\n      swap2\n      swap1\n      pop\n      pop\n      jump(tag_117)\n    tag_116:\n      mload(0x40)\n      dup1\n      dup3\n      iszero\n      iszero\n      iszero\n      iszero\n      dup2\n      mstore\n      0x20\n      add\n      swap2\n      pop\n      pop\n      mload(0x40)\n      dup1\n      swap2\n      sub\n      swap1\n      return\n        /* \"contracts/TetherToken_remix_fixed.sol\":17405:17636  function redeem(uint amount) public onlyOwner {\r... */\n    tag_27:\n      jumpi(tag_118, iszero(callvalue))\n      0x0\n      dup1\n      revert\n    tag_118:\n      tag_119\n      0x4\n      dup1\n      dup1\n      calldataload\n      swap1\n      0x20\n      add\n      swap1\n      swap2\n      swap1\n      pop\n      pop\n      jump(tag_120)\n    tag_119:\n      stop\n        /* \"contracts/TetherToken_remix_fixed.sol\":15962:16255  function allowance(address _owner, address _spender) public constant returns (uint remaining) {\r... */\n    tag_28:\n      jumpi(tag_121, iszero(callvalue))\n      0x0\n      dup1\n      revert\n    tag_121:\n      tag_122\n      0x4\n      dup1\n      dup1\n      calldataload\n      0xffffffffffffffffffffffffffffffffffffffff\n      and\n      swap1\n      0x20\n      add\n      swap1\n      swap2\n      swap1\n      dup1\n      calldataload\n      0xffffffffffffffffffffffffffffffffffffffff\n      and\n      swap1\n      0x20\n      add\n      swap1\n      swap2\n      swap1\n      pop\n      pop\n      jump(tag_123)\n    tag_122:\n      mload(0x40)\n      dup1\n      dup3\n      dup2\n      mstore\n      0x20\n      add\n      swap2\n      pop\n      pop\n      mload(0x40)\n      dup1\n      swap2\n      sub\n      swap1\n      return\n        /* \"contracts/TetherToken_remix_fixed.sol\":10042:10076  uint256 public basisPointsRate = 0 */\n    tag_29:\n      jumpi(tag_124, iszero(callvalue))\n      0x0\n      dup1\n      revert\n    tag_124:\n      tag_125\n      jump(tag_126)\n    tag_125:\n      mload(0x40)\n      dup1\n      dup3\n      dup2\n      mstore\n      0x20\n      add\n      swap2\n      pop\n      pop\n      mload(0x40)\n      dup1\n      swap2\n      sub\n      swap1\n      return\n        /* \"contracts/TetherToken_remix_fixed.sol\":9289:9335  mapping (address => bool) public isBlackListed */\n    tag_30:\n      jumpi(tag_127, iszero(callvalue))\n      0x0\n      dup1\n      revert\n    tag_127:\n      tag_128\n      0x4\n      dup1\n      dup1\n      calldataload\n      0xffffffffffffffffffffffffffffffffffffffff\n      and\n      swap1\n      0x20\n      add\n      swap1\n      swap2\n      swap1\n      pop\n      pop\n      jump(tag_129)\n    tag_128:\n      mload(0x40)\n      dup1\n      dup3\n      iszero\n      iszero\n      iszero\n      iszero\n      dup2\n      mstore\n      0x20\n      add\n      swap2\n      pop\n      pop\n      mload(0x40)\n      dup1\n      swap2\n      sub\n      swap1\n      return\n        /* \"contracts/TetherToken_remix_fixed.sol\":9497:9657  function removeBlackList (address _clearedUser) public onlyOwner {\r... */\n    tag_31:\n      jumpi(tag_130, iszero(callvalue))\n      0x0\n      dup1\n      revert\n    tag_130:\n      tag_131\n      0x4\n      dup1\n      dup1\n      calldataload\n      0xffffffffffffffffffffffffffffffffffffffff\n      and\n      swap1\n      0x20\n      add\n      swap1\n      swap2\n      swap1\n      pop\n      pop\n      jump(tag_132)\n    tag_131:\n      stop\n        /* \"contracts/TetherToken_remix_fixed.sol\":10317:10359  uint public constant MAX_UINT = 2**256 - 1 */\n    tag_32:\n      jumpi(tag_133, iszero(callvalue))\n      0x0\n      dup1\n      revert\n    tag_133:\n      tag_134\n      jump(tag_135)\n    tag_134:\n      mload(0x40)\n      dup1\n      dup3\n      dup2\n      mstore\n      0x20\n      add\n      swap2\n      pop\n      pop\n      mload(0x40)\n      dup1\n      swap2\n      sub\n      swap1\n      return\n        /* \"contracts/TetherToken_remix_fixed.sol\":7789:7962  function transferOwnership(address newOwner) public onlyOwner {\r... */\n    tag_33:\n      jumpi(tag_136, iszero(callvalue))\n      0x0\n      dup1\n      revert\n    tag_136:\n      tag_137\n      0x4\n      dup1\n      dup1\n      calldataload\n      0xffffffffffffffffffffffffffffffffffffffff\n      and\n      swap1\n      0x20\n      add\n      swap1\n      swap2\n      swap1\n      pop\n      pop\n      jump(tag_138)\n    tag_137:\n      stop\n        /* \"contracts/TetherToken_remix_fixed.sol\":17776:18116  function destroyBlackFunds(address _blackListedUser) public onlyOwner {\r... */\n    tag_34:\n      jumpi(tag_139, iszero(callvalue))\n      0x0\n      dup1\n      revert\n    tag_139:\n      tag_140\n      0x4\n      dup1\n      dup1\n      calldataload\n      0xffffffffffffffffffffffffffffffffffffffff\n      and\n      swap1\n      0x20\n      add\n      swap1\n      swap2\n      swap1\n      pop\n      pop\n      jump(tag_141)\n    tag_140:\n      stop\n        /* \"contracts/TetherToken_remix_fixed.sol\":10212:10230  string public name */\n    tag_37:\n      0x5\n      dup1\n      sload\n      0x1\n      dup2\n      0x1\n      and\n      iszero\n      0x100\n      mul\n      sub\n      and\n      0x2\n      swap1\n      div\n      dup1\n      0x1f\n      add\n      0x20\n      dup1\n      swap2\n      div\n      mul\n      0x20\n      add\n      mload(0x40)\n      swap1\n      dup2\n      add\n      0x40\n      mstore\n      dup1\n      swap3\n      swap2\n      swap1\n      dup2\n      dup2\n      mstore\n      0x20\n      add\n      dup3\n      dup1\n      sload\n      0x1\n      dup2\n      0x1\n      and\n      iszero\n      0x100\n      mul\n      sub\n      and\n      0x2\n      swap1\n      div\n      dup1\n      iszero\n      tag_142\n      jumpi\n      dup1\n      0x1f\n      lt\n      tag_143\n      jumpi\n      0x100\n      dup1\n      dup4\n      sload\n      div\n      mul\n      dup4\n      mstore\n      swap2\n      0x20\n      add\n      swap2\n      jump(tag_142)\n    tag_143:\n      dup3\n      add\n      swap2\n      swap1\n      0x0\n      mstore\n      keccak256(0x0, 0x20)\n      swap1\n    tag_144:\n      dup2\n      sload\n      dup2\n      mstore\n      swap1\n      0x1\n      add\n      swap1\n      0x20\n      add\n      dup1\n      dup4\n      gt\n      tag_144\n      jumpi\n      dup3\n      swap1\n      sub\n      0x1f\n      and\n      dup3\n      add\n      swap2\n    tag_142:\n      pop\n      pop\n      pop\n      pop\n      pop\n      dup2\n      jump\t// out\n        /* \"contracts/TetherToken_remix_fixed.sol\":16689:16920  function deprecate(address _upgradedAddress) public onlyOwner {\r... */\n    tag_44:\n        /* \"contracts/TetherToken_remix_fixed.sol\":7602:7607  owner */\n      0x2\n      0x0\n      swap1\n      sload\n      swap1\n      0x100\n      exp\n      swap1\n      div\n      0xffffffffffffffffffffffffffffffffffffffff\n      and\n        /* \"contracts/TetherToken_remix_fixed.sol\":7588:7607  msg.sender == owner */\n      0xffffffffffffffffffffffffffffffffffffffff\n      and\n        /* \"contracts/TetherToken_remix_fixed.sol\":7588:7598  msg.sender */\n      caller\n        /* \"contracts/TetherToken_remix_fixed.sol\":7588:7607  msg.sender == owner */\n      0xffffffffffffffffffffffffffffffffffffffff\n      and\n      eq\n        /* \"contracts/TetherToken_remix_fixed.sol\":7580:7608  require(msg.sender == owner) */\n      iszero\n      iszero\n      tag_146\n      jumpi\n      0x0\n      dup1\n      revert\n    tag_146:\n        /* \"contracts/TetherToken_remix_fixed.sol\":16798:16799  0 */\n      0x0\n        /* \"contracts/TetherToken_remix_fixed.sol\":16770:16800  _upgradedAddress != address(0) */\n      0xffffffffffffffffffffffffffffffffffffffff\n      and\n        /* \"contracts/TetherToken_remix_fixed.sol\":16770:16786  _upgradedAddress */\n      dup2\n        /* \"contracts/TetherToken_remix_fixed.sol\":16770:16800  _upgradedAddress != address(0) */\n      0xffffffffffffffffffffffffffffffffffffffff\n      and\n      eq\n      iszero\n        /* \"contracts/TetherToken_remix_fixed.sol\":16762:16801  require(_upgradedAddress != address(0)) */\n      iszero\n      iszero\n      tag_148\n      jumpi\n      0x0\n      dup1\n      revert\n    tag_148:\n        /* \"contracts/TetherToken_remix_fixed.sol\":16825:16829  true */\n      0x1\n        /* \"contracts/TetherToken_remix_fixed.sol\":16812:16822  deprecated */\n      0xa\n      0x14\n        /* \"contracts/TetherToken_remix_fixed.sol\":16812:16829  deprecated = true */\n      0x100\n      exp\n      dup2\n      sload\n      dup2\n      0xff\n      mul\n      not\n      and\n      swap1\n      dup4\n      iszero\n      iszero\n      mul\n      or\n      swap1\n      sstore\n      pop\n        /* \"contracts/TetherToken_remix_fixed.sol\":16858:16874  _upgradedAddress */\n      dup1\n        /* \"contracts/TetherToken_remix_fixed.sol\":16840:16855  upgradedAddress */\n      0xa\n      0x0\n        /* \"contracts/TetherToken_remix_fixed.sol\":16840:16874  upgradedAddress = _upgradedAddress */\n      0x100\n      exp\n      dup2\n      sload\n      dup2\n      0xffffffffffffffffffffffffffffffffffffffff\n      mul\n      not\n      and\n      swap1\n      dup4\n      0xffffffffffffffffffffffffffffffffffffffff\n      and\n      mul\n      or\n      swap1\n      sstore\n      pop\n        /* \"contracts/TetherToken_remix_fixed.sol\":16885:16912  Deprecate(_upgradedAddress) */\n      0xcc358699805e9a8b7f77b522628c7cb9abd07d9efb86b6fb616af1609036a99e\n        /* \"contracts/TetherToken_remix_fixed.sol\":16895:16911  _upgradedAddress */\n      dup2\n        /* \"contracts/TetherToken_remix_fixed.sol\":16885:16912  Deprecate(_upgradedAddress) */\n      mload(0x40)\n      dup1\n      dup3\n      0xffffffffffffffffffffffffffffffffffffffff\n      and\n      0xffffffffffffffffffffffffffffffffffffffff\n      and\n      dup2\n      mstore\n      0x20\n      add\n      swap2\n      pop\n      pop\n      mload(0x40)\n      dup1\n      swap2\n      sub\n      swap1\n      log1\n        /* \"contracts/TetherToken_remix_fixed.sol\":16689:16920  function deprecate(address _upgradedAddress) public onlyOwner {\r... */\n      pop\n      jump\t// out\n        /* \"contracts/TetherToken_remix_fixed.sol\":14918:15225  function approve(address _spender, uint _value) public whenNotPaused returns (bool) {\r... */\n    tag_47:\n        /* \"contracts/TetherToken_remix_fixed.sol\":14996:15000  bool */\n      0x0\n        /* \"contracts/TetherToken_remix_fixed.sol\":8458:8464  paused */\n      0x2\n      0x14\n      swap1\n      sload\n      swap1\n      0x100\n      exp\n      swap1\n      div\n      0xff\n      and\n        /* \"contracts/TetherToken_remix_fixed.sol\":8457:8464  !paused */\n      iszero\n        /* \"contracts/TetherToken_remix_fixed.sol\":8449:8465  require(!paused) */\n      iszero\n      iszero\n      tag_150\n      jumpi\n      0x0\n      dup1\n      revert\n    tag_150:\n        /* \"contracts/TetherToken_remix_fixed.sol\":15017:15027  deprecated */\n      0xa\n      0x14\n      swap1\n      sload\n      swap1\n      0x100\n      exp\n      swap1\n      div\n      0xff\n      and\n        /* \"contracts/TetherToken_remix_fixed.sol\":15013:15218  if (deprecated) {\r... */\n      iszero\n      tag_152\n      jumpi\n        /* \"contracts/TetherToken_remix_fixed.sol\":15073:15088  upgradedAddress */\n      0xa\n      0x0\n      swap1\n      sload\n      swap1\n      0x100\n      exp\n      swap1\n      div\n      0xffffffffffffffffffffffffffffffffffffffff\n      and\n        /* \"contracts/TetherToken_remix_fixed.sol\":15051:15105  UpgradedStandardToken(upgradedAddress).approveByLegacy */\n      0xffffffffffffffffffffffffffffffffffffffff\n      and\n      0xaee92d33\n        /* \"contracts/TetherToken_remix_fixed.sol\":15106:15116  msg.sender */\n      caller\n        /* \"contracts/TetherToken_remix_fixed.sol\":15118:15126  _spender */\n      dup6\n        /* \"contracts/TetherToken_remix_fixed.sol\":15128:15134  _value */\n      dup6\n        /* \"contracts/TetherToken_remix_fixed.sol\":15051:15135  UpgradedStandardToken(upgradedAddress).approveByLegacy(msg.sender, _spender, _value) */\n      mstore(add(0x20, mload(0x40)), 0x0)\n      mload(0x40)\n      dup5\n      0xffffffff\n      and\n      0x100000000000000000000000000000000000000000000000000000000\n      mul\n      dup2\n      mstore\n      0x4\n      add\n      dup1\n      dup5\n      0xffffffffffffffffffffffffffffffffffffffff\n      and\n      0xffffffffffffffffffffffffffffffffffffffff\n      and\n      dup2\n      mstore\n      0x20\n      add\n      dup4\n      0xffffffffffffffffffffffffffffffffffffffff\n      and\n      0xffffffffffffffffffffffffffffffffffffffff\n      and\n      dup2\n      mstore\n      0x20\n      add\n      dup3\n      dup2\n      mstore\n      0x20\n      add\n      swap4\n      pop\n      pop\n      pop\n      pop\n      0x20\n      mload(0x40)\n      dup1\n      dup4\n      sub\n      dup2\n      0x0\n      dup8\n      dup1\n      extcodesize\n      iszero\n      iszero\n      tag_153\n      jumpi\n      0x0\n      dup1\n      revert\n    tag_153:\n      sub(gas, 0x2c6)\n      call\n      iszero\n      iszero\n      tag_154\n      jumpi\n      0x0\n      dup1\n      revert\n    tag_154:\n      pop\n      pop\n      pop\n      mload(0x40)\n      dup1\n      mload\n      swap1\n      pop\n        /* \"contracts/TetherToken_remix_fixed.sol\":15044:15135  return UpgradedStandardToken(upgradedAddress).approveByLegacy(msg.sender, _spender, _value) */\n      swap1\n      pop\n      jump(tag_151)\n        /* \"contracts/TetherToken_remix_fixed.sol\":15013:15218  if (deprecated) {\r... */\n    tag_152:\n        /* \"contracts/TetherToken_remix_fixed.sol\":15175:15206  super.approve(_spender, _value) */\n      tag_156\n        /* \"contracts/TetherToken_remix_fixed.sol\":15189:15197  _spender */\n      dup4\n        /* \"contracts/TetherToken_remix_fixed.sol\":15199:15205  _value */\n      dup4\n        /* \"contracts/TetherToken_remix_fixed.sol\":15175:15188  super.approve */\n      tag_157\n        /* \"contracts/TetherToken_remix_fixed.sol\":15175:15206  super.approve(_spender, _value) */\n      jump\t// in\n    tag_156:\n        /* \"contracts/TetherToken_remix_fixed.sol\":15168:15206  return super.approve(_spender, _value) */\n      swap1\n      pop\n        /* \"contracts/TetherToken_remix_fixed.sol\":8472:8473  _ */\n    tag_151:\n        /* \"contracts/TetherToken_remix_fixed.sol\":14918:15225  function approve(address _spender, uint _value) public whenNotPaused returns (bool) {\r... */\n      swap3\n      swap2\n      pop\n      pop\n      jump\t// out\n        /* \"contracts/TetherToken_remix_fixed.sol\":13109:13131  bool public deprecated */\n    tag_50:\n      0xa\n      0x14\n      swap1\n      sload\n      swap1\n      0x100\n      exp\n      swap1\n      div\n      0xff\n      and\n      dup2\n      jump\t// out\n        /* \"contracts/TetherToken_remix_fixed.sol\":9344:9489  function addBlackList (address _evilUser) public onlyOwner {\r... */\n    tag_53:\n        /* \"contracts/TetherToken_remix_fixed.sol\":7602:7607  owner */\n      0x2\n      0x0\n      swap1\n      sload\n      swap1\n      0x100\n      exp\n      swap1\n      div\n      0xffffffffffffffffffffffffffffffffffffffff\n      and\n        /* \"contracts/TetherToken_remix_fixed.sol\":7588:7607  msg.sender == owner */\n      0xffffffffffffffffffffffffffffffffffffffff\n      and\n        /* \"contracts/TetherToken_remix_fixed.sol\":7588:7598  msg.sender */\n      caller\n        /* \"contracts/TetherToken_remix_fixed.sol\":7588:7607  msg.sender == owner */\n      0xffffffffffffffffffffffffffffffffffffffff\n      and\n      eq\n        /* \"contracts/TetherToken_remix_fixed.sol\":7580:7608  require(msg.sender == owner) */\n      iszero\n      iszero\n      tag_159\n      jumpi\n      0x0\n      dup1\n      revert\n    tag_159:\n        /* \"contracts/TetherToken_remix_fixed.sol\":9441:9445  true */\n      0x1\n        /* \"contracts/TetherToken_remix_fixed.sol\":9414:9427  isBlackListed */\n      0x9\n        /* \"contracts/TetherToken_remix_fixed.sol\":9414:9438  isBlackListed[_evilUser] */\n      0x0\n        /* \"contracts/TetherToken_remix_fixed.sol\":9428:9437  _evilUser */\n      dup4\n        /* \"contracts/TetherToken_remix_fixed.sol\":9414:9438  isBlackListed[_evilUser] */\n      0xffffffffffffffffffffffffffffffffffffffff\n      and\n      0xffffffffffffffffffffffffffffffffffffffff\n      and\n      dup2\n      mstore\n      0x20\n      add\n      swap1\n      dup2\n      mstore\n      0x20\n      add\n      0x0\n      keccak256\n      0x0\n        /* \"contracts/TetherToken_remix_fixed.sol\":9414:9445  isBlackListed[_evilUser] = true */\n      0x100\n      exp\n      dup2\n      sload\n      dup2\n      0xff\n      mul\n      not\n      and\n      swap1\n      dup4\n      iszero\n      iszero\n      mul\n      or\n      swap1\n      sstore\n      pop\n        /* \"contracts/TetherToken_remix_fixed.sol\":9471:9480  _evilUser */\n      dup1\n        /* \"contracts/TetherToken_remix_fixed.sol\":9456:9481  AddedBlackList(_evilUser) */\n      0xffffffffffffffffffffffffffffffffffffffff\n      and\n      0x42e160154868087d6bfdc0ca23d96a1c1cfa32f1b72ba9ba27b69b98a0d819dc\n      mload(0x40)\n      mload(0x40)\n      dup1\n      swap2\n      sub\n      swap1\n      log2\n        /* \"contracts/TetherToken_remix_fixed.sol\":9344:9489  function addBlackList (address _evilUser) public onlyOwner {\r... */\n      pop\n      jump\t// out\n        /* \"contracts/TetherToken_remix_fixed.sol\":16263:16481  function totalSupply() public constant returns (uint) {\r... */\n    tag_56:\n        /* \"contracts/TetherToken_remix_fixed.sol\":16311:16315  uint */\n      0x0\n        /* \"contracts/TetherToken_remix_fixed.sol\":16332:16342  deprecated */\n      0xa\n      0x14\n      swap1\n      sload\n      swap1\n      0x100\n      exp\n      swap1\n      div\n      0xff\n      and\n        /* \"contracts/TetherToken_remix_fixed.sol\":16328:16474  if (deprecated) {\r... */\n      iszero\n      tag_162\n      jumpi\n        /* \"contracts/TetherToken_remix_fixed.sol\":16380:16395  upgradedAddress */\n      0xa\n      0x0\n      swap1\n      sload\n      swap1\n      0x100\n      exp\n      swap1\n      div\n      0xffffffffffffffffffffffffffffffffffffffff\n      and\n        /* \"contracts/TetherToken_remix_fixed.sol\":16366:16408  StandardToken(upgradedAddress).totalSupply */\n      0xffffffffffffffffffffffffffffffffffffffff\n      and\n      0x18160ddd\n        /* \"contracts/TetherToken_remix_fixed.sol\":16366:16410  StandardToken(upgradedAddress).totalSupply() */\n      mstore(add(0x20, mload(0x40)), 0x0)\n      mload(0x40)\n      dup2\n      0xffffffff\n      and\n      0x100000000000000000000000000000000000000000000000000000000\n      mul\n      dup2\n      mstore\n      0x4\n      add\n      0x20\n      mload(0x40)\n      dup1\n      dup4\n      sub\n      dup2\n      0x0\n      dup8\n      dup1\n      extcodesize\n      iszero\n      iszero\n      tag_163\n      jumpi\n      0x0\n      dup1\n      revert\n    tag_163:\n      sub(gas, 0x2c6)\n      call\n      iszero\n      iszero\n      tag_164\n      jumpi\n      0x0\n      dup1\n      revert\n    tag_164:\n      pop\n      pop\n      pop\n      mload(0x40)\n      dup1\n      mload\n      swap1\n      pop\n        /* \"contracts/TetherToken_remix_fixed.sol\":16359:16410  return StandardToken(upgradedAddress).totalSupply() */\n      swap1\n      pop\n      jump(tag_161)\n        /* \"contracts/TetherToken_remix_fixed.sol\":16328:16474  if (deprecated) {\r... */\n    tag_162:\n        /* \"contracts/TetherToken_remix_fixed.sol\":16450:16462  _totalSupply */\n      sload(0x8)\n        /* \"contracts/TetherToken_remix_fixed.sol\":16443:16462  return _totalSupply */\n      swap1\n      pop\n        /* \"contracts/TetherToken_remix_fixed.sol\":16263:16481  function totalSupply() public constant returns (uint) {\r... */\n    tag_161:\n      swap1\n      jump\t// out\n        /* \"contracts/TetherToken_remix_fixed.sol\":14119:14496  function transferFrom(address _from, address _to, uint _value) public whenNotPaused returns (bool) {\r... */\n    tag_59:\n        /* \"contracts/TetherToken_remix_fixed.sol\":14212:14216  bool */\n      0x0\n        /* \"contracts/TetherToken_remix_fixed.sol\":8458:8464  paused */\n      0x2\n      0x14\n      swap1\n      sload\n      swap1\n      0x100\n      exp\n      swap1\n      div\n      0xff\n      and\n        /* \"contracts/TetherToken_remix_fixed.sol\":8457:8464  !paused */\n      iszero\n        /* \"contracts/TetherToken_remix_fixed.sol\":8449:8465  require(!paused) */\n      iszero\n      iszero\n      tag_167\n      jumpi\n      0x0\n      dup1\n      revert\n    tag_167:\n        /* \"contracts/TetherToken_remix_fixed.sol\":14238:14251  isBlackListed */\n      0x9\n        /* \"contracts/TetherToken_remix_fixed.sol\":14238:14258  isBlackListed[_from] */\n      0x0\n        /* \"contracts/TetherToken_remix_fixed.sol\":14252:14257  _from */\n      dup6\n        /* \"contracts/TetherToken_remix_fixed.sol\":14238:14258  isBlackListed[_from] */\n      0xffffffffffffffffffffffffffffffffffffffff\n      and\n      0xffffffffffffffffffffffffffffffffffffffff\n      and\n      dup2\n      mstore\n      0x20\n      add\n      swap1\n      dup2\n      mstore\n      0x20\n      add\n      0x0\n      keccak256\n      0x0\n      swap1\n      sload\n      swap1\n      0x100\n      exp\n      swap1\n      div\n      0xff\n      and\n        /* \"contracts/TetherToken_remix_fixed.sol\":14237:14258  !isBlackListed[_from] */\n      iszero\n        /* \"contracts/TetherToken_remix_fixed.sol\":14229:14259  require(!isBlackListed[_from]) */\n      iszero\n      iszero\n      tag_169\n      jumpi\n      0x0\n      dup1\n      revert\n    tag_169:\n        /* \"contracts/TetherToken_remix_fixed.sol\":14274:14284  deprecated */\n      0xa\n      0x14\n      swap1\n      sload\n      swap1\n      0x100\n      exp\n      swap1\n      div\n      0xff\n      and\n        /* \"contracts/TetherToken_remix_fixed.sol\":14270:14489  if (deprecated) {\r... */\n      iszero\n      tag_170\n      jumpi\n        /* \"contracts/TetherToken_remix_fixed.sol\":14330:14345  upgradedAddress */\n      0xa\n      0x0\n      swap1\n      sload\n      swap1\n      0x100\n      exp\n      swap1\n      div\n      0xffffffffffffffffffffffffffffffffffffffff\n      and\n        /* \"contracts/TetherToken_remix_fixed.sol\":14308:14367  UpgradedStandardToken(upgradedAddress).transferFromByLegacy */\n      0xffffffffffffffffffffffffffffffffffffffff\n      and\n      0x8b477adb\n        /* \"contracts/TetherToken_remix_fixed.sol\":14368:14378  msg.sender */\n      caller\n        /* \"contracts/TetherToken_remix_fixed.sol\":14380:14385  _from */\n      dup7\n        /* \"contracts/TetherToken_remix_fixed.sol\":14387:14390  _to */\n      dup7\n        /* \"contracts/TetherToken_remix_fixed.sol\":14392:14398  _value */\n      dup7\n        /* \"contracts/TetherToken_remix_fixed.sol\":14308:14399  UpgradedStandardToken(upgradedAddress).transferFromByLegacy(msg.sender, _from, _to, _value) */\n      mstore(add(0x20, mload(0x40)), 0x0)\n      mload(0x40)\n      dup6\n      0xffffffff\n      and\n      0x100000000000000000000000000000000000000000000000000000000\n      mul\n      dup2\n      mstore\n      0x4\n      add\n      dup1\n      dup6\n      0xffffffffffffffffffffffffffffffffffffffff\n      and\n      0xffffffffffffffffffffffffffffffffffffffff\n      and\n      dup2\n      mstore\n      0x20\n      add\n      dup5\n      0xffffffffffffffffffffffffffffffffffffffff\n      and\n      0xffffffffffffffffffffffffffffffffffffffff\n      and\n      dup2\n      mstore\n      0x20\n      add\n      dup4\n      0xffffffffffffffffffffffffffffffffffffffff\n      and\n      0xffffffffffffffffffffffffffffffffffffffff\n      and\n      dup2\n      mstore\n      0x20\n      add\n      dup3\n      dup2\n      mstore\n      0x20\n      add\n      swap5\n      pop\n      pop\n      pop\n      pop\n      pop\n      0x20\n      mload(0x40)\n      dup1\n      dup4\n      sub\n      dup2\n      0x0\n      dup8\n      dup1\n      extcodesize\n      iszero\n      iszero\n      tag_171\n      jumpi\n      0x0\n      dup1\n      revert\n    tag_171:\n      sub(gas, 0x2c6)\n      call\n      iszero\n      iszero\n      tag_172\n      jumpi\n      0x0\n      dup1\n      revert\n    tag_172:\n      pop\n      pop\n      pop\n      mload(0x40)\n      dup1\n      mload\n      swap1\n      pop\n        /* \"contracts/TetherToken_remix_fixed.sol\":14301:14399  return UpgradedStandardToken(upgradedAddress).transferFromByLegacy(msg.sender, _from, _to, _value) */\n      swap1\n      pop\n      jump(tag_168)\n        /* \"contracts/TetherToken_remix_fixed.sol\":14270:14489  if (deprecated) {\r... */\n    tag_170:\n        /* \"contracts/TetherToken_remix_fixed.sol\":14439:14477  super.transferFrom(_from, _to, _value) */\n      tag_174\n        /* \"contracts/TetherToken_remix_fixed.sol\":14458:14463  _from */\n      dup5\n        /* \"contracts/TetherToken_remix_fixed.sol\":14465:14468  _to */\n      dup5\n        /* \"contracts/TetherToken_remix_fixed.sol\":14470:14476  _value */\n      dup5\n        /* \"contracts/TetherToken_remix_fixed.sol\":14439:14457  super.transferFrom */\n      tag_175\n        /* \"contracts/TetherToken_remix_fixed.sol\":14439:14477  super.transferFrom(_from, _to, _value) */\n      jump\t// in\n    tag_174:\n        /* \"contracts/TetherToken_remix_fixed.sol\":14432:14477  return super.transferFrom(_from, _to, _value) */\n      swap1\n      pop\n        /* \"contracts/TetherToken_remix_fixed.sol\":8472:8473  _ */\n    tag_168:\n        /* \"contracts/TetherToken_remix_fixed.sol\":14119:14496  function transferFrom(address _from, address _to, uint _value) public whenNotPaused returns (bool) {\r... */\n      swap4\n      swap3\n      pop\n      pop\n      pop\n      jump\t// out\n        /* \"contracts/TetherToken_remix_fixed.sol\":13072:13102  address public upgradedAddress */\n    tag_62:\n      0xa\n      0x0\n      swap1\n      sload\n      swap1\n      0x100\n      exp\n      swap1\n      div\n      0xffffffffffffffffffffffffffffffffffffffff\n      and\n      dup2\n      jump\t// out\n        /* \"contracts/TetherToken_remix_fixed.sol\":10260:10281  uint8 public decimals */\n    tag_65:\n      0x7\n      0x0\n      swap1\n      sload\n      swap1\n      0x100\n      exp\n      swap1\n      div\n      0xff\n      and\n      dup2\n      jump\t// out\n        /* \"contracts/TetherToken_remix_fixed.sol\":10081:10110  uint256 public maximumFee = 0 */\n    tag_68:\n      sload(0x4)\n      dup2\n      jump\t// out\n        /* \"contracts/TetherToken_remix_fixed.sol\":10286:10310  uint public _totalSupply */\n    tag_71:\n      sload(0x8)\n      dup2\n      jump\t// out\n        /* \"contracts/TetherToken_remix_fixed.sol\":8898:8988  function unpause() onlyOwner whenPaused public {\r... */\n    tag_74:\n        /* \"contracts/TetherToken_remix_fixed.sol\":7602:7607  owner */\n      0x2\n      0x0\n      swap1\n      sload\n      swap1\n      0x100\n      exp\n      swap1\n      div\n      0xffffffffffffffffffffffffffffffffffffffff\n      and\n        /* \"contracts/TetherToken_remix_fixed.sol\":7588:7607  msg.sender == owner */\n      0xffffffffffffffffffffffffffffffffffffffff\n      and\n        /* \"contracts/TetherToken_remix_fixed.sol\":7588:7598  msg.sender */\n      caller\n        /* \"contracts/TetherToken_remix_fixed.sol\":7588:7607  msg.sender == owner */\n      0xffffffffffffffffffffffffffffffffffffffff\n      and\n      eq\n        /* \"contracts/TetherToken_remix_fixed.sol\":7580:7608  require(msg.sender == owner) */\n      iszero\n      iszero\n      tag_177\n      jumpi\n      0x0\n      dup1\n      revert\n    tag_177:\n        /* \"contracts/TetherToken_remix_fixed.sol\":8618:8624  paused */\n      0x2\n      0x14\n      swap1\n      sload\n      swap1\n      0x100\n      exp\n      swap1\n      div\n      0xff\n      and\n        /* \"contracts/TetherToken_remix_fixed.sol\":8610:8625  require(paused) */\n      iszero\n      iszero\n      tag_179\n      jumpi\n      0x0\n      dup1\n      revert\n    tag_179:\n        /* \"contracts/TetherToken_remix_fixed.sol\":8961:8966  false */\n      0x0\n        /* \"contracts/TetherToken_remix_fixed.sol\":8952:8958  paused */\n      0x2\n      0x14\n        /* \"contracts/TetherToken_remix_fixed.sol\":8952:8966  paused = false */\n      0x100\n      exp\n      dup2\n      sload\n      dup2\n      0xff\n      mul\n      not\n      and\n      swap1\n      dup4\n      iszero\n      iszero\n      mul\n      or\n      swap1\n      sstore\n      pop\n        /* \"contracts/TetherToken_remix_fixed.sol\":8973:8982  Unpause() */\n      0x7805862f689e2f13df9f062ff482ad3ad112aca9e0847911ed832e158c525b33\n      mload(0x40)\n      mload(0x40)\n      dup1\n      swap2\n      sub\n      swap1\n      log1\n        /* \"contracts/TetherToken_remix_fixed.sol\":8898:8988  function unpause() onlyOwner whenPaused public {\r... */\n      jump\t// out\n        /* \"contracts/TetherToken_remix_fixed.sol\":9157:9281  function getBlackListStatus(address _maker) external constant returns (bool) {\r... */\n    tag_77:\n        /* \"contracts/TetherToken_remix_fixed.sol\":9228:9232  bool */\n      0x0\n        /* \"contracts/TetherToken_remix_fixed.sol\":9252:9265  isBlackListed */\n      0x9\n        /* \"contracts/TetherToken_remix_fixed.sol\":9252:9273  isBlackListed[_maker] */\n      0x0\n        /* \"contracts/TetherToken_remix_fixed.sol\":9266:9272  _maker */\n      dup4\n        /* \"contracts/TetherToken_remix_fixed.sol\":9252:9273  isBlackListed[_maker] */\n      0xffffffffffffffffffffffffffffffffffffffff\n      and\n      0xffffffffffffffffffffffffffffffffffffffff\n      and\n      dup2\n      mstore\n      0x20\n      add\n      swap1\n      dup2\n      mstore\n      0x20\n      add\n      0x0\n      keccak256\n      0x0\n      swap1\n      sload\n      swap1\n      0x100\n      exp\n      swap1\n      div\n      0xff\n      and\n        /* \"contracts/TetherToken_remix_fixed.sol\":9245:9273  return isBlackListed[_maker] */\n      swap1\n      pop\n        /* \"contracts/TetherToken_remix_fixed.sol\":9157:9281  function getBlackListStatus(address _maker) external constant returns (bool) {\r... */\n      swap2\n      swap1\n      pop\n      jump\t// out\n        /* \"contracts/TetherToken_remix_fixed.sol\":8284:8310  bool public paused = false */\n    tag_80:\n      0x2\n      0x14\n      swap1\n      sload\n      swap1\n      0x100\n      exp\n      swap1\n      div\n      0xff\n      and\n      dup2\n      jump\t// out\n        /* \"contracts/TetherToken_remix_fixed.sol\":15590:15954  function decreaseApproval(address _spender, uint _subtractedValue) public whenNotPaused returns (bool) {\r... */\n    tag_83:\n        /* \"contracts/TetherToken_remix_fixed.sol\":15687:15691  bool */\n      0x0\n        /* \"contracts/TetherToken_remix_fixed.sol\":8458:8464  paused */\n      0x2\n      0x14\n      swap1\n      sload\n      swap1\n      0x100\n      exp\n      swap1\n      div\n      0xff\n      and\n        /* \"contracts/TetherToken_remix_fixed.sol\":8457:8464  !paused */\n      iszero\n        /* \"contracts/TetherToken_remix_fixed.sol\":8449:8465  require(!paused) */\n      iszero\n      iszero\n      tag_183\n      jumpi\n      0x0\n      dup1\n      revert\n    tag_183:\n        /* \"contracts/TetherToken_remix_fixed.sol\":15708:15718  deprecated */\n      0xa\n      0x14\n      swap1\n      sload\n      swap1\n      0x100\n      exp\n      swap1\n      div\n      0xff\n      and\n        /* \"contracts/TetherToken_remix_fixed.sol\":15704:15947  if (deprecated) {\r... */\n      iszero\n      tag_185\n      jumpi\n        /* \"contracts/TetherToken_remix_fixed.sol\":15764:15779  upgradedAddress */\n      0xa\n      0x0\n      swap1\n      sload\n      swap1\n      0x100\n      exp\n      swap1\n      div\n      0xffffffffffffffffffffffffffffffffffffffff\n      and\n        /* \"contracts/TetherToken_remix_fixed.sol\":15742:15805  UpgradedStandardToken(upgradedAddress).decreaseApprovalByLegacy */\n      0xffffffffffffffffffffffffffffffffffffffff\n      and\n      0x6001279f\n        /* \"contracts/TetherToken_remix_fixed.sol\":15806:15816  msg.sender */\n      caller\n        /* \"contracts/TetherToken_remix_fixed.sol\":15818:15826  _spender */\n      dup6\n        /* \"contracts/TetherToken_remix_fixed.sol\":15828:15844  _subtractedValue */\n      dup6\n        /* \"contracts/TetherToken_remix_fixed.sol\":15742:15845  UpgradedStandardToken(upgradedAddress).decreaseApprovalByLegacy(msg.sender, _spender, _subtractedValue) */\n      mstore(add(0x20, mload(0x40)), 0x0)\n      mload(0x40)\n      dup5\n      0xffffffff\n      and\n      0x100000000000000000000000000000000000000000000000000000000\n      mul\n      dup2\n      mstore\n      0x4\n      add\n      dup1\n      dup5\n      0xffffffffffffffffffffffffffffffffffffffff\n      and\n      0xffffffffffffffffffffffffffffffffffffffff\n      and\n      dup2\n      mstore\n      0x20\n      add\n      dup4\n      0xffffffffffffffffffffffffffffffffffffffff\n      and\n      0xffffffffffffffffffffffffffffffffffffffff\n      and\n      dup2\n      mstore\n      0x20\n      add\n      dup3\n      dup2\n      mstore\n      0x20\n      add\n      swap4\n      pop\n      pop\n      pop\n      pop\n      0x20\n      mload(0x40)\n      dup1\n      dup4\n      sub\n      dup2\n      0x0\n      dup8\n      dup1\n      extcodesize\n      iszero\n      iszero\n      tag_186\n      jumpi\n      0x0\n      dup1\n      revert\n    tag_186:\n      sub(gas, 0x2c6)\n      call\n      iszero\n      iszero\n      tag_187\n      jumpi\n      0x0\n      dup1\n      revert\n    tag_187:\n      pop\n      pop\n      pop\n      mload(0x40)\n      dup1\n      mload\n      swap1\n      pop\n        /* \"contracts/TetherToken_remix_fixed.sol\":15735:15845  return UpgradedStandardToken(upgradedAddress).decreaseApprovalByLegacy(msg.sender, _spender, _subtractedValue) */\n      swap1\n      pop\n      jump(tag_184)\n        /* \"contracts/TetherToken_remix_fixed.sol\":15704:15947  if (deprecated) {\r... */\n    tag_185:\n        /* \"contracts/TetherToken_remix_fixed.sol\":15885:15935  super.decreaseApproval(_spender, _subtractedValue) */\n      tag_189\n        /* \"contracts/TetherToken_remix_fixed.sol\":15908:15916  _spender */\n      dup4\n        /* \"contracts/TetherToken_remix_fixed.sol\":15918:15934  _subtractedValue */\n      dup4\n        /* \"contracts/TetherToken_remix_fixed.sol\":15885:15907  super.decreaseApproval */\n      tag_190\n        /* \"contracts/TetherToken_remix_fixed.sol\":15885:15935  super.decreaseApproval(_spender, _subtractedValue) */\n      jump\t// in\n    tag_189:\n        /* \"contracts/TetherToken_remix_fixed.sol\":15878:15935  return super.decreaseApproval(_spender, _subtractedValue) */\n      swap1\n      pop\n        /* \"contracts/TetherToken_remix_fixed.sol\":8472:8473  _ */\n    tag_184:\n        /* \"contracts/TetherToken_remix_fixed.sol\":15590:15954  function decreaseApproval(address _spender, uint _subtractedValue) public whenNotPaused returns (bool) {\r... */\n      swap3\n      swap2\n      pop\n      pop\n      jump\t// out\n        /* \"contracts/TetherToken_remix_fixed.sol\":14504:14748  function balanceOf(address who) public constant returns (uint) {\r... */\n    tag_86:\n        /* \"contracts/TetherToken_remix_fixed.sol\":14561:14565  uint */\n      0x0\n        /* \"contracts/TetherToken_remix_fixed.sol\":14582:14592  deprecated */\n      0xa\n      0x14\n      swap1\n      sload\n      swap1\n      0x100\n      exp\n      swap1\n      div\n      0xff\n      and\n        /* \"contracts/TetherToken_remix_fixed.sol\":14578:14741  if (deprecated) {\r... */\n      iszero\n      tag_192\n      jumpi\n        /* \"contracts/TetherToken_remix_fixed.sol\":14638:14653  upgradedAddress */\n      0xa\n      0x0\n      swap1\n      sload\n      swap1\n      0x100\n      exp\n      swap1\n      div\n      0xffffffffffffffffffffffffffffffffffffffff\n      and\n        /* \"contracts/TetherToken_remix_fixed.sol\":14616:14664  UpgradedStandardToken(upgradedAddress).balanceOf */\n      0xffffffffffffffffffffffffffffffffffffffff\n      and\n      0x70a08231\n        /* \"contracts/TetherToken_remix_fixed.sol\":14665:14668  who */\n      dup4\n        /* \"contracts/TetherToken_remix_fixed.sol\":14616:14669  UpgradedStandardToken(upgradedAddress).balanceOf(who) */\n      mstore(add(0x20, mload(0x40)), 0x0)\n      mload(0x40)\n      dup3\n      0xffffffff\n      and\n      0x100000000000000000000000000000000000000000000000000000000\n      mul\n      dup2\n      mstore\n      0x4\n      add\n      dup1\n      dup3\n      0xffffffffffffffffffffffffffffffffffffffff\n      and\n      0xffffffffffffffffffffffffffffffffffffffff\n      and\n      dup2\n      mstore\n      0x20\n      add\n      swap2\n      pop\n      pop\n      0x20\n      mload(0x40)\n      dup1\n      dup4\n      sub\n      dup2\n      0x0\n      dup8\n      dup1\n      extcodesize\n      iszero\n      iszero\n      tag_193\n      jumpi\n      0x0\n      dup1\n      revert\n    tag_193:\n      sub(gas, 0x2c6)\n      call\n      iszero\n      iszero\n      tag_194\n      jumpi\n      0x0\n      dup1\n      revert\n    tag_194:\n      pop\n      pop\n      pop\n      mload(0x40)\n      dup1\n      mload\n      swap1\n      pop\n        /* \"contracts/TetherToken_remix_fixed.sol\":14609:14669  return UpgradedStandardToken(upgradedAddress).balanceOf(who) */\n      swap1\n      pop\n      jump(tag_191)\n        /* \"contracts/TetherToken_remix_fixed.sol\":14578:14741  if (deprecated) {\r... */\n    tag_192:\n        /* \"contracts/TetherToken_remix_fixed.sol\":14709:14729  super.balanceOf(who) */\n      tag_196\n        /* \"contracts/TetherToken_remix_fixed.sol\":14725:14728  who */\n      dup3\n        /* \"contracts/TetherToken_remix_fixed.sol\":14709:14724  super.balanceOf */\n      tag_197\n        /* \"contracts/TetherToken_remix_fixed.sol\":14709:14729  super.balanceOf(who) */\n      jump\t// in\n    tag_196:\n        /* \"contracts/TetherToken_remix_fixed.sol\":14702:14729  return super.balanceOf(who) */\n      swap1\n      pop\n        /* \"contracts/TetherToken_remix_fixed.sol\":14504:14748  function balanceOf(address who) public constant returns (uint) {\r... */\n    tag_191:\n      swap2\n      swap1\n      pop\n      jump\t// out\n        /* \"contracts/TetherToken_remix_fixed.sol\":10366:10571  function calcFee(uint _value) public constant returns (uint) {\r... */\n    tag_89:\n        /* \"contracts/TetherToken_remix_fixed.sol\":10421:10425  uint */\n      0x0\n        /* \"contracts/TetherToken_remix_fixed.sol\":10434:10442  uint fee */\n      dup1\n        /* \"contracts/TetherToken_remix_fixed.sol\":10445:10485  (_value.mul(basisPointsRate)).div(10000) */\n      tag_199\n        /* \"contracts/TetherToken_remix_fixed.sol\":10479:10484  10000 */\n      0x2710\n        /* \"contracts/TetherToken_remix_fixed.sol\":10446:10473  _value.mul(basisPointsRate) */\n      tag_200\n        /* \"contracts/TetherToken_remix_fixed.sol\":10457:10472  basisPointsRate */\n      sload(0x3)\n        /* \"contracts/TetherToken_remix_fixed.sol\":10446:10452  _value */\n      dup7\n        /* \"contracts/TetherToken_remix_fixed.sol\":10446:10456  _value.mul */\n      tag_201\n      swap1\n        /* \"contracts/TetherToken_remix_fixed.sol\":10446:10473  _value.mul(basisPointsRate) */\n      swap2\n      swap1\n      0xffffffff\n      and\n      jump\t// in\n    tag_200:\n        /* \"contracts/TetherToken_remix_fixed.sol\":10445:10478  (_value.mul(basisPointsRate)).div */\n      tag_202\n      swap1\n        /* \"contracts/TetherToken_remix_fixed.sol\":10445:10485  (_value.mul(basisPointsRate)).div(10000) */\n      swap2\n      swap1\n      0xffffffff\n      and\n      jump\t// in\n    tag_199:\n        /* \"contracts/TetherToken_remix_fixed.sol\":10434:10485  uint fee = (_value.mul(basisPointsRate)).div(10000) */\n      swap1\n      pop\n        /* \"contracts/TetherToken_remix_fixed.sol\":10502:10512  maximumFee */\n      sload(0x4)\n        /* \"contracts/TetherToken_remix_fixed.sol\":10496:10499  fee */\n      dup2\n        /* \"contracts/TetherToken_remix_fixed.sol\":10496:10512  fee > maximumFee */\n      gt\n        /* \"contracts/TetherToken_remix_fixed.sol\":10492:10549  if (fee > maximumFee) {\r... */\n      iszero\n      tag_203\n      jumpi\n        /* \"contracts/TetherToken_remix_fixed.sol\":10531:10541  maximumFee */\n      sload(0x4)\n        /* \"contracts/TetherToken_remix_fixed.sol\":10525:10541  fee = maximumFee */\n      swap1\n      pop\n        /* \"contracts/TetherToken_remix_fixed.sol\":10492:10549  if (fee > maximumFee) {\r... */\n    tag_203:\n        /* \"contracts/TetherToken_remix_fixed.sol\":10562:10565  fee */\n      dup1\n        /* \"contracts/TetherToken_remix_fixed.sol\":10555:10565  return fee */\n      swap2\n      pop\n        /* \"contracts/TetherToken_remix_fixed.sol\":10366:10571  function calcFee(uint _value) public constant returns (uint) {\r... */\n      pop\n      swap2\n      swap1\n      pop\n      jump\t// out\n        /* \"contracts/TetherToken_remix_fixed.sol\":8723:8811  function pause() onlyOwner whenNotPaused public {\r... */\n    tag_92:\n        /* \"contracts/TetherToken_remix_fixed.sol\":7602:7607  owner */\n      0x2\n      0x0\n      swap1\n      sload\n      swap1\n      0x100\n      exp\n      swap1\n      div\n      0xffffffffffffffffffffffffffffffffffffffff\n      and\n        /* \"contracts/TetherToken_remix_fixed.sol\":7588:7607  msg.sender == owner */\n      0xffffffffffffffffffffffffffffffffffffffff\n      and\n        /* \"contracts/TetherToken_remix_fixed.sol\":7588:7598  msg.sender */\n      caller\n        /* \"contracts/TetherToken_remix_fixed.sol\":7588:7607  msg.sender == owner */\n      0xffffffffffffffffffffffffffffffffffffffff\n      and\n      eq\n        /* \"contracts/TetherToken_remix_fixed.sol\":7580:7608  require(msg.sender == owner) */\n      iszero\n      iszero\n      tag_205\n      jumpi\n      0x0\n      dup1\n      revert\n    tag_205:\n        /* \"contracts/TetherToken_remix_fixed.sol\":8458:8464  paused */\n      0x2\n      0x14\n      swap1\n      sload\n      swap1\n      0x100\n      exp\n      swap1\n      div\n      0xff\n      and\n        /* \"contracts/TetherToken_remix_fixed.sol\":8457:8464  !paused */\n      iszero\n        /* \"contracts/TetherToken_remix_fixed.sol\":8449:8465  require(!paused) */\n      iszero\n      iszero\n      tag_207\n      jumpi\n      0x0\n      dup1\n      revert\n    tag_207:\n        /* \"contracts/TetherToken_remix_fixed.sol\":8787:8791  true */\n      0x1\n        /* \"contracts/TetherToken_remix_fixed.sol\":8778:8784  paused */\n      0x2\n      0x14\n        /* \"contracts/TetherToken_remix_fixed.sol\":8778:8791  paused = true */\n      0x100\n      exp\n      dup2\n      sload\n      dup2\n      0xff\n      mul\n      not\n      and\n      swap1\n      dup4\n      iszero\n      iszero\n      mul\n      or\n      swap1\n      sstore\n      pop\n        /* \"contracts/TetherToken_remix_fixed.sol\":8798:8805  Pause() */\n      0x6985a02210a168e66602d3235cb6db0e70f92b3ba4d376a33c0f3d9434bff625\n      mload(0x40)\n      mload(0x40)\n      dup1\n      swap2\n      sub\n      swap1\n      log1\n        /* \"contracts/TetherToken_remix_fixed.sol\":8723:8811  function pause() onlyOwner whenNotPaused public {\r... */\n      jump\t// out\n        /* \"contracts/TetherToken_remix_fixed.sol\":7179:7199  address public owner */\n    tag_95:\n      0x2\n      0x0\n      swap1\n      sload\n      swap1\n      0x100\n      exp\n      swap1\n      div\n      0xffffffffffffffffffffffffffffffffffffffff\n      and\n      dup2\n      jump\t// out\n        /* \"contracts/TetherToken_remix_fixed.sol\":10235:10255  string public symbol */\n    tag_98:\n      0x6\n      dup1\n      sload\n      0x1\n      dup2\n      0x1\n      and\n      iszero\n      0x100\n      mul\n      sub\n      and\n      0x2\n      swap1\n      div\n      dup1\n      0x1f\n      add\n      0x20\n      dup1\n      swap2\n      div\n      mul\n      0x20\n      add\n      mload(0x40)\n      swap1\n      dup2\n      add\n      0x40\n      mstore\n      dup1\n      swap3\n      swap2\n      swap1\n      dup2\n      dup2\n      mstore\n      0x20\n      add\n      dup3\n      dup1\n      sload\n      0x1\n      dup2\n      0x1\n      and\n      iszero\n      0x100\n      mul\n      sub\n      and\n      0x2\n      swap1\n      div\n      dup1\n      iszero\n      tag_209\n      jumpi\n      dup1\n      0x1f\n      lt\n      tag_210\n      jumpi\n      0x100\n      dup1\n      dup4\n      sload\n      div\n      mul\n      dup4\n      mstore\n      swap2\n      0x20\n      add\n      swap2\n      jump(tag_209)\n    tag_210:\n      dup3\n      add\n      swap2\n      swap1\n      0x0\n      mstore\n      keccak256(0x0, 0x20)\n      swap1\n    tag_211:\n      dup2\n      sload\n      dup2\n      mstore\n      swap1\n      0x1\n      add\n      swap1\n      0x20\n      add\n      dup1\n      dup4\n      gt\n      tag_211\n      jumpi\n      dup3\n      swap1\n      sub\n      0x1f\n      and\n      dup3\n      add\n      swap2\n    tag_209:\n      pop\n      pop\n      pop\n      pop\n      pop\n      dup2\n      jump\t// out\n        /* \"contracts/TetherToken_remix_fixed.sol\":13770:14111  function transfer(address _to, uint _value) public whenNotPaused returns (bool) {\r... */\n    tag_105:\n        /* \"contracts/TetherToken_remix_fixed.sol\":13844:13848  bool */\n      0x0\n        /* \"contracts/TetherToken_remix_fixed.sol\":8458:8464  paused */\n      0x2\n      0x14\n      swap1\n      sload\n      swap1\n      0x100\n      exp\n      swap1\n      div\n      0xff\n      and\n        /* \"contracts/TetherToken_remix_fixed.sol\":8457:8464  !paused */\n      iszero\n        /* \"contracts/TetherToken_remix_fixed.sol\":8449:8465  require(!paused) */\n      iszero\n      iszero\n      tag_213\n      jumpi\n      0x0\n      dup1\n      revert\n    tag_213:\n        /* \"contracts/TetherToken_remix_fixed.sol\":13870:13883  isBlackListed */\n      0x9\n        /* \"contracts/TetherToken_remix_fixed.sol\":13870:13895  isBlackListed[msg.sender] */\n      0x0\n        /* \"contracts/TetherToken_remix_fixed.sol\":13884:13894  msg.sender */\n      caller\n        /* \"contracts/TetherToken_remix_fixed.sol\":13870:13895  isBlackListed[msg.sender] */\n      0xffffffffffffffffffffffffffffffffffffffff\n      and\n      0xffffffffffffffffffffffffffffffffffffffff\n      and\n      dup2\n      mstore\n      0x20\n      add\n      swap1\n      dup2\n      mstore\n      0x20\n      add\n      0x0\n      keccak256\n      0x0\n      swap1\n      sload\n      swap1\n      0x100\n      exp\n      swap1\n      div\n      0xff\n      and\n        /* \"contracts/TetherToken_remix_fixed.sol\":13869:13895  !isBlackListed[msg.sender] */\n      iszero\n        /* \"contracts/TetherToken_remix_fixed.sol\":13861:13896  require(!isBlackListed[msg.sender]) */\n      iszero\n      iszero\n      tag_215\n      jumpi\n      0x0\n      dup1\n      revert\n    tag_215:\n        /* \"contracts/TetherToken_remix_fixed.sol\":13911:13921  deprecated */\n      0xa\n      0x14\n      swap1\n      sload\n      swap1\n      0x100\n      exp\n      swap1\n      div\n      0xff\n      and\n        /* \"contracts/TetherToken_remix_fixed.sol\":13907:14104  if (deprecated) {\r... */\n      iszero\n      tag_216\n      jumpi\n        /* \"contracts/TetherToken_remix_fixed.sol\":13967:13982  upgradedAddress */\n      0xa\n      0x0\n      swap1\n      sload\n      swap1\n      0x100\n      exp\n      swap1\n      div\n      0xffffffffffffffffffffffffffffffffffffffff\n      and\n        /* \"contracts/TetherToken_remix_fixed.sol\":13945:14000  UpgradedStandardToken(upgradedAddress).transferByLegacy */\n      0xffffffffffffffffffffffffffffffffffffffff\n      and\n      0x6e18980a\n        /* \"contracts/TetherToken_remix_fixed.sol\":14001:14011  msg.sender */\n      caller\n        /* \"contracts/TetherToken_remix_fixed.sol\":14013:14016  _to */\n      dup6\n        /* \"contracts/TetherToken_remix_fixed.sol\":14018:14024  _value */\n      dup6\n        /* \"contracts/TetherToken_remix_fixed.sol\":13945:14025  UpgradedStandardToken(upgradedAddress).transferByLegacy(msg.sender, _to, _value) */\n      mstore(add(0x20, mload(0x40)), 0x0)\n      mload(0x40)\n      dup5\n      0xffffffff\n      and\n      0x100000000000000000000000000000000000000000000000000000000\n      mul\n      dup2\n      mstore\n      0x4\n      add\n      dup1\n      dup5\n      0xffffffffffffffffffffffffffffffffffffffff\n      and\n      0xffffffffffffffffffffffffffffffffffffffff\n      and\n      dup2\n      mstore\n      0x20\n      add\n      dup4\n      0xffffffffffffffffffffffffffffffffffffffff\n      and\n      0xffffffffffffffffffffffffffffffffffffffff\n      and\n      dup2\n      mstore\n      0x20\n      add\n      dup3\n      dup2\n      mstore\n      0x20\n      add\n      swap4\n      pop\n      pop\n      pop\n      pop\n      0x20\n      mload(0x40)\n      dup1\n      dup4\n      sub\n      dup2\n      0x0\n      dup8\n      dup1\n      extcodesize\n      iszero\n      iszero\n      tag_217\n      jumpi\n      0x0\n      dup1\n      revert\n    tag_217:\n      sub(gas, 0x2c6)\n      call\n      iszero\n      iszero\n      tag_218\n      jumpi\n      0x0\n      dup1\n      revert\n    tag_218:\n      pop\n      pop\n      pop\n      mload(0x40)\n      dup1\n      mload\n      swap1\n      pop\n        /* \"contracts/TetherToken_remix_fixed.sol\":13938:14025  return UpgradedStandardToken(upgradedAddress).transferByLegacy(msg.sender, _to, _value) */\n      swap1\n      pop\n      jump(tag_214)\n        /* \"contracts/TetherToken_remix_fixed.sol\":13907:14104  if (deprecated) {\r... */\n    tag_216:\n        /* \"contracts/TetherToken_remix_fixed.sol\":14065:14092  super.transfer(_to, _value) */\n      tag_220\n        /* \"contracts/TetherToken_remix_fixed.sol\":14080:14083  _to */\n      dup4\n        /* \"contracts/TetherToken_remix_fixed.sol\":14085:14091  _value */\n      dup4\n        /* \"contracts/TetherToken_remix_fixed.sol\":14065:14079  super.transfer */\n      tag_221\n        /* \"contracts/TetherToken_remix_fixed.sol\":14065:14092  super.transfer(_to, _value) */\n      jump\t// in\n    tag_220:\n        /* \"contracts/TetherToken_remix_fixed.sol\":14058:14092  return super.transfer(_to, _value) */\n      swap1\n      pop\n        /* \"contracts/TetherToken_remix_fixed.sol\":8472:8473  _ */\n    tag_214:\n        /* \"contracts/TetherToken_remix_fixed.sol\":13770:14111  function transfer(address _to, uint _value) public whenNotPaused returns (bool) {\r... */\n      swap3\n      swap2\n      pop\n      pop\n      jump\t// out\n        /* \"contracts/TetherToken_remix_fixed.sol\":14756:14910  function oldBalanceOf(address who) public constant returns (uint) {\r... */\n    tag_108:\n        /* \"contracts/TetherToken_remix_fixed.sol\":14816:14820  uint */\n      0x0\n        /* \"contracts/TetherToken_remix_fixed.sol\":14837:14847  deprecated */\n      0xa\n      0x14\n      swap1\n      sload\n      swap1\n      0x100\n      exp\n      swap1\n      div\n      0xff\n      and\n        /* \"contracts/TetherToken_remix_fixed.sol\":14833:14903  if (deprecated) {\r... */\n      iszero\n      tag_223\n      jumpi\n        /* \"contracts/TetherToken_remix_fixed.sol\":14871:14891  super.balanceOf(who) */\n      tag_224\n        /* \"contracts/TetherToken_remix_fixed.sol\":14887:14890  who */\n      dup3\n        /* \"contracts/TetherToken_remix_fixed.sol\":14871:14886  super.balanceOf */\n      tag_197\n        /* \"contracts/TetherToken_remix_fixed.sol\":14871:14891  super.balanceOf(who) */\n      jump\t// in\n    tag_224:\n        /* \"contracts/TetherToken_remix_fixed.sol\":14864:14891  return super.balanceOf(who) */\n      swap1\n      pop\n      jump(tag_222)\n        /* \"contracts/TetherToken_remix_fixed.sol\":14833:14903  if (deprecated) {\r... */\n    tag_223:\n        /* \"contracts/TetherToken_remix_fixed.sol\":14756:14910  function oldBalanceOf(address who) public constant returns (uint) {\r... */\n    tag_222:\n      swap2\n      swap1\n      pop\n      jump\t// out\n        /* \"contracts/TetherToken_remix_fixed.sol\":11587:11916  function setParams(uint newBasisPoints, uint newMaxFee) public onlyOwner {\r... */\n    tag_111:\n        /* \"contracts/TetherToken_remix_fixed.sol\":7602:7607  owner */\n      0x2\n      0x0\n      swap1\n      sload\n      swap1\n      0x100\n      exp\n      swap1\n      div\n      0xffffffffffffffffffffffffffffffffffffffff\n      and\n        /* \"contracts/TetherToken_remix_fixed.sol\":7588:7607  msg.sender == owner */\n      0xffffffffffffffffffffffffffffffffffffffff\n      and\n        /* \"contracts/TetherToken_remix_fixed.sol\":7588:7598  msg.sender */\n      caller\n        /* \"contracts/TetherToken_remix_fixed.sol\":7588:7607  msg.sender == owner */\n      0xffffffffffffffffffffffffffffffffffffffff\n      and\n      eq\n        /* \"contracts/TetherToken_remix_fixed.sol\":7580:7608  require(msg.sender == owner) */\n      iszero\n      iszero\n      tag_226\n      jumpi\n      0x0\n      dup1\n      revert\n    tag_226:\n        /* \"contracts/TetherToken_remix_fixed.sol\":10160:10162  20 */\n      0x14\n        /* \"contracts/TetherToken_remix_fixed.sol\":11677:11691  newBasisPoints */\n      dup3\n        /* \"contracts/TetherToken_remix_fixed.sol\":11677:11719  newBasisPoints < MAX_SETTABLE_BASIS_POINTS */\n      lt\n        /* \"contracts/TetherToken_remix_fixed.sol\":11669:11720  require(newBasisPoints < MAX_SETTABLE_BASIS_POINTS) */\n      iszero\n      iszero\n      tag_228\n      jumpi\n      0x0\n      dup1\n      revert\n    tag_228:\n        /* \"contracts/TetherToken_remix_fixed.sol\":10203:10205  50 */\n      0x32\n        /* \"contracts/TetherToken_remix_fixed.sol\":11737:11746  newMaxFee */\n      dup2\n        /* \"contracts/TetherToken_remix_fixed.sol\":11737:11765  newMaxFee < MAX_SETTABLE_FEE */\n      lt\n        /* \"contracts/TetherToken_remix_fixed.sol\":11729:11766  require(newMaxFee < MAX_SETTABLE_FEE) */\n      iszero\n      iszero\n      tag_229\n      jumpi\n      0x0\n      dup1\n      revert\n    tag_229:\n        /* \"contracts/TetherToken_remix_fixed.sol\":11795:11809  newBasisPoints */\n      dup2\n        /* \"contracts/TetherToken_remix_fixed.sol\":11777:11792  basisPointsRate */\n      0x3\n        /* \"contracts/TetherToken_remix_fixed.sol\":11777:11809  basisPointsRate = newBasisPoints */\n      dup2\n      swap1\n      sstore\n      pop\n        /* \"contracts/TetherToken_remix_fixed.sol\":11831:11864  newMaxFee.mul(uint(10)**decimals) */\n      tag_230\n        /* \"contracts/TetherToken_remix_fixed.sol\":11855:11863  decimals */\n      0x7\n      0x0\n      swap1\n      sload\n      swap1\n      0x100\n      exp\n      swap1\n      div\n      0xff\n      and\n        /* \"contracts/TetherToken_remix_fixed.sol\":11845:11863  uint(10)**decimals */\n      0xff\n      and\n        /* \"contracts/TetherToken_remix_fixed.sol\":11850:11852  10 */\n      0xa\n        /* \"contracts/TetherToken_remix_fixed.sol\":11845:11863  uint(10)**decimals */\n      exp\n        /* \"contracts/TetherToken_remix_fixed.sol\":11831:11840  newMaxFee */\n      dup3\n        /* \"contracts/TetherToken_remix_fixed.sol\":11831:11844  newMaxFee.mul */\n      tag_201\n      swap1\n        /* \"contracts/TetherToken_remix_fixed.sol\":11831:11864  newMaxFee.mul(uint(10)**decimals) */\n      swap2\n      swap1\n      0xffffffff\n      and\n      jump\t// in\n    tag_230:\n        /* \"contracts/TetherToken_remix_fixed.sol\":11818:11828  maximumFee */\n      0x4\n        /* \"contracts/TetherToken_remix_fixed.sol\":11818:11864  maximumFee = newMaxFee.mul(uint(10)**decimals) */\n      dup2\n      swap1\n      sstore\n      pop\n        /* \"contracts/TetherToken_remix_fixed.sol\":11875:11910  Params(basisPointsRate, maximumFee) */\n      0xb044a1e409eac5c48e5af22d4af52670dd1a99059537a78b31b48c6500a6354e\n        /* \"contracts/TetherToken_remix_fixed.sol\":11882:11897  basisPointsRate */\n      sload(0x3)\n        /* \"contracts/TetherToken_remix_fixed.sol\":11899:11909  maximumFee */\n      sload(0x4)\n        /* \"contracts/TetherToken_remix_fixed.sol\":11875:11910  Params(basisPointsRate, maximumFee) */\n      mload(0x40)\n      dup1\n      dup4\n      dup2\n      mstore\n      0x20\n      add\n      dup3\n      dup2\n      mstore\n      0x20\n      add\n      swap3\n      pop\n      pop\n      pop\n      mload(0x40)\n      dup1\n      swap2\n      sub\n      swap1\n      log1\n        /* \"contracts/TetherToken_remix_fixed.sol\":11587:11916  function setParams(uint newBasisPoints, uint newMaxFee) public onlyOwner {\r... */\n      pop\n      pop\n      jump\t// out\n        /* \"contracts/TetherToken_remix_fixed.sol\":17049:17278  function issue(uint amount) public onlyOwner {\r... */\n    tag_114:\n        /* \"contracts/TetherToken_remix_fixed.sol\":7602:7607  owner */\n      0x2\n      0x0\n      swap1\n      sload\n      swap1\n      0x100\n      exp\n      swap1\n      div\n      0xffffffffffffffffffffffffffffffffffffffff\n      and\n        /* \"contracts/TetherToken_remix_fixed.sol\":7588:7607  msg.sender == owner */\n      0xffffffffffffffffffffffffffffffffffffffff\n      and\n        /* \"contracts/TetherToken_remix_fixed.sol\":7588:7598  msg.sender */\n      caller\n        /* \"contracts/TetherToken_remix_fixed.sol\":7588:7607  msg.sender == owner */\n      0xffffffffffffffffffffffffffffffffffffffff\n      and\n      eq\n        /* \"contracts/TetherToken_remix_fixed.sol\":7580:7608  require(msg.sender == owner) */\n      iszero\n      iszero\n      tag_232\n      jumpi\n      0x0\n      dup1\n      revert\n    tag_232:\n        /* \"contracts/TetherToken_remix_fixed.sol\":17123:17150  balances[owner].add(amount) */\n      tag_234\n        /* \"contracts/TetherToken_remix_fixed.sol\":17143:17149  amount */\n      dup2\n        /* \"contracts/TetherToken_remix_fixed.sol\":17123:17131  balances */\n      0x0\n        /* \"contracts/TetherToken_remix_fixed.sol\":17123:17138  balances[owner] */\n      dup1\n        /* \"contracts/TetherToken_remix_fixed.sol\":17132:17137  owner */\n      0x2\n      0x0\n      swap1\n      sload\n      swap1\n      0x100\n      exp\n      swap1\n      div\n      0xffffffffffffffffffffffffffffffffffffffff\n      and\n        /* \"contracts/TetherToken_remix_fixed.sol\":17123:17138  balances[owner] */\n      0xffffffffffffffffffffffffffffffffffffffff\n      and\n      0xffffffffffffffffffffffffffffffffffffffff\n      and\n      dup2\n      mstore\n      0x20\n      add\n      swap1\n      dup2\n      mstore\n      0x20\n      add\n      0x0\n      keccak256\n      sload\n        /* \"contracts/TetherToken_remix_fixed.sol\":17123:17142  balances[owner].add */\n      tag_235\n      swap1\n        /* \"contracts/TetherToken_remix_fixed.sol\":17123:17150  balances[owner].add(amount) */\n      swap2\n      swap1\n      0xffffffff\n      and\n      jump\t// in\n    tag_234:\n        /* \"contracts/TetherToken_remix_fixed.sol\":17105:17113  balances */\n      0x0\n        /* \"contracts/TetherToken_remix_fixed.sol\":17105:17120  balances[owner] */\n      dup1\n        /* \"contracts/TetherToken_remix_fixed.sol\":17114:17119  owner */\n      0x2\n      0x0\n      swap1\n      sload\n      swap1\n      0x100\n      exp\n      swap1\n      div\n      0xffffffffffffffffffffffffffffffffffffffff\n      and\n        /* \"contracts/TetherToken_remix_fixed.sol\":17105:17120  balances[owner] */\n      0xffffffffffffffffffffffffffffffffffffffff\n      and\n      0xffffffffffffffffffffffffffffffffffffffff\n      and\n      dup2\n      mstore\n      0x20\n      add\n      swap1\n      dup2\n      mstore\n      0x20\n      add\n      0x0\n      keccak256\n        /* \"contracts/TetherToken_remix_fixed.sol\":17105:17150  balances[owner] = balances[owner].add(amount) */\n      dup2\n      swap1\n      sstore\n      pop\n        /* \"contracts/TetherToken_remix_fixed.sol\":17176:17200  _totalSupply.add(amount) */\n      tag_236\n        /* \"contracts/TetherToken_remix_fixed.sol\":17193:17199  amount */\n      dup2\n        /* \"contracts/TetherToken_remix_fixed.sol\":17176:17188  _totalSupply */\n      sload(0x8)\n        /* \"contracts/TetherToken_remix_fixed.sol\":17176:17192  _totalSupply.add */\n      tag_235\n      swap1\n        /* \"contracts/TetherToken_remix_fixed.sol\":17176:17200  _totalSupply.add(amount) */\n      swap2\n      swap1\n      0xffffffff\n      and\n      jump\t// in\n    tag_236:\n        /* \"contracts/TetherToken_remix_fixed.sol\":17161:17173  _totalSupply */\n      0x8\n        /* \"contracts/TetherToken_remix_fixed.sol\":17161:17200  _totalSupply = _totalSupply.add(amount) */\n      dup2\n      swap1\n      sstore\n      pop\n        /* \"contracts/TetherToken_remix_fixed.sol\":17211:17224  Issue(amount) */\n      0xcb8241adb0c3fdb35b70c24ce35c5eb0c17af7431c99f827d44a445ca624176a\n        /* \"contracts/TetherToken_remix_fixed.sol\":17217:17223  amount */\n      dup2\n        /* \"contracts/TetherToken_remix_fixed.sol\":17211:17224  Issue(amount) */\n      mload(0x40)\n      dup1\n      dup3\n      dup2\n      mstore\n      0x20\n      add\n      swap2\n      pop\n      pop\n      mload(0x40)\n      dup1\n      swap2\n      sub\n      swap1\n      log1\n        /* \"contracts/TetherToken_remix_fixed.sol\":17256:17261  owner */\n      0x2\n      0x0\n      swap1\n      sload\n      swap1\n      0x100\n      exp\n      swap1\n      div\n      0xffffffffffffffffffffffffffffffffffffffff\n      and\n        /* \"contracts/TetherToken_remix_fixed.sol\":17235:17270  Transfer(address(0), owner, amount) */\n      0xffffffffffffffffffffffffffffffffffffffff\n      and\n        /* \"contracts/TetherToken_remix_fixed.sol\":17252:17253  0 */\n      0x0\n        /* \"contracts/TetherToken_remix_fixed.sol\":17235:17270  Transfer(address(0), owner, amount) */\n      0xffffffffffffffffffffffffffffffffffffffff\n      and\n      0xddf252ad1be2c89b69c2b068fc378daa952ba7f163c4a11628f55a4df523b3ef\n        /* \"contracts/TetherToken_remix_fixed.sol\":17263:17269  amount */\n      dup4\n        /* \"contracts/TetherToken_remix_fixed.sol\":17235:17270  Transfer(address(0), owner, amount) */\n      mload(0x40)\n      dup1\n      dup3\n      dup2\n      mstore\n      0x20\n      add\n      swap2\n      pop\n      pop\n      mload(0x40)\n      dup1\n      swap2\n      sub\n      swap1\n      log3\n        /* \"contracts/TetherToken_remix_fixed.sol\":17049:17278  function issue(uint amount) public onlyOwner {\r... */\n      pop\n      jump\t// out\n        /* \"contracts/TetherToken_remix_fixed.sol\":15233:15582  function increaseApproval(address _spender, uint _addedValue) public whenNotPaused returns (bool) {\r... */\n    tag_117:\n        /* \"contracts/TetherToken_remix_fixed.sol\":15325:15329  bool */\n      0x0\n        /* \"contracts/TetherToken_remix_fixed.sol\":8458:8464  paused */\n      0x2\n      0x14\n      swap1\n      sload\n      swap1\n      0x100\n      exp\n      swap1\n      div\n      0xff\n      and\n        /* \"contracts/TetherToken_remix_fixed.sol\":8457:8464  !paused */\n      iszero\n        /* \"contracts/TetherToken_remix_fixed.sol\":8449:8465  require(!paused) */\n      iszero\n      iszero\n      tag_238\n      jumpi\n      0x0\n      dup1\n      revert\n    tag_238:\n        /* \"contracts/TetherToken_remix_fixed.sol\":15346:15356  deprecated */\n      0xa\n      0x14\n      swap1\n      sload\n      swap1\n      0x100\n      exp\n      swap1\n      div\n      0xff\n      and\n        /* \"contracts/TetherToken_remix_fixed.sol\":15342:15575  if (deprecated) {\r... */\n      iszero\n      tag_240\n      jumpi\n        /* \"contracts/TetherToken_remix_fixed.sol\":15402:15417  upgradedAddress */\n      0xa\n      0x0\n      swap1\n      sload\n      swap1\n      0x100\n      exp\n      swap1\n      div\n      0xffffffffffffffffffffffffffffffffffffffff\n      and\n        /* \"contracts/TetherToken_remix_fixed.sol\":15380:15443  UpgradedStandardToken(upgradedAddress).increaseApprovalByLegacy */\n      0xffffffffffffffffffffffffffffffffffffffff\n      and\n      0xa9538157\n        /* \"contracts/TetherToken_remix_fixed.sol\":15444:15454  msg.sender */\n      caller\n        /* \"contracts/TetherToken_remix_fixed.sol\":15456:15464  _spender */\n      dup6\n        /* \"contracts/TetherToken_remix_fixed.sol\":15466:15477  _addedValue */\n      dup6\n        /* \"contracts/TetherToken_remix_fixed.sol\":15380:15478  UpgradedStandardToken(upgradedAddress).increaseApprovalByLegacy(msg.sender, _spender, _addedValue) */\n      mstore(add(0x20, mload(0x40)), 0x0)\n      mload(0x40)\n      dup5\n      0xffffffff\n      and\n      0x100000000000000000000000000000000000000000000000000000000\n      mul\n      dup2\n      mstore\n      0x4\n      add\n      dup1\n      dup5\n      0xffffffffffffffffffffffffffffffffffffffff\n      and\n      0xffffffffffffffffffffffffffffffffffffffff\n      and\n      dup2\n      mstore\n      0x20\n      add\n      dup4\n      0xffffffffffffffffffffffffffffffffffffffff\n      and\n      0xffffffffffffffffffffffffffffffffffffffff\n      and\n      dup2\n      mstore\n      0x20\n      add\n      dup3\n      dup2\n      mstore\n      0x20\n      add\n      swap4\n      pop\n      pop\n      pop\n      pop\n      0x20\n      mload(0x40)\n      dup1\n      dup4\n      sub\n      dup2\n      0x0\n      dup8\n      dup1\n      extcodesize\n      iszero\n      iszero\n      tag_241\n      jumpi\n      0x0\n      dup1\n      revert\n    tag_241:\n      sub(gas, 0x2c6)\n      call\n      iszero\n      iszero\n      tag_242\n      jumpi\n      0x0\n      dup1\n      revert\n    tag_242:\n      pop\n      pop\n      pop\n      mload(0x40)\n      dup1\n      mload\n      swap1\n      pop\n        /* \"contracts/TetherToken_remix_fixed.sol\":15373:15478  return UpgradedStandardToken(upgradedAddress).increaseApprovalByLegacy(msg.sender, _spender, _addedValue) */\n      swap1\n      pop\n      jump(tag_239)\n        /* \"contracts/TetherToken_remix_fixed.sol\":15342:15575  if (deprecated) {\r... */\n    tag_240:\n        /* \"contracts/TetherToken_remix_fixed.sol\":15518:15563  super.increaseApproval(_spender, _addedValue) */\n      tag_244\n        /* \"contracts/TetherToken_remix_fixed.sol\":15541:15549  _spender */\n      dup4\n        /* \"contracts/TetherToken_remix_fixed.sol\":15551:15562  _addedValue */\n      dup4\n        /* \"contracts/TetherToken_remix_fixed.sol\":15518:15540  super.increaseApproval */\n      tag_245\n        /* \"contracts/TetherToken_remix_fixed.sol\":15518:15563  super.increaseApproval(_spender, _addedValue) */\n      jump\t// in\n    tag_244:\n        /* \"contracts/TetherToken_remix_fixed.sol\":15511:15563  return super.increaseApproval(_spender, _addedValue) */\n      swap1\n      pop\n        /* \"contracts/TetherToken_remix_fixed.sol\":8472:8473  _ */\n    tag_239:\n        /* \"contracts/TetherToken_remix_fixed.sol\":15233:15582  function increaseApproval(address _spender, uint _addedValue) public whenNotPaused returns (bool) {\r... */\n      swap3\n      swap2\n      pop\n      pop\n      jump\t// out\n        /* \"contracts/TetherToken_remix_fixed.sol\":17405:17636  function redeem(uint amount) public onlyOwner {\r... */\n    tag_120:\n        /* \"contracts/TetherToken_remix_fixed.sol\":7602:7607  owner */\n      0x2\n      0x0\n      swap1\n      sload\n      swap1\n      0x100\n      exp\n      swap1\n      div\n      0xffffffffffffffffffffffffffffffffffffffff\n      and\n        /* \"contracts/TetherToken_remix_fixed.sol\":7588:7607  msg.sender == owner */\n      0xffffffffffffffffffffffffffffffffffffffff\n      and\n        /* \"contracts/TetherToken_remix_fixed.sol\":7588:7598  msg.sender */\n      caller\n        /* \"contracts/TetherToken_remix_fixed.sol\":7588:7607  msg.sender == owner */\n      0xffffffffffffffffffffffffffffffffffffffff\n      and\n      eq\n        /* \"contracts/TetherToken_remix_fixed.sol\":7580:7608  require(msg.sender == owner) */\n      iszero\n      iszero\n      tag_247\n      jumpi\n      0x0\n      dup1\n      revert\n    tag_247:\n        /* \"contracts/TetherToken_remix_fixed.sol\":17477:17501  _totalSupply.sub(amount) */\n      tag_249\n        /* \"contracts/TetherToken_remix_fixed.sol\":17494:17500  amount */\n      dup2\n        /* \"contracts/TetherToken_remix_fixed.sol\":17477:17489  _totalSupply */\n      sload(0x8)\n        /* \"contracts/TetherToken_remix_fixed.sol\":17477:17493  _totalSupply.sub */\n      tag_250\n      swap1\n        /* \"contracts/TetherToken_remix_fixed.sol\":17477:17501  _totalSupply.sub(amount) */\n      swap2\n      swap1\n      0xffffffff\n      and\n      jump\t// in\n    tag_249:\n        /* \"contracts/TetherToken_remix_fixed.sol\":17462:17474  _totalSupply */\n      0x8\n        /* \"contracts/TetherToken_remix_fixed.sol\":17462:17501  _totalSupply = _totalSupply.sub(amount) */\n      dup2\n      swap1\n      sstore\n      pop\n        /* \"contracts/TetherToken_remix_fixed.sol\":17530:17557  balances[owner].sub(amount) */\n      tag_251\n        /* \"contracts/TetherToken_remix_fixed.sol\":17550:17556  amount */\n      dup2\n        /* \"contracts/TetherToken_remix_fixed.sol\":17530:17538  balances */\n      0x0\n        /* \"contracts/TetherToken_remix_fixed.sol\":17530:17545  balances[owner] */\n      dup1\n        /* \"contracts/TetherToken_remix_fixed.sol\":17539:17544  owner */\n      0x2\n      0x0\n      swap1\n      sload\n      swap1\n      0x100\n      exp\n      swap1\n      div\n      0xffffffffffffffffffffffffffffffffffffffff\n      and\n        /* \"contracts/TetherToken_remix_fixed.sol\":17530:17545  balances[owner] */\n      0xffffffffffffffffffffffffffffffffffffffff\n      and\n      0xffffffffffffffffffffffffffffffffffffffff\n      and\n      dup2\n      mstore\n      0x20\n      add\n      swap1\n      dup2\n      mstore\n      0x20\n      add\n      0x0\n      keccak256\n      sload\n        /* \"contracts/TetherToken_remix_fixed.sol\":17530:17549  balances[owner].sub */\n      tag_250\n      swap1\n        /* \"contracts/TetherToken_remix_fixed.sol\":17530:17557  balances[owner].sub(amount) */\n      swap2\n      swap1\n      0xffffffff\n      and\n      jump\t// in\n    tag_251:\n        /* \"contracts/TetherToken_remix_fixed.sol\":17512:17520  balances */\n      0x0\n        /* \"contracts/TetherToken_remix_fixed.sol\":17512:17527  balances[owner] */\n      dup1\n        /* \"contracts/TetherToken_remix_fixed.sol\":17521:17526  owner */\n      0x2\n      0x0\n      swap1\n      sload\n      swap1\n      0x100\n      exp\n      swap1\n      div\n      0xffffffffffffffffffffffffffffffffffffffff\n      and\n        /* \"contracts/TetherToken_remix_fixed.sol\":17512:17527  balances[owner] */\n      0xffffffffffffffffffffffffffffffffffffffff\n      and\n      0xffffffffffffffffffffffffffffffffffffffff\n      and\n      dup2\n      mstore\n      0x20\n      add\n      swap1\n      dup2\n      mstore\n      0x20\n      add\n      0x0\n      keccak256\n        /* \"contracts/TetherToken_remix_fixed.sol\":17512:17557  balances[owner] = balances[owner].sub(amount) */\n      dup2\n      swap1\n      sstore\n      pop\n        /* \"contracts/TetherToken_remix_fixed.sol\":17568:17582  Redeem(amount) */\n      0x702d5967f45f6513a38ffc42d6ba9bf230bd40e8f53b16363c7eb4fd2deb9a44\n        /* \"contracts/TetherToken_remix_fixed.sol\":17575:17581  amount */\n      dup2\n        /* \"contracts/TetherToken_remix_fixed.sol\":17568:17582  Redeem(amount) */\n      mload(0x40)\n      dup1\n      dup3\n      dup2\n      mstore\n      0x20\n      add\n      swap2\n      pop\n      pop\n      mload(0x40)\n      dup1\n      swap2\n      sub\n      swap1\n      log1\n        /* \"contracts/TetherToken_remix_fixed.sol\":17617:17618  0 */\n      0x0\n        /* \"contracts/TetherToken_remix_fixed.sol\":17593:17628  Transfer(owner, address(0), amount) */\n      0xffffffffffffffffffffffffffffffffffffffff\n      and\n        /* \"contracts/TetherToken_remix_fixed.sol\":17602:17607  owner */\n      0x2\n      0x0\n      swap1\n      sload\n      swap1\n      0x100\n      exp\n      swap1\n      div\n      0xffffffffffffffffffffffffffffffffffffffff\n      and\n        /* \"contracts/TetherToken_remix_fixed.sol\":17593:17628  Transfer(owner, address(0), amount) */\n      0xffffffffffffffffffffffffffffffffffffffff\n      and\n      0xddf252ad1be2c89b69c2b068fc378daa952ba7f163c4a11628f55a4df523b3ef\n        /* \"contracts/TetherToken_remix_fixed.sol\":17621:17627  amount */\n      dup4\n        /* \"contracts/TetherToken_remix_fixed.sol\":17593:17628  Transfer(owner, address(0), amount) */\n      mload(0x40)\n      dup1\n      dup3\n      dup2\n      mstore\n      0x20\n      add\n      swap2\n      pop\n      pop\n      mload(0x40)\n      dup1\n      swap2\n      sub\n      swap1\n      log3\n        /* \"contracts/TetherToken_remix_fixed.sol\":17405:17636  function redeem(uint amount) public onlyOwner {\r... */\n      pop\n      jump\t// out\n        /* \"contracts/TetherToken_remix_fixed.sol\":15962:16255  function allowance(address _owner, address _spender) public constant returns (uint remaining) {\r... */\n    tag_123:\n        /* \"contracts/TetherToken_remix_fixed.sol\":16040:16054  uint remaining */\n      0x0\n        /* \"contracts/TetherToken_remix_fixed.sol\":16071:16081  deprecated */\n      0xa\n      0x14\n      swap1\n      sload\n      swap1\n      0x100\n      exp\n      swap1\n      div\n      0xff\n      and\n        /* \"contracts/TetherToken_remix_fixed.sol\":16067:16248  if (deprecated) {\r... */\n      iszero\n      tag_253\n      jumpi\n        /* \"contracts/TetherToken_remix_fixed.sol\":16119:16134  upgradedAddress */\n      0xa\n      0x0\n      swap1\n      sload\n      swap1\n      0x100\n      exp\n      swap1\n      div\n      0xffffffffffffffffffffffffffffffffffffffff\n      and\n        /* \"contracts/TetherToken_remix_fixed.sol\":16105:16145  StandardToken(upgradedAddress).allowance */\n      0xffffffffffffffffffffffffffffffffffffffff\n      and\n      0xdd62ed3e\n        /* \"contracts/TetherToken_remix_fixed.sol\":16146:16152  _owner */\n      dup5\n        /* \"contracts/TetherToken_remix_fixed.sol\":16154:16162  _spender */\n      dup5\n        /* \"contracts/TetherToken_remix_fixed.sol\":16105:16163  StandardToken(upgradedAddress).allowance(_owner, _spender) */\n      mstore(add(0x20, mload(0x40)), 0x0)\n      mload(0x40)\n      dup4\n      0xffffffff\n      and\n      0x100000000000000000000000000000000000000000000000000000000\n      mul\n      dup2\n      mstore\n      0x4\n      add\n      dup1\n      dup4\n      0xffffffffffffffffffffffffffffffffffffffff\n      and\n      0xffffffffffffffffffffffffffffffffffffffff\n      and\n      dup2\n      mstore\n      0x20\n      add\n      dup3\n      0xffffffffffffffffffffffffffffffffffffffff\n      and\n      0xffffffffffffffffffffffffffffffffffffffff\n      and\n      dup2\n      mstore\n      0x20\n      add\n      swap3\n      pop\n      pop\n      pop\n      0x20\n      mload(0x40)\n      dup1\n      dup4\n      sub\n      dup2\n      0x0\n      dup8\n      dup1\n      extcodesize\n      iszero\n      iszero\n      tag_254\n      jumpi\n      0x0\n      dup1\n      revert\n    tag_254:\n      sub(gas, 0x2c6)\n      call\n      iszero\n      iszero\n      tag_255\n      jumpi\n      0x0\n      dup1\n      revert\n    tag_255:\n      pop\n      pop\n      pop\n      mload(0x40)\n      dup1\n      mload\n      swap1\n      pop\n        /* \"contracts/TetherToken_remix_fixed.sol\":16098:16163  return StandardToken(upgradedAddress).allowance(_owner, _spender) */\n      swap1\n      pop\n      jump(tag_252)\n        /* \"contracts/TetherToken_remix_fixed.sol\":16067:16248  if (deprecated) {\r... */\n    tag_253:\n        /* \"contracts/TetherToken_remix_fixed.sol\":16203:16236  super.allowance(_owner, _spender) */\n      tag_257\n        /* \"contracts/TetherToken_remix_fixed.sol\":16219:16225  _owner */\n      dup4\n        /* \"contracts/TetherToken_remix_fixed.sol\":16227:16235  _spender */\n      dup4\n        /* \"contracts/TetherToken_remix_fixed.sol\":16203:16218  super.allowance */\n      tag_258\n        /* \"contracts/TetherToken_remix_fixed.sol\":16203:16236  super.allowance(_owner, _spender) */\n      jump\t// in\n    tag_257:\n        /* \"contracts/TetherToken_remix_fixed.sol\":16196:16236  return super.allowance(_owner, _spender) */\n      swap1\n      pop\n        /* \"contracts/TetherToken_remix_fixed.sol\":15962:16255  function allowance(address _owner, address _spender) public constant returns (uint remaining) {\r... */\n    tag_252:\n      swap3\n      swap2\n      pop\n      pop\n      jump\t// out\n        /* \"contracts/TetherToken_remix_fixed.sol\":10042:10076  uint256 public basisPointsRate = 0 */\n    tag_126:\n      sload(0x3)\n      dup2\n      jump\t// out\n        /* \"contracts/TetherToken_remix_fixed.sol\":9289:9335  mapping (address => bool) public isBlackListed */\n    tag_129:\n      mstore(0x20, 0x9)\n      dup1\n      0x0\n      mstore\n      keccak256(0x0, 0x40)\n      0x0\n      swap2\n      pop\n      sload\n      swap1\n      0x100\n      exp\n      swap1\n      div\n      0xff\n      and\n      dup2\n      jump\t// out\n        /* \"contracts/TetherToken_remix_fixed.sol\":9497:9657  function removeBlackList (address _clearedUser) public onlyOwner {\r... */\n    tag_132:\n        /* \"contracts/TetherToken_remix_fixed.sol\":7602:7607  owner */\n      0x2\n      0x0\n      swap1\n      sload\n      swap1\n      0x100\n      exp\n      swap1\n      div\n      0xffffffffffffffffffffffffffffffffffffffff\n      and\n        /* \"contracts/TetherToken_remix_fixed.sol\":7588:7607  msg.sender == owner */\n      0xffffffffffffffffffffffffffffffffffffffff\n      and\n        /* \"contracts/TetherToken_remix_fixed.sol\":7588:7598  msg.sender */\n      caller\n        /* \"contracts/TetherToken_remix_fixed.sol\":7588:7607  msg.sender == owner */\n      0xffffffffffffffffffffffffffffffffffffffff\n      and\n      eq\n        /* \"contracts/TetherToken_remix_fixed.sol\":7580:7608  require(msg.sender == owner) */\n      iszero\n      iszero\n      tag_260\n      jumpi\n      0x0\n      dup1\n      revert\n    tag_260:\n        /* \"contracts/TetherToken_remix_fixed.sol\":9603:9608  false */\n      0x0\n        /* \"contracts/TetherToken_remix_fixed.sol\":9573:9586  isBlackListed */\n      0x9\n        /* \"contracts/TetherToken_remix_fixed.sol\":9573:9600  isBlackListed[_clearedUser] */\n      0x0\n        /* \"contracts/TetherToken_remix_fixed.sol\":9587:9599  _clearedUser */\n      dup4\n        /* \"contracts/TetherToken_remix_fixed.sol\":9573:9600  isBlackListed[_clearedUser] */\n      0xffffffffffffffffffffffffffffffffffffffff\n      and\n      0xffffffffffffffffffffffffffffffffffffffff\n      and\n      dup2\n      mstore\n      0x20\n      add\n      swap1\n      dup2\n      mstore\n      0x20\n      add\n      0x0\n      keccak256\n      0x0\n        /* \"contracts/TetherToken_remix_fixed.sol\":9573:9608  isBlackListed[_clearedUser] = false */\n      0x100\n      exp\n      dup2\n      sload\n      dup2\n      0xff\n      mul\n      not\n      and\n      swap1\n      dup4\n      iszero\n      iszero\n      mul\n      or\n      swap1\n      sstore\n      pop\n        /* \"contracts/TetherToken_remix_fixed.sol\":9636:9648  _clearedUser */\n      dup1\n        /* \"contracts/TetherToken_remix_fixed.sol\":9619:9649  RemovedBlackList(_clearedUser) */\n      0xffffffffffffffffffffffffffffffffffffffff\n      and\n      0xd7e9ec6e6ecd65492dce6bf513cd6867560d49544421d0783ddf06e76c24470c\n      mload(0x40)\n      mload(0x40)\n      dup1\n      swap2\n      sub\n      swap1\n      log2\n        /* \"contracts/TetherToken_remix_fixed.sol\":9497:9657  function removeBlackList (address _clearedUser) public onlyOwner {\r... */\n      pop\n      jump\t// out\n        /* \"contracts/TetherToken_remix_fixed.sol\":10317:10359  uint public constant MAX_UINT = 2**256 - 1 */\n    tag_135:\n        /* \"contracts/TetherToken_remix_fixed.sol\":10349:10359  2**256 - 1 */\n      0xffffffffffffffffffffffffffffffffffffffffffffffffffffffffffffffff\n        /* \"contracts/TetherToken_remix_fixed.sol\":10317:10359  uint public constant MAX_UINT = 2**256 - 1 */\n      dup2\n      jump\t// out\n        /* \"contracts/TetherToken_remix_fixed.sol\":7789:7962  function transferOwnership(address newOwner) public onlyOwner {\r... */\n    tag_138:\n        /* \"contracts/TetherToken_remix_fixed.sol\":7602:7607  owner */\n      0x2\n      0x0\n      swap1\n      sload\n      swap1\n      0x100\n      exp\n      swap1\n      div\n      0xffffffffffffffffffffffffffffffffffffffff\n      and\n        /* \"contracts/TetherToken_remix_fixed.sol\":7588:7607  msg.sender == owner */\n      0xffffffffffffffffffffffffffffffffffffffff\n      and\n        /* \"contracts/TetherToken_remix_fixed.sol\":7588:7598  msg.sender */\n      caller\n        /* \"contracts/TetherToken_remix_fixed.sol\":7588:7607  msg.sender == owner */\n      0xffffffffffffffffffffffffffffffffffffffff\n      and\n      eq\n        /* \"contracts/TetherToken_remix_fixed.sol\":7580:7608  require(msg.sender == owner) */\n      iszero\n      iszero\n      tag_263\n      jumpi\n      0x0\n      dup1\n      revert\n    tag_263:\n        /* \"contracts/TetherToken_remix_fixed.sol\":7886:7887  0 */\n      0x0\n        /* \"contracts/TetherToken_remix_fixed.sol\":7866:7888  newOwner != address(0) */\n      0xffffffffffffffffffffffffffffffffffffffff\n      and\n        /* \"contracts/TetherToken_remix_fixed.sol\":7866:7874  newOwner */\n      dup2\n        /* \"contracts/TetherToken_remix_fixed.sol\":7866:7888  newOwner != address(0) */\n      0xffffffffffffffffffffffffffffffffffffffff\n      and\n      eq\n      iszero\n        /* \"contracts/TetherToken_remix_fixed.sol\":7858:7889  require(newOwner != address(0)) */\n      iszero\n      iszero\n      tag_265\n      jumpi\n      0x0\n      dup1\n      revert\n    tag_265:\n        /* \"contracts/TetherToken_remix_fixed.sol\":7924:7932  newOwner */\n      dup1\n        /* \"contracts/TetherToken_remix_fixed.sol\":7896:7933  OwnershipTransferred(owner, newOwner) */\n      0xffffffffffffffffffffffffffffffffffffffff\n      and\n        /* \"contracts/TetherToken_remix_fixed.sol\":7917:7922  owner */\n      0x2\n      0x0\n      swap1\n      sload\n      swap1\n      0x100\n      exp\n      swap1\n      div\n      0xffffffffffffffffffffffffffffffffffffffff\n      and\n        /* \"contracts/TetherToken_remix_fixed.sol\":7896:7933  OwnershipTransferred(owner, newOwner) */\n      0xffffffffffffffffffffffffffffffffffffffff\n      and\n      0x8be0079c531659141344cd1fd0a4f28419497f9722a3daafe3b4186f6b6457e0\n      mload(0x40)\n      mload(0x40)\n      dup1\n      swap2\n      sub\n      swap1\n      log3\n        /* \"contracts/TetherToken_remix_fixed.sol\":7948:7956  newOwner */\n      dup1\n        /* \"contracts/TetherToken_remix_fixed.sol\":7940:7945  owner */\n      0x2\n      0x0\n        /* \"contracts/TetherToken_remix_fixed.sol\":7940:7956  owner = newOwner */\n      0x100\n      exp\n      dup2\n      sload\n      dup2\n      0xffffffffffffffffffffffffffffffffffffffff\n      mul\n      not\n      and\n      swap1\n      dup4\n      0xffffffffffffffffffffffffffffffffffffffff\n      and\n      mul\n      or\n      swap1\n      sstore\n      pop\n        /* \"contracts/TetherToken_remix_fixed.sol\":7789:7962  function transferOwnership(address newOwner) public onlyOwner {\r... */\n      pop\n      jump\t// out\n        /* \"contracts/TetherToken_remix_fixed.sol\":17776:18116  function destroyBlackFunds(address _blackListedUser) public onlyOwner {\r... */\n    tag_141:\n        /* \"contracts/TetherToken_remix_fixed.sol\":17908:17923  uint dirtyFunds */\n      0x0\n        /* \"contracts/TetherToken_remix_fixed.sol\":7602:7607  owner */\n      0x2\n      0x0\n      swap1\n      sload\n      swap1\n      0x100\n      exp\n      swap1\n      div\n      0xffffffffffffffffffffffffffffffffffffffff\n      and\n        /* \"contracts/TetherToken_remix_fixed.sol\":7588:7607  msg.sender == owner */\n      0xffffffffffffffffffffffffffffffffffffffff\n      and\n        /* \"contracts/TetherToken_remix_fixed.sol\":7588:7598  msg.sender */\n      caller\n        /* \"contracts/TetherToken_remix_fixed.sol\":7588:7607  msg.sender == owner */\n      0xffffffffffffffffffffffffffffffffffffffff\n      and\n      eq\n        /* \"contracts/TetherToken_remix_fixed.sol\":7580:7608  require(msg.sender == owner) */\n      iszero\n      iszero\n      tag_267\n      jumpi\n      0x0\n      dup1\n      revert\n    tag_267:\n        /* \"contracts/TetherToken_remix_fixed.sol\":17865:17878  isBlackListed */\n      0x9\n        /* \"contracts/TetherToken_remix_fixed.sol\":17865:17896  isBlackListed[_blackListedUser] */\n      0x0\n        /* \"contracts/TetherToken_remix_fixed.sol\":17879:17895  _blackListedUser */\n      dup4\n        /* \"contracts/TetherToken_remix_fixed.sol\":17865:17896  isBlackListed[_blackListedUser] */\n      0xffffffffffffffffffffffffffffffffffffffff\n      and\n      0xffffffffffffffffffffffffffffffffffffffff\n      and\n      dup2\n      mstore\n      0x20\n      add\n      swap1\n      dup2\n      mstore\n      0x20\n      add\n      0x0\n      keccak256\n      0x0\n      swap1\n      sload\n      swap1\n      0x100\n      exp\n      swap1\n      div\n      0xff\n      and\n        /* \"contracts/TetherToken_remix_fixed.sol\":17857:17897  require(isBlackListed[_blackListedUser]) */\n      iszero\n      iszero\n      tag_269\n      jumpi\n      0x0\n      dup1\n      revert\n    tag_269:\n        /* \"contracts/TetherToken_remix_fixed.sol\":17926:17953  balanceOf(_blackListedUser) */\n      tag_270\n        /* \"contracts/TetherToken_remix_fixed.sol\":17936:17952  _blackListedUser */\n      dup3\n        /* \"contracts/TetherToken_remix_fixed.sol\":17926:17935  balanceOf */\n      tag_86\n        /* \"contracts/TetherToken_remix_fixed.sol\":17926:17953  balanceOf(_blackListedUser) */\n      jump\t// in\n    tag_270:\n        /* \"contracts/TetherToken_remix_fixed.sol\":17908:17953  uint dirtyFunds = balanceOf(_blackListedUser) */\n      swap1\n      pop\n        /* \"contracts/TetherToken_remix_fixed.sol\":17993:17994  0 */\n      0x0\n        /* \"contracts/TetherToken_remix_fixed.sol\":17964:17972  balances */\n      dup1\n        /* \"contracts/TetherToken_remix_fixed.sol\":17964:17990  balances[_blackListedUser] */\n      0x0\n        /* \"contracts/TetherToken_remix_fixed.sol\":17973:17989  _blackListedUser */\n      dup5\n        /* \"contracts/TetherToken_remix_fixed.sol\":17964:17990  balances[_blackListedUser] */\n      0xffffffffffffffffffffffffffffffffffffffff\n      and\n      0xffffffffffffffffffffffffffffffffffffffff\n      and\n      dup2\n      mstore\n      0x20\n      add\n      swap1\n      dup2\n      mstore\n      0x20\n      add\n      0x0\n      keccak256\n        /* \"contracts/TetherToken_remix_fixed.sol\":17964:17994  balances[_blackListedUser] = 0 */\n      dup2\n      swap1\n      sstore\n      pop\n        /* \"contracts/TetherToken_remix_fixed.sol\":18020:18048  _totalSupply.sub(dirtyFunds) */\n      tag_271\n        /* \"contracts/TetherToken_remix_fixed.sol\":18037:18047  dirtyFunds */\n      dup2\n        /* \"contracts/TetherToken_remix_fixed.sol\":18020:18032  _totalSupply */\n      sload(0x8)\n        /* \"contracts/TetherToken_remix_fixed.sol\":18020:18036  _totalSupply.sub */\n      tag_250\n      swap1\n        /* \"contracts/TetherToken_remix_fixed.sol\":18020:18048  _totalSupply.sub(dirtyFunds) */\n      swap2\n      swap1\n      0xffffffff\n      and\n      jump\t// in\n    tag_271:\n        /* \"contracts/TetherToken_remix_fixed.sol\":18005:18017  _totalSupply */\n      0x8\n        /* \"contracts/TetherToken_remix_fixed.sol\":18005:18048  _totalSupply = _totalSupply.sub(dirtyFunds) */\n      dup2\n      swap1\n      sstore\n      pop\n        /* \"contracts/TetherToken_remix_fixed.sol\":18079:18095  _blackListedUser */\n      dup2\n        /* \"contracts/TetherToken_remix_fixed.sol\":18059:18108  DestroyedBlackFunds(_blackListedUser, dirtyFunds) */\n      0xffffffffffffffffffffffffffffffffffffffff\n      and\n      0x61e6e66b0d6339b2980aecc6ccc0039736791f0ccde9ed512e789a7fbdd698c6\n        /* \"contracts/TetherToken_remix_fixed.sol\":18097:18107  dirtyFunds */\n      dup3\n        /* \"contracts/TetherToken_remix_fixed.sol\":18059:18108  DestroyedBlackFunds(_blackListedUser, dirtyFunds) */\n      mload(0x40)\n      dup1\n      dup3\n      dup2\n      mstore\n      0x20\n      add\n      swap2\n      pop\n      pop\n      mload(0x40)\n      dup1\n      swap2\n      sub\n      swap1\n      log2\n        /* \"contracts/TetherToken_remix_fixed.sol\":17776:18116  function destroyBlackFunds(address _blackListedUser) public onlyOwner {\r... */\n      pop\n      pop\n      jump\t// out\n        /* \"contracts/TetherToken_remix_fixed.sol\":5268:5455  function approve(address _spender, uint256 _value) public returns (bool) {\r... */\n    tag_157:\n        /* \"contracts/TetherToken_remix_fixed.sol\":5335:5339  bool */\n      0x0\n        /* \"contracts/TetherToken_remix_fixed.sol\":5380:5386  _value */\n      dup2\n        /* \"contracts/TetherToken_remix_fixed.sol\":5348:5355  allowed */\n      0x1\n        /* \"contracts/TetherToken_remix_fixed.sol\":5348:5367  allowed[msg.sender] */\n      0x0\n        /* \"contracts/TetherToken_remix_fixed.sol\":5356:5366  msg.sender */\n      caller\n        /* \"contracts/TetherToken_remix_fixed.sol\":5348:5367  allowed[msg.sender] */\n      0xffffffffffffffffffffffffffffffffffffffff\n      and\n      0xffffffffffffffffffffffffffffffffffffffff\n      and\n      dup2\n      mstore\n      0x20\n      add\n      swap1\n      dup2\n      mstore\n      0x20\n      add\n      0x0\n      keccak256\n        /* \"contracts/TetherToken_remix_fixed.sol\":5348:5377  allowed[msg.sender][_spender] */\n      0x0\n        /* \"contracts/TetherToken_remix_fixed.sol\":5368:5376  _spender */\n      dup6\n        /* \"contracts/TetherToken_remix_fixed.sol\":5348:5377  allowed[msg.sender][_spender] */\n      0xffffffffffffffffffffffffffffffffffffffff\n      and\n      0xffffffffffffffffffffffffffffffffffffffff\n      and\n      dup2\n      mstore\n      0x20\n      add\n      swap1\n      dup2\n      mstore\n      0x20\n      add\n      0x0\n      keccak256\n        /* \"contracts/TetherToken_remix_fixed.sol\":5348:5386  allowed[msg.sender][_spender] = _value */\n      dup2\n      swap1\n      sstore\n      pop\n        /* \"contracts/TetherToken_remix_fixed.sol\":5414:5422  _spender */\n      dup3\n        /* \"contracts/TetherToken_remix_fixed.sol\":5393:5431  Approval(msg.sender, _spender, _value) */\n      0xffffffffffffffffffffffffffffffffffffffff\n      and\n        /* \"contracts/TetherToken_remix_fixed.sol\":5402:5412  msg.sender */\n      caller\n        /* \"contracts/TetherToken_remix_fixed.sol\":5393:5431  Approval(msg.sender, _spender, _value) */\n      0xffffffffffffffffffffffffffffffffffffffff\n      and\n      0x8c5be1e5ebec7d5bd14f71427d1e84f3dd0314c0f7b2291e5b200ac8c7c3b925\n        /* \"contracts/TetherToken_remix_fixed.sol\":5424:5430  _value */\n      dup5\n        /* \"contracts/TetherToken_remix_fixed.sol\":5393:5431  Approval(msg.sender, _spender, _value) */\n      mload(0x40)\n      dup1\n      dup3\n      dup2\n      mstore\n      0x20\n      add\n      swap2\n      pop\n      pop\n      mload(0x40)\n      dup1\n      swap2\n      sub\n      swap1\n      log3\n        /* \"contracts/TetherToken_remix_fixed.sol\":5445:5449  true */\n      0x1\n        /* \"contracts/TetherToken_remix_fixed.sol\":5438:5449  return true */\n      swap1\n      pop\n        /* \"contracts/TetherToken_remix_fixed.sol\":5268:5455  function approve(address _spender, uint256 _value) public returns (bool) {\r... */\n      swap3\n      swap2\n      pop\n      pop\n      jump\t// out\n        /* \"contracts/TetherToken_remix_fixed.sol\":10874:11581  function transferFrom(address _from, address _to, uint256 _value) public returns (bool) {\r... */\n    tag_175:\n        /* \"contracts/TetherToken_remix_fixed.sol\":10956:10960  bool */\n      0x0\n        /* \"contracts/TetherToken_remix_fixed.sol\":11097:11105  uint fee */\n      dup1\n        /* \"contracts/TetherToken_remix_fixed.sol\":11130:11145  uint sendAmount */\n      0x0\n        /* \"contracts/TetherToken_remix_fixed.sol\":10992:10993  0 */\n      dup1\n        /* \"contracts/TetherToken_remix_fixed.sol\":10977:10994  _to != address(0) */\n      0xffffffffffffffffffffffffffffffffffffffff\n      and\n        /* \"contracts/TetherToken_remix_fixed.sol\":10977:10980  _to */\n      dup6\n        /* \"contracts/TetherToken_remix_fixed.sol\":10977:10994  _to != address(0) */\n      0xffffffffffffffffffffffffffffffffffffffff\n      and\n      eq\n      iszero\n        /* \"contracts/TetherToken_remix_fixed.sol\":10969:10995  require(_to != address(0)) */\n      iszero\n      iszero\n      tag_274\n      jumpi\n      0x0\n      dup1\n      revert\n    tag_274:\n        /* \"contracts/TetherToken_remix_fixed.sol\":11020:11028  balances */\n      0x0\n        /* \"contracts/TetherToken_remix_fixed.sol\":11020:11035  balances[_from] */\n      dup1\n        /* \"contracts/TetherToken_remix_fixed.sol\":11029:11034  _from */\n      dup8\n        /* \"contracts/TetherToken_remix_fixed.sol\":11020:11035  balances[_from] */\n      0xffffffffffffffffffffffffffffffffffffffff\n      and\n      0xffffffffffffffffffffffffffffffffffffffff\n      and\n      dup2\n      mstore\n      0x20\n      add\n      swap1\n      dup2\n      mstore\n      0x20\n      add\n      0x0\n      keccak256\n      sload\n        /* \"contracts/TetherToken_remix_fixed.sol\":11010:11016  _value */\n      dup5\n        /* \"contracts/TetherToken_remix_fixed.sol\":11010:11035  _value <= balances[_from] */\n      gt\n      iszero\n        /* \"contracts/TetherToken_remix_fixed.sol\":11002:11036  require(_value <= balances[_from]) */\n      iszero\n      iszero\n      tag_275\n      jumpi\n      0x0\n      dup1\n      revert\n    tag_275:\n        /* \"contracts/TetherToken_remix_fixed.sol\":11061:11068  allowed */\n      0x1\n        /* \"contracts/TetherToken_remix_fixed.sol\":11061:11075  allowed[_from] */\n      0x0\n        /* \"contracts/TetherToken_remix_fixed.sol\":11069:11074  _from */\n      dup8\n        /* \"contracts/TetherToken_remix_fixed.sol\":11061:11075  allowed[_from] */\n      0xffffffffffffffffffffffffffffffffffffffff\n      and\n      0xffffffffffffffffffffffffffffffffffffffff\n      and\n      dup2\n      mstore\n      0x20\n      add\n      swap1\n      dup2\n      mstore\n      0x20\n      add\n      0x0\n      keccak256\n        /* \"contracts/TetherToken_remix_fixed.sol\":11061:11087  allowed[_from][msg.sender] */\n      0x0\n        /* \"contracts/TetherToken_remix_fixed.sol\":11076:11086  msg.sender */\n      caller\n        /* \"contracts/TetherToken_remix_fixed.sol\":11061:11087  allowed[_from][msg.sender] */\n      0xffffffffffffffffffffffffffffffffffffffff\n      and\n      0xffffffffffffffffffffffffffffffffffffffff\n      and\n      dup2\n      mstore\n      0x20\n      add\n      swap1\n      dup2\n      mstore\n      0x20\n      add\n      0x0\n      keccak256\n      sload\n        /* \"contracts/TetherToken_remix_fixed.sol\":11051:11057  _value */\n      dup5\n        /* \"contracts/TetherToken_remix_fixed.sol\":11051:11087  _value <= allowed[_from][msg.sender] */\n      gt\n      iszero\n        /* \"contracts/TetherToken_remix_fixed.sol\":11043:11088  require(_value <= allowed[_from][msg.sender]) */\n      iszero\n      iszero\n      tag_276\n      jumpi\n      0x0\n      dup1\n      revert\n    tag_276:\n        /* \"contracts/TetherToken_remix_fixed.sol\":11108:11123  calcFee(_value) */\n      tag_277\n        /* \"contracts/TetherToken_remix_fixed.sol\":11116:11122  _value */\n      dup5\n        /* \"contracts/TetherToken_remix_fixed.sol\":11108:11115  calcFee */\n      tag_89\n        /* \"contracts/TetherToken_remix_fixed.sol\":11108:11123  calcFee(_value) */\n      jump\t// in\n    tag_277:\n        /* \"contracts/TetherToken_remix_fixed.sol\":11097:11123  uint fee = calcFee(_value) */\n      swap2\n      pop\n        /* \"contracts/TetherToken_remix_fixed.sol\":11148:11163  _value.sub(fee) */\n      tag_278\n        /* \"contracts/TetherToken_remix_fixed.sol\":11159:11162  fee */\n      dup3\n        /* \"contracts/TetherToken_remix_fixed.sol\":11148:11154  _value */\n      dup6\n        /* \"contracts/TetherToken_remix_fixed.sol\":11148:11158  _value.sub */\n      tag_250\n      swap1\n        /* \"contracts/TetherToken_remix_fixed.sol\":11148:11163  _value.sub(fee) */\n      swap2\n      swap1\n      0xffffffff\n      and\n      jump\t// in\n    tag_278:\n        /* \"contracts/TetherToken_remix_fixed.sol\":11130:11163  uint sendAmount = _value.sub(fee) */\n      swap1\n      pop\n        /* \"contracts/TetherToken_remix_fixed.sol\":11190:11217  balances[_from].sub(_value) */\n      tag_279\n        /* \"contracts/TetherToken_remix_fixed.sol\":11210:11216  _value */\n      dup5\n        /* \"contracts/TetherToken_remix_fixed.sol\":11190:11198  balances */\n      0x0\n        /* \"contracts/TetherToken_remix_fixed.sol\":11190:11205  balances[_from] */\n      dup1\n        /* \"contracts/TetherToken_remix_fixed.sol\":11199:11204  _from */\n      dup10\n        /* \"contracts/TetherToken_remix_fixed.sol\":11190:11205  balances[_from] */\n      0xffffffffffffffffffffffffffffffffffffffff\n      and\n      0xffffffffffffffffffffffffffffffffffffffff\n      and\n      dup2\n      mstore\n      0x20\n      add\n      swap1\n      dup2\n      mstore\n      0x20\n      add\n      0x0\n      keccak256\n      sload\n        /* \"contracts/TetherToken_remix_fixed.sol\":11190:11209  balances[_from].sub */\n      tag_250\n      swap1\n        /* \"contracts/TetherToken_remix_fixed.sol\":11190:11217  balances[_from].sub(_value) */\n      swap2\n      swap1\n      0xffffffff\n      and\n      jump\t// in\n    tag_279:\n        /* \"contracts/TetherToken_remix_fixed.sol\":11172:11180  balances */\n      0x0\n        /* \"contracts/TetherToken_remix_fixed.sol\":11172:11187  balances[_from] */\n      dup1\n        /* \"contracts/TetherToken_remix_fixed.sol\":11181:11186  _from */\n      dup9\n        /* \"contracts/TetherToken_remix_fixed.sol\":11172:11187  balances[_from] */\n      0xffffffffffffffffffffffffffffffffffffffff\n      and\n      0xffffffffffffffffffffffffffffffffffffffff\n      and\n      dup2\n      mstore\n      0x20\n      add\n      swap1\n      dup2\n      mstore\n      0x20\n      add\n      0x0\n      keccak256\n        /* \"contracts/TetherToken_remix_fixed.sol\":11172:11217  balances[_from] = balances[_from].sub(_value) */\n      dup2\n      swap1\n      sstore\n      pop\n        /* \"contracts/TetherToken_remix_fixed.sol\":11240:11269  balances[_to].add(sendAmount) */\n      tag_280\n        /* \"contracts/TetherToken_remix_fixed.sol\":11258:11268  sendAmount */\n      dup2\n        /* \"contracts/TetherToken_remix_fixed.sol\":11240:11248  balances */\n      0x0\n        /* \"contracts/TetherToken_remix_fixed.sol\":11240:11253  balances[_to] */\n      dup1\n        /* \"contracts/TetherToken_remix_fixed.sol\":11249:11252  _to */\n      dup9\n        /* \"contracts/TetherToken_remix_fixed.sol\":11240:11253  balances[_to] */\n      0xffffffffffffffffffffffffffffffffffffffff\n      and\n      0xffffffffffffffffffffffffffffffffffffffff\n      and\n      dup2\n      mstore\n      0x20\n      add\n      swap1\n      dup2\n      mstore\n      0x20\n      add\n      0x0\n      keccak256\n      sload\n        /* \"contracts/TetherToken_remix_fixed.sol\":11240:11257  balances[_to].add */\n      tag_235\n      swap1\n        /* \"contracts/TetherToken_remix_fixed.sol\":11240:11269  balances[_to].add(sendAmount) */\n      swap2\n      swap1\n      0xffffffff\n      and\n      jump\t// in\n    tag_280:\n        /* \"contracts/TetherToken_remix_fixed.sol\":11224:11232  balances */\n      0x0\n        /* \"contracts/TetherToken_remix_fixed.sol\":11224:11237  balances[_to] */\n      dup1\n        /* \"contracts/TetherToken_remix_fixed.sol\":11233:11236  _to */\n      dup8\n        /* \"contracts/TetherToken_remix_fixed.sol\":11224:11237  balances[_to] */\n      0xffffffffffffffffffffffffffffffffffffffff\n      and\n      0xffffffffffffffffffffffffffffffffffffffff\n      and\n      dup2\n      mstore\n      0x20\n      add\n      swap1\n      dup2\n      mstore\n      0x20\n      add\n      0x0\n      keccak256\n        /* \"contracts/TetherToken_remix_fixed.sol\":11224:11269  balances[_to] = balances[_to].add(sendAmount) */\n      dup2\n      swap1\n      sstore\n      pop\n        /* \"contracts/TetherToken_remix_fixed.sol\":10349:10359  2**256 - 1 */\n      0xffffffffffffffffffffffffffffffffffffffffffffffffffffffffffffffff\n        /* \"contracts/TetherToken_remix_fixed.sol\":11280:11287  allowed */\n      0x1\n        /* \"contracts/TetherToken_remix_fixed.sol\":11280:11294  allowed[_from] */\n      0x0\n        /* \"contracts/TetherToken_remix_fixed.sol\":11288:11293  _from */\n      dup9\n        /* \"contracts/TetherToken_remix_fixed.sol\":11280:11294  allowed[_from] */\n      0xffffffffffffffffffffffffffffffffffffffff\n      and\n      0xffffffffffffffffffffffffffffffffffffffff\n      and\n      dup2\n      mstore\n      0x20\n      add\n      swap1\n      dup2\n      mstore\n      0x20\n      add\n      0x0\n      keccak256\n        /* \"contracts/TetherToken_remix_fixed.sol\":11280:11306  allowed[_from][msg.sender] */\n      0x0\n        /* \"contracts/TetherToken_remix_fixed.sol\":11295:11305  msg.sender */\n      caller\n        /* \"contracts/TetherToken_remix_fixed.sol\":11280:11306  allowed[_from][msg.sender] */\n      0xffffffffffffffffffffffffffffffffffffffff\n      and\n      0xffffffffffffffffffffffffffffffffffffffff\n      and\n      dup2\n      mstore\n      0x20\n      add\n      swap1\n      dup2\n      mstore\n      0x20\n      add\n      0x0\n      keccak256\n      sload\n        /* \"contracts/TetherToken_remix_fixed.sol\":11280:11317  allowed[_from][msg.sender] < MAX_UINT */\n      lt\n        /* \"contracts/TetherToken_remix_fixed.sol\":11276:11405  if (allowed[_from][msg.sender] < MAX_UINT) {\r... */\n      iszero\n      tag_281\n      jumpi\n        /* \"contracts/TetherToken_remix_fixed.sol\":11359:11397  allowed[_from][msg.sender].sub(_value) */\n      tag_282\n        /* \"contracts/TetherToken_remix_fixed.sol\":11390:11396  _value */\n      dup5\n        /* \"contracts/TetherToken_remix_fixed.sol\":11359:11366  allowed */\n      0x1\n        /* \"contracts/TetherToken_remix_fixed.sol\":11359:11373  allowed[_from] */\n      0x0\n        /* \"contracts/TetherToken_remix_fixed.sol\":11367:11372  _from */\n      dup10\n        /* \"contracts/TetherToken_remix_fixed.sol\":11359:11373  allowed[_from] */\n      0xffffffffffffffffffffffffffffffffffffffff\n      and\n      0xffffffffffffffffffffffffffffffffffffffff\n      and\n      dup2\n      mstore\n      0x20\n      add\n      swap1\n      dup2\n      mstore\n      0x20\n      add\n      0x0\n      keccak256\n        /* \"contracts/TetherToken_remix_fixed.sol\":11359:11385  allowed[_from][msg.sender] */\n      0x0\n        /* \"contracts/TetherToken_remix_fixed.sol\":11374:11384  msg.sender */\n      caller\n        /* \"contracts/TetherToken_remix_fixed.sol\":11359:11385  allowed[_from][msg.sender] */\n      0xffffffffffffffffffffffffffffffffffffffff\n      and\n      0xffffffffffffffffffffffffffffffffffffffff\n      and\n      dup2\n      mstore\n      0x20\n      add\n      swap1\n      dup2\n      mstore\n      0x20\n      add\n      0x0\n      keccak256\n      sload\n        /* \"contracts/TetherToken_remix_fixed.sol\":11359:11389  allowed[_from][msg.sender].sub */\n      tag_250\n      swap1\n        /* \"contracts/TetherToken_remix_fixed.sol\":11359:11397  allowed[_from][msg.sender].sub(_value) */\n      swap2\n      swap1\n      0xffffffff\n      and\n      jump\t// in\n    tag_282:\n        /* \"contracts/TetherToken_remix_fixed.sol\":11330:11337  allowed */\n      0x1\n        /* \"contracts/TetherToken_remix_fixed.sol\":11330:11344  allowed[_from] */\n      0x0\n        /* \"contracts/TetherToken_remix_fixed.sol\":11338:11343  _from */\n      dup9\n        /* \"contracts/TetherToken_remix_fixed.sol\":11330:11344  allowed[_from] */\n      0xffffffffffffffffffffffffffffffffffffffff\n      and\n      0xffffffffffffffffffffffffffffffffffffffff\n      and\n      dup2\n      mstore\n      0x20\n      add\n      swap1\n      dup2\n      mstore\n      0x20\n      add\n      0x0\n      keccak256\n        /* \"contracts/TetherToken_remix_fixed.sol\":11330:11356  allowed[_from][msg.sender] */\n      0x0\n        /* \"contracts/TetherToken_remix_fixed.sol\":11345:11355  msg.sender */\n      caller\n        /* \"contracts/TetherToken_remix_fixed.sol\":11330:11356  allowed[_from][msg.sender] */\n      0xffffffffffffffffffffffffffffffffffffffff\n      and\n      0xffffffffffffffffffffffffffffffffffffffff\n      and\n      dup2\n      mstore\n      0x20\n      add\n      swap1\n      dup2\n      mstore\n      0x20\n      add\n      0x0\n      keccak256\n        /* \"contracts/TetherToken_remix_fixed.sol\":11330:11397  allowed[_from][msg.sender] = allowed[_from][msg.sender].sub(_value) */\n      dup2\n      swap1\n      sstore\n      pop\n        /* \"contracts/TetherToken_remix_fixed.sol\":11276:11405  if (allowed[_from][msg.sender] < MAX_UINT) {\r... */\n    tag_281:\n        /* \"contracts/TetherToken_remix_fixed.sol\":11427:11430  _to */\n      dup5\n        /* \"contracts/TetherToken_remix_fixed.sol\":11411:11443  Transfer(_from, _to, sendAmount) */\n      0xffffffffffffffffffffffffffffffffffffffff\n      and\n        /* \"contracts/TetherToken_remix_fixed.sol\":11420:11425  _from */\n      dup7\n        /* \"contracts/TetherToken_remix_fixed.sol\":11411:11443  Transfer(_from, _to, sendAmount) */\n      0xffffffffffffffffffffffffffffffffffffffff\n      and\n      0xddf252ad1be2c89b69c2b068fc378daa952ba7f163c4a11628f55a4df523b3ef\n        /* \"contracts/TetherToken_remix_fixed.sol\":11432:11442  sendAmount */\n      dup4\n        /* \"contracts/TetherToken_remix_fixed.sol\":11411:11443  Transfer(_from, _to, sendAmount) */\n      mload(0x40)\n      dup1\n      dup3\n      dup2\n      mstore\n      0x20\n      add\n      swap2\n      pop\n      pop\n      mload(0x40)\n      dup1\n      swap2\n      sub\n      swap1\n      log3\n        /* \"contracts/TetherToken_remix_fixed.sol\":11460:11461  0 */\n      0x0\n        /* \"contracts/TetherToken_remix_fixed.sol\":11454:11457  fee */\n      dup3\n        /* \"contracts/TetherToken_remix_fixed.sol\":11454:11461  fee > 0 */\n      gt\n        /* \"contracts/TetherToken_remix_fixed.sol\":11450:11558  if (fee > 0) {\r... */\n      iszero\n      tag_283\n      jumpi\n        /* \"contracts/TetherToken_remix_fixed.sol\":11490:11514  balances[owner].add(fee) */\n      tag_284\n        /* \"contracts/TetherToken_remix_fixed.sol\":11510:11513  fee */\n      dup3\n        /* \"contracts/TetherToken_remix_fixed.sol\":11490:11498  balances */\n      0x0\n        /* \"contracts/TetherToken_remix_fixed.sol\":11490:11505  balances[owner] */\n      dup1\n        /* \"contracts/TetherToken_remix_fixed.sol\":11499:11504  owner */\n      0x2\n      0x0\n      swap1\n      sload\n      swap1\n      0x100\n      exp\n      swap1\n      div\n      0xffffffffffffffffffffffffffffffffffffffff\n      and\n        /* \"contracts/TetherToken_remix_fixed.sol\":11490:11505  balances[owner] */\n      0xffffffffffffffffffffffffffffffffffffffff\n      and\n      0xffffffffffffffffffffffffffffffffffffffff\n      and\n      dup2\n      mstore\n      0x20\n      add\n      swap1\n      dup2\n      mstore\n      0x20\n      add\n      0x0\n      keccak256\n      sload\n        /* \"contracts/TetherToken_remix_fixed.sol\":11490:11509  balances[owner].add */\n      tag_235\n      swap1\n        /* \"contracts/TetherToken_remix_fixed.sol\":11490:11514  balances[owner].add(fee) */\n      swap2\n      swap1\n      0xffffffff\n      and\n      jump\t// in\n    tag_284:\n        /* \"contracts/TetherToken_remix_fixed.sol\":11472:11480  balances */\n      0x0\n        /* \"contracts/TetherToken_remix_fixed.sol\":11472:11487  balances[owner] */\n      dup1\n        /* \"contracts/TetherToken_remix_fixed.sol\":11481:11486  owner */\n      0x2\n      0x0\n      swap1\n      sload\n      swap1\n      0x100\n      exp\n      swap1\n      div\n      0xffffffffffffffffffffffffffffffffffffffff\n      and\n        /* \"contracts/TetherToken_remix_fixed.sol\":11472:11487  balances[owner] */\n      0xffffffffffffffffffffffffffffffffffffffff\n      and\n      0xffffffffffffffffffffffffffffffffffffffff\n      and\n      dup2\n      mstore\n      0x20\n      add\n      swap1\n      dup2\n      mstore\n      0x20\n      add\n      0x0\n      keccak256\n        /* \"contracts/TetherToken_remix_fixed.sol\":11472:11514  balances[owner] = balances[owner].add(fee) */\n      dup2\n      swap1\n      sstore\n      pop\n        /* \"contracts/TetherToken_remix_fixed.sol\":11539:11544  owner */\n      0x2\n      0x0\n      swap1\n      sload\n      swap1\n      0x100\n      exp\n      swap1\n      div\n      0xffffffffffffffffffffffffffffffffffffffff\n      and\n        /* \"contracts/TetherToken_remix_fixed.sol\":11523:11550  Transfer(_from, owner, fee) */\n      0xffffffffffffffffffffffffffffffffffffffff\n      and\n        /* \"contracts/TetherToken_remix_fixed.sol\":11532:11537  _from */\n      dup7\n        /* \"contracts/TetherToken_remix_fixed.sol\":11523:11550  Transfer(_from, owner, fee) */\n      0xffffffffffffffffffffffffffffffffffffffff\n      and\n      0xddf252ad1be2c89b69c2b068fc378daa952ba7f163c4a11628f55a4df523b3ef\n        /* \"contracts/TetherToken_remix_fixed.sol\":11546:11549  fee */\n      dup5\n        /* \"contracts/TetherToken_remix_fixed.sol\":11523:11550  Transfer(_from, owner, fee) */\n      mload(0x40)\n      dup1\n      dup3\n      dup2\n      mstore\n      0x20\n      add\n      swap2\n      pop\n      pop\n      mload(0x40)\n      dup1\n      swap2\n      sub\n      swap1\n      log3\n        /* \"contracts/TetherToken_remix_fixed.sol\":11450:11558  if (fee > 0) {\r... */\n    tag_283:\n        /* \"contracts/TetherToken_remix_fixed.sol\":11571:11575  true */\n      0x1\n        /* \"contracts/TetherToken_remix_fixed.sol\":11564:11575  return true */\n      swap3\n      pop\n        /* \"contracts/TetherToken_remix_fixed.sol\":10874:11581  function transferFrom(address _from, address _to, uint256 _value) public returns (bool) {\r... */\n      pop\n      pop\n      swap4\n      swap3\n      pop\n      pop\n      pop\n      jump\t// out\n        /* \"contracts/TetherToken_remix_fixed.sol\":6425:6832  function decreaseApproval(address _spender, uint _subtractedValue) public returns (bool) {\r... */\n    tag_190:\n        /* \"contracts/TetherToken_remix_fixed.sol\":6508:6512  bool */\n      0x0\n        /* \"contracts/TetherToken_remix_fixed.sol\":6521:6534  uint oldValue */\n      dup1\n        /* \"contracts/TetherToken_remix_fixed.sol\":6537:6544  allowed */\n      0x1\n        /* \"contracts/TetherToken_remix_fixed.sol\":6537:6556  allowed[msg.sender] */\n      0x0\n        /* \"contracts/TetherToken_remix_fixed.sol\":6545:6555  msg.sender */\n      caller\n        /* \"contracts/TetherToken_remix_fixed.sol\":6537:6556  allowed[msg.sender] */\n      0xffffffffffffffffffffffffffffffffffffffff\n      and\n      0xffffffffffffffffffffffffffffffffffffffff\n      and\n      dup2\n      mstore\n      0x20\n      add\n      swap1\n      dup2\n      mstore\n      0x20\n      add\n      0x0\n      keccak256\n        /* \"contracts/TetherToken_remix_fixed.sol\":6537:6566  allowed[msg.sender][_spender] */\n      0x0\n        /* \"contracts/TetherToken_remix_fixed.sol\":6557:6565  _spender */\n      dup6\n        /* \"contracts/TetherToken_remix_fixed.sol\":6537:6566  allowed[msg.sender][_spender] */\n      0xffffffffffffffffffffffffffffffffffffffff\n      and\n      0xffffffffffffffffffffffffffffffffffffffff\n      and\n      dup2\n      mstore\n      0x20\n      add\n      swap1\n      dup2\n      mstore\n      0x20\n      add\n      0x0\n      keccak256\n      sload\n        /* \"contracts/TetherToken_remix_fixed.sol\":6521:6566  uint oldValue = allowed[msg.sender][_spender] */\n      swap1\n      pop\n        /* \"contracts/TetherToken_remix_fixed.sol\":6596:6604  oldValue */\n      dup1\n        /* \"contracts/TetherToken_remix_fixed.sol\":6577:6593  _subtractedValue */\n      dup4\n        /* \"contracts/TetherToken_remix_fixed.sol\":6577:6604  _subtractedValue > oldValue */\n      gt\n        /* \"contracts/TetherToken_remix_fixed.sol\":6573:6741  if (_subtractedValue > oldValue) {\r... */\n      iszero\n      tag_286\n      jumpi\n        /* \"contracts/TetherToken_remix_fixed.sol\":6647:6648  0 */\n      0x0\n        /* \"contracts/TetherToken_remix_fixed.sol\":6615:6622  allowed */\n      0x1\n        /* \"contracts/TetherToken_remix_fixed.sol\":6615:6634  allowed[msg.sender] */\n      0x0\n        /* \"contracts/TetherToken_remix_fixed.sol\":6623:6633  msg.sender */\n      caller\n        /* \"contracts/TetherToken_remix_fixed.sol\":6615:6634  allowed[msg.sender] */\n      0xffffffffffffffffffffffffffffffffffffffff\n      and\n      0xffffffffffffffffffffffffffffffffffffffff\n      and\n      dup2\n      mstore\n      0x20\n      add\n      swap1\n      dup2\n      mstore\n      0x20\n      add\n      0x0\n      keccak256\n        /* \"contracts/TetherToken_remix_fixed.sol\":6615:6644  allowed[msg.sender][_spender] */\n      0x0\n        /* \"contracts/TetherToken_remix_fixed.sol\":6635:6643  _spender */\n      dup7\n        /* \"contracts/TetherToken_remix_fixed.sol\":6615:6644  allowed[msg.sender][_spender] */\n      0xffffffffffffffffffffffffffffffffffffffff\n      and\n      0xffffffffffffffffffffffffffffffffffffffff\n      and\n      dup2\n      mstore\n      0x20\n      add\n      swap1\n      dup2\n      mstore\n      0x20\n      add\n      0x0\n      keccak256\n        /* \"contracts/TetherToken_remix_fixed.sol\":6615:6648  allowed[msg.sender][_spender] = 0 */\n      dup2\n      swap1\n      sstore\n      pop\n        /* \"contracts/TetherToken_remix_fixed.sol\":6573:6741  if (_subtractedValue > oldValue) {\r... */\n      jump(tag_287)\n    tag_286:\n        /* \"contracts/TetherToken_remix_fixed.sol\":6703:6733  oldValue.sub(_subtractedValue) */\n      tag_288\n        /* \"contracts/TetherToken_remix_fixed.sol\":6716:6732  _subtractedValue */\n      dup4\n        /* \"contracts/TetherToken_remix_fixed.sol\":6703:6711  oldValue */\n      dup3\n        /* \"contracts/TetherToken_remix_fixed.sol\":6703:6715  oldValue.sub */\n      tag_250\n      swap1\n        /* \"contracts/TetherToken_remix_fixed.sol\":6703:6733  oldValue.sub(_subtractedValue) */\n      swap2\n      swap1\n      0xffffffff\n      and\n      jump\t// in\n    tag_288:\n        /* \"contracts/TetherToken_remix_fixed.sol\":6671:6678  allowed */\n      0x1\n        /* \"contracts/TetherToken_remix_fixed.sol\":6671:6690  allowed[msg.sender] */\n      0x0\n        /* \"contracts/TetherToken_remix_fixed.sol\":6679:6689  msg.sender */\n      caller\n        /* \"contracts/TetherToken_remix_fixed.sol\":6671:6690  allowed[msg.sender] */\n      0xffffffffffffffffffffffffffffffffffffffff\n      and\n      0xffffffffffffffffffffffffffffffffffffffff\n      and\n      dup2\n      mstore\n      0x20\n      add\n      swap1\n      dup2\n      mstore\n      0x20\n      add\n      0x0\n      keccak256\n        /* \"contracts/TetherToken_remix_fixed.sol\":6671:6700  allowed[msg.sender][_spender] */\n      0x0\n        /* \"contracts/TetherToken_remix_fixed.sol\":6691:6699  _spender */\n      dup7\n        /* \"contracts/TetherToken_remix_fixed.sol\":6671:6700  allowed[msg.sender][_spender] */\n      0xffffffffffffffffffffffffffffffffffffffff\n      and\n      0xffffffffffffffffffffffffffffffffffffffff\n      and\n      dup2\n      mstore\n      0x20\n      add\n      swap1\n      dup2\n      mstore\n      0x20\n      add\n      0x0\n      keccak256\n        /* \"contracts/TetherToken_remix_fixed.sol\":6671:6733  allowed[msg.sender][_spender] = oldValue.sub(_subtractedValue) */\n      dup2\n      swap1\n      sstore\n      pop\n        /* \"contracts/TetherToken_remix_fixed.sol\":6573:6741  if (_subtractedValue > oldValue) {\r... */\n    tag_287:\n        /* \"contracts/TetherToken_remix_fixed.sol\":6768:6776  _spender */\n      dup4\n        /* \"contracts/TetherToken_remix_fixed.sol\":6747:6808  Approval(msg.sender, _spender, allowed[msg.sender][_spender]) */\n      0xffffffffffffffffffffffffffffffffffffffff\n      and\n        /* \"contracts/TetherToken_remix_fixed.sol\":6756:6766  msg.sender */\n      caller\n        /* \"contracts/TetherToken_remix_fixed.sol\":6747:6808  Approval(msg.sender, _spender, allowed[msg.sender][_spender]) */\n      0xffffffffffffffffffffffffffffffffffffffff\n      and\n      0x8c5be1e5ebec7d5bd14f71427d1e84f3dd0314c0f7b2291e5b200ac8c7c3b925\n        /* \"contracts/TetherToken_remix_fixed.sol\":6778:6785  allowed */\n      0x1\n        /* \"contracts/TetherToken_remix_fixed.sol\":6778:6797  allowed[msg.sender] */\n      0x0\n        /* \"contracts/TetherToken_remix_fixed.sol\":6786:6796  msg.sender */\n      caller\n        /* \"contracts/TetherToken_remix_fixed.sol\":6778:6797  allowed[msg.sender] */\n      0xffffffffffffffffffffffffffffffffffffffff\n      and\n      0xffffffffffffffffffffffffffffffffffffffff\n      and\n      dup2\n      mstore\n      0x20\n      add\n      swap1\n      dup2\n      mstore\n      0x20\n      add\n      0x0\n      keccak256\n        /* \"contracts/TetherToken_remix_fixed.sol\":6778:6807  allowed[msg.sender][_spender] */\n      0x0\n        /* \"contracts/TetherToken_remix_fixed.sol\":6798:6806  _spender */\n      dup9\n        /* \"contracts/TetherToken_remix_fixed.sol\":6778:6807  allowed[msg.sender][_spender] */\n      0xffffffffffffffffffffffffffffffffffffffff\n      and\n      0xffffffffffffffffffffffffffffffffffffffff\n      and\n      dup2\n      mstore\n      0x20\n      add\n      swap1\n      dup2\n      mstore\n      0x20\n      add\n      0x0\n      keccak256\n      sload\n        /* \"contracts/TetherToken_remix_fixed.sol\":6747:6808  Approval(msg.sender, _spender, allowed[msg.sender][_spender]) */\n      mload(0x40)\n      dup1\n      dup3\n      dup2\n      mstore\n      0x20\n      add\n      swap2\n      pop\n      pop\n      mload(0x40)\n      dup1\n      swap2\n      sub\n      swap1\n      log3\n        /* \"contracts/TetherToken_remix_fixed.sol\":6822:6826  true */\n      0x1\n        /* \"contracts/TetherToken_remix_fixed.sol\":6815:6826  return true */\n      swap2\n      pop\n        /* \"contracts/TetherToken_remix_fixed.sol\":6425:6832  function decreaseApproval(address _spender, uint _subtractedValue) public returns (bool) {\r... */\n      pop\n      swap3\n      swap2\n      pop\n      pop\n      jump\t// out\n        /* \"contracts/TetherToken_remix_fixed.sol\":2669:2778  function balanceOf(address _owner) public view returns (uint256 balance) {\r... */\n    tag_197:\n        /* \"contracts/TetherToken_remix_fixed.sol\":2725:2740  uint256 balance */\n      0x0\n        /* \"contracts/TetherToken_remix_fixed.sol\":2756:2764  balances */\n      dup1\n        /* \"contracts/TetherToken_remix_fixed.sol\":2756:2772  balances[_owner] */\n      0x0\n        /* \"contracts/TetherToken_remix_fixed.sol\":2765:2771  _owner */\n      dup4\n        /* \"contracts/TetherToken_remix_fixed.sol\":2756:2772  balances[_owner] */\n      0xffffffffffffffffffffffffffffffffffffffff\n      and\n      0xffffffffffffffffffffffffffffffffffffffff\n      and\n      dup2\n      mstore\n      0x20\n      add\n      swap1\n      dup2\n      mstore\n      0x20\n      add\n      0x0\n      keccak256\n      sload\n        /* \"contracts/TetherToken_remix_fixed.sol\":2749:2772  return balances[_owner] */\n      swap1\n      pop\n        /* \"contracts/TetherToken_remix_fixed.sol\":2669:2778  function balanceOf(address _owner) public view returns (uint256 balance) {\r... */\n      swap2\n      swap1\n      pop\n      jump\t// out\n        /* \"contracts/TetherToken_remix_fixed.sol\":298:478  function mul(uint256 a, uint256 b) internal pure returns (uint256) {\r... */\n    tag_201:\n        /* \"contracts/TetherToken_remix_fixed.sol\":356:363  uint256 */\n      0x0\n        /* \"contracts/TetherToken_remix_fixed.sol\":415:424  uint256 c */\n      dup1\n        /* \"contracts/TetherToken_remix_fixed.sol\":381:382  0 */\n      0x0\n        /* \"contracts/TetherToken_remix_fixed.sol\":376:377  a */\n      dup5\n        /* \"contracts/TetherToken_remix_fixed.sol\":376:382  a == 0 */\n      eq\n        /* \"contracts/TetherToken_remix_fixed.sol\":372:409  if (a == 0) {\r... */\n      iszero\n      tag_291\n      jumpi\n        /* \"contracts/TetherToken_remix_fixed.sol\":400:401  0 */\n      0x0\n        /* \"contracts/TetherToken_remix_fixed.sol\":393:401  return 0 */\n      swap2\n      pop\n      jump(tag_290)\n        /* \"contracts/TetherToken_remix_fixed.sol\":372:409  if (a == 0) {\r... */\n    tag_291:\n        /* \"contracts/TetherToken_remix_fixed.sol\":431:432  b */\n      dup3\n        /* \"contracts/TetherToken_remix_fixed.sol\":427:428  a */\n      dup5\n        /* \"contracts/TetherToken_remix_fixed.sol\":427:432  a * b */\n      mul\n        /* \"contracts/TetherToken_remix_fixed.sol\":415:432  uint256 c = a * b */\n      swap1\n      pop\n        /* \"contracts/TetherToken_remix_fixed.sol\":455:456  b */\n      dup3\n        /* \"contracts/TetherToken_remix_fixed.sol\":450:451  a */\n      dup5\n        /* \"contracts/TetherToken_remix_fixed.sol\":446:447  c */\n      dup3\n        /* \"contracts/TetherToken_remix_fixed.sol\":446:451  c / a */\n      dup2\n      iszero\n      iszero\n      tag_292\n      jumpi\n      invalid\n    tag_292:\n      div\n        /* \"contracts/TetherToken_remix_fixed.sol\":446:456  c / a == b */\n      eq\n        /* \"contracts/TetherToken_remix_fixed.sol\":439:457  assert(c / a == b) */\n      iszero\n      iszero\n      tag_293\n      jumpi\n      invalid\n    tag_293:\n        /* \"contracts/TetherToken_remix_fixed.sol\":471:472  c */\n      dup1\n        /* \"contracts/TetherToken_remix_fixed.sol\":464:472  return c */\n      swap2\n      pop\n        /* \"contracts/TetherToken_remix_fixed.sol\":298:478  function mul(uint256 a, uint256 b) internal pure returns (uint256) {\r... */\n    tag_290:\n      pop\n      swap3\n      swap2\n      pop\n      pop\n      jump\t// out\n        /* \"contracts/TetherToken_remix_fixed.sol\":484:754  function div(uint256 a, uint256 b) internal pure returns (uint256) {\r... */\n    tag_202:\n        /* \"contracts/TetherToken_remix_fixed.sol\":542:549  uint256 */\n      0x0\n        /* \"contracts/TetherToken_remix_fixed.sol\":633:642  uint256 c */\n      dup1\n        /* \"contracts/TetherToken_remix_fixed.sol\":649:650  b */\n      dup3\n        /* \"contracts/TetherToken_remix_fixed.sol\":645:646  a */\n      dup5\n        /* \"contracts/TetherToken_remix_fixed.sol\":645:650  a / b */\n      dup2\n      iszero\n      iszero\n      tag_295\n      jumpi\n      invalid\n    tag_295:\n      div\n        /* \"contracts/TetherToken_remix_fixed.sol\":633:650  uint256 c = a / b */\n      swap1\n      pop\n        /* \"contracts/TetherToken_remix_fixed.sol\":747:748  c */\n      dup1\n        /* \"contracts/TetherToken_remix_fixed.sol\":740:748  return c */\n      swap2\n      pop\n        /* \"contracts/TetherToken_remix_fixed.sol\":484:754  function div(uint256 a, uint256 b) internal pure returns (uint256) {\r... */\n      pop\n      swap3\n      swap2\n      pop\n      pop\n      jump\t// out\n        /* \"contracts/TetherToken_remix_fixed.sol\":10577:10868  function transfer(address _to, uint _value) public returns (bool) {\r... */\n    tag_221:\n        /* \"contracts/TetherToken_remix_fixed.sol\":10637:10641  bool */\n      0x0\n        /* \"contracts/TetherToken_remix_fixed.sol\":10650:10658  uint fee */\n      dup1\n        /* \"contracts/TetherToken_remix_fixed.sol\":10683:10698  uint sendAmount */\n      0x0\n        /* \"contracts/TetherToken_remix_fixed.sol\":10725:10736  bool result */\n      dup1\n        /* \"contracts/TetherToken_remix_fixed.sol\":10661:10676  calcFee(_value) */\n      tag_297\n        /* \"contracts/TetherToken_remix_fixed.sol\":10669:10675  _value */\n      dup6\n        /* \"contracts/TetherToken_remix_fixed.sol\":10661:10668  calcFee */\n      tag_89\n        /* \"contracts/TetherToken_remix_fixed.sol\":10661:10676  calcFee(_value) */\n      jump\t// in\n    tag_297:\n        /* \"contracts/TetherToken_remix_fixed.sol\":10650:10676  uint fee = calcFee(_value) */\n      swap3\n      pop\n        /* \"contracts/TetherToken_remix_fixed.sol\":10701:10716  _value.sub(fee) */\n      tag_298\n        /* \"contracts/TetherToken_remix_fixed.sol\":10712:10715  fee */\n      dup4\n        /* \"contracts/TetherToken_remix_fixed.sol\":10701:10707  _value */\n      dup7\n        /* \"contracts/TetherToken_remix_fixed.sol\":10701:10711  _value.sub */\n      tag_250\n      swap1\n        /* \"contracts/TetherToken_remix_fixed.sol\":10701:10716  _value.sub(fee) */\n      swap2\n      swap1\n      0xffffffff\n      and\n      jump\t// in\n    tag_298:\n        /* \"contracts/TetherToken_remix_fixed.sol\":10683:10716  uint sendAmount = _value.sub(fee) */\n      swap2\n      pop\n        /* \"contracts/TetherToken_remix_fixed.sol\":10739:10770  super.transfer(_to, sendAmount) */\n      tag_299\n        /* \"contracts/TetherToken_remix_fixed.sol\":10754:10757  _to */\n      dup7\n        /* \"contracts/TetherToken_remix_fixed.sol\":10759:10769  sendAmount */\n      dup4\n        /* \"contracts/TetherToken_remix_fixed.sol\":10739:10753  super.transfer */\n      tag_300\n        /* \"contracts/TetherToken_remix_fixed.sol\":10739:10770  super.transfer(_to, sendAmount) */\n      jump\t// in\n    tag_299:\n        /* \"contracts/TetherToken_remix_fixed.sol\":10725:10770  bool result = super.transfer(_to, sendAmount) */\n      swap1\n      pop\n        /* \"contracts/TetherToken_remix_fixed.sol\":10787:10788  0 */\n      0x0\n        /* \"contracts/TetherToken_remix_fixed.sol\":10781:10784  fee */\n      dup4\n        /* \"contracts/TetherToken_remix_fixed.sol\":10781:10788  fee > 0 */\n      gt\n        /* \"contracts/TetherToken_remix_fixed.sol\":10781:10798  fee > 0 && result */\n      dup1\n      iszero\n      tag_301\n      jumpi\n      pop\n        /* \"contracts/TetherToken_remix_fixed.sol\":10792:10798  result */\n      dup1\n        /* \"contracts/TetherToken_remix_fixed.sol\":10781:10798  fee > 0 && result */\n    tag_301:\n        /* \"contracts/TetherToken_remix_fixed.sol\":10777:10843  if (fee > 0 && result) {\r... */\n      iszero\n      tag_302\n      jumpi\n        /* \"contracts/TetherToken_remix_fixed.sol\":10809:10835  super.transfer(owner, fee) */\n      tag_303\n        /* \"contracts/TetherToken_remix_fixed.sol\":10824:10829  owner */\n      0x2\n      0x0\n      swap1\n      sload\n      swap1\n      0x100\n      exp\n      swap1\n      div\n      0xffffffffffffffffffffffffffffffffffffffff\n      and\n        /* \"contracts/TetherToken_remix_fixed.sol\":10831:10834  fee */\n      dup5\n        /* \"contracts/TetherToken_remix_fixed.sol\":10809:10823  super.transfer */\n      tag_300\n        /* \"contracts/TetherToken_remix_fixed.sol\":10809:10835  super.transfer(owner, fee) */\n      jump\t// in\n    tag_303:\n      pop\n        /* \"contracts/TetherToken_remix_fixed.sol\":10777:10843  if (fee > 0 && result) {\r... */\n    tag_302:\n        /* \"contracts/TetherToken_remix_fixed.sol\":10856:10862  result */\n      dup1\n        /* \"contracts/TetherToken_remix_fixed.sol\":10849:10862  return result */\n      swap4\n      pop\n        /* \"contracts/TetherToken_remix_fixed.sol\":10577:10868  function transfer(address _to, uint _value) public returns (bool) {\r... */\n      pop\n      pop\n      pop\n      swap3\n      swap2\n      pop\n      pop\n      jump\t// out\n        /* \"contracts/TetherToken_remix_fixed.sol\":879:1012  function add(uint256 a, uint256 b) internal pure returns (uint256) {\r... */\n    tag_235:\n        /* \"contracts/TetherToken_remix_fixed.sol\":937:944  uint256 */\n      0x0\n        /* \"contracts/TetherToken_remix_fixed.sol\":953:962  uint256 c */\n      dup1\n        /* \"contracts/TetherToken_remix_fixed.sol\":969:970  b */\n      dup3\n        /* \"contracts/TetherToken_remix_fixed.sol\":965:966  a */\n      dup5\n        /* \"contracts/TetherToken_remix_fixed.sol\":965:970  a + b */\n      add\n        /* \"contracts/TetherToken_remix_fixed.sol\":953:970  uint256 c = a + b */\n      swap1\n      pop\n        /* \"contracts/TetherToken_remix_fixed.sol\":989:990  a */\n      dup4\n        /* \"contracts/TetherToken_remix_fixed.sol\":984:985  c */\n      dup2\n        /* \"contracts/TetherToken_remix_fixed.sol\":984:990  c >= a */\n      lt\n      iszero\n        /* \"contracts/TetherToken_remix_fixed.sol\":977:991  assert(c >= a) */\n      iszero\n      iszero\n      tag_305\n      jumpi\n      invalid\n    tag_305:\n        /* \"contracts/TetherToken_remix_fixed.sol\":1005:1006  c */\n      dup1\n        /* \"contracts/TetherToken_remix_fixed.sol\":998:1006  return c */\n      swap2\n      pop\n        /* \"contracts/TetherToken_remix_fixed.sol\":879:1012  function add(uint256 a, uint256 b) internal pure returns (uint256) {\r... */\n      pop\n      swap3\n      swap2\n      pop\n      pop\n      jump\t// out\n        /* \"contracts/TetherToken_remix_fixed.sol\":6158:6419  function increaseApproval(address _spender, uint _addedValue) public returns (bool) {\r... */\n    tag_245:\n        /* \"contracts/TetherToken_remix_fixed.sol\":6236:6240  bool */\n      0x0\n        /* \"contracts/TetherToken_remix_fixed.sol\":6281:6327  allowed[msg.sender][_spender].add(_addedValue) */\n      tag_307\n        /* \"contracts/TetherToken_remix_fixed.sol\":6315:6326  _addedValue */\n      dup3\n        /* \"contracts/TetherToken_remix_fixed.sol\":6281:6288  allowed */\n      0x1\n        /* \"contracts/TetherToken_remix_fixed.sol\":6281:6300  allowed[msg.sender] */\n      0x0\n        /* \"contracts/TetherToken_remix_fixed.sol\":6289:6299  msg.sender */\n      caller\n        /* \"contracts/TetherToken_remix_fixed.sol\":6281:6300  allowed[msg.sender] */\n      0xffffffffffffffffffffffffffffffffffffffff\n      and\n      0xffffffffffffffffffffffffffffffffffffffff\n      and\n      dup2\n      mstore\n      0x20\n      add\n      swap1\n      dup2\n      mstore\n      0x20\n      add\n      0x0\n      keccak256\n        /* \"contracts/TetherToken_remix_fixed.sol\":6281:6310  allowed[msg.sender][_spender] */\n      0x0\n        /* \"contracts/TetherToken_remix_fixed.sol\":6301:6309  _spender */\n      dup7\n        /* \"contracts/TetherToken_remix_fixed.sol\":6281:6310  allowed[msg.sender][_spender] */\n      0xffffffffffffffffffffffffffffffffffffffff\n      and\n      0xffffffffffffffffffffffffffffffffffffffff\n      and\n      dup2\n      mstore\n      0x20\n      add\n      swap1\n      dup2\n      mstore\n      0x20\n      add\n      0x0\n      keccak256\n      sload\n        /* \"contracts/TetherToken_remix_fixed.sol\":6281:6314  allowed[msg.sender][_spender].add */\n      tag_235\n      swap1\n        /* \"contracts/TetherToken_remix_fixed.sol\":6281:6327  allowed[msg.sender][_spender].add(_addedValue) */\n      swap2\n      swap1\n      0xffffffff\n      and\n      jump\t// in\n    tag_307:\n        /* \"contracts/TetherToken_remix_fixed.sol\":6249:6256  allowed */\n      0x1\n        /* \"contracts/TetherToken_remix_fixed.sol\":6249:6268  allowed[msg.sender] */\n      0x0\n        /* \"contracts/TetherToken_remix_fixed.sol\":6257:6267  msg.sender */\n      caller\n        /* \"contracts/TetherToken_remix_fixed.sol\":6249:6268  allowed[msg.sender] */\n      0xffffffffffffffffffffffffffffffffffffffff\n      and\n      0xffffffffffffffffffffffffffffffffffffffff\n      and\n      dup2\n      mstore\n      0x20\n      add\n      swap1\n      dup2\n      mstore\n      0x20\n      add\n      0x0\n      keccak256\n        /* \"contracts/TetherToken_remix_fixed.sol\":6249:6278  allowed[msg.sender][_spender] */\n      0x0\n        /* \"contracts/TetherToken_remix_fixed.sol\":6269:6277  _spender */\n      dup6\n        /* \"contracts/TetherToken_remix_fixed.sol\":6249:6278  allowed[msg.sender][_spender] */\n      0xffffffffffffffffffffffffffffffffffffffff\n      and\n      0xffffffffffffffffffffffffffffffffffffffff\n      and\n      dup2\n      mstore\n      0x20\n      add\n      swap1\n      dup2\n      mstore\n      0x20\n      add\n      0x0\n      keccak256\n        /* \"contracts/TetherToken_remix_fixed.sol\":6249:6327  allowed[msg.sender][_spender] = allowed[msg.sender][_spender].add(_addedValue) */\n      dup2\n      swap1\n      sstore\n      pop\n        /* \"contracts/TetherToken_remix_fixed.sol\":6355:6363  _spender */\n      dup3\n        /* \"contracts/TetherToken_remix_fixed.sol\":6334:6395  Approval(msg.sender, _spender, allowed[msg.sender][_spender]) */\n      0xffffffffffffffffffffffffffffffffffffffff\n      and\n        /* \"contracts/TetherToken_remix_fixed.sol\":6343:6353  msg.sender */\n      caller\n        /* \"contracts/TetherToken_remix_fixed.sol\":6334:6395  Approval(msg.sender, _spender, allowed[msg.sender][_spender]) */\n      0xffffffffffffffffffffffffffffffffffffffff\n      and\n      0x8c5be1e5ebec7d5bd14f71427d1e84f3dd0314c0f7b2291e5b200ac8c7c3b925\n        /* \"contracts/TetherToken_remix_fixed.sol\":6365:6372  allowed */\n      0x1\n        /* \"contracts/TetherToken_remix_fixed.sol\":6365:6384  allowed[msg.sender] */\n      0x0\n        /* \"contracts/TetherToken_remix_fixed.sol\":6373:6383  msg.sender */\n      caller\n        /* \"contracts/TetherToken_remix_fixed.sol\":6365:6384  allowed[msg.sender] */\n      0xffffffffffffffffffffffffffffffffffffffff\n      and\n      0xffffffffffffffffffffffffffffffffffffffff\n      and\n      dup2\n      mstore\n      0x20\n      add\n      swap1\n      dup2\n      mstore\n      0x20\n      add\n      0x0\n      keccak256\n        /* \"contracts/TetherToken_remix_fixed.sol\":6365:6394  allowed[msg.sender][_spender] */\n      0x0\n        /* \"contracts/TetherToken_remix_fixed.sol\":6385:6393  _spender */\n      dup8\n        /* \"contracts/TetherToken_remix_fixed.sol\":6365:6394  allowed[msg.sender][_spender] */\n      0xffffffffffffffffffffffffffffffffffffffff\n      and\n      0xffffffffffffffffffffffffffffffffffffffff\n      and\n      dup2\n      mstore\n      0x20\n      add\n      swap1\n      dup2\n      mstore\n      0x20\n      add\n      0x0\n      keccak256\n      sload\n        /* \"contracts/TetherToken_remix_fixed.sol\":6334:6395  Approval(msg.sender, _spender, allowed[msg.sender][_spender]) */\n      mload(0x40)\n      dup1\n      dup3\n      dup2\n      mstore\n      0x20\n      add\n      swap2\n      pop\n      pop\n      mload(0x40)\n      dup1\n      swap2\n      sub\n      swap1\n      log3\n        /* \"contracts/TetherToken_remix_fixed.sol\":6409:6413  true */\n      0x1\n        /* \"contracts/TetherToken_remix_fixed.sol\":6402:6413  return true */\n      swap1\n      pop\n        /* \"contracts/TetherToken_remix_fixed.sol\":6158:6419  function increaseApproval(address _spender, uint _addedValue) public returns (bool) {\r... */\n      swap3\n      swap2\n      pop\n      pop\n      jump\t// out\n        /* \"contracts/TetherToken_remix_fixed.sol\":760:873  function sub(uint256 a, uint256 b) internal pure returns (uint256) {\r... */\n    tag_250:\n        /* \"contracts/TetherToken_remix_fixed.sol\":818:825  uint256 */\n      0x0\n        /* \"contracts/TetherToken_remix_fixed.sol\":846:847  a */\n      dup3\n        /* \"contracts/TetherToken_remix_fixed.sol\":841:842  b */\n      dup3\n        /* \"contracts/TetherToken_remix_fixed.sol\":841:847  b <= a */\n      gt\n      iszero\n        /* \"contracts/TetherToken_remix_fixed.sol\":834:848  assert(b <= a) */\n      iszero\n      iszero\n      tag_309\n      jumpi\n      invalid\n    tag_309:\n        /* \"contracts/TetherToken_remix_fixed.sol\":866:867  b */\n      dup2\n        /* \"contracts/TetherToken_remix_fixed.sol\":862:863  a */\n      dup4\n        /* \"contracts/TetherToken_remix_fixed.sol\":862:867  a - b */\n      sub\n        /* \"contracts/TetherToken_remix_fixed.sol\":855:867  return a - b */\n      swap1\n      pop\n        /* \"contracts/TetherToken_remix_fixed.sol\":760:873  function sub(uint256 a, uint256 b) internal pure returns (uint256) {\r... */\n      swap3\n      swap2\n      pop\n      pop\n      jump\t// out\n        /* \"contracts/TetherToken_remix_fixed.sol\":5782:5910  function allowance(address _owner, address _spender) public view returns (uint256) {\r... */\n    tag_258:\n        /* \"contracts/TetherToken_remix_fixed.sol\":5856:5863  uint256 */\n      0x0\n        /* \"contracts/TetherToken_remix_fixed.sol\":5879:5886  allowed */\n      0x1\n        /* \"contracts/TetherToken_remix_fixed.sol\":5879:5894  allowed[_owner] */\n      0x0\n        /* \"contracts/TetherToken_remix_fixed.sol\":5887:5893  _owner */\n      dup5\n        /* \"contracts/TetherToken_remix_fixed.sol\":5879:5894  allowed[_owner] */\n      0xffffffffffffffffffffffffffffffffffffffff\n      and\n      0xffffffffffffffffffffffffffffffffffffffff\n      and\n      dup2\n      mstore\n      0x20\n      add\n      swap1\n      dup2\n      mstore\n      0x20\n      add\n      0x0\n      keccak256\n        /* \"contracts/TetherToken_remix_fixed.sol\":5879:5904  allowed[_owner][_spender] */\n      0x0\n        /* \"contracts/TetherToken_remix_fixed.sol\":5895:5903  _spender */\n      dup4\n        /* \"contracts/TetherToken_remix_fixed.sol\":5879:5904  allowed[_owner][_spender] */\n      0xffffffffffffffffffffffffffffffffffffffff\n      and\n      0xffffffffffffffffffffffffffffffffffffffff\n      and\n      dup2\n      mstore\n      0x20\n      add\n      swap1\n      dup2\n      mstore\n      0x20\n      add\n      0x0\n      keccak256\n      sload\n        /* \"contracts/TetherToken_remix_fixed.sol\":5872:5904  return allowed[_owner][_spender] */\n      swap1\n      pop\n        /* \"contracts/TetherToken_remix_fixed.sol\":5782:5910  function allowance(address _owner, address _spender) public view returns (uint256) {\r... */\n      swap3\n      swap2\n      pop\n      pop\n      jump\t// out\n        /* \"contracts/TetherToken_remix_fixed.sol\":2072:2460  function transfer(address _to, uint256 _value) public returns (bool) {\r... */\n    tag_300:\n        /* \"contracts/TetherToken_remix_fixed.sol\":2135:2139  bool */\n      0x0\n        /* \"contracts/TetherToken_remix_fixed.sol\":2171:2172  0 */\n      dup1\n        /* \"contracts/TetherToken_remix_fixed.sol\":2156:2173  _to != address(0) */\n      0xffffffffffffffffffffffffffffffffffffffff\n      and\n        /* \"contracts/TetherToken_remix_fixed.sol\":2156:2159  _to */\n      dup4\n        /* \"contracts/TetherToken_remix_fixed.sol\":2156:2173  _to != address(0) */\n      0xffffffffffffffffffffffffffffffffffffffff\n      and\n      eq\n      iszero\n        /* \"contracts/TetherToken_remix_fixed.sol\":2148:2174  require(_to != address(0)) */\n      iszero\n      iszero\n      tag_312\n      jumpi\n      0x0\n      dup1\n      revert\n    tag_312:\n        /* \"contracts/TetherToken_remix_fixed.sol\":2199:2207  balances */\n      0x0\n        /* \"contracts/TetherToken_remix_fixed.sol\":2199:2219  balances[msg.sender] */\n      dup1\n        /* \"contracts/TetherToken_remix_fixed.sol\":2208:2218  msg.sender */\n      caller\n        /* \"contracts/TetherToken_remix_fixed.sol\":2199:2219  balances[msg.sender] */\n      0xffffffffffffffffffffffffffffffffffffffff\n      and\n      0xffffffffffffffffffffffffffffffffffffffff\n      and\n      dup2\n      mstore\n      0x20\n      add\n      swap1\n      dup2\n      mstore\n      0x20\n      add\n      0x0\n      keccak256\n      sload\n        /* \"contracts/TetherToken_remix_fixed.sol\":2189:2195  _value */\n      dup3\n        /* \"contracts/TetherToken_remix_fixed.sol\":2189:2219  _value <= balances[msg.sender] */\n      gt\n      iszero\n        /* \"contracts/TetherToken_remix_fixed.sol\":2181:2220  require(_value <= balances[msg.sender]) */\n      iszero\n      iszero\n      tag_313\n      jumpi\n      0x0\n      dup1\n      revert\n    tag_313:\n        /* \"contracts/TetherToken_remix_fixed.sol\":2316:2348  balances[msg.sender].sub(_value) */\n      tag_314\n        /* \"contracts/TetherToken_remix_fixed.sol\":2341:2347  _value */\n      dup3\n        /* \"contracts/TetherToken_remix_fixed.sol\":2316:2324  balances */\n      0x0\n        /* \"contracts/TetherToken_remix_fixed.sol\":2316:2336  balances[msg.sender] */\n      dup1\n        /* \"contracts/TetherToken_remix_fixed.sol\":2325:2335  msg.sender */\n      caller\n        /* \"contracts/TetherToken_remix_fixed.sol\":2316:2336  balances[msg.sender] */\n      0xffffffffffffffffffffffffffffffffffffffff\n      and\n      0xffffffffffffffffffffffffffffffffffffffff\n      and\n      dup2\n      mstore\n      0x20\n      add\n      swap1\n      dup2\n      mstore\n      0x20\n      add\n      0x0\n      keccak256\n      sload\n        /* \"contracts/TetherToken_remix_fixed.sol\":2316:2340  balances[msg.sender].sub */\n      tag_250\n      swap1\n        /* \"contracts/TetherToken_remix_fixed.sol\":2316:2348  balances[msg.sender].sub(_value) */\n      swap2\n      swap1\n      0xffffffff\n      and\n      jump\t// in\n    tag_314:\n        /* \"contracts/TetherToken_remix_fixed.sol\":2293:2301  balances */\n      0x0\n        /* \"contracts/TetherToken_remix_fixed.sol\":2293:2313  balances[msg.sender] */\n      dup1\n        /* \"contracts/TetherToken_remix_fixed.sol\":2302:2312  msg.sender */\n      caller\n        /* \"contracts/TetherToken_remix_fixed.sol\":2293:2313  balances[msg.sender] */\n      0xffffffffffffffffffffffffffffffffffffffff\n      and\n      0xffffffffffffffffffffffffffffffffffffffff\n      and\n      dup2\n      mstore\n      0x20\n      add\n      swap1\n      dup2\n      mstore\n      0x20\n      add\n      0x0\n      keccak256\n        /* \"contracts/TetherToken_remix_fixed.sol\":2293:2348  balances[msg.sender] = balances[msg.sender].sub(_value) */\n      dup2\n      swap1\n      sstore\n      pop\n        /* \"contracts/TetherToken_remix_fixed.sol\":2371:2396  balances[_to].add(_value) */\n      tag_315\n        /* \"contracts/TetherToken_remix_fixed.sol\":2389:2395  _value */\n      dup3\n        /* \"contracts/TetherToken_remix_fixed.sol\":2371:2379  balances */\n      0x0\n        /* \"contracts/TetherToken_remix_fixed.sol\":2371:2384  balances[_to] */\n      dup1\n        /* \"contracts/TetherToken_remix_fixed.sol\":2380:2383  _to */\n      dup7\n        /* \"contracts/TetherToken_remix_fixed.sol\":2371:2384  balances[_to] */\n      0xffffffffffffffffffffffffffffffffffffffff\n      and\n      0xffffffffffffffffffffffffffffffffffffffff\n      and\n      dup2\n      mstore\n      0x20\n      add\n      swap1\n      dup2\n      mstore\n      0x20\n      add\n      0x0\n      keccak256\n      sload\n        /* \"contracts/TetherToken_remix_fixed.sol\":2371:2388  balances[_to].add */\n      tag_235\n      swap1\n        /* \"contracts/TetherToken_remix_fixed.sol\":2371:2396  balances[_to].add(_value) */\n      swap2\n      swap1\n      0xffffffff\n      and\n      jump\t// in\n    tag_315:\n        /* \"contracts/TetherToken_remix_fixed.sol\":2355:2363  balances */\n      0x0\n        /* \"contracts/TetherToken_remix_fixed.sol\":2355:2368  balances[_to] */\n      dup1\n        /* \"contracts/TetherToken_remix_fixed.sol\":2364:2367  _to */\n      dup6\n        /* \"contracts/TetherToken_remix_fixed.sol\":2355:2368  balances[_to] */\n      0xffffffffffffffffffffffffffffffffffffffff\n      and\n      0xffffffffffffffffffffffffffffffffffffffff\n      and\n      dup2\n      mstore\n      0x20\n      add\n      swap1\n      dup2\n      mstore\n      0x20\n      add\n      0x0\n      keccak256\n        /* \"contracts/TetherToken_remix_fixed.sol\":2355:2396  balances[_to] = balances[_to].add(_value) */\n      dup2\n      swap1\n      sstore\n      pop\n        /* \"contracts/TetherToken_remix_fixed.sol\":2424:2427  _to */\n      dup3\n        /* \"contracts/TetherToken_remix_fixed.sol\":2403:2436  Transfer(msg.sender, _to, _value) */\n      0xffffffffffffffffffffffffffffffffffffffff\n      and\n        /* \"contracts/TetherToken_remix_fixed.sol\":2412:2422  msg.sender */\n      caller\n        /* \"contracts/TetherToken_remix_fixed.sol\":2403:2436  Transfer(msg.sender, _to, _value) */\n      0xffffffffffffffffffffffffffffffffffffffff\n      and\n      0xddf252ad1be2c89b69c2b068fc378daa952ba7f163c4a11628f55a4df523b3ef\n        /* \"contracts/TetherToken_remix_fixed.sol\":2429:2435  _value */\n      dup5\n        /* \"contracts/TetherToken_remix_fixed.sol\":2403:2436  Transfer(msg.sender, _to, _value) */\n      mload(0x40)\n      dup1\n      dup3\n      dup2\n      mstore\n      0x20\n      add\n      swap2\n      pop\n      pop\n      mload(0x40)\n      dup1\n      swap2\n      sub\n      swap1\n      log3\n        /* \"contracts/TetherToken_remix_fixed.sol\":2450:2454  true */\n      0x1\n        /* \"contracts/TetherToken_remix_fixed.sol\":2443:2454  return true */\n      swap1\n      pop\n        /* \"contracts/TetherToken_remix_fixed.sol\":2072:2460  function transfer(address _to, uint256 _value) public returns (bool) {\r... */\n      swap3\n      swap2\n      pop\n      pop\n      jump\t// out\n\n    auxdata: 0xa165627a7a723058203e62ca0dd71d65339157171f4a66e46e51f4b94d73c9dd4944a1829792a9ae300029\n}\n",
				"bytecode": {
					"linkReferences": {},
					"object": "60606040526000600260146101000a81548160ff0219169083151502179055506000600355600060045534156200003557600080fd5b604051620036c3380380620036c38339810160405280805190602001909190805182019190602001805182019190602001805190602001909190505033600260006101000a81548173ffffffffffffffffffffffffffffffffffffffff021916908373ffffffffffffffffffffffffffffffffffffffff160217905550836008819055508260059080519060200190620000d192919062000190565b508160069080519060200190620000ea92919062000190565b5080600760006101000a81548160ff021916908360ff16021790555083600080600260009054906101000a900473ffffffffffffffffffffffffffffffffffffffff1673ffffffffffffffffffffffffffffffffffffffff1673ffffffffffffffffffffffffffffffffffffffff168152602001908152602001600020819055506000600a60146101000a81548160ff021916908315150217905550505050506200023f565b828054600181600116156101000203166002900490600052602060002090601f016020900481019282601f10620001d357805160ff191683800117855562000204565b8280016001018555821562000204579182015b8281111562000203578251825591602001919060010190620001e6565b5b50905062000213919062000217565b5090565b6200023c91905b80821115620002385760008160009055506001016200021e565b5090565b90565b613474806200024f6000396000f3006060604052600436106101a1576000357c0100000000000000000000000000000000000000000000000000000000900463ffffffff16806306fdde03146101a65780630753c30c14610234578063095ea7b31461026d5780630e136b19146102c75780630ecb93c0146102f457806318160ddd1461032d57806323b872dd1461035657806326976e3f146103cf578063313ce5671461042457806335390714146104535780633eaaf86b1461047c5780633f4ba83a146104a557806359bf1abe146104ba5780635c975abb1461050b578063661884631461053857806370a082311461059257806375dc7d8c146105df5780638456cb59146106165780638da5cb5b1461062b57806395d89b4114610680578063a9059cbb1461070e578063b7a3446c14610768578063c0324c77146107b5578063cc872b66146107e1578063d73dd62314610804578063db006a751461085e578063dd62ed3e14610881578063dd644f72146108ed578063e47d606014610916578063e4997dc514610967578063e5b5019a146109a0578063f2fde38b146109c9578063f3bdc22814610a02575b600080fd5b34156101b157600080fd5b6101b9610a3b565b6040518080602001828103825283818151815260200191508051906020019080838360005b838110156101f95780820151818401526020810190506101de565b50505050905090810190601f1680156102265780820380516001836020036101000a031916815260200191505b509250505060405180910390f35b341561023f57600080fd5b61026b600480803573ffffffffffffffffffffffffffffffffffffffff16906020019091905050610ad9565b005b341561027857600080fd5b6102ad600480803573ffffffffffffffffffffffffffffffffffffffff16906020019091908035906020019091905050610c33565b604051808215151515815260200191505060405180910390f35b34156102d257600080fd5b6102da610d9c565b604051808215151515815260200191505060405180910390f35b34156102ff57600080fd5b61032b600480803573ffffffffffffffffffffffffffffffffffffffff16906020019091905050610daf565b005b341561033857600080fd5b610340610ea9565b6040518082815260200191505060405180910390f35b341561036157600080fd5b6103b5600480803573ffffffffffffffffffffffffffffffffffffffff1690602001909190803573ffffffffffffffffffffffffffffffffffffffff16906020019091908035906020019091905050610f79565b604051808215151515815260200191505060405180910390f35b34156103da57600080fd5b6103e2611171565b604051808273ffffffffffffffffffffffffffffffffffffffff1673ffffffffffffffffffffffffffffffffffffffff16815260200191505060405180910390f35b341561042f57600080fd5b610437611197565b604051808260ff1660ff16815260200191505060405180910390f35b341561045e57600080fd5b6104666111aa565b6040518082815260200191505060405180910390f35b341561048757600080fd5b61048f6111b0565b6040518082815260200191505060405180910390f35b34156104b057600080fd5b6104b86111b6565b005b34156104c557600080fd5b6104f1600480803573ffffffffffffffffffffffffffffffffffffffff16906020019091905050611276565b604051808215151515815260200191505060405180910390f35b341561051657600080fd5b61051e6112cc565b604051808215151515815260200191505060405180910390f35b341561054357600080fd5b610578600480803573ffffffffffffffffffffffffffffffffffffffff169060200190919080359060200190919050506112df565b604051808215151515815260200191505060405180910390f35b341561059d57600080fd5b6105c9600480803573ffffffffffffffffffffffffffffffffffffffff16906020019091905050611448565b6040518082815260200191505060405180910390f35b34156105ea57600080fd5b6106006004808035906020019091905050611557565b6040518082815260200191505060405180910390f35b341561062157600080fd5b61062961159e565b005b341561063657600080fd5b61063e61165f565b604051808273ffffffffffffffffffffffffffffffffffffffff1673ffffffffffffffffffffffffffffffffffffffff16815260200191505060405180910390f35b341561068b57600080fd5b610693611685565b6040518080602001828103825283818151815260200191508051906020019080838360005b838110156106d35780820151818401526020810190506106b8565b50505050905090810190601f1680156107005780820380516001836020036101000a031916815260200191505b509250505060405180910390f35b341561071957600080fd5b61074e600480803573ffffffffffffffffffffffffffffffffffffffff16906020019091908035906020019091905050611723565b604051808215151515815260200191505060405180910390f35b341561077357600080fd5b61079f600480803573ffffffffffffffffffffffffffffffffffffffff169060200190919050506118e5565b6040518082815260200191505060405180910390f35b34156107c057600080fd5b6107df6004808035906020019091908035906020019091905050611912565b005b34156107ec57600080fd5b6108026004808035906020019091905050611a08565b005b341561080f57600080fd5b610844600480803573ffffffffffffffffffffffffffffffffffffffff16906020019091908035906020019091905050611c18565b604051808215151515815260200191505060405180910390f35b341561086957600080fd5b61087f6004808035906020019091905050611d81565b005b341561088c57600080fd5b6108d7600480803573ffffffffffffffffffffffffffffffffffffffff1690602001909190803573ffffffffffffffffffffffffffffffffffffffff16906020019091905050611f91565b6040518082815260200191505060405180910390f35b34156108f857600080fd5b6109006120d6565b6040518082815260200191505060405180910390f35b341561092157600080fd5b61094d600480803573ffffffffffffffffffffffffffffffffffffffff169060200190919050506120dc565b604051808215151515815260200191505060405180910390f35b341561097257600080fd5b61099e600480803573ffffffffffffffffffffffffffffffffffffffff169060200190919050506120fc565b005b34156109ab57600080fd5b6109b36121f6565b6040518082815260200191505060405180910390f35b34156109d457600080fd5b610a00600480803573ffffffffffffffffffffffffffffffffffffffff1690602001909190505061221a565b005b3415610a0d57600080fd5b610a39600480803573ffffffffffffffffffffffffffffffffffffffff16906020019091905050612372565b005b60058054600181600116156101000203166002900480601f016020809104026020016040519081016040528092919081815260200182805460018160011615610100020316600290048015610ad15780601f10610aa657610100808354040283529160200191610ad1565b820191906000526020600020905b815481529060010190602001808311610ab457829003601f168201915b505050505081565b600260009054906101000a900473ffffffffffffffffffffffffffffffffffffffff1673ffffffffffffffffffffffffffffffffffffffff163373ffffffffffffffffffffffffffffffffffffffff16141515610b3557600080fd5b600073ffffffffffffffffffffffffffffffffffffffff168173ffffffffffffffffffffffffffffffffffffffff1614151515610b7157600080fd5b6001600a60146101000a81548160ff02191690831515021790555080600a60006101000a81548173ffffffffffffffffffffffffffffffffffffffff021916908373ffffffffffffffffffffffffffffffffffffffff1602179055507fcc358699805e9a8b7f77b522628c7cb9abd07d9efb86b6fb616af1609036a99e81604051808273ffffffffffffffffffffffffffffffffffffffff1673ffffffffffffffffffffffffffffffffffffffff16815260200191505060405180910390a150565b6000600260149054906101000a900460ff16151515610c5157600080fd5b600a60149054906101000a900460ff1615610d8957600a60009054906101000a900473ffffffffffffffffffffffffffffffffffffffff1673ffffffffffffffffffffffffffffffffffffffff1663aee92d333385856000604051602001526040518463ffffffff167c0100000000000000000000000000000000000000000000000000000000028152600401808473ffffffffffffffffffffffffffffffffffffffff1673ffffffffffffffffffffffffffffffffffffffff1681526020018373ffffffffffffffffffffffffffffffffffffffff1673ffffffffffffffffffffffffffffffffffffffff1681526020018281526020019350505050602060405180830381600087803b1515610d6757600080fd5b6102c65a03f11515610d7857600080fd5b505050604051805190509050610d96565b610d9383836124e4565b90505b92915050565b600a60149054906101000a900460ff1681565b600260009054906101000a900473ffffffffffffffffffffffffffffffffffffffff1673ffffffffffffffffffffffffffffffffffffffff163373ffffffffffffffffffffffffffffffffffffffff16141515610e0b57600080fd5b6001600960008373ffffffffffffffffffffffffffffffffffffffff1673ffffffffffffffffffffffffffffffffffffffff16815260200190815260200160002060006101000a81548160ff0219169083151502179055508073ffffffffffffffffffffffffffffffffffffffff167f42e160154868087d6bfdc0ca23d96a1c1cfa32f1b72ba9ba27b69b98a0d819dc60405160405180910390a250565b6000600a60149054906101000a900460ff1615610f7057600a60009054906101000a900473ffffffffffffffffffffffffffffffffffffffff1673ffffffffffffffffffffffffffffffffffffffff166318160ddd6000604051602001526040518163ffffffff167c0100000000000000000000000000000000000000000000000000000000028152600401602060405180830381600087803b1515610f4e57600080fd5b6102c65a03f11515610f5f57600080fd5b505050604051805190509050610f76565b60085490505b90565b6000600260149054906101000a900460ff16151515610f9757600080fd5b600960008573ffffffffffffffffffffffffffffffffffffffff1673ffffffffffffffffffffffffffffffffffffffff16815260200190815260200160002060009054906101000a900460ff16151515610ff057600080fd5b600a60149054906101000a900460ff161561115c57600a60009054906101000a900473ffffffffffffffffffffffffffffffffffffffff1673ffffffffffffffffffffffffffffffffffffffff16638b477adb338686866000604051602001526040518563ffffffff167c0100000000000000000000000000000000000000000000000000000000028152600401808573ffffffffffffffffffffffffffffffffffffffff1673ffffffffffffffffffffffffffffffffffffffff1681526020018473ffffffffffffffffffffffffffffffffffffffff1673ffffffffffffffffffffffffffffffffffffffff1681526020018373ffffffffffffffffffffffffffffffffffffffff1673ffffffffffffffffffffffffffffffffffffffff168152602001828152602001945050505050602060405180830381600087803b151561113a57600080fd5b6102c65a03f1151561114b57600080fd5b50505060405180519050905061116a565b6111678484846125d6565b90505b9392505050565b600a60009054906101000a900473ffffffffffffffffffffffffffffffffffffffff1681565b600760009054906101000a900460ff1681565b60045481565b60085481565b600260009054906101000a900473ffffffffffffffffffffffffffffffffffffffff1673ffffffffffffffffffffffffffffffffffffffff163373ffffffffffffffffffffffffffffffffffffffff1614151561121257600080fd5b600260149054906101000a900460ff16151561122d57600080fd5b6000600260146101000a81548160ff0219169083151502179055507f7805862f689e2f13df9f062ff482ad3ad112aca9e0847911ed832e158c525b3360405160405180910390a1565b6000600960008373ffffffffffffffffffffffffffffffffffffffff1673ffffffffffffffffffffffffffffffffffffffff16815260200190815260200160002060009054906101000a900460ff169050919050565b600260149054906101000a900460ff1681565b6000600260149054906101000a900460ff161515156112fd57600080fd5b600a60149054906101000a900460ff161561143557600a60009054906101000a900473ffffffffffffffffffffffffffffffffffffffff1673ffffffffffffffffffffffffffffffffffffffff16636001279f3385856000604051602001526040518463ffffffff167c0100000000000000000000000000000000000000000000000000000000028152600401808473ffffffffffffffffffffffffffffffffffffffff1673ffffffffffffffffffffffffffffffffffffffff1681526020018373ffffffffffffffffffffffffffffffffffffffff1673ffffffffffffffffffffffffffffffffffffffff1681526020018281526020019350505050602060405180830381600087803b151561141357600080fd5b6102c65a03f1151561142457600080fd5b505050604051805190509050611442565b61143f8383612bc2565b90505b92915050565b6000600a60149054906101000a900460ff161561154657600a60009054906101000a900473ffffffffffffffffffffffffffffffffffffffff1673ffffffffffffffffffffffffffffffffffffffff166370a08231836000604051602001526040518263ffffffff167c0100000000000000000000000000000000000000000000000000000000028152600401808273ffffffffffffffffffffffffffffffffffffffff1673ffffffffffffffffffffffffffffffffffffffff168152602001915050602060405180830381600087803b151561152457600080fd5b6102c65a03f1151561153557600080fd5b505050604051805190509050611552565b61154f82612e53565b90505b919050565b60008061158361271061157560035486612e9b90919063ffffffff16565b612ed690919063ffffffff16565b90506004548111156115955760045490505b80915050919050565b600260009054906101000a900473ffffffffffffffffffffffffffffffffffffffff1673ffffffffffffffffffffffffffffffffffffffff163373ffffffffffffffffffffffffffffffffffffffff161415156115fa57600080fd5b600260149054906101000a900460ff1615151561161657600080fd5b6001600260146101000a81548160ff0219169083151502179055507f6985a02210a168e66602d3235cb6db0e70f92b3ba4d376a33c0f3d9434bff62560405160405180910390a1565b600260009054906101000a900473ffffffffffffffffffffffffffffffffffffffff1681565b60068054600181600116156101000203166002900480601f01602080910402602001604051908101604052809291908181526020018280546001816001161561010002031660029004801561171b5780601f106116f05761010080835404028352916020019161171b565b820191906000526020600020905b8154815290600101906020018083116116fe57829003601f168201915b505050505081565b6000600260149054906101000a900460ff1615151561174157600080fd5b600960003373ffffffffffffffffffffffffffffffffffffffff1673ffffffffffffffffffffffffffffffffffffffff16815260200190815260200160002060009054906101000a900460ff1615151561179a57600080fd5b600a60149054906101000a900460ff16156118d257600a60009054906101000a900473ffffffffffffffffffffffffffffffffffffffff1673ffffffffffffffffffffffffffffffffffffffff16636e18980a3385856000604051602001526040518463ffffffff167c0100000000000000000000000000000000000000000000000000000000028152600401808473ffffffffffffffffffffffffffffffffffffffff1673ffffffffffffffffffffffffffffffffffffffff1681526020018373ffffffffffffffffffffffffffffffffffffffff1673ffffffffffffffffffffffffffffffffffffffff1681526020018281526020019350505050602060405180830381600087803b15156118b057600080fd5b6102c65a03f115156118c157600080fd5b5050506040518051905090506118df565b6118dc8383612ef1565b90505b92915050565b6000600a60149054906101000a900460ff161561190c5761190582612e53565b905061190d565b5b919050565b600260009054906101000a900473ffffffffffffffffffffffffffffffffffffffff1673ffffffffffffffffffffffffffffffffffffffff163373ffffffffffffffffffffffffffffffffffffffff1614151561196e57600080fd5b60148210151561197d57600080fd5b60328110151561198c57600080fd5b816003819055506119bb600760009054906101000a900460ff1660ff16600a0a82612e9b90919063ffffffff16565b6004819055507fb044a1e409eac5c48e5af22d4af52670dd1a99059537a78b31b48c6500a6354e600354600454604051808381526020018281526020019250505060405180910390a15050565b600260009054906101000a900473ffffffffffffffffffffffffffffffffffffffff1673ffffffffffffffffffffffffffffffffffffffff163373ffffffffffffffffffffffffffffffffffffffff16141515611a6457600080fd5b611ad781600080600260009054906101000a900473ffffffffffffffffffffffffffffffffffffffff1673ffffffffffffffffffffffffffffffffffffffff1673ffffffffffffffffffffffffffffffffffffffff16815260200190815260200160002054612f6f90919063ffffffff16565b600080600260009054906101000a900473ffffffffffffffffffffffffffffffffffffffff1673ffffffffffffffffffffffffffffffffffffffff1673ffffffffffffffffffffffffffffffffffffffff16815260200190815260200160002081905550611b5081600854612f6f90919063ffffffff16565b6008819055507fcb8241adb0c3fdb35b70c24ce35c5eb0c17af7431c99f827d44a445ca624176a816040518082815260200191505060405180910390a1600260009054906101000a900473ffffffffffffffffffffffffffffffffffffffff1673ffffffffffffffffffffffffffffffffffffffff16600073ffffffffffffffffffffffffffffffffffffffff167fddf252ad1be2c89b69c2b068fc378daa952ba7f163c4a11628f55a4df523b3ef836040518082815260200191505060405180910390a350565b6000600260149054906101000a900460ff16151515611c3657600080fd5b600a60149054906101000a900460ff1615611d6e57600a60009054906101000a900473ffffffffffffffffffffffffffffffffffffffff1673ffffffffffffffffffffffffffffffffffffffff1663a95381573385856000604051602001526040518463ffffffff167c0100000000000000000000000000000000000000000000000000000000028152600401808473ffffffffffffffffffffffffffffffffffffffff1673ffffffffffffffffffffffffffffffffffffffff1681526020018373ffffffffffffffffffffffffffffffffffffffff1673ffffffffffffffffffffffffffffffffffffffff1681526020018281526020019350505050602060405180830381600087803b1515611d4c57600080fd5b6102c65a03f11515611d5d57600080fd5b505050604051805190509050611d7b565b611d788383612f8d565b90505b92915050565b600260009054906101000a900473ffffffffffffffffffffffffffffffffffffffff1673ffffffffffffffffffffffffffffffffffffffff163373ffffffffffffffffffffffffffffffffffffffff16141515611ddd57600080fd5b611df28160085461318990919063ffffffff16565b600881905550611e6b81600080600260009054906101000a900473ffffffffffffffffffffffffffffffffffffffff1673ffffffffffffffffffffffffffffffffffffffff1673ffffffffffffffffffffffffffffffffffffffff1681526020019081526020016000205461318990919063ffffffff16565b600080600260009054906101000a900473ffffffffffffffffffffffffffffffffffffffff1673ffffffffffffffffffffffffffffffffffffffff1673ffffffffffffffffffffffffffffffffffffffff168152602001908152602001600020819055507f702d5967f45f6513a38ffc42d6ba9bf230bd40e8f53b16363c7eb4fd2deb9a44816040518082815260200191505060405180910390a1600073ffffffffffffffffffffffffffffffffffffffff16600260009054906101000a900473ffffffffffffffffffffffffffffffffffffffff1673ffffffffffffffffffffffffffffffffffffffff167fddf252ad1be2c89b69c2b068fc378daa952ba7f163c4a11628f55a4df523b3ef836040518082815260200191505060405180910390a350565b6000600a60149054906101000a900460ff16156120c357600a60009054906101000a900473ffffffffffffffffffffffffffffffffffffffff1673ffffffffffffffffffffffffffffffffffffffff1663dd62ed3e84846000604051602001526040518363ffffffff167c0100000000000000000000000000000000000000000000000000000000028152600401808373ffffffffffffffffffffffffffffffffffffffff1673ffffffffffffffffffffffffffffffffffffffff1681526020018273ffffffffffffffffffffffffffffffffffffffff1673ffffffffffffffffffffffffffffffffffffffff16815260200192505050602060405180830381600087803b15156120a157600080fd5b6102c65a03f115156120b257600080fd5b5050506040518051905090506120d0565b6120cd83836131a2565b90505b92915050565b60035481565b60096020528060005260406000206000915054906101000a900460ff1681565b600260009054906101000a900473ffffffffffffffffffffffffffffffffffffffff1673ffffffffffffffffffffffffffffffffffffffff163373ffffffffffffffffffffffffffffffffffffffff1614151561215857600080fd5b6000600960008373ffffffffffffffffffffffffffffffffffffffff1673ffffffffffffffffffffffffffffffffffffffff16815260200190815260200160002060006101000a81548160ff0219169083151502179055508073ffffffffffffffffffffffffffffffffffffffff167fd7e9ec6e6ecd65492dce6bf513cd6867560d49544421d0783ddf06e76c24470c60405160405180910390a250565b7fffffffffffffffffffffffffffffffffffffffffffffffffffffffffffffffff81565b600260009054906101000a900473ffffffffffffffffffffffffffffffffffffffff1673ffffffffffffffffffffffffffffffffffffffff163373ffffffffffffffffffffffffffffffffffffffff1614151561227657600080fd5b600073ffffffffffffffffffffffffffffffffffffffff168173ffffffffffffffffffffffffffffffffffffffff16141515156122b257600080fd5b8073ffffffffffffffffffffffffffffffffffffffff16600260009054906101000a900473ffffffffffffffffffffffffffffffffffffffff1673ffffffffffffffffffffffffffffffffffffffff167f8be0079c531659141344cd1fd0a4f28419497f9722a3daafe3b4186f6b6457e060405160405180910390a380600260006101000a81548173ffffffffffffffffffffffffffffffffffffffff021916908373ffffffffffffffffffffffffffffffffffffffff16021790555050565b6000600260009054906101000a900473ffffffffffffffffffffffffffffffffffffffff1673ffffffffffffffffffffffffffffffffffffffff163373ffffffffffffffffffffffffffffffffffffffff161415156123d057600080fd5b600960008373ffffffffffffffffffffffffffffffffffffffff1673ffffffffffffffffffffffffffffffffffffffff16815260200190815260200160002060009054906101000a900460ff16151561242857600080fd5b61243182611448565b905060008060008473ffffffffffffffffffffffffffffffffffffffff1673ffffffffffffffffffffffffffffffffffffffff1681526020019081526020016000208190555061248c8160085461318990919063ffffffff16565b6008819055508173ffffffffffffffffffffffffffffffffffffffff167f61e6e66b0d6339b2980aecc6ccc0039736791f0ccde9ed512e789a7fbdd698c6826040518082815260200191505060405180910390a25050565b600081600160003373ffffffffffffffffffffffffffffffffffffffff1673ffffffffffffffffffffffffffffffffffffffff16815260200190815260200160002060008573ffffffffffffffffffffffffffffffffffffffff1673ffffffffffffffffffffffffffffffffffffffff168152602001908152602001600020819055508273ffffffffffffffffffffffffffffffffffffffff163373ffffffffffffffffffffffffffffffffffffffff167f8c5be1e5ebec7d5bd14f71427d1e84f3dd0314c0f7b2291e5b200ac8c7c3b925846040518082815260200191505060405180910390a36001905092915050565b60008060008073ffffffffffffffffffffffffffffffffffffffff168573ffffffffffffffffffffffffffffffffffffffff161415151561261657600080fd5b6000808773ffffffffffffffffffffffffffffffffffffffff1673ffffffffffffffffffffffffffffffffffffffff16815260200190815260200160002054841115151561266357600080fd5b600160008773ffffffffffffffffffffffffffffffffffffffff1673ffffffffffffffffffffffffffffffffffffffff16815260200190815260200160002060003373ffffffffffffffffffffffffffffffffffffffff1673ffffffffffffffffffffffffffffffffffffffff1681526020019081526020016000205484111515156126ee57600080fd5b6126f784611557565b915061270c828561318990919063ffffffff16565b905061275f846000808973ffffffffffffffffffffffffffffffffffffffff1673ffffffffffffffffffffffffffffffffffffffff1681526020019081526020016000205461318990919063ffffffff16565b6000808873ffffffffffffffffffffffffffffffffffffffff1673ffffffffffffffffffffffffffffffffffffffff168152602001908152602001600020819055506127f2816000808873ffffffffffffffffffffffffffffffffffffffff1673ffffffffffffffffffffffffffffffffffffffff16815260200190815260200160002054612f6f90919063ffffffff16565b6000808773ffffffffffffffffffffffffffffffffffffffff1673ffffffffffffffffffffffffffffffffffffffff168152602001908152602001600020819055507fffffffffffffffffffffffffffffffffffffffffffffffffffffffffffffffff600160008873ffffffffffffffffffffffffffffffffffffffff1673ffffffffffffffffffffffffffffffffffffffff16815260200190815260200160002060003373ffffffffffffffffffffffffffffffffffffffff1673ffffffffffffffffffffffffffffffffffffffff1681526020019081526020016000205410156129e85761296784600160008973ffffffffffffffffffffffffffffffffffffffff1673ffffffffffffffffffffffffffffffffffffffff16815260200190815260200160002060003373ffffffffffffffffffffffffffffffffffffffff1673ffffffffffffffffffffffffffffffffffffffff1681526020019081526020016000205461318990919063ffffffff16565b600160008873ffffffffffffffffffffffffffffffffffffffff1673ffffffffffffffffffffffffffffffffffffffff16815260200190815260200160002060003373ffffffffffffffffffffffffffffffffffffffff1673ffffffffffffffffffffffffffffffffffffffff168152602001908152602001600020819055505b8473ffffffffffffffffffffffffffffffffffffffff168673ffffffffffffffffffffffffffffffffffffffff167fddf252ad1be2c89b69c2b068fc378daa952ba7f163c4a11628f55a4df523b3ef836040518082815260200191505060405180910390a36000821115612bb557612ac982600080600260009054906101000a900473ffffffffffffffffffffffffffffffffffffffff1673ffffffffffffffffffffffffffffffffffffffff1673ffffffffffffffffffffffffffffffffffffffff16815260200190815260200160002054612f6f90919063ffffffff16565b600080600260009054906101000a900473ffffffffffffffffffffffffffffffffffffffff1673ffffffffffffffffffffffffffffffffffffffff1673ffffffffffffffffffffffffffffffffffffffff16815260200190815260200160002081905550600260009054906101000a900473ffffffffffffffffffffffffffffffffffffffff1673ffffffffffffffffffffffffffffffffffffffff168673ffffffffffffffffffffffffffffffffffffffff167fddf252ad1be2c89b69c2b068fc378daa952ba7f163c4a11628f55a4df523b3ef846040518082815260200191505060405180910390a35b6001925050509392505050565b600080600160003373ffffffffffffffffffffffffffffffffffffffff1673ffffffffffffffffffffffffffffffffffffffff16815260200190815260200160002060008573ffffffffffffffffffffffffffffffffffffffff1673ffffffffffffffffffffffffffffffffffffffff16815260200190815260200160002054905080831115612cd3576000600160003373ffffffffffffffffffffffffffffffffffffffff1673ffffffffffffffffffffffffffffffffffffffff16815260200190815260200160002060008673ffffffffffffffffffffffffffffffffffffffff1673ffffffffffffffffffffffffffffffffffffffff16815260200190815260200160002081905550612d67565b612ce6838261318990919063ffffffff16565b600160003373ffffffffffffffffffffffffffffffffffffffff1673ffffffffffffffffffffffffffffffffffffffff16815260200190815260200160002060008673ffffffffffffffffffffffffffffffffffffffff1673ffffffffffffffffffffffffffffffffffffffff168152602001908152602001600020819055505b8373ffffffffffffffffffffffffffffffffffffffff163373ffffffffffffffffffffffffffffffffffffffff167f8c5be1e5ebec7d5bd14f71427d1e84f3dd0314c0f7b2291e5b200ac8c7c3b925600160003373ffffffffffffffffffffffffffffffffffffffff1673ffffffffffffffffffffffffffffffffffffffff16815260200190815260200160002060008873ffffffffffffffffffffffffffffffffffffffff1673ffffffffffffffffffffffffffffffffffffffff168152602001908152602001600020546040518082815260200191505060405180910390a3600191505092915050565b60008060008373ffffffffffffffffffffffffffffffffffffffff1673ffffffffffffffffffffffffffffffffffffffff168152602001908152602001600020549050919050565b6000806000841415612eb05760009150612ecf565b8284029050828482811515612ec157fe5b04141515612ecb57fe5b8091505b5092915050565b6000808284811515612ee457fe5b0490508091505092915050565b600080600080612f0085611557565b9250612f15838661318990919063ffffffff16565b9150612f218683613229565b9050600083118015612f305750805b15612f6357612f61600260009054906101000a900473ffffffffffffffffffffffffffffffffffffffff1684613229565b505b80935050505092915050565b6000808284019050838110151515612f8357fe5b8091505092915050565b600061301e82600160003373ffffffffffffffffffffffffffffffffffffffff1673ffffffffffffffffffffffffffffffffffffffff16815260200190815260200160002060008673ffffffffffffffffffffffffffffffffffffffff1673ffffffffffffffffffffffffffffffffffffffff16815260200190815260200160002054612f6f90919063ffffffff16565b600160003373ffffffffffffffffffffffffffffffffffffffff1673ffffffffffffffffffffffffffffffffffffffff16815260200190815260200160002060008573ffffffffffffffffffffffffffffffffffffffff1673ffffffffffffffffffffffffffffffffffffffff168152602001908152602001600020819055508273ffffffffffffffffffffffffffffffffffffffff163373ffffffffffffffffffffffffffffffffffffffff167f8c5be1e5ebec7d5bd14f71427d1e84f3dd0314c0f7b2291e5b200ac8c7c3b925600160003373ffffffffffffffffffffffffffffffffffffffff1673ffffffffffffffffffffffffffffffffffffffff16815260200190815260200160002060008773ffffffffffffffffffffffffffffffffffffffff1673ffffffffffffffffffffffffffffffffffffffff168152602001908152602001600020546040518082815260200191505060405180910390a36001905092915050565b600082821115151561319757fe5b818303905092915050565b6000600160008473ffffffffffffffffffffffffffffffffffffffff1673ffffffffffffffffffffffffffffffffffffffff16815260200190815260200160002060008373ffffffffffffffffffffffffffffffffffffffff1673ffffffffffffffffffffffffffffffffffffffff16815260200190815260200160002054905092915050565b60008073ffffffffffffffffffffffffffffffffffffffff168373ffffffffffffffffffffffffffffffffffffffff161415151561326657600080fd5b6000803373ffffffffffffffffffffffffffffffffffffffff1673ffffffffffffffffffffffffffffffffffffffff1681526020019081526020016000205482111515156132b357600080fd5b613304826000803373ffffffffffffffffffffffffffffffffffffffff1673ffffffffffffffffffffffffffffffffffffffff1681526020019081526020016000205461318990919063ffffffff16565b6000803373ffffffffffffffffffffffffffffffffffffffff1673ffffffffffffffffffffffffffffffffffffffff16815260200190815260200160002081905550613397826000808673ffffffffffffffffffffffffffffffffffffffff1673ffffffffffffffffffffffffffffffffffffffff16815260200190815260200160002054612f6f90919063ffffffff16565b6000808573ffffffffffffffffffffffffffffffffffffffff1673ffffffffffffffffffffffffffffffffffffffff168152602001908152602001600020819055508273ffffffffffffffffffffffffffffffffffffffff163373ffffffffffffffffffffffffffffffffffffffff167fddf252ad1be2c89b69c2b068fc378daa952ba7f163c4a11628f55a4df523b3ef846040518082815260200191505060405180910390a360019050929150505600a165627a7a723058203e62ca0dd71d65339157171f4a66e46e51f4b94d73c9dd4944a1829792a9ae300029",
					"opcodes": "PUSH1 0x60 PUSH1 0x40 MSTORE PUSH1 0x0 PUSH1 0x2 PUSH1 0x14 PUSH2 0x100 EXP DUP2 SLOAD DUP2 PUSH1 0xFF MUL NOT AND SWAP1 DUP4 ISZERO ISZERO MUL OR SWAP1 SSTORE POP PUSH1 0x0 PUSH1 0x3 SSTORE PUSH1 0x0 PUSH1 0x4 SSTORE CALLVALUE ISZERO PUSH3 0x35 JUMPI PUSH1 0x0 DUP1 REVERT JUMPDEST PUSH1 0x40 MLOAD PUSH3 0x36C3 CODESIZE SUB DUP1 PUSH3 0x36C3 DUP4 CODECOPY DUP2 ADD PUSH1 0x40 MSTORE DUP1 DUP1 MLOAD SWAP1 PUSH1 0x20 ADD SWAP1 SWAP2 SWAP1 DUP1 MLOAD DUP3 ADD SWAP2 SWAP1 PUSH1 0x20 ADD DUP1 MLOAD DUP3 ADD SWAP2 SWAP1 PUSH1 0x20 ADD DUP1 MLOAD SWAP1 PUSH1 0x20 ADD SWAP1 SWAP2 SWAP1 POP POP CALLER PUSH1 0x2 PUSH1 0x0 PUSH2 0x100 EXP DUP2 SLOAD DUP2 PUSH20 0xFFFFFFFFFFFFFFFFFFFFFFFFFFFFFFFFFFFFFFFF MUL NOT AND SWAP1 DUP4 PUSH20 0xFFFFFFFFFFFFFFFFFFFFFFFFFFFFFFFFFFFFFFFF AND MUL OR SWAP1 SSTORE POP DUP4 PUSH1 0x8 DUP2 SWAP1 SSTORE POP DUP3 PUSH1 0x5 SWAP1 DUP1 MLOAD SWAP1 PUSH1 0x20 ADD SWAP1 PUSH3 0xD1 SWAP3 SWAP2 SWAP1 PUSH3 0x190 JUMP JUMPDEST POP DUP2 PUSH1 0x6 SWAP1 DUP1 MLOAD SWAP1 PUSH1 0x20 ADD SWAP1 PUSH3 0xEA SWAP3 SWAP2 SWAP1 PUSH3 0x190 JUMP JUMPDEST POP DUP1 PUSH1 0x7 PUSH1 0x0 PUSH2 0x100 EXP DUP2 SLOAD DUP2 PUSH1 0xFF MUL NOT AND SWAP1 DUP4 PUSH1 0xFF AND MUL OR SWAP1 SSTORE POP DUP4 PUSH1 0x0 DUP1 PUSH1 0x2 PUSH1 0x0 SWAP1 SLOAD SWAP1 PUSH2 0x100 EXP SWAP1 DIV PUSH20 0xFFFFFFFFFFFFFFFFFFFFFFFFFFFFFFFFFFFFFFFF AND PUSH20 0xFFFFFFFFFFFFFFFFFFFFFFFFFFFFFFFFFFFFFFFF AND PUSH20 0xFFFFFFFFFFFFFFFFFFFFFFFFFFFFFFFFFFFFFFFF AND DUP2 MSTORE PUSH1 0x20 ADD SWAP1 DUP2 MSTORE PUSH1 0x20 ADD PUSH1 0x0 KECCAK256 DUP2 SWAP1 SSTORE POP PUSH1 0x0 PUSH1 0xA PUSH1 0x14 PUSH2 0x100 EXP DUP2 SLOAD DUP2 PUSH1 0xFF MUL NOT AND SWAP1 DUP4 ISZERO ISZERO MUL OR SWAP1 SSTORE POP POP POP POP POP PUSH3 0x23F JUMP JUMPDEST DUP3 DUP1 SLOAD PUSH1 0x1 DUP2 PUSH1 0x1 AND ISZERO PUSH2 0x100 MUL SUB AND PUSH1 0x2 SWAP1 DIV SWAP1 PUSH1 0x0 MSTORE PUSH1 0x20 PUSH1 0x0 KECCAK256 SWAP1 PUSH1 0x1F ADD PUSH1 0x20 SWAP1 DIV DUP2 ADD SWAP3 DUP3 PUSH1 0x1F LT PUSH3 0x1D3 JUMPI DUP1 MLOAD PUSH1 0xFF NOT AND DUP4 DUP1 ADD OR DUP6 SSTORE PUSH3 0x204 JUMP JUMPDEST DUP3 DUP1 ADD PUSH1 0x1 ADD DUP6 SSTORE DUP3 ISZERO PUSH3 0x204 JUMPI SWAP2 DUP3 ADD JUMPDEST DUP3 DUP2 GT ISZERO PUSH3 0x203 JUMPI DUP3 MLOAD DUP3 SSTORE SWAP2 PUSH1 0x20 ADD SWAP2 SWAP1 PUSH1 0x1 ADD SWAP1 PUSH3 0x1E6 JUMP JUMPDEST JUMPDEST POP SWAP1 POP PUSH3 0x213 SWAP2 SWAP1 PUSH3 0x217 JUMP JUMPDEST POP SWAP1 JUMP JUMPDEST PUSH3 0x23C SWAP2 SWAP1 JUMPDEST DUP1 DUP3 GT ISZERO PUSH3 0x238 JUMPI PUSH1 0x0 DUP2 PUSH1 0x0 SWAP1 SSTORE POP PUSH1 0x1 ADD PUSH3 0x21E JUMP JUMPDEST POP SWAP1 JUMP JUMPDEST SWAP1 JUMP JUMPDEST PUSH2 0x3474 DUP1 PUSH3 0x24F PUSH1 0x0 CODECOPY PUSH1 0x0 RETURN STOP PUSH1 0x60 PUSH1 0x40 MSTORE PUSH1 0x4 CALLDATASIZE LT PUSH2 0x1A1 JUMPI PUSH1 0x0 CALLDATALOAD PUSH29 0x100000000000000000000000000000000000000000000000000000000 SWAP1 DIV PUSH4 0xFFFFFFFF AND DUP1 PUSH4 0x6FDDE03 EQ PUSH2 0x1A6 JUMPI DUP1 PUSH4 0x753C30C EQ PUSH2 0x234 JUMPI DUP1 PUSH4 0x95EA7B3 EQ PUSH2 0x26D JUMPI DUP1 PUSH4 0xE136B19 EQ PUSH2 0x2C7 JUMPI DUP1 PUSH4 0xECB93C0 EQ PUSH2 0x2F4 JUMPI DUP1 PUSH4 0x18160DDD EQ PUSH2 0x32D JUMPI DUP1 PUSH4 0x23B872DD EQ PUSH2 0x356 JUMPI DUP1 PUSH4 0x26976E3F EQ PUSH2 0x3CF JUMPI DUP1 PUSH4 0x313CE567 EQ PUSH2 0x424 JUMPI DUP1 PUSH4 0x35390714 EQ PUSH2 0x453 JUMPI DUP1 PUSH4 0x3EAAF86B EQ PUSH2 0x47C JUMPI DUP1 PUSH4 0x3F4BA83A EQ PUSH2 0x4A5 JUMPI DUP1 PUSH4 0x59BF1ABE EQ PUSH2 0x4BA JUMPI DUP1 PUSH4 0x5C975ABB EQ PUSH2 0x50B JUMPI DUP1 PUSH4 0x66188463 EQ PUSH2 0x538 JUMPI DUP1 PUSH4 0x70A08231 EQ PUSH2 0x592 JUMPI DUP1 PUSH4 0x75DC7D8C EQ PUSH2 0x5DF JUMPI DUP1 PUSH4 0x8456CB59 EQ PUSH2 0x616 JUMPI DUP1 PUSH4 0x8DA5CB5B EQ PUSH2 0x62B JUMPI DUP1 PUSH4 0x95D89B41 EQ PUSH2 0x680 JUMPI DUP1 PUSH4 0xA9059CBB EQ PUSH2 0x70E JUMPI DUP1 PUSH4 0xB7A3446C EQ PUSH2 0x768 JUMPI DUP1 PUSH4 0xC0324C77 EQ PUSH2 0x7B5 JUMPI DUP1 PUSH4 0xCC872B66 EQ PUSH2 0x7E1 JUMPI DUP1 PUSH4 0xD73DD623 EQ PUSH2 0x804 JUMPI DUP1 PUSH4 0xDB006A75 EQ PUSH2 0x85E JUMPI DUP1 PUSH4 0xDD62ED3E EQ PUSH2 0x881 JUMPI DUP1 PUSH4 0xDD644F72 EQ PUSH2 0x8ED JUMPI DUP1 PUSH4 0xE47D6060 EQ PUSH2 0x916 JUMPI DUP1 PUSH4 0xE4997DC5 EQ PUSH2 0x967 JUMPI DUP1 PUSH4 0xE5B5019A EQ PUSH2 0x9A0 JUMPI DUP1 PUSH4 0xF2FDE38B EQ PUSH2 0x9C9 JUMPI DUP1 PUSH4 0xF3BDC228 EQ PUSH2 0xA02 JUMPI JUMPDEST PUSH1 0x0 DUP1 REVERT JUMPDEST CALLVALUE ISZERO PUSH2 0x1B1 JUMPI PUSH1 0x0 DUP1 REVERT JUMPDEST PUSH2 0x1B9 PUSH2 0xA3B JUMP JUMPDEST PUSH1 0x40 MLOAD DUP1 DUP1 PUSH1 0x20 ADD DUP3 DUP2 SUB DUP3 MSTORE DUP4 DUP2 DUP2 MLOAD DUP2 MSTORE PUSH1 0x20 ADD SWAP2 POP DUP1 MLOAD SWAP1 PUSH1 0x20 ADD SWAP1 DUP1 DUP4 DUP4 PUSH1 0x0 JUMPDEST DUP4 DUP2 LT ISZERO PUSH2 0x1F9 JUMPI DUP1 DUP3 ADD MLOAD DUP2 DUP5 ADD MSTORE PUSH1 0x20 DUP2 ADD SWAP1 POP PUSH2 0x1DE JUMP JUMPDEST POP POP POP POP SWAP1 POP SWAP1 DUP2 ADD SWAP1 PUSH1 0x1F AND DUP1 ISZERO PUSH2 0x226 JUMPI DUP1 DUP3 SUB DUP1 MLOAD PUSH1 0x1 DUP4 PUSH1 0x20 SUB PUSH2 0x100 EXP SUB NOT AND DUP2 MSTORE PUSH1 0x20 ADD SWAP2 POP JUMPDEST POP SWAP3 POP POP POP PUSH1 0x40 MLOAD DUP1 SWAP2 SUB SWAP1 RETURN JUMPDEST CALLVALUE ISZERO PUSH2 0x23F JUMPI PUSH1 0x0 DUP1 REVERT JUMPDEST PUSH2 0x26B PUSH1 0x4 DUP1 DUP1 CALLDATALOAD PUSH20 0xFFFFFFFFFFFFFFFFFFFFFFFFFFFFFFFFFFFFFFFF AND SWAP1 PUSH1 0x20 ADD SWAP1 SWAP2 SWAP1 POP POP PUSH2 0xAD9 JUMP JUMPDEST STOP JUMPDEST CALLVALUE ISZERO PUSH2 0x278 JUMPI PUSH1 0x0 DUP1 REVERT JUMPDEST PUSH2 0x2AD PUSH1 0x4 DUP1 DUP1 CALLDATALOAD PUSH20 0xFFFFFFFFFFFFFFFFFFFFFFFFFFFFFFFFFFFFFFFF AND SWAP1 PUSH1 0x20 ADD SWAP1 SWAP2 SWAP1 DUP1 CALLDATALOAD SWAP1 PUSH1 0x20 ADD SWAP1 SWAP2 SWAP1 POP POP PUSH2 0xC33 JUMP JUMPDEST PUSH1 0x40 MLOAD DUP1 DUP3 ISZERO ISZERO ISZERO ISZERO DUP2 MSTORE PUSH1 0x20 ADD SWAP2 POP POP PUSH1 0x40 MLOAD DUP1 SWAP2 SUB SWAP1 RETURN JUMPDEST CALLVALUE ISZERO PUSH2 0x2D2 JUMPI PUSH1 0x0 DUP1 REVERT JUMPDEST PUSH2 0x2DA PUSH2 0xD9C JUMP JUMPDEST PUSH1 0x40 MLOAD DUP1 DUP3 ISZERO ISZERO ISZERO ISZERO DUP2 MSTORE PUSH1 0x20 ADD SWAP2 POP POP PUSH1 0x40 MLOAD DUP1 SWAP2 SUB SWAP1 RETURN JUMPDEST CALLVALUE ISZERO PUSH2 0x2FF JUMPI PUSH1 0x0 DUP1 REVERT JUMPDEST PUSH2 0x32B PUSH1 0x4 DUP1 DUP1 CALLDATALOAD PUSH20 0xFFFFFFFFFFFFFFFFFFFFFFFFFFFFFFFFFFFFFFFF AND SWAP1 PUSH1 0x20 ADD SWAP1 SWAP2 SWAP1 POP POP PUSH2 0xDAF JUMP JUMPDEST STOP JUMPDEST CALLVALUE ISZERO PUSH2 0x338 JUMPI PUSH1 0x0 DUP1 REVERT JUMPDEST PUSH2 0x340 PUSH2 0xEA9 JUMP JUMPDEST PUSH1 0x40 MLOAD DUP1 DUP3 DUP2 MSTORE PUSH1 0x20 ADD SWAP2 POP POP PUSH1 0x40 MLOAD DUP1 SWAP2 SUB SWAP1 RETURN JUMPDEST CALLVALUE ISZERO PUSH2 0x361 JUMPI PUSH1 0x0 DUP1 REVERT JUMPDEST PUSH2 0x3B5 PUSH1 0x4 DUP1 DUP1 CALLDATALOAD PUSH20 0xFFFFFFFFFFFFFFFFFFFFFFFFFFFFFFFFFFFFFFFF AND SWAP1 PUSH1 0x20 ADD SWAP1 SWAP2 SWAP1 DUP1 CALLDATALOAD PUSH20 0xFFFFFFFFFFFFFFFFFFFFFFFFFFFFFFFFFFFFFFFF AND SWAP1 PUSH1 0x20 ADD SWAP1 SWAP2 SWAP1 DUP1 CALLDATALOAD SWAP1 PUSH1 0x20 ADD SWAP1 SWAP2 SWAP1 POP POP PUSH2 0xF79 JUMP JUMPDEST PUSH1 0x40 MLOAD DUP1 DUP3 ISZERO ISZERO ISZERO ISZERO DUP2 MSTORE PUSH1 0x20 ADD SWAP2 POP POP PUSH1 0x40 MLOAD DUP1 SWAP2 SUB SWAP1 RETURN JUMPDEST CALLVALUE ISZERO PUSH2 0x3DA JUMPI PUSH1 0x0 DUP1 REVERT JUMPDEST PUSH2 0x3E2 PUSH2 0x1171 JUMP JUMPDEST PUSH1 0x40 MLOAD DUP1 DUP3 PUSH20 0xFFFFFFFFFFFFFFFFFFFFFFFFFFFFFFFFFFFFFFFF AND PUSH20 0xFFFFFFFFFFFFFFFFFFFFFFFFFFFFFFFFFFFFFFFF AND DUP2 MSTORE PUSH1 0x20 ADD SWAP2 POP POP PUSH1 0x40 MLOAD DUP1 SWAP2 SUB SWAP1 RETURN JUMPDEST CALLVALUE ISZERO PUSH2 0x42F JUMPI PUSH1 0x0 DUP1 REVERT JUMPDEST PUSH2 0x437 PUSH2 0x1197 JUMP JUMPDEST PUSH1 0x40 MLOAD DUP1 DUP3 PUSH1 0xFF AND PUSH1 0xFF AND DUP2 MSTORE PUSH1 0x20 ADD SWAP2 POP POP PUSH1 0x40 MLOAD DUP1 SWAP2 SUB SWAP1 RETURN JUMPDEST CALLVALUE ISZERO PUSH2 0x45E JUMPI PUSH1 0x0 DUP1 REVERT JUMPDEST PUSH2 0x466 PUSH2 0x11AA JUMP JUMPDEST PUSH1 0x40 MLOAD DUP1 DUP3 DUP2 MSTORE PUSH1 0x20 ADD SWAP2 POP POP PUSH1 0x40 MLOAD DUP1 SWAP2 SUB SWAP1 RETURN JUMPDEST CALLVALUE ISZERO PUSH2 0x487 JUMPI PUSH1 0x0 DUP1 REVERT JUMPDEST PUSH2 0x48F PUSH2 0x11B0 JUMP JUMPDEST PUSH1 0x40 MLOAD DUP1 DUP3 DUP2 MSTORE PUSH1 0x20 ADD SWAP2 POP POP PUSH1 0x40 MLOAD DUP1 SWAP2 SUB SWAP1 RETURN JUMPDEST CALLVALUE ISZERO PUSH2 0x4B0 JUMPI PUSH1 0x0 DUP1 REVERT JUMPDEST PUSH2 0x4B8 PUSH2 0x11B6 JUMP JUMPDEST STOP JUMPDEST CALLVALUE ISZERO PUSH2 0x4C5 JUMPI PUSH1 0x0 DUP1 REVERT JUMPDEST PUSH2 0x4F1 PUSH1 0x4 DUP1 DUP1 CALLDATALOAD PUSH20 0xFFFFFFFFFFFFFFFFFFFFFFFFFFFFFFFFFFFFFFFF AND SWAP1 PUSH1 0x20 ADD SWAP1 SWAP2 SWAP1 POP POP PUSH2 0x1276 JUMP JUMPDEST PUSH1 0x40 MLOAD DUP1 DUP3 ISZERO ISZERO ISZERO ISZERO DUP2 MSTORE PUSH1 0x20 ADD SWAP2 POP POP PUSH1 0x40 MLOAD DUP1 SWAP2 SUB SWAP1 RETURN JUMPDEST CALLVALUE ISZERO PUSH2 0x516 JUMPI PUSH1 0x0 DUP1 REVERT JUMPDEST PUSH2 0x51E PUSH2 0x12CC JUMP JUMPDEST PUSH1 0x40 MLOAD DUP1 DUP3 ISZERO ISZERO ISZERO ISZERO DUP2 MSTORE PUSH1 0x20 ADD SWAP2 POP POP PUSH1 0x40 MLOAD DUP1 SWAP2 SUB SWAP1 RETURN JUMPDEST CALLVALUE ISZERO PUSH2 0x543 JUMPI PUSH1 0x0 DUP1 REVERT JUMPDEST PUSH2 0x578 PUSH1 0x4 DUP1 DUP1 CALLDATALOAD PUSH20 0xFFFFFFFFFFFFFFFFFFFFFFFFFFFFFFFFFFFFFFFF AND SWAP1 PUSH1 0x20 ADD SWAP1 SWAP2 SWAP1 DUP1 CALLDATALOAD SWAP1 PUSH1 0x20 ADD SWAP1 SWAP2 SWAP1 POP POP PUSH2 0x12DF JUMP JUMPDEST PUSH1 0x40 MLOAD DUP1 DUP3 ISZERO ISZERO ISZERO ISZERO DUP2 MSTORE PUSH1 0x20 ADD SWAP2 POP POP PUSH1 0x40 MLOAD DUP1 SWAP2 SUB SWAP1 RETURN JUMPDEST CALLVALUE ISZERO PUSH2 0x59D JUMPI PUSH1 0x0 DUP1 REVERT JUMPDEST PUSH2 0x5C9 PUSH1 0x4 DUP1 DUP1 CALLDATALOAD PUSH20 0xFFFFFFFFFFFFFFFFFFFFFFFFFFFFFFFFFFFFFFFF AND SWAP1 PUSH1 0x20 ADD SWAP1 SWAP2 SWAP1 POP POP PUSH2 0x1448 JUMP JUMPDEST PUSH1 0x40 MLOAD DUP1 DUP3 DUP2 MSTORE PUSH1 0x20 ADD SWAP2 POP POP PUSH1 0x40 MLOAD DUP1 SWAP2 SUB SWAP1 RETURN JUMPDEST CALLVALUE ISZERO PUSH2 0x5EA JUMPI PUSH1 0x0 DUP1 REVERT JUMPDEST PUSH2 0x600 PUSH1 0x4 DUP1 DUP1 CALLDATALOAD SWAP1 PUSH1 0x20 ADD SWAP1 SWAP2 SWAP1 POP POP PUSH2 0x1557 JUMP JUMPDEST PUSH1 0x40 MLOAD DUP1 DUP3 DUP2 MSTORE PUSH1 0x20 ADD SWAP2 POP POP PUSH1 0x40 MLOAD DUP1 SWAP2 SUB SWAP1 RETURN JUMPDEST CALLVALUE ISZERO PUSH2 0x621 JUMPI PUSH1 0x0 DUP1 REVERT JUMPDEST PUSH2 0x629 PUSH2 0x159E JUMP JUMPDEST STOP JUMPDEST CALLVALUE ISZERO PUSH2 0x636 JUMPI PUSH1 0x0 DUP1 REVERT JUMPDEST PUSH2 0x63E PUSH2 0x165F JUMP JUMPDEST PUSH1 0x40 MLOAD DUP1 DUP3 PUSH20 0xFFFFFFFFFFFFFFFFFFFFFFFFFFFFFFFFFFFFFFFF AND PUSH20 0xFFFFFFFFFFFFFFFFFFFFFFFFFFFFFFFFFFFFFFFF AND DUP2 MSTORE PUSH1 0x20 ADD SWAP2 POP POP PUSH1 0x40 MLOAD DUP1 SWAP2 SUB SWAP1 RETURN JUMPDEST CALLVALUE ISZERO PUSH2 0x68B JUMPI PUSH1 0x0 DUP1 REVERT JUMPDEST PUSH2 0x693 PUSH2 0x1685 JUMP JUMPDEST PUSH1 0x40 MLOAD DUP1 DUP1 PUSH1 0x20 ADD DUP3 DUP2 SUB DUP3 MSTORE DUP4 DUP2 DUP2 MLOAD DUP2 MSTORE PUSH1 0x20 ADD SWAP2 POP DUP1 MLOAD SWAP1 PUSH1 0x20 ADD SWAP1 DUP1 DUP4 DUP4 PUSH1 0x0 JUMPDEST DUP4 DUP2 LT ISZERO PUSH2 0x6D3 JUMPI DUP1 DUP3 ADD MLOAD DUP2 DUP5 ADD MSTORE PUSH1 0x20 DUP2 ADD SWAP1 POP PUSH2 0x6B8 JUMP JUMPDEST POP POP POP POP SWAP1 POP SWAP1 DUP2 ADD SWAP1 PUSH1 0x1F AND DUP1 ISZERO PUSH2 0x700 JUMPI DUP1 DUP3 SUB DUP1 MLOAD PUSH1 0x1 DUP4 PUSH1 0x20 SUB PUSH2 0x100 EXP SUB NOT AND DUP2 MSTORE PUSH1 0x20 ADD SWAP2 POP JUMPDEST POP SWAP3 POP POP POP PUSH1 0x40 MLOAD DUP1 SWAP2 SUB SWAP1 RETURN JUMPDEST CALLVALUE ISZERO PUSH2 0x719 JUMPI PUSH1 0x0 DUP1 REVERT JUMPDEST PUSH2 0x74E PUSH1 0x4 DUP1 DUP1 CALLDATALOAD PUSH20 0xFFFFFFFFFFFFFFFFFFFFFFFFFFFFFFFFFFFFFFFF AND SWAP1 PUSH1 0x20 ADD SWAP1 SWAP2 SWAP1 DUP1 CALLDATALOAD SWAP1 PUSH1 0x20 ADD SWAP1 SWAP2 SWAP1 POP POP PUSH2 0x1723 JUMP JUMPDEST PUSH1 0x40 MLOAD DUP1 DUP3 ISZERO ISZERO ISZERO ISZERO DUP2 MSTORE PUSH1 0x20 ADD SWAP2 POP POP PUSH1 0x40 MLOAD DUP1 SWAP2 SUB SWAP1 RETURN JUMPDEST CALLVALUE ISZERO PUSH2 0x773 JUMPI PUSH1 0x0 DUP1 REVERT JUMPDEST PUSH2 0x79F PUSH1 0x4 DUP1 DUP1 CALLDATALOAD PUSH20 0xFFFFFFFFFFFFFFFFFFFFFFFFFFFFFFFFFFFFFFFF AND SWAP1 PUSH1 0x20 ADD SWAP1 SWAP2 SWAP1 POP POP PUSH2 0x18E5 JUMP JUMPDEST PUSH1 0x40 MLOAD DUP1 DUP3 DUP2 MSTORE PUSH1 0x20 ADD SWAP2 POP POP PUSH1 0x40 MLOAD DUP1 SWAP2 SUB SWAP1 RETURN JUMPDEST CALLVALUE ISZERO PUSH2 0x7C0 JUMPI PUSH1 0x0 DUP1 REVERT JUMPDEST PUSH2 0x7DF PUSH1 0x4 DUP1 DUP1 CALLDATALOAD SWAP1 PUSH1 0x20 ADD SWAP1 SWAP2 SWAP1 DUP1 CALLDATALOAD SWAP1 PUSH1 0x20 ADD SWAP1 SWAP2 SWAP1 POP POP PUSH2 0x1912 JUMP JUMPDEST STOP JUMPDEST CALLVALUE ISZERO PUSH2 0x7EC JUMPI PUSH1 0x0 DUP1 REVERT JUMPDEST PUSH2 0x802 PUSH1 0x4 DUP1 DUP1 CALLDATALOAD SWAP1 PUSH1 0x20 ADD SWAP1 SWAP2 SWAP1 POP POP PUSH2 0x1A08 JUMP JUMPDEST STOP JUMPDEST CALLVALUE ISZERO PUSH2 0x80F JUMPI PUSH1 0x0 DUP1 REVERT JUMPDEST PUSH2 0x844 PUSH1 0x4 DUP1 DUP1 CALLDATALOAD PUSH20 0xFFFFFFFFFFFFFFFFFFFFFFFFFFFFFFFFFFFFFFFF AND SWAP1 PUSH1 0x20 ADD SWAP1 SWAP2 SWAP1 DUP1 CALLDATALOAD SWAP1 PUSH1 0x20 ADD SWAP1 SWAP2 SWAP1 POP POP PUSH2 0x1C18 JUMP JUMPDEST PUSH1 0x40 MLOAD DUP1 DUP3 ISZERO ISZERO ISZERO ISZERO DUP2 MSTORE PUSH1 0x20 ADD SWAP2 POP POP PUSH1 0x40 MLOAD DUP1 SWAP2 SUB SWAP1 RETURN JUMPDEST CALLVALUE ISZERO PUSH2 0x869 JUMPI PUSH1 0x0 DUP1 REVERT JUMPDEST PUSH2 0x87F PUSH1 0x4 DUP1 DUP1 CALLDATALOAD SWAP1 PUSH1 0x20 ADD SWAP1 SWAP2 SWAP1 POP POP PUSH2 0x1D81 JUMP JUMPDEST STOP JUMPDEST CALLVALUE ISZERO PUSH2 0x88C JUMPI PUSH1 0x0 DUP1 REVERT JUMPDEST PUSH2 0x8D7 PUSH1 0x4 DUP1 DUP1 CALLDATALOAD PUSH20 0xFFFFFFFFFFFFFFFFFFFFFFFFFFFFFFFFFFFFFFFF AND SWAP1 PUSH1 0x20 ADD SWAP1 SWAP2 SWAP1 DUP1 CALLDATALOAD PUSH20 0xFFFFFFFFFFFFFFFFFFFFFFFFFFFFFFFFFFFFFFFF AND SWAP1 PUSH1 0x20 ADD SWAP1 SWAP2 SWAP1 POP POP PUSH2 0x1F91 JUMP JUMPDEST PUSH1 0x40 MLOAD DUP1 DUP3 DUP2 MSTORE PUSH1 0x20 ADD SWAP2 POP POP PUSH1 0x40 MLOAD DUP1 SWAP2 SUB SWAP1 RETURN JUMPDEST CALLVALUE ISZERO PUSH2 0x8F8 JUMPI PUSH1 0x0 DUP1 REVERT JUMPDEST PUSH2 0x900 PUSH2 0x20D6 JUMP JUMPDEST PUSH1 0x40 MLOAD DUP1 DUP3 DUP2 MSTORE PUSH1 0x20 ADD SWAP2 POP POP PUSH1 0x40 MLOAD DUP1 SWAP2 SUB SWAP1 RETURN JUMPDEST CALLVALUE ISZERO PUSH2 0x921 JUMPI PUSH1 0x0 DUP1 REVERT JUMPDEST PUSH2 0x94D PUSH1 0x4 DUP1 DUP1 CALLDATALOAD PUSH20 0xFFFFFFFFFFFFFFFFFFFFFFFFFFFFFFFFFFFFFFFF AND SWAP1 PUSH1 0x20 ADD SWAP1 SWAP2 SWAP1 POP POP PUSH2 0x20DC JUMP JUMPDEST PUSH1 0x40 MLOAD DUP1 DUP3 ISZERO ISZERO ISZERO ISZERO DUP2 MSTORE PUSH1 0x20 ADD SWAP2 POP POP PUSH1 0x40 MLOAD DUP1 SWAP2 SUB SWAP1 RETURN JUMPDEST CALLVALUE ISZERO PUSH2 0x972 JUMPI PUSH1 0x0 DUP1 REVERT JUMPDEST PUSH2 0x99E PUSH1 0x4 DUP1 DUP1 CALLDATALOAD PUSH20 0xFFFFFFFFFFFFFFFFFFFFFFFFFFFFFFFFFFFFFFFF AND SWAP1 PUSH1 0x20 ADD SWAP1 SWAP2 SWAP1 POP POP PUSH2 0x20FC JUMP JUMPDEST STOP JUMPDEST CALLVALUE ISZERO PUSH2 0x9AB JUMPI PUSH1 0x0 DUP1 REVERT JUMPDEST PUSH2 0x9B3 PUSH2 0x21F6 JUMP JUMPDEST PUSH1 0x40 MLOAD DUP1 DUP3 DUP2 MSTORE PUSH1 0x20 ADD SWAP2 POP POP PUSH1 0x40 MLOAD DUP1 SWAP2 SUB SWAP1 RETURN JUMPDEST CALLVALUE ISZERO PUSH2 0x9D4 JUMPI PUSH1 0x0 DUP1 REVERT JUMPDEST PUSH2 0xA00 PUSH1 0x4 DUP1 DUP1 CALLDATALOAD PUSH20 0xFFFFFFFFFFFFFFFFFFFFFFFFFFFFFFFFFFFFFFFF AND SWAP1 PUSH1 0x20 ADD SWAP1 SWAP2 SWAP1 POP POP PUSH2 0x221A JUMP JUMPDEST STOP JUMPDEST CALLVALUE ISZERO PUSH2 0xA0D JUMPI PUSH1 0x0 DUP1 REVERT JUMPDEST PUSH2 0xA39 PUSH1 0x4 DUP1 DUP1 CALLDATALOAD PUSH20 0xFFFFFFFFFFFFFFFFFFFFFFFFFFFFFFFFFFFFFFFF AND SWAP1 PUSH1 0x20 ADD SWAP1 SWAP2 SWAP1 POP POP PUSH2 0x2372 JUMP JUMPDEST STOP JUMPDEST PUSH1 0x5 DUP1 SLOAD PUSH1 0x1 DUP2 PUSH1 0x1 AND ISZERO PUSH2 0x100 MUL SUB AND PUSH1 0x2 SWAP1 DIV DUP1 PUSH1 0x1F ADD PUSH1 0x20 DUP1 SWAP2 DIV MUL PUSH1 0x20 ADD PUSH1 0x40 MLOAD SWAP1 DUP2 ADD PUSH1 0x40 MSTORE DUP1 SWAP3 SWAP2 SWAP1 DUP2 DUP2 MSTORE PUSH1 0x20 ADD DUP3 DUP1 SLOAD PUSH1 0x1 DUP2 PUSH1 0x1 AND ISZERO PUSH2 0x100 MUL SUB AND PUSH1 0x2 SWAP1 DIV DUP1 ISZERO PUSH2 0xAD1 JUMPI DUP1 PUSH1 0x1F LT PUSH2 0xAA6 JUMPI PUSH2 0x100 DUP1 DUP4 SLOAD DIV MUL DUP4 MSTORE SWAP2 PUSH1 0x20 ADD SWAP2 PUSH2 0xAD1 JUMP JUMPDEST DUP3 ADD SWAP2 SWAP1 PUSH1 0x0 MSTORE PUSH1 0x20 PUSH1 0x0 KECCAK256 SWAP1 JUMPDEST DUP2 SLOAD DUP2 MSTORE SWAP1 PUSH1 0x1 ADD SWAP1 PUSH1 0x20 ADD DUP1 DUP4 GT PUSH2 0xAB4 JUMPI DUP3 SWAP1 SUB PUSH1 0x1F AND DUP3 ADD SWAP2 JUMPDEST POP POP POP POP POP DUP2 JUMP JUMPDEST PUSH1 0x2 PUSH1 0x0 SWAP1 SLOAD SWAP1 PUSH2 0x100 EXP SWAP1 DIV PUSH20 0xFFFFFFFFFFFFFFFFFFFFFFFFFFFFFFFFFFFFFFFF AND PUSH20 0xFFFFFFFFFFFFFFFFFFFFFFFFFFFFFFFFFFFFFFFF AND CALLER PUSH20 0xFFFFFFFFFFFFFFFFFFFFFFFFFFFFFFFFFFFFFFFF AND EQ ISZERO ISZERO PUSH2 0xB35 JUMPI PUSH1 0x0 DUP1 REVERT JUMPDEST PUSH1 0x0 PUSH20 0xFFFFFFFFFFFFFFFFFFFFFFFFFFFFFFFFFFFFFFFF AND DUP2 PUSH20 0xFFFFFFFFFFFFFFFFFFFFFFFFFFFFFFFFFFFFFFFF AND EQ ISZERO ISZERO ISZERO PUSH2 0xB71 JUMPI PUSH1 0x0 DUP1 REVERT JUMPDEST PUSH1 0x1 PUSH1 0xA PUSH1 0x14 PUSH2 0x100 EXP DUP2 SLOAD DUP2 PUSH1 0xFF MUL NOT AND SWAP1 DUP4 ISZERO ISZERO MUL OR SWAP1 SSTORE POP DUP1 PUSH1 0xA PUSH1 0x0 PUSH2 0x100 EXP DUP2 SLOAD DUP2 PUSH20 0xFFFFFFFFFFFFFFFFFFFFFFFFFFFFFFFFFFFFFFFF MUL NOT AND SWAP1 DUP4 PUSH20 0xFFFFFFFFFFFFFFFFFFFFFFFFFFFFFFFFFFFFFFFF AND MUL OR SWAP1 SSTORE POP PUSH32 0xCC358699805E9A8B7F77B522628C7CB9ABD07D9EFB86B6FB616AF1609036A99E DUP2 PUSH1 0x40 MLOAD DUP1 DUP3 PUSH20 0xFFFFFFFFFFFFFFFFFFFFFFFFFFFFFFFFFFFFFFFF AND PUSH20 0xFFFFFFFFFFFFFFFFFFFFFFFFFFFFFFFFFFFFFFFF AND DUP2 MSTORE PUSH1 0x20 ADD SWAP2 POP POP PUSH1 0x40 MLOAD DUP1 SWAP2 SUB SWAP1 LOG1 POP JUMP JUMPDEST PUSH1 0x0 PUSH1 0x2 PUSH1 0x14 SWAP1 SLOAD SWAP1 PUSH2 0x100 EXP SWAP1 DIV PUSH1 0xFF AND ISZERO ISZERO ISZERO PUSH2 0xC51 JUMPI PUSH1 0x0 DUP1 REVERT JUMPDEST PUSH1 0xA PUSH1 0x14 SWAP1 SLOAD SWAP1 PUSH2 0x100 EXP SWAP1 DIV PUSH1 0xFF AND ISZERO PUSH2 0xD89 JUMPI PUSH1 0xA PUSH1 0x0 SWAP1 SLOAD SWAP1 PUSH2 0x100 EXP SWAP1 DIV PUSH20 0xFFFFFFFFFFFFFFFFFFFFFFFFFFFFFFFFFFFFFFFF AND PUSH20 0xFFFFFFFFFFFFFFFFFFFFFFFFFFFFFFFFFFFFFFFF AND PUSH4 0xAEE92D33 CALLER DUP6 DUP6 PUSH1 0x0 PUSH1 0x40 MLOAD PUSH1 0x20 ADD MSTORE PUSH1 0x40 MLOAD DUP5 PUSH4 0xFFFFFFFF AND PUSH29 0x100000000000000000000000000000000000000000000000000000000 MUL DUP2 MSTORE PUSH1 0x4 ADD DUP1 DUP5 PUSH20 0xFFFFFFFFFFFFFFFFFFFFFFFFFFFFFFFFFFFFFFFF AND PUSH20 0xFFFFFFFFFFFFFFFFFFFFFFFFFFFFFFFFFFFFFFFF AND DUP2 MSTORE PUSH1 0x20 ADD DUP4 PUSH20 0xFFFFFFFFFFFFFFFFFFFFFFFFFFFFFFFFFFFFFFFF AND PUSH20 0xFFFFFFFFFFFFFFFFFFFFFFFFFFFFFFFFFFFFFFFF AND DUP2 MSTORE PUSH1 0x20 ADD DUP3 DUP2 MSTORE PUSH1 0x20 ADD SWAP4 POP POP POP POP PUSH1 0x20 PUSH1 0x40 MLOAD DUP1 DUP4 SUB DUP2 PUSH1 0x0 DUP8 DUP1 EXTCODESIZE ISZERO ISZERO PUSH2 0xD67 JUMPI PUSH1 0x0 DUP1 REVERT JUMPDEST PUSH2 0x2C6 GAS SUB CALL ISZERO ISZERO PUSH2 0xD78 JUMPI PUSH1 0x0 DUP1 REVERT JUMPDEST POP POP POP PUSH1 0x40 MLOAD DUP1 MLOAD SWAP1 POP SWAP1 POP PUSH2 0xD96 JUMP JUMPDEST PUSH2 0xD93 DUP4 DUP4 PUSH2 0x24E4 JUMP JUMPDEST SWAP1 POP JUMPDEST SWAP3 SWAP2 POP POP JUMP JUMPDEST PUSH1 0xA PUSH1 0x14 SWAP1 SLOAD SWAP1 PUSH2 0x100 EXP SWAP1 DIV PUSH1 0xFF AND DUP2 JUMP JUMPDEST PUSH1 0x2 PUSH1 0x0 SWAP1 SLOAD SWAP1 PUSH2 0x100 EXP SWAP1 DIV PUSH20 0xFFFFFFFFFFFFFFFFFFFFFFFFFFFFFFFFFFFFFFFF AND PUSH20 0xFFFFFFFFFFFFFFFFFFFFFFFFFFFFFFFFFFFFFFFF AND CALLER PUSH20 0xFFFFFFFFFFFFFFFFFFFFFFFFFFFFFFFFFFFFFFFF AND EQ ISZERO ISZERO PUSH2 0xE0B JUMPI PUSH1 0x0 DUP1 REVERT JUMPDEST PUSH1 0x1 PUSH1 0x9 PUSH1 0x0 DUP4 PUSH20 0xFFFFFFFFFFFFFFFFFFFFFFFFFFFFFFFFFFFFFFFF AND PUSH20 0xFFFFFFFFFFFFFFFFFFFFFFFFFFFFFFFFFFFFFFFF AND DUP2 MSTORE PUSH1 0x20 ADD SWAP1 DUP2 MSTORE PUSH1 0x20 ADD PUSH1 0x0 KECCAK256 PUSH1 0x0 PUSH2 0x100 EXP DUP2 SLOAD DUP2 PUSH1 0xFF MUL NOT AND SWAP1 DUP4 ISZERO ISZERO MUL OR SWAP1 SSTORE POP DUP1 PUSH20 0xFFFFFFFFFFFFFFFFFFFFFFFFFFFFFFFFFFFFFFFF AND PUSH32 0x42E160154868087D6BFDC0CA23D96A1C1CFA32F1B72BA9BA27B69B98A0D819DC PUSH1 0x40 MLOAD PUSH1 0x40 MLOAD DUP1 SWAP2 SUB SWAP1 LOG2 POP JUMP JUMPDEST PUSH1 0x0 PUSH1 0xA PUSH1 0x14 SWAP1 SLOAD SWAP1 PUSH2 0x100 EXP SWAP1 DIV PUSH1 0xFF AND ISZERO PUSH2 0xF70 JUMPI PUSH1 0xA PUSH1 0x0 SWAP1 SLOAD SWAP1 PUSH2 0x100 EXP SWAP1 DIV PUSH20 0xFFFFFFFFFFFFFFFFFFFFFFFFFFFFFFFFFFFFFFFF AND PUSH20 0xFFFFFFFFFFFFFFFFFFFFFFFFFFFFFFFFFFFFFFFF AND PUSH4 0x18160DDD PUSH1 0x0 PUSH1 0x40 MLOAD PUSH1 0x20 ADD MSTORE PUSH1 0x40 MLOAD DUP2 PUSH4 0xFFFFFFFF AND PUSH29 0x100000000000000000000000000000000000000000000000000000000 MUL DUP2 MSTORE PUSH1 0x4 ADD PUSH1 0x20 PUSH1 0x40 MLOAD DUP1 DUP4 SUB DUP2 PUSH1 0x0 DUP8 DUP1 EXTCODESIZE ISZERO ISZERO PUSH2 0xF4E JUMPI PUSH1 0x0 DUP1 REVERT JUMPDEST PUSH2 0x2C6 GAS SUB CALL ISZERO ISZERO PUSH2 0xF5F JUMPI PUSH1 0x0 DUP1 REVERT JUMPDEST POP POP POP PUSH1 0x40 MLOAD DUP1 MLOAD SWAP1 POP SWAP1 POP PUSH2 0xF76 JUMP JUMPDEST PUSH1 0x8 SLOAD SWAP1 POP JUMPDEST SWAP1 JUMP JUMPDEST PUSH1 0x0 PUSH1 0x2 PUSH1 0x14 SWAP1 SLOAD SWAP1 PUSH2 0x100 EXP SWAP1 DIV PUSH1 0xFF AND ISZERO ISZERO ISZERO PUSH2 0xF97 JUMPI PUSH1 0x0 DUP1 REVERT JUMPDEST PUSH1 0x9 PUSH1 0x0 DUP6 PUSH20 0xFFFFFFFFFFFFFFFFFFFFFFFFFFFFFFFFFFFFFFFF AND PUSH20 0xFFFFFFFFFFFFFFFFFFFFFFFFFFFFFFFFFFFFFFFF AND DUP2 MSTORE PUSH1 0x20 ADD SWAP1 DUP2 MSTORE PUSH1 0x20 ADD PUSH1 0x0 KECCAK256 PUSH1 0x0 SWAP1 SLOAD SWAP1 PUSH2 0x100 EXP SWAP1 DIV PUSH1 0xFF AND ISZERO ISZERO ISZERO PUSH2 0xFF0 JUMPI PUSH1 0x0 DUP1 REVERT JUMPDEST PUSH1 0xA PUSH1 0x14 SWAP1 SLOAD SWAP1 PUSH2 0x100 EXP SWAP1 DIV PUSH1 0xFF AND ISZERO PUSH2 0x115C JUMPI PUSH1 0xA PUSH1 0x0 SWAP1 SLOAD SWAP1 PUSH2 0x100 EXP SWAP1 DIV PUSH20 0xFFFFFFFFFFFFFFFFFFFFFFFFFFFFFFFFFFFFFFFF AND PUSH20 0xFFFFFFFFFFFFFFFFFFFFFFFFFFFFFFFFFFFFFFFF AND PUSH4 0x8B477ADB CALLER DUP7 DUP7 DUP7 PUSH1 0x0 PUSH1 0x40 MLOAD PUSH1 0x20 ADD MSTORE PUSH1 0x40 MLOAD DUP6 PUSH4 0xFFFFFFFF AND PUSH29 0x100000000000000000000000000000000000000000000000000000000 MUL DUP2 MSTORE PUSH1 0x4 ADD DUP1 DUP6 PUSH20 0xFFFFFFFFFFFFFFFFFFFFFFFFFFFFFFFFFFFFFFFF AND PUSH20 0xFFFFFFFFFFFFFFFFFFFFFFFFFFFFFFFFFFFFFFFF AND DUP2 MSTORE PUSH1 0x20 ADD DUP5 PUSH20 0xFFFFFFFFFFFFFFFFFFFFFFFFFFFFFFFFFFFFFFFF AND PUSH20 0xFFFFFFFFFFFFFFFFFFFFFFFFFFFFFFFFFFFFFFFF AND DUP2 MSTORE PUSH1 0x20 ADD DUP4 PUSH20 0xFFFFFFFFFFFFFFFFFFFFFFFFFFFFFFFFFFFFFFFF AND PUSH20 0xFFFFFFFFFFFFFFFFFFFFFFFFFFFFFFFFFFFFFFFF AND DUP2 MSTORE PUSH1 0x20 ADD DUP3 DUP2 MSTORE PUSH1 0x20 ADD SWAP5 POP POP POP POP POP PUSH1 0x20 PUSH1 0x40 MLOAD DUP1 DUP4 SUB DUP2 PUSH1 0x0 DUP8 DUP1 EXTCODESIZE ISZERO ISZERO PUSH2 0x113A JUMPI PUSH1 0x0 DUP1 REVERT JUMPDEST PUSH2 0x2C6 GAS SUB CALL ISZERO ISZERO PUSH2 0x114B JUMPI PUSH1 0x0 DUP1 REVERT JUMPDEST POP POP POP PUSH1 0x40 MLOAD DUP1 MLOAD SWAP1 POP SWAP1 POP PUSH2 0x116A JUMP JUMPDEST PUSH2 0x1167 DUP5 DUP5 DUP5 PUSH2 0x25D6 JUMP JUMPDEST SWAP1 POP JUMPDEST SWAP4 SWAP3 POP POP POP JUMP JUMPDEST PUSH1 0xA PUSH1 0x0 SWAP1 SLOAD SWAP1 PUSH2 0x100 EXP SWAP1 DIV PUSH20 0xFFFFFFFFFFFFFFFFFFFFFFFFFFFFFFFFFFFFFFFF AND DUP2 JUMP JUMPDEST PUSH1 0x7 PUSH1 0x0 SWAP1 SLOAD SWAP1 PUSH2 0x100 EXP SWAP1 DIV PUSH1 0xFF AND DUP2 JUMP JUMPDEST PUSH1 0x4 SLOAD DUP2 JUMP JUMPDEST PUSH1 0x8 SLOAD DUP2 JUMP JUMPDEST PUSH1 0x2 PUSH1 0x0 SWAP1 SLOAD SWAP1 PUSH2 0x100 EXP SWAP1 DIV PUSH20 0xFFFFFFFFFFFFFFFFFFFFFFFFFFFFFFFFFFFFFFFF AND PUSH20 0xFFFFFFFFFFFFFFFFFFFFFFFFFFFFFFFFFFFFFFFF AND CALLER PUSH20 0xFFFFFFFFFFFFFFFFFFFFFFFFFFFFFFFFFFFFFFFF AND EQ ISZERO ISZERO PUSH2 0x1212 JUMPI PUSH1 0x0 DUP1 REVERT JUMPDEST PUSH1 0x2 PUSH1 0x14 SWAP1 SLOAD SWAP1 PUSH2 0x100 EXP SWAP1 DIV PUSH1 0xFF AND ISZERO ISZERO PUSH2 0x122D JUMPI PUSH1 0x0 DUP1 REVERT JUMPDEST PUSH1 0x0 PUSH1 0x2 PUSH1 0x14 PUSH2 0x100 EXP DUP2 SLOAD DUP2 PUSH1 0xFF MUL NOT AND SWAP1 DUP4 ISZERO ISZERO MUL OR SWAP1 SSTORE POP PUSH32 0x7805862F689E2F13DF9F062FF482AD3AD112ACA9E0847911ED832E158C525B33 PUSH1 0x40 MLOAD PUSH1 0x40 MLOAD DUP1 SWAP2 SUB SWAP1 LOG1 JUMP JUMPDEST PUSH1 0x0 PUSH1 0x9 PUSH1 0x0 DUP4 PUSH20 0xFFFFFFFFFFFFFFFFFFFFFFFFFFFFFFFFFFFFFFFF AND PUSH20 0xFFFFFFFFFFFFFFFFFFFFFFFFFFFFFFFFFFFFFFFF AND DUP2 MSTORE PUSH1 0x20 ADD SWAP1 DUP2 MSTORE PUSH1 0x20 ADD PUSH1 0x0 KECCAK256 PUSH1 0x0 SWAP1 SLOAD SWAP1 PUSH2 0x100 EXP SWAP1 DIV PUSH1 0xFF AND SWAP1 POP SWAP2 SWAP1 POP JUMP JUMPDEST PUSH1 0x2 PUSH1 0x14 SWAP1 SLOAD SWAP1 PUSH2 0x100 EXP SWAP1 DIV PUSH1 0xFF AND DUP2 JUMP JUMPDEST PUSH1 0x0 PUSH1 0x2 PUSH1 0x14 SWAP1 SLOAD SWAP1 PUSH2 0x100 EXP SWAP1 DIV PUSH1 0xFF AND ISZERO ISZERO ISZERO PUSH2 0x12FD JUMPI PUSH1 0x0 DUP1 REVERT JUMPDEST PUSH1 0xA PUSH1 0x14 SWAP1 SLOAD SWAP1 PUSH2 0x100 EXP SWAP1 DIV PUSH1 0xFF AND ISZERO PUSH2 0x1435 JUMPI PUSH1 0xA PUSH1 0x0 SWAP1 SLOAD SWAP1 PUSH2 0x100 EXP SWAP1 DIV PUSH20 0xFFFFFFFFFFFFFFFFFFFFFFFFFFFFFFFFFFFFFFFF AND PUSH20 0xFFFFFFFFFFFFFFFFFFFFFFFFFFFFFFFFFFFFFFFF AND PUSH4 0x6001279F CALLER DUP6 DUP6 PUSH1 0x0 PUSH1 0x40 MLOAD PUSH1 0x20 ADD MSTORE PUSH1 0x40 MLOAD DUP5 PUSH4 0xFFFFFFFF AND PUSH29 0x100000000000000000000000000000000000000000000000000000000 MUL DUP2 MSTORE PUSH1 0x4 ADD DUP1 DUP5 PUSH20 0xFFFFFFFFFFFFFFFFFFFFFFFFFFFFFFFFFFFFFFFF AND PUSH20 0xFFFFFFFFFFFFFFFFFFFFFFFFFFFFFFFFFFFFFFFF AND DUP2 MSTORE PUSH1 0x20 ADD DUP4 PUSH20 0xFFFFFFFFFFFFFFFFFFFFFFFFFFFFFFFFFFFFFFFF AND PUSH20 0xFFFFFFFFFFFFFFFFFFFFFFFFFFFFFFFFFFFFFFFF AND DUP2 MSTORE PUSH1 0x20 ADD DUP3 DUP2 MSTORE PUSH1 0x20 ADD SWAP4 POP POP POP POP PUSH1 0x20 PUSH1 0x40 MLOAD DUP1 DUP4 SUB DUP2 PUSH1 0x0 DUP8 DUP1 EXTCODESIZE ISZERO ISZERO PUSH2 0x1413 JUMPI PUSH1 0x0 DUP1 REVERT JUMPDEST PUSH2 0x2C6 GAS SUB CALL ISZERO ISZERO PUSH2 0x1424 JUMPI PUSH1 0x0 DUP1 REVERT JUMPDEST POP POP POP PUSH1 0x40 MLOAD DUP1 MLOAD SWAP1 POP SWAP1 POP PUSH2 0x1442 JUMP JUMPDEST PUSH2 0x143F DUP4 DUP4 PUSH2 0x2BC2 JUMP JUMPDEST SWAP1 POP JUMPDEST SWAP3 SWAP2 POP POP JUMP JUMPDEST PUSH1 0x0 PUSH1 0xA PUSH1 0x14 SWAP1 SLOAD SWAP1 PUSH2 0x100 EXP SWAP1 DIV PUSH1 0xFF AND ISZERO PUSH2 0x1546 JUMPI PUSH1 0xA PUSH1 0x0 SWAP1 SLOAD SWAP1 PUSH2 0x100 EXP SWAP1 DIV PUSH20 0xFFFFFFFFFFFFFFFFFFFFFFFFFFFFFFFFFFFFFFFF AND PUSH20 0xFFFFFFFFFFFFFFFFFFFFFFFFFFFFFFFFFFFFFFFF AND PUSH4 0x70A08231 DUP4 PUSH1 0x0 PUSH1 0x40 MLOAD PUSH1 0x20 ADD MSTORE PUSH1 0x40 MLOAD DUP3 PUSH4 0xFFFFFFFF AND PUSH29 0x100000000000000000000000000000000000000000000000000000000 MUL DUP2 MSTORE PUSH1 0x4 ADD DUP1 DUP3 PUSH20 0xFFFFFFFFFFFFFFFFFFFFFFFFFFFFFFFFFFFFFFFF AND PUSH20 0xFFFFFFFFFFFFFFFFFFFFFFFFFFFFFFFFFFFFFFFF AND DUP2 MSTORE PUSH1 0x20 ADD SWAP2 POP POP PUSH1 0x20 PUSH1 0x40 MLOAD DUP1 DUP4 SUB DUP2 PUSH1 0x0 DUP8 DUP1 EXTCODESIZE ISZERO ISZERO PUSH2 0x1524 JUMPI PUSH1 0x0 DUP1 REVERT JUMPDEST PUSH2 0x2C6 GAS SUB CALL ISZERO ISZERO PUSH2 0x1535 JUMPI PUSH1 0x0 DUP1 REVERT JUMPDEST POP POP POP PUSH1 0x40 MLOAD DUP1 MLOAD SWAP1 POP SWAP1 POP PUSH2 0x1552 JUMP JUMPDEST PUSH2 0x154F DUP3 PUSH2 0x2E53 JUMP JUMPDEST SWAP1 POP JUMPDEST SWAP2 SWAP1 POP JUMP JUMPDEST PUSH1 0x0 DUP1 PUSH2 0x1583 PUSH2 0x2710 PUSH2 0x1575 PUSH1 0x3 SLOAD DUP7 PUSH2 0x2E9B SWAP1 SWAP2 SWAP1 PUSH4 0xFFFFFFFF AND JUMP JUMPDEST PUSH2 0x2ED6 SWAP1 SWAP2 SWAP1 PUSH4 0xFFFFFFFF AND JUMP JUMPDEST SWAP1 POP PUSH1 0x4 SLOAD DUP2 GT ISZERO PUSH2 0x1595 JUMPI PUSH1 0x4 SLOAD SWAP1 POP JUMPDEST DUP1 SWAP2 POP POP SWAP2 SWAP1 POP JUMP JUMPDEST PUSH1 0x2 PUSH1 0x0 SWAP1 SLOAD SWAP1 PUSH2 0x100 EXP SWAP1 DIV PUSH20 0xFFFFFFFFFFFFFFFFFFFFFFFFFFFFFFFFFFFFFFFF AND PUSH20 0xFFFFFFFFFFFFFFFFFFFFFFFFFFFFFFFFFFFFFFFF AND CALLER PUSH20 0xFFFFFFFFFFFFFFFFFFFFFFFFFFFFFFFFFFFFFFFF AND EQ ISZERO ISZERO PUSH2 0x15FA JUMPI PUSH1 0x0 DUP1 REVERT JUMPDEST PUSH1 0x2 PUSH1 0x14 SWAP1 SLOAD SWAP1 PUSH2 0x100 EXP SWAP1 DIV PUSH1 0xFF AND ISZERO ISZERO ISZERO PUSH2 0x1616 JUMPI PUSH1 0x0 DUP1 REVERT JUMPDEST PUSH1 0x1 PUSH1 0x2 PUSH1 0x14 PUSH2 0x100 EXP DUP2 SLOAD DUP2 PUSH1 0xFF MUL NOT AND SWAP1 DUP4 ISZERO ISZERO MUL OR SWAP1 SSTORE POP PUSH32 0x6985A02210A168E66602D3235CB6DB0E70F92B3BA4D376A33C0F3D9434BFF625 PUSH1 0x40 MLOAD PUSH1 0x40 MLOAD DUP1 SWAP2 SUB SWAP1 LOG1 JUMP JUMPDEST PUSH1 0x2 PUSH1 0x0 SWAP1 SLOAD SWAP1 PUSH2 0x100 EXP SWAP1 DIV PUSH20 0xFFFFFFFFFFFFFFFFFFFFFFFFFFFFFFFFFFFFFFFF AND DUP2 JUMP JUMPDEST PUSH1 0x6 DUP1 SLOAD PUSH1 0x1 DUP2 PUSH1 0x1 AND ISZERO PUSH2 0x100 MUL SUB AND PUSH1 0x2 SWAP1 DIV DUP1 PUSH1 0x1F ADD PUSH1 0x20 DUP1 SWAP2 DIV MUL PUSH1 0x20 ADD PUSH1 0x40 MLOAD SWAP1 DUP2 ADD PUSH1 0x40 MSTORE DUP1 SWAP3 SWAP2 SWAP1 DUP2 DUP2 MSTORE PUSH1 0x20 ADD DUP3 DUP1 SLOAD PUSH1 0x1 DUP2 PUSH1 0x1 AND ISZERO PUSH2 0x100 MUL SUB AND PUSH1 0x2 SWAP1 DIV DUP1 ISZERO PUSH2 0x171B JUMPI DUP1 PUSH1 0x1F LT PUSH2 0x16F0 JUMPI PUSH2 0x100 DUP1 DUP4 SLOAD DIV MUL DUP4 MSTORE SWAP2 PUSH1 0x20 ADD SWAP2 PUSH2 0x171B JUMP JUMPDEST DUP3 ADD SWAP2 SWAP1 PUSH1 0x0 MSTORE PUSH1 0x20 PUSH1 0x0 KECCAK256 SWAP1 JUMPDEST DUP2 SLOAD DUP2 MSTORE SWAP1 PUSH1 0x1 ADD SWAP1 PUSH1 0x20 ADD DUP1 DUP4 GT PUSH2 0x16FE JUMPI DUP3 SWAP1 SUB PUSH1 0x1F AND DUP3 ADD SWAP2 JUMPDEST POP POP POP POP POP DUP2 JUMP JUMPDEST PUSH1 0x0 PUSH1 0x2 PUSH1 0x14 SWAP1 SLOAD SWAP1 PUSH2 0x100 EXP SWAP1 DIV PUSH1 0xFF AND ISZERO ISZERO ISZERO PUSH2 0x1741 JUMPI PUSH1 0x0 DUP1 REVERT JUMPDEST PUSH1 0x9 PUSH1 0x0 CALLER PUSH20 0xFFFFFFFFFFFFFFFFFFFFFFFFFFFFFFFFFFFFFFFF AND PUSH20 0xFFFFFFFFFFFFFFFFFFFFFFFFFFFFFFFFFFFFFFFF AND DUP2 MSTORE PUSH1 0x20 ADD SWAP1 DUP2 MSTORE PUSH1 0x20 ADD PUSH1 0x0 KECCAK256 PUSH1 0x0 SWAP1 SLOAD SWAP1 PUSH2 0x100 EXP SWAP1 DIV PUSH1 0xFF AND ISZERO ISZERO ISZERO PUSH2 0x179A JUMPI PUSH1 0x0 DUP1 REVERT JUMPDEST PUSH1 0xA PUSH1 0x14 SWAP1 SLOAD SWAP1 PUSH2 0x100 EXP SWAP1 DIV PUSH1 0xFF AND ISZERO PUSH2 0x18D2 JUMPI PUSH1 0xA PUSH1 0x0 SWAP1 SLOAD SWAP1 PUSH2 0x100 EXP SWAP1 DIV PUSH20 0xFFFFFFFFFFFFFFFFFFFFFFFFFFFFFFFFFFFFFFFF AND PUSH20 0xFFFFFFFFFFFFFFFFFFFFFFFFFFFFFFFFFFFFFFFF AND PUSH4 0x6E18980A CALLER DUP6 DUP6 PUSH1 0x0 PUSH1 0x40 MLOAD PUSH1 0x20 ADD MSTORE PUSH1 0x40 MLOAD DUP5 PUSH4 0xFFFFFFFF AND PUSH29 0x100000000000000000000000000000000000000000000000000000000 MUL DUP2 MSTORE PUSH1 0x4 ADD DUP1 DUP5 PUSH20 0xFFFFFFFFFFFFFFFFFFFFFFFFFFFFFFFFFFFFFFFF AND PUSH20 0xFFFFFFFFFFFFFFFFFFFFFFFFFFFFFFFFFFFFFFFF AND DUP2 MSTORE PUSH1 0x20 ADD DUP4 PUSH20 0xFFFFFFFFFFFFFFFFFFFFFFFFFFFFFFFFFFFFFFFF AND PUSH20 0xFFFFFFFFFFFFFFFFFFFFFFFFFFFFFFFFFFFFFFFF AND DUP2 MSTORE PUSH1 0x20 ADD DUP3 DUP2 MSTORE PUSH1 0x20 ADD SWAP4 POP POP POP POP PUSH1 0x20 PUSH1 0x40 MLOAD DUP1 DUP4 SUB DUP2 PUSH1 0x0 DUP8 DUP1 EXTCODESIZE ISZERO ISZERO PUSH2 0x18B0 JUMPI PUSH1 0x0 DUP1 REVERT JUMPDEST PUSH2 0x2C6 GAS SUB CALL ISZERO ISZERO PUSH2 0x18C1 JUMPI PUSH1 0x0 DUP1 REVERT JUMPDEST POP POP POP PUSH1 0x40 MLOAD DUP1 MLOAD SWAP1 POP SWAP1 POP PUSH2 0x18DF JUMP JUMPDEST PUSH2 0x18DC DUP4 DUP4 PUSH2 0x2EF1 JUMP JUMPDEST SWAP1 POP JUMPDEST SWAP3 SWAP2 POP POP JUMP JUMPDEST PUSH1 0x0 PUSH1 0xA PUSH1 0x14 SWAP1 SLOAD SWAP1 PUSH2 0x100 EXP SWAP1 DIV PUSH1 0xFF AND ISZERO PUSH2 0x190C JUMPI PUSH2 0x1905 DUP3 PUSH2 0x2E53 JUMP JUMPDEST SWAP1 POP PUSH2 0x190D JUMP JUMPDEST JUMPDEST SWAP2 SWAP1 POP JUMP JUMPDEST PUSH1 0x2 PUSH1 0x0 SWAP1 SLOAD SWAP1 PUSH2 0x100 EXP SWAP1 DIV PUSH20 0xFFFFFFFFFFFFFFFFFFFFFFFFFFFFFFFFFFFFFFFF AND PUSH20 0xFFFFFFFFFFFFFFFFFFFFFFFFFFFFFFFFFFFFFFFF AND CALLER PUSH20 0xFFFFFFFFFFFFFFFFFFFFFFFFFFFFFFFFFFFFFFFF AND EQ ISZERO ISZERO PUSH2 0x196E JUMPI PUSH1 0x0 DUP1 REVERT JUMPDEST PUSH1 0x14 DUP3 LT ISZERO ISZERO PUSH2 0x197D JUMPI PUSH1 0x0 DUP1 REVERT JUMPDEST PUSH1 0x32 DUP2 LT ISZERO ISZERO PUSH2 0x198C JUMPI PUSH1 0x0 DUP1 REVERT JUMPDEST DUP2 PUSH1 0x3 DUP2 SWAP1 SSTORE POP PUSH2 0x19BB PUSH1 0x7 PUSH1 0x0 SWAP1 SLOAD SWAP1 PUSH2 0x100 EXP SWAP1 DIV PUSH1 0xFF AND PUSH1 0xFF AND PUSH1 0xA EXP DUP3 PUSH2 0x2E9B SWAP1 SWAP2 SWAP1 PUSH4 0xFFFFFFFF AND JUMP JUMPDEST PUSH1 0x4 DUP2 SWAP1 SSTORE POP PUSH32 0xB044A1E409EAC5C48E5AF22D4AF52670DD1A99059537A78B31B48C6500A6354E PUSH1 0x3 SLOAD PUSH1 0x4 SLOAD PUSH1 0x40 MLOAD DUP1 DUP4 DUP2 MSTORE PUSH1 0x20 ADD DUP3 DUP2 MSTORE PUSH1 0x20 ADD SWAP3 POP POP POP PUSH1 0x40 MLOAD DUP1 SWAP2 SUB SWAP1 LOG1 POP POP JUMP JUMPDEST PUSH1 0x2 PUSH1 0x0 SWAP1 SLOAD SWAP1 PUSH2 0x100 EXP SWAP1 DIV PUSH20 0xFFFFFFFFFFFFFFFFFFFFFFFFFFFFFFFFFFFFFFFF AND PUSH20 0xFFFFFFFFFFFFFFFFFFFFFFFFFFFFFFFFFFFFFFFF AND CALLER PUSH20 0xFFFFFFFFFFFFFFFFFFFFFFFFFFFFFFFFFFFFFFFF AND EQ ISZERO ISZERO PUSH2 0x1A64 JUMPI PUSH1 0x0 DUP1 REVERT JUMPDEST PUSH2 0x1AD7 DUP2 PUSH1 0x0 DUP1 PUSH1 0x2 PUSH1 0x0 SWAP1 SLOAD SWAP1 PUSH2 0x100 EXP SWAP1 DIV PUSH20 0xFFFFFFFFFFFFFFFFFFFFFFFFFFFFFFFFFFFFFFFF AND PUSH20 0xFFFFFFFFFFFFFFFFFFFFFFFFFFFFFFFFFFFFFFFF AND PUSH20 0xFFFFFFFFFFFFFFFFFFFFFFFFFFFFFFFFFFFFFFFF AND DUP2 MSTORE PUSH1 0x20 ADD SWAP1 DUP2 MSTORE PUSH1 0x20 ADD PUSH1 0x0 KECCAK256 SLOAD PUSH2 0x2F6F SWAP1 SWAP2 SWAP1 PUSH4 0xFFFFFFFF AND JUMP JUMPDEST PUSH1 0x0 DUP1 PUSH1 0x2 PUSH1 0x0 SWAP1 SLOAD SWAP1 PUSH2 0x100 EXP SWAP1 DIV PUSH20 0xFFFFFFFFFFFFFFFFFFFFFFFFFFFFFFFFFFFFFFFF AND PUSH20 0xFFFFFFFFFFFFFFFFFFFFFFFFFFFFFFFFFFFFFFFF AND PUSH20 0xFFFFFFFFFFFFFFFFFFFFFFFFFFFFFFFFFFFFFFFF AND DUP2 MSTORE PUSH1 0x20 ADD SWAP1 DUP2 MSTORE PUSH1 0x20 ADD PUSH1 0x0 KECCAK256 DUP2 SWAP1 SSTORE POP PUSH2 0x1B50 DUP2 PUSH1 0x8 SLOAD PUSH2 0x2F6F SWAP1 SWAP2 SWAP1 PUSH4 0xFFFFFFFF AND JUMP JUMPDEST PUSH1 0x8 DUP2 SWAP1 SSTORE POP PUSH32 0xCB8241ADB0C3FDB35B70C24CE35C5EB0C17AF7431C99F827D44A445CA624176A DUP2 PUSH1 0x40 MLOAD DUP1 DUP3 DUP2 MSTORE PUSH1 0x20 ADD SWAP2 POP POP PUSH1 0x40 MLOAD DUP1 SWAP2 SUB SWAP1 LOG1 PUSH1 0x2 PUSH1 0x0 SWAP1 SLOAD SWAP1 PUSH2 0x100 EXP SWAP1 DIV PUSH20 0xFFFFFFFFFFFFFFFFFFFFFFFFFFFFFFFFFFFFFFFF AND PUSH20 0xFFFFFFFFFFFFFFFFFFFFFFFFFFFFFFFFFFFFFFFF AND PUSH1 0x0 PUSH20 0xFFFFFFFFFFFFFFFFFFFFFFFFFFFFFFFFFFFFFFFF AND PUSH32 0xDDF252AD1BE2C89B69C2B068FC378DAA952BA7F163C4A11628F55A4DF523B3EF DUP4 PUSH1 0x40 MLOAD DUP1 DUP3 DUP2 MSTORE PUSH1 0x20 ADD SWAP2 POP POP PUSH1 0x40 MLOAD DUP1 SWAP2 SUB SWAP1 LOG3 POP JUMP JUMPDEST PUSH1 0x0 PUSH1 0x2 PUSH1 0x14 SWAP1 SLOAD SWAP1 PUSH2 0x100 EXP SWAP1 DIV PUSH1 0xFF AND ISZERO ISZERO ISZERO PUSH2 0x1C36 JUMPI PUSH1 0x0 DUP1 REVERT JUMPDEST PUSH1 0xA PUSH1 0x14 SWAP1 SLOAD SWAP1 PUSH2 0x100 EXP SWAP1 DIV PUSH1 0xFF AND ISZERO PUSH2 0x1D6E JUMPI PUSH1 0xA PUSH1 0x0 SWAP1 SLOAD SWAP1 PUSH2 0x100 EXP SWAP1 DIV PUSH20 0xFFFFFFFFFFFFFFFFFFFFFFFFFFFFFFFFFFFFFFFF AND PUSH20 0xFFFFFFFFFFFFFFFFFFFFFFFFFFFFFFFFFFFFFFFF AND PUSH4 0xA9538157 CALLER DUP6 DUP6 PUSH1 0x0 PUSH1 0x40 MLOAD PUSH1 0x20 ADD MSTORE PUSH1 0x40 MLOAD DUP5 PUSH4 0xFFFFFFFF AND PUSH29 0x100000000000000000000000000000000000000000000000000000000 MUL DUP2 MSTORE PUSH1 0x4 ADD DUP1 DUP5 PUSH20 0xFFFFFFFFFFFFFFFFFFFFFFFFFFFFFFFFFFFFFFFF AND PUSH20 0xFFFFFFFFFFFFFFFFFFFFFFFFFFFFFFFFFFFFFFFF AND DUP2 MSTORE PUSH1 0x20 ADD DUP4 PUSH20 0xFFFFFFFFFFFFFFFFFFFFFFFFFFFFFFFFFFFFFFFF AND PUSH20 0xFFFFFFFFFFFFFFFFFFFFFFFFFFFFFFFFFFFFFFFF AND DUP2 MSTORE PUSH1 0x20 ADD DUP3 DUP2 MSTORE PUSH1 0x20 ADD SWAP4 POP POP POP POP PUSH1 0x20 PUSH1 0x40 MLOAD DUP1 DUP4 SUB DUP2 PUSH1 0x0 DUP8 DUP1 EXTCODESIZE ISZERO ISZERO PUSH2 0x1D4C JUMPI PUSH1 0x0 DUP1 REVERT JUMPDEST PUSH2 0x2C6 GAS SUB CALL ISZERO ISZERO PUSH2 0x1D5D JUMPI PUSH1 0x0 DUP1 REVERT JUMPDEST POP POP POP PUSH1 0x40 MLOAD DUP1 MLOAD SWAP1 POP SWAP1 POP PUSH2 0x1D7B JUMP JUMPDEST PUSH2 0x1D78 DUP4 DUP4 PUSH2 0x2F8D JUMP JUMPDEST SWAP1 POP JUMPDEST SWAP3 SWAP2 POP POP JUMP JUMPDEST PUSH1 0x2 PUSH1 0x0 SWAP1 SLOAD SWAP1 PUSH2 0x100 EXP SWAP1 DIV PUSH20 0xFFFFFFFFFFFFFFFFFFFFFFFFFFFFFFFFFFFFFFFF AND PUSH20 0xFFFFFFFFFFFFFFFFFFFFFFFFFFFFFFFFFFFFFFFF AND CALLER PUSH20 0xFFFFFFFFFFFFFFFFFFFFFFFFFFFFFFFFFFFFFFFF AND EQ ISZERO ISZERO PUSH2 0x1DDD JUMPI PUSH1 0x0 DUP1 REVERT JUMPDEST PUSH2 0x1DF2 DUP2 PUSH1 0x8 SLOAD PUSH2 0x3189 SWAP1 SWAP2 SWAP1 PUSH4 0xFFFFFFFF AND JUMP JUMPDEST PUSH1 0x8 DUP2 SWAP1 SSTORE POP PUSH2 0x1E6B DUP2 PUSH1 0x0 DUP1 PUSH1 0x2 PUSH1 0x0 SWAP1 SLOAD SWAP1 PUSH2 0x100 EXP SWAP1 DIV PUSH20 0xFFFFFFFFFFFFFFFFFFFFFFFFFFFFFFFFFFFFFFFF AND PUSH20 0xFFFFFFFFFFFFFFFFFFFFFFFFFFFFFFFFFFFFFFFF AND PUSH20 0xFFFFFFFFFFFFFFFFFFFFFFFFFFFFFFFFFFFFFFFF AND DUP2 MSTORE PUSH1 0x20 ADD SWAP1 DUP2 MSTORE PUSH1 0x20 ADD PUSH1 0x0 KECCAK256 SLOAD PUSH2 0x3189 SWAP1 SWAP2 SWAP1 PUSH4 0xFFFFFFFF AND JUMP JUMPDEST PUSH1 0x0 DUP1 PUSH1 0x2 PUSH1 0x0 SWAP1 SLOAD SWAP1 PUSH2 0x100 EXP SWAP1 DIV PUSH20 0xFFFFFFFFFFFFFFFFFFFFFFFFFFFFFFFFFFFFFFFF AND PUSH20 0xFFFFFFFFFFFFFFFFFFFFFFFFFFFFFFFFFFFFFFFF AND PUSH20 0xFFFFFFFFFFFFFFFFFFFFFFFFFFFFFFFFFFFFFFFF AND DUP2 MSTORE PUSH1 0x20 ADD SWAP1 DUP2 MSTORE PUSH1 0x20 ADD PUSH1 0x0 KECCAK256 DUP2 SWAP1 SSTORE POP PUSH32 0x702D5967F45F6513A38FFC42D6BA9BF230BD40E8F53B16363C7EB4FD2DEB9A44 DUP2 PUSH1 0x40 MLOAD DUP1 DUP3 DUP2 MSTORE PUSH1 0x20 ADD SWAP2 POP POP PUSH1 0x40 MLOAD DUP1 SWAP2 SUB SWAP1 LOG1 PUSH1 0x0 PUSH20 0xFFFFFFFFFFFFFFFFFFFFFFFFFFFFFFFFFFFFFFFF AND PUSH1 0x2 PUSH1 0x0 SWAP1 SLOAD SWAP1 PUSH2 0x100 EXP SWAP1 DIV PUSH20 0xFFFFFFFFFFFFFFFFFFFFFFFFFFFFFFFFFFFFFFFF AND PUSH20 0xFFFFFFFFFFFFFFFFFFFFFFFFFFFFFFFFFFFFFFFF AND PUSH32 0xDDF252AD1BE2C89B69C2B068FC378DAA952BA7F163C4A11628F55A4DF523B3EF DUP4 PUSH1 0x40 MLOAD DUP1 DUP3 DUP2 MSTORE PUSH1 0x20 ADD SWAP2 POP POP PUSH1 0x40 MLOAD DUP1 SWAP2 SUB SWAP1 LOG3 POP JUMP JUMPDEST PUSH1 0x0 PUSH1 0xA PUSH1 0x14 SWAP1 SLOAD SWAP1 PUSH2 0x100 EXP SWAP1 DIV PUSH1 0xFF AND ISZERO PUSH2 0x20C3 JUMPI PUSH1 0xA PUSH1 0x0 SWAP1 SLOAD SWAP1 PUSH2 0x100 EXP SWAP1 DIV PUSH20 0xFFFFFFFFFFFFFFFFFFFFFFFFFFFFFFFFFFFFFFFF AND PUSH20 0xFFFFFFFFFFFFFFFFFFFFFFFFFFFFFFFFFFFFFFFF AND PUSH4 0xDD62ED3E DUP5 DUP5 PUSH1 0x0 PUSH1 0x40 MLOAD PUSH1 0x20 ADD MSTORE PUSH1 0x40 MLOAD DUP4 PUSH4 0xFFFFFFFF AND PUSH29 0x100000000000000000000000000000000000000000000000000000000 MUL DUP2 MSTORE PUSH1 0x4 ADD DUP1 DUP4 PUSH20 0xFFFFFFFFFFFFFFFFFFFFFFFFFFFFFFFFFFFFFFFF AND PUSH20 0xFFFFFFFFFFFFFFFFFFFFFFFFFFFFFFFFFFFFFFFF AND DUP2 MSTORE PUSH1 0x20 ADD DUP3 PUSH20 0xFFFFFFFFFFFFFFFFFFFFFFFFFFFFFFFFFFFFFFFF AND PUSH20 0xFFFFFFFFFFFFFFFFFFFFFFFFFFFFFFFFFFFFFFFF AND DUP2 MSTORE PUSH1 0x20 ADD SWAP3 POP POP POP PUSH1 0x20 PUSH1 0x40 MLOAD DUP1 DUP4 SUB DUP2 PUSH1 0x0 DUP8 DUP1 EXTCODESIZE ISZERO ISZERO PUSH2 0x20A1 JUMPI PUSH1 0x0 DUP1 REVERT JUMPDEST PUSH2 0x2C6 GAS SUB CALL ISZERO ISZERO PUSH2 0x20B2 JUMPI PUSH1 0x0 DUP1 REVERT JUMPDEST POP POP POP PUSH1 0x40 MLOAD DUP1 MLOAD SWAP1 POP SWAP1 POP PUSH2 0x20D0 JUMP JUMPDEST PUSH2 0x20CD DUP4 DUP4 PUSH2 0x31A2 JUMP JUMPDEST SWAP1 POP JUMPDEST SWAP3 SWAP2 POP POP JUMP JUMPDEST PUSH1 0x3 SLOAD DUP2 JUMP JUMPDEST PUSH1 0x9 PUSH1 0x20 MSTORE DUP1 PUSH1 0x0 MSTORE PUSH1 0x40 PUSH1 0x0 KECCAK256 PUSH1 0x0 SWAP2 POP SLOAD SWAP1 PUSH2 0x100 EXP SWAP1 DIV PUSH1 0xFF AND DUP2 JUMP JUMPDEST PUSH1 0x2 PUSH1 0x0 SWAP1 SLOAD SWAP1 PUSH2 0x100 EXP SWAP1 DIV PUSH20 0xFFFFFFFFFFFFFFFFFFFFFFFFFFFFFFFFFFFFFFFF AND PUSH20 0xFFFFFFFFFFFFFFFFFFFFFFFFFFFFFFFFFFFFFFFF AND CALLER PUSH20 0xFFFFFFFFFFFFFFFFFFFFFFFFFFFFFFFFFFFFFFFF AND EQ ISZERO ISZERO PUSH2 0x2158 JUMPI PUSH1 0x0 DUP1 REVERT JUMPDEST PUSH1 0x0 PUSH1 0x9 PUSH1 0x0 DUP4 PUSH20 0xFFFFFFFFFFFFFFFFFFFFFFFFFFFFFFFFFFFFFFFF AND PUSH20 0xFFFFFFFFFFFFFFFFFFFFFFFFFFFFFFFFFFFFFFFF AND DUP2 MSTORE PUSH1 0x20 ADD SWAP1 DUP2 MSTORE PUSH1 0x20 ADD PUSH1 0x0 KECCAK256 PUSH1 0x0 PUSH2 0x100 EXP DUP2 SLOAD DUP2 PUSH1 0xFF MUL NOT AND SWAP1 DUP4 ISZERO ISZERO MUL OR SWAP1 SSTORE POP DUP1 PUSH20 0xFFFFFFFFFFFFFFFFFFFFFFFFFFFFFFFFFFFFFFFF AND PUSH32 0xD7E9EC6E6ECD65492DCE6BF513CD6867560D49544421D0783DDF06E76C24470C PUSH1 0x40 MLOAD PUSH1 0x40 MLOAD DUP1 SWAP2 SUB SWAP1 LOG2 POP JUMP JUMPDEST PUSH32 0xFFFFFFFFFFFFFFFFFFFFFFFFFFFFFFFFFFFFFFFFFFFFFFFFFFFFFFFFFFFFFFFF DUP2 JUMP JUMPDEST PUSH1 0x2 PUSH1 0x0 SWAP1 SLOAD SWAP1 PUSH2 0x100 EXP SWAP1 DIV PUSH20 0xFFFFFFFFFFFFFFFFFFFFFFFFFFFFFFFFFFFFFFFF AND PUSH20 0xFFFFFFFFFFFFFFFFFFFFFFFFFFFFFFFFFFFFFFFF AND CALLER PUSH20 0xFFFFFFFFFFFFFFFFFFFFFFFFFFFFFFFFFFFFFFFF AND EQ ISZERO ISZERO PUSH2 0x2276 JUMPI PUSH1 0x0 DUP1 REVERT JUMPDEST PUSH1 0x0 PUSH20 0xFFFFFFFFFFFFFFFFFFFFFFFFFFFFFFFFFFFFFFFF AND DUP2 PUSH20 0xFFFFFFFFFFFFFFFFFFFFFFFFFFFFFFFFFFFFFFFF AND EQ ISZERO ISZERO ISZERO PUSH2 0x22B2 JUMPI PUSH1 0x0 DUP1 REVERT JUMPDEST DUP1 PUSH20 0xFFFFFFFFFFFFFFFFFFFFFFFFFFFFFFFFFFFFFFFF AND PUSH1 0x2 PUSH1 0x0 SWAP1 SLOAD SWAP1 PUSH2 0x100 EXP SWAP1 DIV PUSH20 0xFFFFFFFFFFFFFFFFFFFFFFFFFFFFFFFFFFFFFFFF AND PUSH20 0xFFFFFFFFFFFFFFFFFFFFFFFFFFFFFFFFFFFFFFFF AND PUSH32 0x8BE0079C531659141344CD1FD0A4F28419497F9722A3DAAFE3B4186F6B6457E0 PUSH1 0x40 MLOAD PUSH1 0x40 MLOAD DUP1 SWAP2 SUB SWAP1 LOG3 DUP1 PUSH1 0x2 PUSH1 0x0 PUSH2 0x100 EXP DUP2 SLOAD DUP2 PUSH20 0xFFFFFFFFFFFFFFFFFFFFFFFFFFFFFFFFFFFFFFFF MUL NOT AND SWAP1 DUP4 PUSH20 0xFFFFFFFFFFFFFFFFFFFFFFFFFFFFFFFFFFFFFFFF AND MUL OR SWAP1 SSTORE POP POP JUMP JUMPDEST PUSH1 0x0 PUSH1 0x2 PUSH1 0x0 SWAP1 SLOAD SWAP1 PUSH2 0x100 EXP SWAP1 DIV PUSH20 0xFFFFFFFFFFFFFFFFFFFFFFFFFFFFFFFFFFFFFFFF AND PUSH20 0xFFFFFFFFFFFFFFFFFFFFFFFFFFFFFFFFFFFFFFFF AND CALLER PUSH20 0xFFFFFFFFFFFFFFFFFFFFFFFFFFFFFFFFFFFFFFFF AND EQ ISZERO ISZERO PUSH2 0x23D0 JUMPI PUSH1 0x0 DUP1 REVERT JUMPDEST PUSH1 0x9 PUSH1 0x0 DUP4 PUSH20 0xFFFFFFFFFFFFFFFFFFFFFFFFFFFFFFFFFFFFFFFF AND PUSH20 0xFFFFFFFFFFFFFFFFFFFFFFFFFFFFFFFFFFFFFFFF AND DUP2 MSTORE PUSH1 0x20 ADD SWAP1 DUP2 MSTORE PUSH1 0x20 ADD PUSH1 0x0 KECCAK256 PUSH1 0x0 SWAP1 SLOAD SWAP1 PUSH2 0x100 EXP SWAP1 DIV PUSH1 0xFF AND ISZERO ISZERO PUSH2 0x2428 JUMPI PUSH1 0x0 DUP1 REVERT JUMPDEST PUSH2 0x2431 DUP3 PUSH2 0x1448 JUMP JUMPDEST SWAP1 POP PUSH1 0x0 DUP1 PUSH1 0x0 DUP5 PUSH20 0xFFFFFFFFFFFFFFFFFFFFFFFFFFFFFFFFFFFFFFFF AND PUSH20 0xFFFFFFFFFFFFFFFFFFFFFFFFFFFFFFFFFFFFFFFF AND DUP2 MSTORE PUSH1 0x20 ADD SWAP1 DUP2 MSTORE PUSH1 0x20 ADD PUSH1 0x0 KECCAK256 DUP2 SWAP1 SSTORE POP PUSH2 0x248C DUP2 PUSH1 0x8 SLOAD PUSH2 0x3189 SWAP1 SWAP2 SWAP1 PUSH4 0xFFFFFFFF AND JUMP JUMPDEST PUSH1 0x8 DUP2 SWAP1 SSTORE POP DUP2 PUSH20 0xFFFFFFFFFFFFFFFFFFFFFFFFFFFFFFFFFFFFFFFF AND PUSH32 0x61E6E66B0D6339B2980AECC6CCC0039736791F0CCDE9ED512E789A7FBDD698C6 DUP3 PUSH1 0x40 MLOAD DUP1 DUP3 DUP2 MSTORE PUSH1 0x20 ADD SWAP2 POP POP PUSH1 0x40 MLOAD DUP1 SWAP2 SUB SWAP1 LOG2 POP POP JUMP JUMPDEST PUSH1 0x0 DUP2 PUSH1 0x1 PUSH1 0x0 CALLER PUSH20 0xFFFFFFFFFFFFFFFFFFFFFFFFFFFFFFFFFFFFFFFF AND PUSH20 0xFFFFFFFFFFFFFFFFFFFFFFFFFFFFFFFFFFFFFFFF AND DUP2 MSTORE PUSH1 0x20 ADD SWAP1 DUP2 MSTORE PUSH1 0x20 ADD PUSH1 0x0 KECCAK256 PUSH1 0x0 DUP6 PUSH20 0xFFFFFFFFFFFFFFFFFFFFFFFFFFFFFFFFFFFFFFFF AND PUSH20 0xFFFFFFFFFFFFFFFFFFFFFFFFFFFFFFFFFFFFFFFF AND DUP2 MSTORE PUSH1 0x20 ADD SWAP1 DUP2 MSTORE PUSH1 0x20 ADD PUSH1 0x0 KECCAK256 DUP2 SWAP1 SSTORE POP DUP3 PUSH20 0xFFFFFFFFFFFFFFFFFFFFFFFFFFFFFFFFFFFFFFFF AND CALLER PUSH20 0xFFFFFFFFFFFFFFFFFFFFFFFFFFFFFFFFFFFFFFFF AND PUSH32 0x8C5BE1E5EBEC7D5BD14F71427D1E84F3DD0314C0F7B2291E5B200AC8C7C3B925 DUP5 PUSH1 0x40 MLOAD DUP1 DUP3 DUP2 MSTORE PUSH1 0x20 ADD SWAP2 POP POP PUSH1 0x40 MLOAD DUP1 SWAP2 SUB SWAP1 LOG3 PUSH1 0x1 SWAP1 POP SWAP3 SWAP2 POP POP JUMP JUMPDEST PUSH1 0x0 DUP1 PUSH1 0x0 DUP1 PUSH20 0xFFFFFFFFFFFFFFFFFFFFFFFFFFFFFFFFFFFFFFFF AND DUP6 PUSH20 0xFFFFFFFFFFFFFFFFFFFFFFFFFFFFFFFFFFFFFFFF AND EQ ISZERO ISZERO ISZERO PUSH2 0x2616 JUMPI PUSH1 0x0 DUP1 REVERT JUMPDEST PUSH1 0x0 DUP1 DUP8 PUSH20 0xFFFFFFFFFFFFFFFFFFFFFFFFFFFFFFFFFFFFFFFF AND PUSH20 0xFFFFFFFFFFFFFFFFFFFFFFFFFFFFFFFFFFFFFFFF AND DUP2 MSTORE PUSH1 0x20 ADD SWAP1 DUP2 MSTORE PUSH1 0x20 ADD PUSH1 0x0 KECCAK256 SLOAD DUP5 GT ISZERO ISZERO ISZERO PUSH2 0x2663 JUMPI PUSH1 0x0 DUP1 REVERT JUMPDEST PUSH1 0x1 PUSH1 0x0 DUP8 PUSH20 0xFFFFFFFFFFFFFFFFFFFFFFFFFFFFFFFFFFFFFFFF AND PUSH20 0xFFFFFFFFFFFFFFFFFFFFFFFFFFFFFFFFFFFFFFFF AND DUP2 MSTORE PUSH1 0x20 ADD SWAP1 DUP2 MSTORE PUSH1 0x20 ADD PUSH1 0x0 KECCAK256 PUSH1 0x0 CALLER PUSH20 0xFFFFFFFFFFFFFFFFFFFFFFFFFFFFFFFFFFFFFFFF AND PUSH20 0xFFFFFFFFFFFFFFFFFFFFFFFFFFFFFFFFFFFFFFFF AND DUP2 MSTORE PUSH1 0x20 ADD SWAP1 DUP2 MSTORE PUSH1 0x20 ADD PUSH1 0x0 KECCAK256 SLOAD DUP5 GT ISZERO ISZERO ISZERO PUSH2 0x26EE JUMPI PUSH1 0x0 DUP1 REVERT JUMPDEST PUSH2 0x26F7 DUP5 PUSH2 0x1557 JUMP JUMPDEST SWAP2 POP PUSH2 0x270C DUP3 DUP6 PUSH2 0x3189 SWAP1 SWAP2 SWAP1 PUSH4 0xFFFFFFFF AND JUMP JUMPDEST SWAP1 POP PUSH2 0x275F DUP5 PUSH1 0x0 DUP1 DUP10 PUSH20 0xFFFFFFFFFFFFFFFFFFFFFFFFFFFFFFFFFFFFFFFF AND PUSH20 0xFFFFFFFFFFFFFFFFFFFFFFFFFFFFFFFFFFFFFFFF AND DUP2 MSTORE PUSH1 0x20 ADD SWAP1 DUP2 MSTORE PUSH1 0x20 ADD PUSH1 0x0 KECCAK256 SLOAD PUSH2 0x3189 SWAP1 SWAP2 SWAP1 PUSH4 0xFFFFFFFF AND JUMP JUMPDEST PUSH1 0x0 DUP1 DUP9 PUSH20 0xFFFFFFFFFFFFFFFFFFFFFFFFFFFFFFFFFFFFFFFF AND PUSH20 0xFFFFFFFFFFFFFFFFFFFFFFFFFFFFFFFFFFFFFFFF AND DUP2 MSTORE PUSH1 0x20 ADD SWAP1 DUP2 MSTORE PUSH1 0x20 ADD PUSH1 0x0 KECCAK256 DUP2 SWAP1 SSTORE POP PUSH2 0x27F2 DUP2 PUSH1 0x0 DUP1 DUP9 PUSH20 0xFFFFFFFFFFFFFFFFFFFFFFFFFFFFFFFFFFFFFFFF AND PUSH20 0xFFFFFFFFFFFFFFFFFFFFFFFFFFFFFFFFFFFFFFFF AND DUP2 MSTORE PUSH1 0x20 ADD SWAP1 DUP2 MSTORE PUSH1 0x20 ADD PUSH1 0x0 KECCAK256 SLOAD PUSH2 0x2F6F SWAP1 SWAP2 SWAP1 PUSH4 0xFFFFFFFF AND JUMP JUMPDEST PUSH1 0x0 DUP1 DUP8 PUSH20 0xFFFFFFFFFFFFFFFFFFFFFFFFFFFFFFFFFFFFFFFF AND PUSH20 0xFFFFFFFFFFFFFFFFFFFFFFFFFFFFFFFFFFFFFFFF AND DUP2 MSTORE PUSH1 0x20 ADD SWAP1 DUP2 MSTORE PUSH1 0x20 ADD PUSH1 0x0 KECCAK256 DUP2 SWAP1 SSTORE POP PUSH32 0xFFFFFFFFFFFFFFFFFFFFFFFFFFFFFFFFFFFFFFFFFFFFFFFFFFFFFFFFFFFFFFFF PUSH1 0x1 PUSH1 0x0 DUP9 PUSH20 0xFFFFFFFFFFFFFFFFFFFFFFFFFFFFFFFFFFFFFFFF AND PUSH20 0xFFFFFFFFFFFFFFFFFFFFFFFFFFFFFFFFFFFFFFFF AND DUP2 MSTORE PUSH1 0x20 ADD SWAP1 DUP2 MSTORE PUSH1 0x20 ADD PUSH1 0x0 KECCAK256 PUSH1 0x0 CALLER PUSH20 0xFFFFFFFFFFFFFFFFFFFFFFFFFFFFFFFFFFFFFFFF AND PUSH20 0xFFFFFFFFFFFFFFFFFFFFFFFFFFFFFFFFFFFFFFFF AND DUP2 MSTORE PUSH1 0x20 ADD SWAP1 DUP2 MSTORE PUSH1 0x20 ADD PUSH1 0x0 KECCAK256 SLOAD LT ISZERO PUSH2 0x29E8 JUMPI PUSH2 0x2967 DUP5 PUSH1 0x1 PUSH1 0x0 DUP10 PUSH20 0xFFFFFFFFFFFFFFFFFFFFFFFFFFFFFFFFFFFFFFFF AND PUSH20 0xFFFFFFFFFFFFFFFFFFFFFFFFFFFFFFFFFFFFFFFF AND DUP2 MSTORE PUSH1 0x20 ADD SWAP1 DUP2 MSTORE PUSH1 0x20 ADD PUSH1 0x0 KECCAK256 PUSH1 0x0 CALLER PUSH20 0xFFFFFFFFFFFFFFFFFFFFFFFFFFFFFFFFFFFFFFFF AND PUSH20 0xFFFFFFFFFFFFFFFFFFFFFFFFFFFFFFFFFFFFFFFF AND DUP2 MSTORE PUSH1 0x20 ADD SWAP1 DUP2 MSTORE PUSH1 0x20 ADD PUSH1 0x0 KECCAK256 SLOAD PUSH2 0x3189 SWAP1 SWAP2 SWAP1 PUSH4 0xFFFFFFFF AND JUMP JUMPDEST PUSH1 0x1 PUSH1 0x0 DUP9 PUSH20 0xFFFFFFFFFFFFFFFFFFFFFFFFFFFFFFFFFFFFFFFF AND PUSH20 0xFFFFFFFFFFFFFFFFFFFFFFFFFFFFFFFFFFFFFFFF AND DUP2 MSTORE PUSH1 0x20 ADD SWAP1 DUP2 MSTORE PUSH1 0x20 ADD PUSH1 0x0 KECCAK256 PUSH1 0x0 CALLER PUSH20 0xFFFFFFFFFFFFFFFFFFFFFFFFFFFFFFFFFFFFFFFF AND PUSH20 0xFFFFFFFFFFFFFFFFFFFFFFFFFFFFFFFFFFFFFFFF AND DUP2 MSTORE PUSH1 0x20 ADD SWAP1 DUP2 MSTORE PUSH1 0x20 ADD PUSH1 0x0 KECCAK256 DUP2 SWAP1 SSTORE POP JUMPDEST DUP5 PUSH20 0xFFFFFFFFFFFFFFFFFFFFFFFFFFFFFFFFFFFFFFFF AND DUP7 PUSH20 0xFFFFFFFFFFFFFFFFFFFFFFFFFFFFFFFFFFFFFFFF AND PUSH32 0xDDF252AD1BE2C89B69C2B068FC378DAA952BA7F163C4A11628F55A4DF523B3EF DUP4 PUSH1 0x40 MLOAD DUP1 DUP3 DUP2 MSTORE PUSH1 0x20 ADD SWAP2 POP POP PUSH1 0x40 MLOAD DUP1 SWAP2 SUB SWAP1 LOG3 PUSH1 0x0 DUP3 GT ISZERO PUSH2 0x2BB5 JUMPI PUSH2 0x2AC9 DUP3 PUSH1 0x0 DUP1 PUSH1 0x2 PUSH1 0x0 SWAP1 SLOAD SWAP1 PUSH2 0x100 EXP SWAP1 DIV PUSH20 0xFFFFFFFFFFFFFFFFFFFFFFFFFFFFFFFFFFFFFFFF AND PUSH20 0xFFFFFFFFFFFFFFFFFFFFFFFFFFFFFFFFFFFFFFFF AND PUSH20 0xFFFFFFFFFFFFFFFFFFFFFFFFFFFFFFFFFFFFFFFF AND DUP2 MSTORE PUSH1 0x20 ADD SWAP1 DUP2 MSTORE PUSH1 0x20 ADD PUSH1 0x0 KECCAK256 SLOAD PUSH2 0x2F6F SWAP1 SWAP2 SWAP1 PUSH4 0xFFFFFFFF AND JUMP JUMPDEST PUSH1 0x0 DUP1 PUSH1 0x2 PUSH1 0x0 SWAP1 SLOAD SWAP1 PUSH2 0x100 EXP SWAP1 DIV PUSH20 0xFFFFFFFFFFFFFFFFFFFFFFFFFFFFFFFFFFFFFFFF AND PUSH20 0xFFFFFFFFFFFFFFFFFFFFFFFFFFFFFFFFFFFFFFFF AND PUSH20 0xFFFFFFFFFFFFFFFFFFFFFFFFFFFFFFFFFFFFFFFF AND DUP2 MSTORE PUSH1 0x20 ADD SWAP1 DUP2 MSTORE PUSH1 0x20 ADD PUSH1 0x0 KECCAK256 DUP2 SWAP1 SSTORE POP PUSH1 0x2 PUSH1 0x0 SWAP1 SLOAD SWAP1 PUSH2 0x100 EXP SWAP1 DIV PUSH20 0xFFFFFFFFFFFFFFFFFFFFFFFFFFFFFFFFFFFFFFFF AND PUSH20 0xFFFFFFFFFFFFFFFFFFFFFFFFFFFFFFFFFFFFFFFF AND DUP7 PUSH20 0xFFFFFFFFFFFFFFFFFFFFFFFFFFFFFFFFFFFFFFFF AND PUSH32 0xDDF252AD1BE2C89B69C2B068FC378DAA952BA7F163C4A11628F55A4DF523B3EF DUP5 PUSH1 0x40 MLOAD DUP1 DUP3 DUP2 MSTORE PUSH1 0x20 ADD SWAP2 POP POP PUSH1 0x40 MLOAD DUP1 SWAP2 SUB SWAP1 LOG3 JUMPDEST PUSH1 0x1 SWAP3 POP POP POP SWAP4 SWAP3 POP POP POP JUMP JUMPDEST PUSH1 0x0 DUP1 PUSH1 0x1 PUSH1 0x0 CALLER PUSH20 0xFFFFFFFFFFFFFFFFFFFFFFFFFFFFFFFFFFFFFFFF AND PUSH20 0xFFFFFFFFFFFFFFFFFFFFFFFFFFFFFFFFFFFFFFFF AND DUP2 MSTORE PUSH1 0x20 ADD SWAP1 DUP2 MSTORE PUSH1 0x20 ADD PUSH1 0x0 KECCAK256 PUSH1 0x0 DUP6 PUSH20 0xFFFFFFFFFFFFFFFFFFFFFFFFFFFFFFFFFFFFFFFF AND PUSH20 0xFFFFFFFFFFFFFFFFFFFFFFFFFFFFFFFFFFFFFFFF AND DUP2 MSTORE PUSH1 0x20 ADD SWAP1 DUP2 MSTORE PUSH1 0x20 ADD PUSH1 0x0 KECCAK256 SLOAD SWAP1 POP DUP1 DUP4 GT ISZERO PUSH2 0x2CD3 JUMPI PUSH1 0x0 PUSH1 0x1 PUSH1 0x0 CALLER PUSH20 0xFFFFFFFFFFFFFFFFFFFFFFFFFFFFFFFFFFFFFFFF AND PUSH20 0xFFFFFFFFFFFFFFFFFFFFFFFFFFFFFFFFFFFFFFFF AND DUP2 MSTORE PUSH1 0x20 ADD SWAP1 DUP2 MSTORE PUSH1 0x20 ADD PUSH1 0x0 KECCAK256 PUSH1 0x0 DUP7 PUSH20 0xFFFFFFFFFFFFFFFFFFFFFFFFFFFFFFFFFFFFFFFF AND PUSH20 0xFFFFFFFFFFFFFFFFFFFFFFFFFFFFFFFFFFFFFFFF AND DUP2 MSTORE PUSH1 0x20 ADD SWAP1 DUP2 MSTORE PUSH1 0x20 ADD PUSH1 0x0 KECCAK256 DUP2 SWAP1 SSTORE POP PUSH2 0x2D67 JUMP JUMPDEST PUSH2 0x2CE6 DUP4 DUP3 PUSH2 0x3189 SWAP1 SWAP2 SWAP1 PUSH4 0xFFFFFFFF AND JUMP JUMPDEST PUSH1 0x1 PUSH1 0x0 CALLER PUSH20 0xFFFFFFFFFFFFFFFFFFFFFFFFFFFFFFFFFFFFFFFF AND PUSH20 0xFFFFFFFFFFFFFFFFFFFFFFFFFFFFFFFFFFFFFFFF AND DUP2 MSTORE PUSH1 0x20 ADD SWAP1 DUP2 MSTORE PUSH1 0x20 ADD PUSH1 0x0 KECCAK256 PUSH1 0x0 DUP7 PUSH20 0xFFFFFFFFFFFFFFFFFFFFFFFFFFFFFFFFFFFFFFFF AND PUSH20 0xFFFFFFFFFFFFFFFFFFFFFFFFFFFFFFFFFFFFFFFF AND DUP2 MSTORE PUSH1 0x20 ADD SWAP1 DUP2 MSTORE PUSH1 0x20 ADD PUSH1 0x0 KECCAK256 DUP2 SWAP1 SSTORE POP JUMPDEST DUP4 PUSH20 0xFFFFFFFFFFFFFFFFFFFFFFFFFFFFFFFFFFFFFFFF AND CALLER PUSH20 0xFFFFFFFFFFFFFFFFFFFFFFFFFFFFFFFFFFFFFFFF AND PUSH32 0x8C5BE1E5EBEC7D5BD14F71427D1E84F3DD0314C0F7B2291E5B200AC8C7C3B925 PUSH1 0x1 PUSH1 0x0 CALLER PUSH20 0xFFFFFFFFFFFFFFFFFFFFFFFFFFFFFFFFFFFFFFFF AND PUSH20 0xFFFFFFFFFFFFFFFFFFFFFFFFFFFFFFFFFFFFFFFF AND DUP2 MSTORE PUSH1 0x20 ADD SWAP1 DUP2 MSTORE PUSH1 0x20 ADD PUSH1 0x0 KECCAK256 PUSH1 0x0 DUP9 PUSH20 0xFFFFFFFFFFFFFFFFFFFFFFFFFFFFFFFFFFFFFFFF AND PUSH20 0xFFFFFFFFFFFFFFFFFFFFFFFFFFFFFFFFFFFFFFFF AND DUP2 MSTORE PUSH1 0x20 ADD SWAP1 DUP2 MSTORE PUSH1 0x20 ADD PUSH1 0x0 KECCAK256 SLOAD PUSH1 0x40 MLOAD DUP1 DUP3 DUP2 MSTORE PUSH1 0x20 ADD SWAP2 POP POP PUSH1 0x40 MLOAD DUP1 SWAP2 SUB SWAP1 LOG3 PUSH1 0x1 SWAP2 POP POP SWAP3 SWAP2 POP POP JUMP JUMPDEST PUSH1 0x0 DUP1 PUSH1 0x0 DUP4 PUSH20 0xFFFFFFFFFFFFFFFFFFFFFFFFFFFFFFFFFFFFFFFF AND PUSH20 0xFFFFFFFFFFFFFFFFFFFFFFFFFFFFFFFFFFFFFFFF AND DUP2 MSTORE PUSH1 0x20 ADD SWAP1 DUP2 MSTORE PUSH1 0x20 ADD PUSH1 0x0 KECCAK256 SLOAD SWAP1 POP SWAP2 SWAP1 POP JUMP JUMPDEST PUSH1 0x0 DUP1 PUSH1 0x0 DUP5 EQ ISZERO PUSH2 0x2EB0 JUMPI PUSH1 0x0 SWAP2 POP PUSH2 0x2ECF JUMP JUMPDEST DUP3 DUP5 MUL SWAP1 POP DUP3 DUP5 DUP3 DUP2 ISZERO ISZERO PUSH2 0x2EC1 JUMPI INVALID JUMPDEST DIV EQ ISZERO ISZERO PUSH2 0x2ECB JUMPI INVALID JUMPDEST DUP1 SWAP2 POP JUMPDEST POP SWAP3 SWAP2 POP POP JUMP JUMPDEST PUSH1 0x0 DUP1 DUP3 DUP5 DUP2 ISZERO ISZERO PUSH2 0x2EE4 JUMPI INVALID JUMPDEST DIV SWAP1 POP DUP1 SWAP2 POP POP SWAP3 SWAP2 POP POP JUMP JUMPDEST PUSH1 0x0 DUP1 PUSH1 0x0 DUP1 PUSH2 0x2F00 DUP6 PUSH2 0x1557 JUMP JUMPDEST SWAP3 POP PUSH2 0x2F15 DUP4 DUP7 PUSH2 0x3189 SWAP1 SWAP2 SWAP1 PUSH4 0xFFFFFFFF AND JUMP JUMPDEST SWAP2 POP PUSH2 0x2F21 DUP7 DUP4 PUSH2 0x3229 JUMP JUMPDEST SWAP1 POP PUSH1 0x0 DUP4 GT DUP1 ISZERO PUSH2 0x2F30 JUMPI POP DUP1 JUMPDEST ISZERO PUSH2 0x2F63 JUMPI PUSH2 0x2F61 PUSH1 0x2 PUSH1 0x0 SWAP1 SLOAD SWAP1 PUSH2 0x100 EXP SWAP1 DIV PUSH20 0xFFFFFFFFFFFFFFFFFFFFFFFFFFFFFFFFFFFFFFFF AND DUP5 PUSH2 0x3229 JUMP JUMPDEST POP JUMPDEST DUP1 SWAP4 POP POP POP POP SWAP3 SWAP2 POP POP JUMP JUMPDEST PUSH1 0x0 DUP1 DUP3 DUP5 ADD SWAP1 POP DUP4 DUP2 LT ISZERO ISZERO ISZERO PUSH2 0x2F83 JUMPI INVALID JUMPDEST DUP1 SWAP2 POP POP SWAP3 SWAP2 POP POP JUMP JUMPDEST PUSH1 0x0 PUSH2 0x301E DUP3 PUSH1 0x1 PUSH1 0x0 CALLER PUSH20 0xFFFFFFFFFFFFFFFFFFFFFFFFFFFFFFFFFFFFFFFF AND PUSH20 0xFFFFFFFFFFFFFFFFFFFFFFFFFFFFFFFFFFFFFFFF AND DUP2 MSTORE PUSH1 0x20 ADD SWAP1 DUP2 MSTORE PUSH1 0x20 ADD PUSH1 0x0 KECCAK256 PUSH1 0x0 DUP7 PUSH20 0xFFFFFFFFFFFFFFFFFFFFFFFFFFFFFFFFFFFFFFFF AND PUSH20 0xFFFFFFFFFFFFFFFFFFFFFFFFFFFFFFFFFFFFFFFF AND DUP2 MSTORE PUSH1 0x20 ADD SWAP1 DUP2 MSTORE PUSH1 0x20 ADD PUSH1 0x0 KECCAK256 SLOAD PUSH2 0x2F6F SWAP1 SWAP2 SWAP1 PUSH4 0xFFFFFFFF AND JUMP JUMPDEST PUSH1 0x1 PUSH1 0x0 CALLER PUSH20 0xFFFFFFFFFFFFFFFFFFFFFFFFFFFFFFFFFFFFFFFF AND PUSH20 0xFFFFFFFFFFFFFFFFFFFFFFFFFFFFFFFFFFFFFFFF AND DUP2 MSTORE PUSH1 0x20 ADD SWAP1 DUP2 MSTORE PUSH1 0x20 ADD PUSH1 0x0 KECCAK256 PUSH1 0x0 DUP6 PUSH20 0xFFFFFFFFFFFFFFFFFFFFFFFFFFFFFFFFFFFFFFFF AND PUSH20 0xFFFFFFFFFFFFFFFFFFFFFFFFFFFFFFFFFFFFFFFF AND DUP2 MSTORE PUSH1 0x20 ADD SWAP1 DUP2 MSTORE PUSH1 0x20 ADD PUSH1 0x0 KECCAK256 DUP2 SWAP1 SSTORE POP DUP3 PUSH20 0xFFFFFFFFFFFFFFFFFFFFFFFFFFFFFFFFFFFFFFFF AND CALLER PUSH20 0xFFFFFFFFFFFFFFFFFFFFFFFFFFFFFFFFFFFFFFFF AND PUSH32 0x8C5BE1E5EBEC7D5BD14F71427D1E84F3DD0314C0F7B2291E5B200AC8C7C3B925 PUSH1 0x1 PUSH1 0x0 CALLER PUSH20 0xFFFFFFFFFFFFFFFFFFFFFFFFFFFFFFFFFFFFFFFF AND PUSH20 0xFFFFFFFFFFFFFFFFFFFFFFFFFFFFFFFFFFFFFFFF AND DUP2 MSTORE PUSH1 0x20 ADD SWAP1 DUP2 MSTORE PUSH1 0x20 ADD PUSH1 0x0 KECCAK256 PUSH1 0x0 DUP8 PUSH20 0xFFFFFFFFFFFFFFFFFFFFFFFFFFFFFFFFFFFFFFFF AND PUSH20 0xFFFFFFFFFFFFFFFFFFFFFFFFFFFFFFFFFFFFFFFF AND DUP2 MSTORE PUSH1 0x20 ADD SWAP1 DUP2 MSTORE PUSH1 0x20 ADD PUSH1 0x0 KECCAK256 SLOAD PUSH1 0x40 MLOAD DUP1 DUP3 DUP2 MSTORE PUSH1 0x20 ADD SWAP2 POP POP PUSH1 0x40 MLOAD DUP1 SWAP2 SUB SWAP1 LOG3 PUSH1 0x1 SWAP1 POP SWAP3 SWAP2 POP POP JUMP JUMPDEST PUSH1 0x0 DUP3 DUP3 GT ISZERO ISZERO ISZERO PUSH2 0x3197 JUMPI INVALID JUMPDEST DUP2 DUP4 SUB SWAP1 POP SWAP3 SWAP2 POP POP JUMP JUMPDEST PUSH1 0x0 PUSH1 0x1 PUSH1 0x0 DUP5 PUSH20 0xFFFFFFFFFFFFFFFFFFFFFFFFFFFFFFFFFFFFFFFF AND PUSH20 0xFFFFFFFFFFFFFFFFFFFFFFFFFFFFFFFFFFFFFFFF AND DUP2 MSTORE PUSH1 0x20 ADD SWAP1 DUP2 MSTORE PUSH1 0x20 ADD PUSH1 0x0 KECCAK256 PUSH1 0x0 DUP4 PUSH20 0xFFFFFFFFFFFFFFFFFFFFFFFFFFFFFFFFFFFFFFFF AND PUSH20 0xFFFFFFFFFFFFFFFFFFFFFFFFFFFFFFFFFFFFFFFF AND DUP2 MSTORE PUSH1 0x20 ADD SWAP1 DUP2 MSTORE PUSH1 0x20 ADD PUSH1 0x0 KECCAK256 SLOAD SWAP1 POP SWAP3 SWAP2 POP POP JUMP JUMPDEST PUSH1 0x0 DUP1 PUSH20 0xFFFFFFFFFFFFFFFFFFFFFFFFFFFFFFFFFFFFFFFF AND DUP4 PUSH20 0xFFFFFFFFFFFFFFFFFFFFFFFFFFFFFFFFFFFFFFFF AND EQ ISZERO ISZERO ISZERO PUSH2 0x3266 JUMPI PUSH1 0x0 DUP1 REVERT JUMPDEST PUSH1 0x0 DUP1 CALLER PUSH20 0xFFFFFFFFFFFFFFFFFFFFFFFFFFFFFFFFFFFFFFFF AND PUSH20 0xFFFFFFFFFFFFFFFFFFFFFFFFFFFFFFFFFFFFFFFF AND DUP2 MSTORE PUSH1 0x20 ADD SWAP1 DUP2 MSTORE PUSH1 0x20 ADD PUSH1 0x0 KECCAK256 SLOAD DUP3 GT ISZERO ISZERO ISZERO PUSH2 0x32B3 JUMPI PUSH1 0x0 DUP1 REVERT JUMPDEST PUSH2 0x3304 DUP3 PUSH1 0x0 DUP1 CALLER PUSH20 0xFFFFFFFFFFFFFFFFFFFFFFFFFFFFFFFFFFFFFFFF AND PUSH20 0xFFFFFFFFFFFFFFFFFFFFFFFFFFFFFFFFFFFFFFFF AND DUP2 MSTORE PUSH1 0x20 ADD SWAP1 DUP2 MSTORE PUSH1 0x20 ADD PUSH1 0x0 KECCAK256 SLOAD PUSH2 0x3189 SWAP1 SWAP2 SWAP1 PUSH4 0xFFFFFFFF AND JUMP JUMPDEST PUSH1 0x0 DUP1 CALLER PUSH20 0xFFFFFFFFFFFFFFFFFFFFFFFFFFFFFFFFFFFFFFFF AND PUSH20 0xFFFFFFFFFFFFFFFFFFFFFFFFFFFFFFFFFFFFFFFF AND DUP2 MSTORE PUSH1 0x20 ADD SWAP1 DUP2 MSTORE PUSH1 0x20 ADD PUSH1 0x0 KECCAK256 DUP2 SWAP1 SSTORE POP PUSH2 0x3397 DUP3 PUSH1 0x0 DUP1 DUP7 PUSH20 0xFFFFFFFFFFFFFFFFFFFFFFFFFFFFFFFFFFFFFFFF AND PUSH20 0xFFFFFFFFFFFFFFFFFFFFFFFFFFFFFFFFFFFFFFFF AND DUP2 MSTORE PUSH1 0x20 ADD SWAP1 DUP2 MSTORE PUSH1 0x20 ADD PUSH1 0x0 KECCAK256 SLOAD PUSH2 0x2F6F SWAP1 SWAP2 SWAP1 PUSH4 0xFFFFFFFF AND JUMP JUMPDEST PUSH1 0x0 DUP1 DUP6 PUSH20 0xFFFFFFFFFFFFFFFFFFFFFFFFFFFFFFFFFFFFFFFF AND PUSH20 0xFFFFFFFFFFFFFFFFFFFFFFFFFFFFFFFFFFFFFFFF AND DUP2 MSTORE PUSH1 0x20 ADD SWAP1 DUP2 MSTORE PUSH1 0x20 ADD PUSH1 0x0 KECCAK256 DUP2 SWAP1 SSTORE POP DUP3 PUSH20 0xFFFFFFFFFFFFFFFFFFFFFFFFFFFFFFFFFFFFFFFF AND CALLER PUSH20 0xFFFFFFFFFFFFFFFFFFFFFFFFFFFFFFFFFFFFFFFF AND PUSH32 0xDDF252AD1BE2C89B69C2B068FC378DAA952BA7F163C4A11628F55A4DF523B3EF DUP5 PUSH1 0x40 MLOAD DUP1 DUP3 DUP2 MSTORE PUSH1 0x20 ADD SWAP2 POP POP PUSH1 0x40 MLOAD DUP1 SWAP2 SUB SWAP1 LOG3 PUSH1 0x1 SWAP1 POP SWAP3 SWAP2 POP POP JUMP STOP LOG1 PUSH6 0x627A7A723058 KECCAK256 RETURNDATACOPY PUSH3 0xCA0DD7 0x1d PUSH6 0x339157171F4A PUSH7 0xE46E51F4B94D73 0xc9 0xdd 0x49 DIFFICULTY LOG1 DUP3 SWAP8 SWAP3 0xa9 0xae ADDRESS STOP 0x29 "
				},
				"gasEstimates": {
					"creation": {
						"codeDepositCost": "2685600",
						"executionCost": "infinite",
						"totalCost": "infinite"
					},
					"external": {
						"MAX_UINT()": "846",
						"_totalSupply()": "606",
						"addBlackList(address)": "22052",
						"allowance(address,address)": "infinite",
						"approve(address,uint256)": "infinite",
						"balanceOf(address)": "infinite",
						"basisPointsRate()": "980",
						"calcFee(uint256)": "infinite",
						"decimals()": "610",
						"decreaseApproval(address,uint256)": "infinite",
						"deprecate(address)": "42172",
						"deprecated()": "550",
						"destroyBlackFunds(address)": "infinite",
						"getBlackListStatus(address)": "841",
						"increaseApproval(address,uint256)": "infinite",
						"isBlackListed(address)": "1155",
						"issue(uint256)": "infinite",
						"maximumFee()": "584",
						"name()": "infinite",
						"oldBalanceOf(address)": "1351",
						"owner()": "830",
						"pause()": "22184",
						"paused()": "770",
						"redeem(uint256)": "infinite",
						"removeBlackList(address)": "22602",
						"setParams(uint256,uint256)": "infinite",
						"symbol()": "infinite",
						"totalSupply()": "infinite",
						"transfer(address,uint256)": "infinite",
						"transferFrom(address,address,uint256)": "infinite",
						"transferOwnership(address)": "23220",
						"unpause()": "22049",
						"upgradedAddress()": "588"
					}
				},
				"methodIdentifiers": {
					"MAX_UINT()": "e5b5019a",
					"_totalSupply()": "3eaaf86b",
					"addBlackList(address)": "0ecb93c0",
					"allowance(address,address)": "dd62ed3e",
					"approve(address,uint256)": "095ea7b3",
					"balanceOf(address)": "70a08231",
					"basisPointsRate()": "dd644f72",
					"calcFee(uint256)": "75dc7d8c",
					"decimals()": "313ce567",
					"decreaseApproval(address,uint256)": "66188463",
					"deprecate(address)": "0753c30c",
					"deprecated()": "0e136b19",
					"destroyBlackFunds(address)": "f3bdc228",
					"getBlackListStatus(address)": "59bf1abe",
					"increaseApproval(address,uint256)": "d73dd623",
					"isBlackListed(address)": "e47d6060",
					"issue(uint256)": "cc872b66",
					"maximumFee()": "35390714",
					"name()": "06fdde03",
					"oldBalanceOf(address)": "b7a3446c",
					"owner()": "8da5cb5b",
					"pause()": "8456cb59",
					"paused()": "5c975abb",
					"redeem(uint256)": "db006a75",
					"removeBlackList(address)": "e4997dc5",
					"setParams(uint256,uint256)": "c0324c77",
					"symbol()": "95d89b41",
					"totalSupply()": "18160ddd",
					"transfer(address,uint256)": "a9059cbb",
					"transferFrom(address,address,uint256)": "23b872dd",
					"transferOwnership(address)": "f2fde38b",
					"unpause()": "3f4ba83a",
					"upgradedAddress()": "26976e3f"
				}
			},
			"userdoc": {
				"methods": {}
			}
		}
	}
}