{
	"Token USDT/TeterToken.sol": {
		"BlackList": {
			"abi": [
				{
					"constant": false,
					"inputs": [
						{
							"name": "_evilUser",
							"type": "address"
						}
					],
					"name": "addBlackList",
					"outputs": [],
					"payable": false,
					"stateMutability": "nonpayable",
					"type": "function"
				},
				{
					"constant": true,
					"inputs": [
						{
							"name": "_maker",
							"type": "address"
						}
					],
					"name": "getBlackListStatus",
					"outputs": [
						{
							"name": "",
							"type": "bool"
						}
					],
					"payable": false,
					"stateMutability": "view",
					"type": "function"
				},
				{
					"constant": true,
					"inputs": [],
					"name": "owner",
					"outputs": [
						{
							"name": "",
							"type": "address"
						}
					],
					"payable": false,
					"stateMutability": "view",
					"type": "function"
				},
				{
					"constant": true,
					"inputs": [
						{
							"name": "",
							"type": "address"
						}
					],
					"name": "isBlackListed",
					"outputs": [
						{
							"name": "",
							"type": "bool"
						}
					],
					"payable": false,
					"stateMutability": "view",
					"type": "function"
				},
				{
					"constant": false,
					"inputs": [
						{
							"name": "_clearedUser",
							"type": "address"
						}
					],
					"name": "removeBlackList",
					"outputs": [],
					"payable": false,
					"stateMutability": "nonpayable",
					"type": "function"
				},
				{
					"constant": false,
					"inputs": [
						{
							"name": "newOwner",
							"type": "address"
						}
					],
					"name": "transferOwnership",
					"outputs": [],
					"payable": false,
					"stateMutability": "nonpayable",
					"type": "function"
				},
				{
					"anonymous": false,
					"inputs": [
						{
							"indexed": true,
							"name": "_user",
							"type": "address"
						}
					],
					"name": "AddedBlackList",
					"type": "event"
				},
				{
					"anonymous": false,
					"inputs": [
						{
							"indexed": true,
							"name": "_user",
							"type": "address"
						}
					],
					"name": "RemovedBlackList",
					"type": "event"
				},
				{
					"anonymous": false,
					"inputs": [
						{
							"indexed": true,
							"name": "previousOwner",
							"type": "address"
						},
						{
							"indexed": true,
							"name": "newOwner",
							"type": "address"
						}
					],
					"name": "OwnershipTransferred",
					"type": "event"
				}
			],
			"devdoc": {
				"methods": {},
				"title": "BlackList\r"
			},
			"evm": {
				"assembly": "    /* \"Token USDT/TeterToken.sol\":2966:3612  contract BlackList is Ownable {\r... */\n  mstore(0x40, 0x80)\n    /* \"Token USDT/TeterToken.sol\":2034:2044  msg.sender */\n  caller\n    /* \"Token USDT/TeterToken.sol\":2026:2031  owner */\n  0x0\n  dup1\n    /* \"Token USDT/TeterToken.sol\":2026:2044  owner = msg.sender */\n  0x100\n  exp\n  dup2\n  sload\n  dup2\n  0xffffffffffffffffffffffffffffffffffffffff\n  mul\n  not\n  and\n  swap1\n  dup4\n  0xffffffffffffffffffffffffffffffffffffffff\n  and\n  mul\n  or\n  swap1\n  sstore\n  pop\n    /* \"Token USDT/TeterToken.sol\":2966:3612  contract BlackList is Ownable {\r... */\n  dataSize(sub_0)\n  dup1\n  dataOffset(sub_0)\n  0x0\n  codecopy\n  0x0\n  return\nstop\n\nsub_0: assembly {\n        /* \"Token USDT/TeterToken.sol\":2966:3612  contract BlackList is Ownable {\r... */\n      mstore(0x40, 0x80)\n      jumpi(tag_1, lt(calldatasize, 0x4))\n      calldataload(0x0)\n      0x100000000000000000000000000000000000000000000000000000000\n      swap1\n      div\n      0xffffffff\n      and\n      dup1\n      0xecb93c0\n      eq\n      tag_2\n      jumpi\n      dup1\n      0x59bf1abe\n      eq\n      tag_3\n      jumpi\n      dup1\n      0x8da5cb5b\n      eq\n      tag_4\n      jumpi\n      dup1\n      0xe47d6060\n      eq\n      tag_5\n      jumpi\n      dup1\n      0xe4997dc5\n      eq\n      tag_6\n      jumpi\n      dup1\n      0xf2fde38b\n      eq\n      tag_7\n      jumpi\n    tag_1:\n      0x0\n      dup1\n      revert\n        /* \"Token USDT/TeterToken.sol\":3192:3337  function addBlackList (address _evilUser) public onlyOwner {\r... */\n    tag_2:\n      callvalue\n        /* \"--CODEGEN--\":8:17   */\n      dup1\n        /* \"--CODEGEN--\":5:7   */\n      iszero\n      tag_8\n      jumpi\n        /* \"--CODEGEN--\":30:31   */\n      0x0\n        /* \"--CODEGEN--\":27:28   */\n      dup1\n        /* \"--CODEGEN--\":20:32   */\n      revert\n        /* \"--CODEGEN--\":5:7   */\n    tag_8:\n        /* \"Token USDT/TeterToken.sol\":3192:3337  function addBlackList (address _evilUser) public onlyOwner {\r... */\n      pop\n      tag_9\n      0x4\n      dup1\n      calldatasize\n      sub\n      dup2\n      add\n      swap1\n      dup1\n      dup1\n      calldataload\n      0xffffffffffffffffffffffffffffffffffffffff\n      and\n      swap1\n      0x20\n      add\n      swap1\n      swap3\n      swap2\n      swap1\n      pop\n      pop\n      pop\n      jump(tag_10)\n    tag_9:\n      stop\n        /* \"Token USDT/TeterToken.sol\":3005:3129  function getBlackListStatus(address _maker) external constant returns (bool) {\r... */\n    tag_3:\n      callvalue\n        /* \"--CODEGEN--\":8:17   */\n      dup1\n        /* \"--CODEGEN--\":5:7   */\n      iszero\n      tag_11\n      jumpi\n        /* \"--CODEGEN--\":30:31   */\n      0x0\n        /* \"--CODEGEN--\":27:28   */\n      dup1\n        /* \"--CODEGEN--\":20:32   */\n      revert\n        /* \"--CODEGEN--\":5:7   */\n    tag_11:\n        /* \"Token USDT/TeterToken.sol\":3005:3129  function getBlackListStatus(address _maker) external constant returns (bool) {\r... */\n      pop\n      tag_12\n      0x4\n      dup1\n      calldatasize\n      sub\n      dup2\n      add\n      swap1\n      dup1\n      dup1\n      calldataload\n      0xffffffffffffffffffffffffffffffffffffffff\n      and\n      swap1\n      0x20\n      add\n      swap1\n      swap3\n      swap2\n      swap1\n      pop\n      pop\n      pop\n      jump(tag_13)\n    tag_12:\n      mload(0x40)\n      dup1\n      dup3\n      iszero\n      iszero\n      iszero\n      iszero\n      dup2\n      mstore\n      0x20\n      add\n      swap2\n      pop\n      pop\n      mload(0x40)\n      dup1\n      swap2\n      sub\n      swap1\n      return\n        /* \"Token USDT/TeterToken.sol\":1876:1896  address public owner */\n    tag_4:\n      callvalue\n        /* \"--CODEGEN--\":8:17   */\n      dup1\n        /* \"--CODEGEN--\":5:7   */\n      iszero\n      tag_14\n      jumpi\n        /* \"--CODEGEN--\":30:31   */\n      0x0\n        /* \"--CODEGEN--\":27:28   */\n      dup1\n        /* \"--CODEGEN--\":20:32   */\n      revert\n        /* \"--CODEGEN--\":5:7   */\n    tag_14:\n        /* \"Token USDT/TeterToken.sol\":1876:1896  address public owner */\n      pop\n      tag_15\n      jump(tag_16)\n    tag_15:\n      mload(0x40)\n      dup1\n      dup3\n      0xffffffffffffffffffffffffffffffffffffffff\n      and\n      0xffffffffffffffffffffffffffffffffffffffff\n      and\n      dup2\n      mstore\n      0x20\n      add\n      swap2\n      pop\n      pop\n      mload(0x40)\n      dup1\n      swap2\n      sub\n      swap1\n      return\n        /* \"Token USDT/TeterToken.sol\":3137:3183  mapping (address => bool) public isBlackListed */\n    tag_5:\n      callvalue\n        /* \"--CODEGEN--\":8:17   */\n      dup1\n        /* \"--CODEGEN--\":5:7   */\n      iszero\n      tag_17\n      jumpi\n        /* \"--CODEGEN--\":30:31   */\n      0x0\n        /* \"--CODEGEN--\":27:28   */\n      dup1\n        /* \"--CODEGEN--\":20:32   */\n      revert\n        /* \"--CODEGEN--\":5:7   */\n    tag_17:\n        /* \"Token USDT/TeterToken.sol\":3137:3183  mapping (address => bool) public isBlackListed */\n      pop\n      tag_18\n      0x4\n      dup1\n      calldatasize\n      sub\n      dup2\n      add\n      swap1\n      dup1\n      dup1\n      calldataload\n      0xffffffffffffffffffffffffffffffffffffffff\n      and\n      swap1\n      0x20\n      add\n      swap1\n      swap3\n      swap2\n      swap1\n      pop\n      pop\n      pop\n      jump(tag_19)\n    tag_18:\n      mload(0x40)\n      dup1\n      dup3\n      iszero\n      iszero\n      iszero\n      iszero\n      dup2\n      mstore\n      0x20\n      add\n      swap2\n      pop\n      pop\n      mload(0x40)\n      dup1\n      swap2\n      sub\n      swap1\n      return\n        /* \"Token USDT/TeterToken.sol\":3345:3505  function removeBlackList (address _clearedUser) public onlyOwner {\r... */\n    tag_6:\n      callvalue\n        /* \"--CODEGEN--\":8:17   */\n      dup1\n        /* \"--CODEGEN--\":5:7   */\n      iszero\n      tag_20\n      jumpi\n        /* \"--CODEGEN--\":30:31   */\n      0x0\n        /* \"--CODEGEN--\":27:28   */\n      dup1\n        /* \"--CODEGEN--\":20:32   */\n      revert\n        /* \"--CODEGEN--\":5:7   */\n    tag_20:\n        /* \"Token USDT/TeterToken.sol\":3345:3505  function removeBlackList (address _clearedUser) public onlyOwner {\r... */\n      pop\n      tag_21\n      0x4\n      dup1\n      calldatasize\n      sub\n      dup2\n      add\n      swap1\n      dup1\n      dup1\n      calldataload\n      0xffffffffffffffffffffffffffffffffffffffff\n      and\n      swap1\n      0x20\n      add\n      swap1\n      swap3\n      swap2\n      swap1\n      pop\n      pop\n      pop\n      jump(tag_22)\n    tag_21:\n      stop\n        /* \"Token USDT/TeterToken.sol\":2132:2305  function transferOwnership(address newOwner) public onlyOwner {\r... */\n    tag_7:\n      callvalue\n        /* \"--CODEGEN--\":8:17   */\n      dup1\n        /* \"--CODEGEN--\":5:7   */\n      iszero\n      tag_23\n      jumpi\n        /* \"--CODEGEN--\":30:31   */\n      0x0\n        /* \"--CODEGEN--\":27:28   */\n      dup1\n        /* \"--CODEGEN--\":20:32   */\n      revert\n        /* \"--CODEGEN--\":5:7   */\n    tag_23:\n        /* \"Token USDT/TeterToken.sol\":2132:2305  function transferOwnership(address newOwner) public onlyOwner {\r... */\n      pop\n      tag_24\n      0x4\n      dup1\n      calldatasize\n      sub\n      dup2\n      add\n      swap1\n      dup1\n      dup1\n      calldataload\n      0xffffffffffffffffffffffffffffffffffffffff\n      and\n      swap1\n      0x20\n      add\n      swap1\n      swap3\n      swap2\n      swap1\n      pop\n      pop\n      pop\n      jump(tag_25)\n    tag_24:\n      stop\n        /* \"Token USDT/TeterToken.sol\":3192:3337  function addBlackList (address _evilUser) public onlyOwner {\r... */\n    tag_10:\n        /* \"Token USDT/TeterToken.sol\":2106:2111  owner */\n      0x0\n      dup1\n      swap1\n      sload\n      swap1\n      0x100\n      exp\n      swap1\n      div\n      0xffffffffffffffffffffffffffffffffffffffff\n      and\n        /* \"Token USDT/TeterToken.sol\":2092:2111  msg.sender == owner */\n      0xffffffffffffffffffffffffffffffffffffffff\n      and\n        /* \"Token USDT/TeterToken.sol\":2092:2102  msg.sender */\n      caller\n        /* \"Token USDT/TeterToken.sol\":2092:2111  msg.sender == owner */\n      0xffffffffffffffffffffffffffffffffffffffff\n      and\n      eq\n        /* \"Token USDT/TeterToken.sol\":2084:2112  require(msg.sender == owner) */\n      iszero\n      iszero\n      tag_27\n      jumpi\n      0x0\n      dup1\n      revert\n    tag_27:\n        /* \"Token USDT/TeterToken.sol\":3289:3293  true */\n      0x1\n        /* \"Token USDT/TeterToken.sol\":3262:3275  isBlackListed */\n      dup1\n        /* \"Token USDT/TeterToken.sol\":3262:3286  isBlackListed[_evilUser] */\n      0x0\n        /* \"Token USDT/TeterToken.sol\":3276:3285  _evilUser */\n      dup4\n        /* \"Token USDT/TeterToken.sol\":3262:3286  isBlackListed[_evilUser] */\n      0xffffffffffffffffffffffffffffffffffffffff\n      and\n      0xffffffffffffffffffffffffffffffffffffffff\n      and\n      dup2\n      mstore\n      0x20\n      add\n      swap1\n      dup2\n      mstore\n      0x20\n      add\n      0x0\n      keccak256\n      0x0\n        /* \"Token USDT/TeterToken.sol\":3262:3293  isBlackListed[_evilUser] = true */\n      0x100\n      exp\n      dup2\n      sload\n      dup2\n      0xff\n      mul\n      not\n      and\n      swap1\n      dup4\n      iszero\n      iszero\n      mul\n      or\n      swap1\n      sstore\n      pop\n        /* \"Token USDT/TeterToken.sol\":3319:3328  _evilUser */\n      dup1\n        /* \"Token USDT/TeterToken.sol\":3304:3329  AddedBlackList(_evilUser) */\n      0xffffffffffffffffffffffffffffffffffffffff\n      and\n      0x42e160154868087d6bfdc0ca23d96a1c1cfa32f1b72ba9ba27b69b98a0d819dc\n      mload(0x40)\n      mload(0x40)\n      dup1\n      swap2\n      sub\n      swap1\n      log2\n        /* \"Token USDT/TeterToken.sol\":3192:3337  function addBlackList (address _evilUser) public onlyOwner {\r... */\n      pop\n      jump\t// out\n        /* \"Token USDT/TeterToken.sol\":3005:3129  function getBlackListStatus(address _maker) external constant returns (bool) {\r... */\n    tag_13:\n        /* \"Token USDT/TeterToken.sol\":3076:3080  bool */\n      0x0\n        /* \"Token USDT/TeterToken.sol\":3100:3113  isBlackListed */\n      0x1\n        /* \"Token USDT/TeterToken.sol\":3100:3121  isBlackListed[_maker] */\n      0x0\n        /* \"Token USDT/TeterToken.sol\":3114:3120  _maker */\n      dup4\n        /* \"Token USDT/TeterToken.sol\":3100:3121  isBlackListed[_maker] */\n      0xffffffffffffffffffffffffffffffffffffffff\n      and\n      0xffffffffffffffffffffffffffffffffffffffff\n      and\n      dup2\n      mstore\n      0x20\n      add\n      swap1\n      dup2\n      mstore\n      0x20\n      add\n      0x0\n      keccak256\n      0x0\n      swap1\n      sload\n      swap1\n      0x100\n      exp\n      swap1\n      div\n      0xff\n      and\n        /* \"Token USDT/TeterToken.sol\":3093:3121  return isBlackListed[_maker] */\n      swap1\n      pop\n        /* \"Token USDT/TeterToken.sol\":3005:3129  function getBlackListStatus(address _maker) external constant returns (bool) {\r... */\n      swap2\n      swap1\n      pop\n      jump\t// out\n        /* \"Token USDT/TeterToken.sol\":1876:1896  address public owner */\n    tag_16:\n      0x0\n      dup1\n      swap1\n      sload\n      swap1\n      0x100\n      exp\n      swap1\n      div\n      0xffffffffffffffffffffffffffffffffffffffff\n      and\n      dup2\n      jump\t// out\n        /* \"Token USDT/TeterToken.sol\":3137:3183  mapping (address => bool) public isBlackListed */\n    tag_19:\n      mstore(0x20, 0x1)\n      dup1\n      0x0\n      mstore\n      keccak256(0x0, 0x40)\n      0x0\n      swap2\n      pop\n      sload\n      swap1\n      0x100\n      exp\n      swap1\n      div\n      0xff\n      and\n      dup2\n      jump\t// out\n        /* \"Token USDT/TeterToken.sol\":3345:3505  function removeBlackList (address _clearedUser) public onlyOwner {\r... */\n    tag_22:\n        /* \"Token USDT/TeterToken.sol\":2106:2111  owner */\n      0x0\n      dup1\n      swap1\n      sload\n      swap1\n      0x100\n      exp\n      swap1\n      div\n      0xffffffffffffffffffffffffffffffffffffffff\n      and\n        /* \"Token USDT/TeterToken.sol\":2092:2111  msg.sender == owner */\n      0xffffffffffffffffffffffffffffffffffffffff\n      and\n        /* \"Token USDT/TeterToken.sol\":2092:2102  msg.sender */\n      caller\n        /* \"Token USDT/TeterToken.sol\":2092:2111  msg.sender == owner */\n      0xffffffffffffffffffffffffffffffffffffffff\n      and\n      eq\n        /* \"Token USDT/TeterToken.sol\":2084:2112  require(msg.sender == owner) */\n      iszero\n      iszero\n      tag_31\n      jumpi\n      0x0\n      dup1\n      revert\n    tag_31:\n        /* \"Token USDT/TeterToken.sol\":3451:3456  false */\n      0x0\n        /* \"Token USDT/TeterToken.sol\":3421:3434  isBlackListed */\n      0x1\n        /* \"Token USDT/TeterToken.sol\":3421:3448  isBlackListed[_clearedUser] */\n      0x0\n        /* \"Token USDT/TeterToken.sol\":3435:3447  _clearedUser */\n      dup4\n        /* \"Token USDT/TeterToken.sol\":3421:3448  isBlackListed[_clearedUser] */\n      0xffffffffffffffffffffffffffffffffffffffff\n      and\n      0xffffffffffffffffffffffffffffffffffffffff\n      and\n      dup2\n      mstore\n      0x20\n      add\n      swap1\n      dup2\n      mstore\n      0x20\n      add\n      0x0\n      keccak256\n      0x0\n        /* \"Token USDT/TeterToken.sol\":3421:3456  isBlackListed[_clearedUser] = false */\n      0x100\n      exp\n      dup2\n      sload\n      dup2\n      0xff\n      mul\n      not\n      and\n      swap1\n      dup4\n      iszero\n      iszero\n      mul\n      or\n      swap1\n      sstore\n      pop\n        /* \"Token USDT/TeterToken.sol\":3484:3496  _clearedUser */\n      dup1\n        /* \"Token USDT/TeterToken.sol\":3467:3497  RemovedBlackList(_clearedUser) */\n      0xffffffffffffffffffffffffffffffffffffffff\n      and\n      0xd7e9ec6e6ecd65492dce6bf513cd6867560d49544421d0783ddf06e76c24470c\n      mload(0x40)\n      mload(0x40)\n      dup1\n      swap2\n      sub\n      swap1\n      log2\n        /* \"Token USDT/TeterToken.sol\":3345:3505  function removeBlackList (address _clearedUser) public onlyOwner {\r... */\n      pop\n      jump\t// out\n        /* \"Token USDT/TeterToken.sol\":2132:2305  function transferOwnership(address newOwner) public onlyOwner {\r... */\n    tag_25:\n        /* \"Token USDT/TeterToken.sol\":2106:2111  owner */\n      0x0\n      dup1\n      swap1\n      sload\n      swap1\n      0x100\n      exp\n      swap1\n      div\n      0xffffffffffffffffffffffffffffffffffffffff\n      and\n        /* \"Token USDT/TeterToken.sol\":2092:2111  msg.sender == owner */\n      0xffffffffffffffffffffffffffffffffffffffff\n      and\n        /* \"Token USDT/TeterToken.sol\":2092:2102  msg.sender */\n      caller\n        /* \"Token USDT/TeterToken.sol\":2092:2111  msg.sender == owner */\n      0xffffffffffffffffffffffffffffffffffffffff\n      and\n      eq\n        /* \"Token USDT/TeterToken.sol\":2084:2112  require(msg.sender == owner) */\n      iszero\n      iszero\n      tag_34\n      jumpi\n      0x0\n      dup1\n      revert\n    tag_34:\n        /* \"Token USDT/TeterToken.sol\":2229:2230  0 */\n      0x0\n        /* \"Token USDT/TeterToken.sol\":2209:2231  newOwner != address(0) */\n      0xffffffffffffffffffffffffffffffffffffffff\n      and\n        /* \"Token USDT/TeterToken.sol\":2209:2217  newOwner */\n      dup2\n        /* \"Token USDT/TeterToken.sol\":2209:2231  newOwner != address(0) */\n      0xffffffffffffffffffffffffffffffffffffffff\n      and\n      eq\n      iszero\n        /* \"Token USDT/TeterToken.sol\":2201:2232  require(newOwner != address(0)) */\n      iszero\n      iszero\n      tag_36\n      jumpi\n      0x0\n      dup1\n      revert\n    tag_36:\n        /* \"Token USDT/TeterToken.sol\":2267:2275  newOwner */\n      dup1\n        /* \"Token USDT/TeterToken.sol\":2239:2276  OwnershipTransferred(owner, newOwner) */\n      0xffffffffffffffffffffffffffffffffffffffff\n      and\n        /* \"Token USDT/TeterToken.sol\":2260:2265  owner */\n      0x0\n      dup1\n      swap1\n      sload\n      swap1\n      0x100\n      exp\n      swap1\n      div\n      0xffffffffffffffffffffffffffffffffffffffff\n      and\n        /* \"Token USDT/TeterToken.sol\":2239:2276  OwnershipTransferred(owner, newOwner) */\n      0xffffffffffffffffffffffffffffffffffffffff\n      and\n      0x8be0079c531659141344cd1fd0a4f28419497f9722a3daafe3b4186f6b6457e0\n      mload(0x40)\n      mload(0x40)\n      dup1\n      swap2\n      sub\n      swap1\n      log3\n        /* \"Token USDT/TeterToken.sol\":2291:2299  newOwner */\n      dup1\n        /* \"Token USDT/TeterToken.sol\":2283:2288  owner */\n      0x0\n      dup1\n        /* \"Token USDT/TeterToken.sol\":2283:2299  owner = newOwner */\n      0x100\n      exp\n      dup2\n      sload\n      dup2\n      0xffffffffffffffffffffffffffffffffffffffff\n      mul\n      not\n      and\n      swap1\n      dup4\n      0xffffffffffffffffffffffffffffffffffffffff\n      and\n      mul\n      or\n      swap1\n      sstore\n      pop\n        /* \"Token USDT/TeterToken.sol\":2132:2305  function transferOwnership(address newOwner) public onlyOwner {\r... */\n      pop\n      jump\t// out\n\n    auxdata: 0xa165627a7a72305820510631cbd93602627c745f3a82a1160431d1d548f4534d9c88cf16fe95445fb60029\n}\n",
				"bytecode": {
					"linkReferences": {},
					"object": "6080604052336000806101000a81548173ffffffffffffffffffffffffffffffffffffffff021916908373ffffffffffffffffffffffffffffffffffffffff160217905550610660806100536000396000f300608060405260043610610078576000357c0100000000000000000000000000000000000000000000000000000000900463ffffffff1680630ecb93c01461007d57806359bf1abe146100c05780638da5cb5b1461011b578063e47d606014610172578063e4997dc5146101cd578063f2fde38b14610210575b600080fd5b34801561008957600080fd5b506100be600480360381019080803573ffffffffffffffffffffffffffffffffffffffff169060200190929190505050610253565b005b3480156100cc57600080fd5b50610101600480360381019080803573ffffffffffffffffffffffffffffffffffffffff16906020019092919050505061034b565b604051808215151515815260200191505060405180910390f35b34801561012757600080fd5b506101306103a1565b604051808273ffffffffffffffffffffffffffffffffffffffff1673ffffffffffffffffffffffffffffffffffffffff16815260200191505060405180910390f35b34801561017e57600080fd5b506101b3600480360381019080803573ffffffffffffffffffffffffffffffffffffffff1690602001909291905050506103c6565b604051808215151515815260200191505060405180910390f35b3480156101d957600080fd5b5061020e600480360381019080803573ffffffffffffffffffffffffffffffffffffffff1690602001909291905050506103e6565b005b34801561021c57600080fd5b50610251600480360381019080803573ffffffffffffffffffffffffffffffffffffffff1690602001909291905050506104df565b005b6000809054906101000a900473ffffffffffffffffffffffffffffffffffffffff1673ffffffffffffffffffffffffffffffffffffffff163373ffffffffffffffffffffffffffffffffffffffff161415156102ae57600080fd5b60018060008373ffffffffffffffffffffffffffffffffffffffff1673ffffffffffffffffffffffffffffffffffffffff16815260200190815260200160002060006101000a81548160ff0219169083151502179055508073ffffffffffffffffffffffffffffffffffffffff167f42e160154868087d6bfdc0ca23d96a1c1cfa32f1b72ba9ba27b69b98a0d819dc60405160405180910390a250565b6000600160008373ffffffffffffffffffffffffffffffffffffffff1673ffffffffffffffffffffffffffffffffffffffff16815260200190815260200160002060009054906101000a900460ff169050919050565b6000809054906101000a900473ffffffffffffffffffffffffffffffffffffffff1681565b60016020528060005260406000206000915054906101000a900460ff1681565b6000809054906101000a900473ffffffffffffffffffffffffffffffffffffffff1673ffffffffffffffffffffffffffffffffffffffff163373ffffffffffffffffffffffffffffffffffffffff1614151561044157600080fd5b6000600160008373ffffffffffffffffffffffffffffffffffffffff1673ffffffffffffffffffffffffffffffffffffffff16815260200190815260200160002060006101000a81548160ff0219169083151502179055508073ffffffffffffffffffffffffffffffffffffffff167fd7e9ec6e6ecd65492dce6bf513cd6867560d49544421d0783ddf06e76c24470c60405160405180910390a250565b6000809054906101000a900473ffffffffffffffffffffffffffffffffffffffff1673ffffffffffffffffffffffffffffffffffffffff163373ffffffffffffffffffffffffffffffffffffffff1614151561053a57600080fd5b600073ffffffffffffffffffffffffffffffffffffffff168173ffffffffffffffffffffffffffffffffffffffff161415151561057657600080fd5b8073ffffffffffffffffffffffffffffffffffffffff166000809054906101000a900473ffffffffffffffffffffffffffffffffffffffff1673ffffffffffffffffffffffffffffffffffffffff167f8be0079c531659141344cd1fd0a4f28419497f9722a3daafe3b4186f6b6457e060405160405180910390a3806000806101000a81548173ffffffffffffffffffffffffffffffffffffffff021916908373ffffffffffffffffffffffffffffffffffffffff160217905550505600a165627a7a72305820510631cbd93602627c745f3a82a1160431d1d548f4534d9c88cf16fe95445fb60029",
					"opcodes": "PUSH1 0x80 PUSH1 0x40 MSTORE CALLER PUSH1 0x0 DUP1 PUSH2 0x100 EXP DUP2 SLOAD DUP2 PUSH20 0xFFFFFFFFFFFFFFFFFFFFFFFFFFFFFFFFFFFFFFFF MUL NOT AND SWAP1 DUP4 PUSH20 0xFFFFFFFFFFFFFFFFFFFFFFFFFFFFFFFFFFFFFFFF AND MUL OR SWAP1 SSTORE POP PUSH2 0x660 DUP1 PUSH2 0x53 PUSH1 0x0 CODECOPY PUSH1 0x0 RETURN STOP PUSH1 0x80 PUSH1 0x40 MSTORE PUSH1 0x4 CALLDATASIZE LT PUSH2 0x78 JUMPI PUSH1 0x0 CALLDATALOAD PUSH29 0x100000000000000000000000000000000000000000000000000000000 SWAP1 DIV PUSH4 0xFFFFFFFF AND DUP1 PUSH4 0xECB93C0 EQ PUSH2 0x7D JUMPI DUP1 PUSH4 0x59BF1ABE EQ PUSH2 0xC0 JUMPI DUP1 PUSH4 0x8DA5CB5B EQ PUSH2 0x11B JUMPI DUP1 PUSH4 0xE47D6060 EQ PUSH2 0x172 JUMPI DUP1 PUSH4 0xE4997DC5 EQ PUSH2 0x1CD JUMPI DUP1 PUSH4 0xF2FDE38B EQ PUSH2 0x210 JUMPI JUMPDEST PUSH1 0x0 DUP1 REVERT JUMPDEST CALLVALUE DUP1 ISZERO PUSH2 0x89 JUMPI PUSH1 0x0 DUP1 REVERT JUMPDEST POP PUSH2 0xBE PUSH1 0x4 DUP1 CALLDATASIZE SUB DUP2 ADD SWAP1 DUP1 DUP1 CALLDATALOAD PUSH20 0xFFFFFFFFFFFFFFFFFFFFFFFFFFFFFFFFFFFFFFFF AND SWAP1 PUSH1 0x20 ADD SWAP1 SWAP3 SWAP2 SWAP1 POP POP POP PUSH2 0x253 JUMP JUMPDEST STOP JUMPDEST CALLVALUE DUP1 ISZERO PUSH2 0xCC JUMPI PUSH1 0x0 DUP1 REVERT JUMPDEST POP PUSH2 0x101 PUSH1 0x4 DUP1 CALLDATASIZE SUB DUP2 ADD SWAP1 DUP1 DUP1 CALLDATALOAD PUSH20 0xFFFFFFFFFFFFFFFFFFFFFFFFFFFFFFFFFFFFFFFF AND SWAP1 PUSH1 0x20 ADD SWAP1 SWAP3 SWAP2 SWAP1 POP POP POP PUSH2 0x34B JUMP JUMPDEST PUSH1 0x40 MLOAD DUP1 DUP3 ISZERO ISZERO ISZERO ISZERO DUP2 MSTORE PUSH1 0x20 ADD SWAP2 POP POP PUSH1 0x40 MLOAD DUP1 SWAP2 SUB SWAP1 RETURN JUMPDEST CALLVALUE DUP1 ISZERO PUSH2 0x127 JUMPI PUSH1 0x0 DUP1 REVERT JUMPDEST POP PUSH2 0x130 PUSH2 0x3A1 JUMP JUMPDEST PUSH1 0x40 MLOAD DUP1 DUP3 PUSH20 0xFFFFFFFFFFFFFFFFFFFFFFFFFFFFFFFFFFFFFFFF AND PUSH20 0xFFFFFFFFFFFFFFFFFFFFFFFFFFFFFFFFFFFFFFFF AND DUP2 MSTORE PUSH1 0x20 ADD SWAP2 POP POP PUSH1 0x40 MLOAD DUP1 SWAP2 SUB SWAP1 RETURN JUMPDEST CALLVALUE DUP1 ISZERO PUSH2 0x17E JUMPI PUSH1 0x0 DUP1 REVERT JUMPDEST POP PUSH2 0x1B3 PUSH1 0x4 DUP1 CALLDATASIZE SUB DUP2 ADD SWAP1 DUP1 DUP1 CALLDATALOAD PUSH20 0xFFFFFFFFFFFFFFFFFFFFFFFFFFFFFFFFFFFFFFFF AND SWAP1 PUSH1 0x20 ADD SWAP1 SWAP3 SWAP2 SWAP1 POP POP POP PUSH2 0x3C6 JUMP JUMPDEST PUSH1 0x40 MLOAD DUP1 DUP3 ISZERO ISZERO ISZERO ISZERO DUP2 MSTORE PUSH1 0x20 ADD SWAP2 POP POP PUSH1 0x40 MLOAD DUP1 SWAP2 SUB SWAP1 RETURN JUMPDEST CALLVALUE DUP1 ISZERO PUSH2 0x1D9 JUMPI PUSH1 0x0 DUP1 REVERT JUMPDEST POP PUSH2 0x20E PUSH1 0x4 DUP1 CALLDATASIZE SUB DUP2 ADD SWAP1 DUP1 DUP1 CALLDATALOAD PUSH20 0xFFFFFFFFFFFFFFFFFFFFFFFFFFFFFFFFFFFFFFFF AND SWAP1 PUSH1 0x20 ADD SWAP1 SWAP3 SWAP2 SWAP1 POP POP POP PUSH2 0x3E6 JUMP JUMPDEST STOP JUMPDEST CALLVALUE DUP1 ISZERO PUSH2 0x21C JUMPI PUSH1 0x0 DUP1 REVERT JUMPDEST POP PUSH2 0x251 PUSH1 0x4 DUP1 CALLDATASIZE SUB DUP2 ADD SWAP1 DUP1 DUP1 CALLDATALOAD PUSH20 0xFFFFFFFFFFFFFFFFFFFFFFFFFFFFFFFFFFFFFFFF AND SWAP1 PUSH1 0x20 ADD SWAP1 SWAP3 SWAP2 SWAP1 POP POP POP PUSH2 0x4DF JUMP JUMPDEST STOP JUMPDEST PUSH1 0x0 DUP1 SWAP1 SLOAD SWAP1 PUSH2 0x100 EXP SWAP1 DIV PUSH20 0xFFFFFFFFFFFFFFFFFFFFFFFFFFFFFFFFFFFFFFFF AND PUSH20 0xFFFFFFFFFFFFFFFFFFFFFFFFFFFFFFFFFFFFFFFF AND CALLER PUSH20 0xFFFFFFFFFFFFFFFFFFFFFFFFFFFFFFFFFFFFFFFF AND EQ ISZERO ISZERO PUSH2 0x2AE JUMPI PUSH1 0x0 DUP1 REVERT JUMPDEST PUSH1 0x1 DUP1 PUSH1 0x0 DUP4 PUSH20 0xFFFFFFFFFFFFFFFFFFFFFFFFFFFFFFFFFFFFFFFF AND PUSH20 0xFFFFFFFFFFFFFFFFFFFFFFFFFFFFFFFFFFFFFFFF AND DUP2 MSTORE PUSH1 0x20 ADD SWAP1 DUP2 MSTORE PUSH1 0x20 ADD PUSH1 0x0 KECCAK256 PUSH1 0x0 PUSH2 0x100 EXP DUP2 SLOAD DUP2 PUSH1 0xFF MUL NOT AND SWAP1 DUP4 ISZERO ISZERO MUL OR SWAP1 SSTORE POP DUP1 PUSH20 0xFFFFFFFFFFFFFFFFFFFFFFFFFFFFFFFFFFFFFFFF AND PUSH32 0x42E160154868087D6BFDC0CA23D96A1C1CFA32F1B72BA9BA27B69B98A0D819DC PUSH1 0x40 MLOAD PUSH1 0x40 MLOAD DUP1 SWAP2 SUB SWAP1 LOG2 POP JUMP JUMPDEST PUSH1 0x0 PUSH1 0x1 PUSH1 0x0 DUP4 PUSH20 0xFFFFFFFFFFFFFFFFFFFFFFFFFFFFFFFFFFFFFFFF AND PUSH20 0xFFFFFFFFFFFFFFFFFFFFFFFFFFFFFFFFFFFFFFFF AND DUP2 MSTORE PUSH1 0x20 ADD SWAP1 DUP2 MSTORE PUSH1 0x20 ADD PUSH1 0x0 KECCAK256 PUSH1 0x0 SWAP1 SLOAD SWAP1 PUSH2 0x100 EXP SWAP1 DIV PUSH1 0xFF AND SWAP1 POP SWAP2 SWAP1 POP JUMP JUMPDEST PUSH1 0x0 DUP1 SWAP1 SLOAD SWAP1 PUSH2 0x100 EXP SWAP1 DIV PUSH20 0xFFFFFFFFFFFFFFFFFFFFFFFFFFFFFFFFFFFFFFFF AND DUP2 JUMP JUMPDEST PUSH1 0x1 PUSH1 0x20 MSTORE DUP1 PUSH1 0x0 MSTORE PUSH1 0x40 PUSH1 0x0 KECCAK256 PUSH1 0x0 SWAP2 POP SLOAD SWAP1 PUSH2 0x100 EXP SWAP1 DIV PUSH1 0xFF AND DUP2 JUMP JUMPDEST PUSH1 0x0 DUP1 SWAP1 SLOAD SWAP1 PUSH2 0x100 EXP SWAP1 DIV PUSH20 0xFFFFFFFFFFFFFFFFFFFFFFFFFFFFFFFFFFFFFFFF AND PUSH20 0xFFFFFFFFFFFFFFFFFFFFFFFFFFFFFFFFFFFFFFFF AND CALLER PUSH20 0xFFFFFFFFFFFFFFFFFFFFFFFFFFFFFFFFFFFFFFFF AND EQ ISZERO ISZERO PUSH2 0x441 JUMPI PUSH1 0x0 DUP1 REVERT JUMPDEST PUSH1 0x0 PUSH1 0x1 PUSH1 0x0 DUP4 PUSH20 0xFFFFFFFFFFFFFFFFFFFFFFFFFFFFFFFFFFFFFFFF AND PUSH20 0xFFFFFFFFFFFFFFFFFFFFFFFFFFFFFFFFFFFFFFFF AND DUP2 MSTORE PUSH1 0x20 ADD SWAP1 DUP2 MSTORE PUSH1 0x20 ADD PUSH1 0x0 KECCAK256 PUSH1 0x0 PUSH2 0x100 EXP DUP2 SLOAD DUP2 PUSH1 0xFF MUL NOT AND SWAP1 DUP4 ISZERO ISZERO MUL OR SWAP1 SSTORE POP DUP1 PUSH20 0xFFFFFFFFFFFFFFFFFFFFFFFFFFFFFFFFFFFFFFFF AND PUSH32 0xD7E9EC6E6ECD65492DCE6BF513CD6867560D49544421D0783DDF06E76C24470C PUSH1 0x40 MLOAD PUSH1 0x40 MLOAD DUP1 SWAP2 SUB SWAP1 LOG2 POP JUMP JUMPDEST PUSH1 0x0 DUP1 SWAP1 SLOAD SWAP1 PUSH2 0x100 EXP SWAP1 DIV PUSH20 0xFFFFFFFFFFFFFFFFFFFFFFFFFFFFFFFFFFFFFFFF AND PUSH20 0xFFFFFFFFFFFFFFFFFFFFFFFFFFFFFFFFFFFFFFFF AND CALLER PUSH20 0xFFFFFFFFFFFFFFFFFFFFFFFFFFFFFFFFFFFFFFFF AND EQ ISZERO ISZERO PUSH2 0x53A JUMPI PUSH1 0x0 DUP1 REVERT JUMPDEST PUSH1 0x0 PUSH20 0xFFFFFFFFFFFFFFFFFFFFFFFFFFFFFFFFFFFFFFFF AND DUP2 PUSH20 0xFFFFFFFFFFFFFFFFFFFFFFFFFFFFFFFFFFFFFFFF AND EQ ISZERO ISZERO ISZERO PUSH2 0x576 JUMPI PUSH1 0x0 DUP1 REVERT JUMPDEST DUP1 PUSH20 0xFFFFFFFFFFFFFFFFFFFFFFFFFFFFFFFFFFFFFFFF AND PUSH1 0x0 DUP1 SWAP1 SLOAD SWAP1 PUSH2 0x100 EXP SWAP1 DIV PUSH20 0xFFFFFFFFFFFFFFFFFFFFFFFFFFFFFFFFFFFFFFFF AND PUSH20 0xFFFFFFFFFFFFFFFFFFFFFFFFFFFFFFFFFFFFFFFF AND PUSH32 0x8BE0079C531659141344CD1FD0A4F28419497F9722A3DAAFE3B4186F6B6457E0 PUSH1 0x40 MLOAD PUSH1 0x40 MLOAD DUP1 SWAP2 SUB SWAP1 LOG3 DUP1 PUSH1 0x0 DUP1 PUSH2 0x100 EXP DUP2 SLOAD DUP2 PUSH20 0xFFFFFFFFFFFFFFFFFFFFFFFFFFFFFFFFFFFFFFFF MUL NOT AND SWAP1 DUP4 PUSH20 0xFFFFFFFFFFFFFFFFFFFFFFFFFFFFFFFFFFFFFFFF AND MUL OR SWAP1 SSTORE POP POP JUMP STOP LOG1 PUSH6 0x627A7A723058 KECCAK256 MLOAD MOD BALANCE 0xcb 0xd9 CALLDATASIZE MUL PUSH3 0x7C745F GASPRICE DUP3 LOG1 AND DIV BALANCE 0xd1 0xd5 0x48 DELEGATECALL MSTORE8 0x4d SWAP13 DUP9 0xcf AND INVALID SWAP6 DIFFICULTY 0x5f 0xb6 STOP 0x29 "
				},
				"gasEstimates": {
					"creation": {
						"codeDepositCost": "326400",
						"executionCost": "20604",
						"totalCost": "347004"
					},
					"external": {
						"addBlackList(address)": "21991",
						"getBlackListStatus(address)": "629",
						"isBlackListed(address)": "635",
						"owner()": "486",
						"removeBlackList(address)": "22079",
						"transferOwnership(address)": "22675"
					}
				},
				"methodIdentifiers": {
					"addBlackList(address)": "0ecb93c0",
					"getBlackListStatus(address)": "59bf1abe",
					"isBlackListed(address)": "e47d6060",
					"owner()": "8da5cb5b",
					"removeBlackList(address)": "e4997dc5",
					"transferOwnership(address)": "f2fde38b"
				}
			},
			"userdoc": {
				"methods": {}
			}
		}
	}
}